:10000000E5EF24F0FFFF0A0000C01FF001C01EF062
:1000100002C01DF003C01CF004C01BF005C01AF0A4
:1000200006C019F008C018F009C017F00AC016F091
:100030000BC015F0E1CF28F0E2CF29F0E9CF26F090
:10004000EACF27F0F3CF24F0F4CF25F0F5CF23F05B
:10005000F8CF20F0F7CF21F0F6CF22F0A1AA04D0FC
:1000600081A802D0BCEC1FF09EAA42D071EC20F017
:100070000050010A3DE176EC20F000C044F1005050
:100080007E0A05E100017D6B7E6B010E7C6F000135
:100090007C51010A2DE1950E7D25E16E010E7E2138
:1000A000E26E44C1E6FF000E7E1902E1020E7D19E8
:1000B00008E10101975196250001846F856B000EC0
:1000C00085237D4B7E2B040E8425016E000E852139
:1000D000026E800E7E19006E800E0218005C02E136
:1000E00001507D5D05E37D6B7E6B7C6B010E7B6F4C
:1000F00023C0F5FF20C0F8FF21C0F7FF22C0F6FFA4
:1001000024C0F3FF25C0F4FF1FC000F01EC001F0A3
:100110001DC002F01CC003F01BC004F01AC005F0A3
:1001200019C006F018C008F017C009F016C00AF090
:1001300015C00BF026C0E9FF27C0EAFF28C0E1FF89
:1001400029C0E2FF1100000E056E040E066E39C5CF
:1001500003F0000E046E03360436039003360436B3
:1001600003903AC500F0000E016E00360136009093
:10017000005003260150042203C001F004C002F025
:1001800001360190023601360190023601C003F0BB
:1001900002C004F004320332049E04BC048E043214
:1001A0000332049E04BC048E03C000F004C001F0BE
:1001B00000360090013600360090013605500026CA
:1001C0000650012200C005F001C006F000C0E1FFAA
:1001D00001C0E2FFE69E05013A51000A12E139C56D
:1001E00000F0000E016E0036009001363C0E002437
:1001F000E16E010E0120E26E05C0E6FF06C0E6FFDB
:1002000011D039C500F0000E016E003600900136A5
:100210007F0E0024E16E010E0120E26E05C0E6FFB4
:1002200006C0E6FF05C0E1FF06C0E2FFE69C040E43
:100230000524E16E000E0620E26EE68C1200800EB0
:1002400005013911006E00C07BF1120039C578F14B
:100250003AC579F13BC57CF13CC57DF1800E0501C5
:100260003D11006E008000C07BF1120039C578F1AD
:100270003AC579F13BC57AF13CC57CF13DC57DF1CC
:10028000800E05013E11006E00C07BF112002DD0E2
:100290000001DF87010E05012627000E27232823F2
:1002A00061D00001DF81010E05012627000E272302
:1002B000282358D00001DF83010E05012627000EF8
:1002C000272328234FD00001E087010E05012627B0
:1002D000000E2723282346D00001DF85010E0501EB
:1002E0002627000E272328233DD026C5F6FF27C545
:1002F000F7FF28C5F8FF0900F5CF01F001502D0ADE
:10030000C7E026C5F6FF27C5F7FF28C5F8FF090097
:10031000F5CF01F00150200AC4E026C5F6FF27C53D
:10032000F7FF28C5F8FF0900F5CF01F001502B0AAF
:10033000C1E026C5F6FF27C5F7FF28C5F8FF09006D
:10034000F5CF01F00150230ABEE026C5F6FF27C510
:10035000F7FF28C5F8FF0900F5CF01F00150300A7A
:10036000BBE001D094D70001DFA301D0DF91DFA76C
:1003700001D0DF9526C500F027C501F028C502F0A1
:100380001200000E0501271902E1000E261902E1F4
:10039000016A09D026C5E9FF27C5EAFFEECF00F0C4
:1003A000016A00BE012A01C000F01200086A096A51
:1003B000100E0C6E0134083609360450085E0550E4
:1003C000D8A0053C095ED8B007D0045008260550D7
:1003D000D8B0053C0926D890003601360C2EEAD755
:1003E000120005012751000A12E026C500F0000E98
:1003F000016E0036009001367F0E0024E96E010E7A
:100400000120EA6EEECF04F0EECF05F011D026C544
:1004100000F0000E016E0036009001363C0E002404
:10042000E96E010E0120EA6EEECF04F0EECF05F08A
:10043000020E0424E16E000E0520E26E28C5E6FFE0
:1004400029C5E6FF010E0424E16E000E0520E26ED0
:100450002AC5E6FF04C0E9FF05C0EAFFEECF00F0C1
:1004600004C0E1FF05C0E2FF400E0014E66E04C0C8
:10047000E9FF05C0EAFFEECF00F004C0E1FF05C0D0
:10048000E2FF880E0010E66E2751000A1BE026C529
:1004900000F0000E016E0036009001367F0E002441
:1004A000026E010E0120036E02C0E9FF03C0EAFFE5
:1004B000040EEE18006E02C0E1FF03C0E2FF00C0B0
:1004C000E6FF1AD026C500F0000E016E003600903F
:1004D00001363C0E0024026E010E0120036E02C0A4
:1004E000E9FF03C0EAFF040EEE18006E02C0E1FF50
:1004F00003C0E2FF00C0E6FF04C000F005C001F049
:1005000012000001DFA567D0DFA314D0DFA103D064
:100510002D0E006E02D02B0E006E26C5E1FF27C502
:10052000E2FF00C0E6FF0501264B272B0001E14B4F
:10053000E22B3AD0DFA10DD026C5E1FF27C5E2FFAF
:10054000200EE66E0501264B272B0001E14BE22B26
:100550002BD0C00EDF15016EE051080B026E025069
:10056000080A02E1800E01181FE126C5E1FF27C538
:10057000E2FF300EE66E0501264B272B0001E14B12
:10058000E22BDFAB03D0580E006E02D0780E006E67
:1005900026C5E1FF27C5E2FF00C0E6FF0501264BA7
:1005A000272B0001E14BE22BE351E41113E026C5B8
:1005B000E1FF27C5E2FF300EE66E0501264B272B33
:1005C0000001E14BE22B010EE35F000EE45BE3511F
:1005D000E411EDE180D0E351E41115E0DFB713D071
:1005E00026C5E1FF27C5E2FF200EE66E0501264B7A
:1005F000272B0001E14BE22B010EE35F000EE45BD1
:10060000E351E411EDE1DFA314D0DFA103D02D0EFF
:10061000006E02D02B0E006E26C5E1FF27C5E2FF5B
:1006200000C0E6FF0501264B272B0001E14BE22B22
:100630000ED0DFA10CD026C5E1FF27C5E2FF200EBA
:10064000E66E0501264B272B0001E14BE22BC00E85
:10065000DF15016EE051080B026E0250080A02E13C
:10066000400E01180DE126C5E1FF27C5E2FF300E5F
:10067000E66E0501264B272B0001E14BE22B2BD028
:10068000C00EDF15016EE051080B026E0250080A21
:1006900002E1800E01181FE126C5E1FF27C5E2FF38
:1006A000300EE66E0501264B272B0001E14BE22BB5
:1006B000DFAB03D0580E006E02D0780E006E26C558
:1006C000E1FF27C5E2FF00C0E6FF0501264B272B0F
:1006D0000001E14BE22B800E006E800E01015E19DD
:1006E000005C03E15D510001E55D0DE226C5E1FF1F
:1006F00027C5E2FF300EE66E0501264B272B0001D1
:10070000E14BE22BE8D726C500F027C501F0120027
:1007100005012651390806E3300E265D03E3010E7C
:10072000006E01D0006A1200700EE16E0F0EE26ED4
:1007300005013451E126D8B0E22A35C5E6FF35A5DA
:1007400004D034C539F53A6BFEDC35A305D034C589
:1007500039F5010E3A6FF7DC120020C401F01F0ECC
:1007600001160150010A01E08DD004012451000A54
:1007700001E088D02151060A3AE12FD001017E51D3
:10078000010A13E1CB0E0501396F550E3A6F000EC9
:100790003B6F120E3927000E3A233B23090E3C6FA4
:1007A000000E3D6F400E3E6F61DD21D001017E5194
:1007B000010A0EE1160E0501396F560E3A6F000E52
:1007C0003B6F210E3C6F000E3D6F400E3E6F4EDDC5
:1007D0000ED00501396B33DD0AD004012351210A03
:1007E000CDE02351220AE2E02351230AF2E020C4A3
:1007F00001F0600E0116050E006E005004E001329B
:10080000019EFF0FFBD70150010A01E03BD027D02A
:1008100039D038D0390E0501396F010E3A6F010E0B
:100820003B6F000E3C6F400E3D6F10DD2BD005017D
:10083000396B05DD23C439F125D005013B0E396F35
:10084000010E3A6F010E3B6F000E3C6F3D6BFEDCFC
:1008500019D00501396BF3DC22C43BF113D004013C
:100860002151010AD5E02151090AD3E02151020AA0
:10087000D1E021510A0ADBE02151030ADEE02151D7
:100880000B0AE7E012000B6A0A6A096A00500402C8
:10089000F4CF09F0F3CF08F001500502F4CF0BF0CC
:1008A000F3CF0AF000500502F3500926F4500A2253
:1008B000E86A0B2201500402F3500926F4500A2280
:1008C000E86A0B2208C000F009C001F00AC002F07B
:1008D0000BC003F0120005013551000A12E034C5C7
:1008E00000F0000E016E0036009001367F0E0024ED
:1008F000E96E010E0120EA6EEECF04F0EECF05F0B6
:1009000011D034C500F0000E016E003600900136A3
:100910003C0E0024E96E010E0120EA6EEECF04F0D9
:10092000EECF05F0020E0424E16E000E0520E26E0B
:1009300036C5E6FF37C5E6FF010E0424E16E000E62
:100940000520E26E38C5E6FF04C0E9FF05C0EAFFF6
:10095000EECF00F004C0E1FF05C0E2FF400E00143E
:10096000E66E04C0E9FF05C0EAFFEECF00F004C068
:10097000E1FF05C0E2FF880E0010E66E3551000A67
:100980001BE034C500F0000E016E00360090013609
:100990007F0E0024026E010E0120036E02C0E9FFEB
:1009A00003C0EAFF040EEE18006E02C0E1FF03C0B0
:1009B000E2FF00C0E6FF1AD034C500F0000E016E61
:1009C0000036009001363C0E0024026E010E01201C
:1009D000036E02C0E9FF03C0EAFF040EEE18006ECA
:1009E00002C0E1FF03C0E2FF00C0E6FF04C000F068
:1009F00005C001F012000101695301E0AEDE1200F2
:100A00000101695315E0010E0501346F1E0E356FAB
:100A10008BDE010E346F356B6DC136F56EC137F567
:100A2000400E386F58DF00C05AF101C05BF114D09E
:100A30000501010E346F1E0E356F76DE010E346F28
:100A4000356B6DC136F56EC137F5400E386F43DF3B
:100A500000C05AF101C05BF112000001E16BE26BD2
:100A6000DF6BE06B1CC500F01DC501F01EC502F078
:100A7000010E05011C27000E1D231E2300C0F6FFDA
:100A800001C0F7FF02C0F8FF0900F5CF00F000C079
:100A9000E5F00052D8B471EF0AF00001E551250AE3
:100AA0000DE01AC5E1FF1BC5E2FFE5C0E6FF050149
:100AB0001A4B1B2B0001E14BE22BD4D7E36BE46B09
:100AC000DF6BE06B1CC526F51DC527F51EC528F597
:100AD00047EC01F000C01CF501C01DF502C01EF579
:100AE00000C0F6FF01C0F7FF02C0F8FF0900F5CF14
:100AF00000F0000E016E00C026F50ADE005237E05D
:100B00000001E36BE46B0001E3C000F0E4C001F01E
:100B10000A0E046E000E056EB6DE1CC5F6FF1DC57E
:100B2000F7FF1EC5F8FF0900F5CF02F002500024C0
:100B3000E36F000E0120E46F300EE35F000EE45B14
:100B4000010E05011C27000E1D231E231CC5F6FFE8
:100B50001DC5F7FF1EC5F8FF0900F5CF00F0000E18
:100B6000016E00C026F5D4DD0052CDE133D01CC5A6
:100B7000F6FF1DC5F7FF1EC5F8FF0900F5CF01F010
:100B800001502A0A27E11FC5E9FF20C5EAFFEECF81
:100B900000F0EECF01F000C0E9FF01C0EAFFEECFA8
:100BA000E3F0EECFE4F01FC5E9FF20C5EAFF020E37
:100BB000EE24006E000EEE20016E1FC5E1FF20C581
:100BC000E2FF00C0E6FF01C0E6FF010E1C27000E99
:100BD0001D231E231CC5F6FF1DC5F7FF1EC5F8FF0C
:100BE0000900F5CF01F001502E0A72E10501010E56
:100BF0001C27000E1D231E231CC5F6FF1DC5F7FF75
:100C00001EC5F8FF0900F5CF01F001502A0A28E1BE
:100C10001FC5E9FF20C5EAFFEECF00F0EECF01F0DF
:100C200000C0E9FF01C0EAFFEECF5DF1EECF5EF15B
:100C30001FC5E9FF20C5EAFF020EEE24006E000E7C
:100C4000EE20016E1FC5E1FF20C5E2FF00C0E6FFF8
:100C500001C0E6FF010E1C27000E1D231E2337D006
:100C600001015D6B5E6B1CC5F6FF1DC5F7FF1EC560
:100C7000F8FF0900F5CF00F0000E016E00C026F568
:100C800047DD005224E05DC100F05EC101F00A0EB4
:100C9000046E000E056EF7DD1CC5F6FF1DC5F7FFDF
:100CA0001EC5F8FF0900F5CF02F002500024010133
:100CB0005D6F000E01205E6F300E5D5F000E5E5BAB
:100CC000010E05011C27000E1D231E23CCD703D0C7
:100CD00001015D6B5E6B1CC500F01DC501F01EC5FA
:100CE00002F0010E05011C27000E1D231E2300C06B
:100CF000F6FF01C0F7FF02C0F8FF0900F5CFE5F0ED
:100D000007D1E1C000F0E2C001F0EFD30001DF8DB8
:100D10002FD12ED1DF8BDF8F2BD11FC5E9FF20C54F
:100D2000EAFFEECF00F0EECF01F000C0E9FF01C016
:100D3000EAFFEECF21F5EECF22F51FC5E9FF20C572
:100D4000EAFF020EEE24006E000EEE20016E1FC5BB
:100D5000E1FF20C5E2FF00C0E6FF01C0E6FF000E94
:100D60000501221902E1000E211904E17F0E216F15
:100D7000000E226F236B246B23512125E96E245131
:100D80002221EA6EEE520BE0010E2325006E000ECA
:100D90002421016E00C023F501C024F5EDD7010127
:100DA0005D515E110EE00501245101015E5D04E11B
:100DB0000501235101015D5D04E25DC123F55EC1C2
:100DC00024F50001E4510501245D04E10001E35133
:100DD0000501235D08E223510001E35F0501245171
:100DE0000001E45B03D00001E36BE46BDFB718D0D4
:100DF000E3C000F0E4C001F0010EE35F000EE45B2D
:100E0000005001100DE01AC5E1FF1BC5E2FF200EE6
:100E1000E66E05011A4B1B2B0001E14BE22BE8D7D4
:100E200023C502F024C503F0010E0501235D006E09
:100E3000000E2459016E00C023F501C024F50250B4
:100E400003101AE021C5E9FF22C5EAFF1AC5E1FF38
:100E50001BC5E2FFEECFE6FF1A4B1B2B010E21252F
:100E6000006E000E2221016E00C021F501C022F5A6
:100E70000001E14BE22BD4D70001DFA718D0E3C07B
:100E800000F0E4C001F0010EE35F000EE45B0050EF
:100E900001100DE01AC5E1FF1BC5E2FF200EE66E52
:100EA00005011A4B1B2B0001E14BE22BE8D7DAD5E9
:100EB0001FC5E9FF20C5EAFFEECF00F0EECF01F03D
:100EC00000C0E9FF01C0EAFFEECFE5F01FC5E9FF72
:100ED00020C5EAFF020EEE24006E000EEE20016E29
:100EE0001FC5E1FF20C5E2FF00C0E6FF01C0E6FF2D
:100EF000E50E0501216F000E226F010E236F000E1B
:100F0000246F4DD7C00E0001DF13000EE01330D068
:100F10000001E551000AD8B4F4D6E5516C0AD8B402
:100F2000F5D6E5514C0AD8B4F1D6E5516F0AD8B4DC
:100F3000EDD6E551640AD8B4ECD6E551690AD8B4C7
:100F4000E8D6E551700AD8B4E5D6E551580AD8B4C8
:100F5000E1D6E551780AD8B4DED6E551730AD8B4A3
:100F6000DCD6E551630AA4E0E551750ACBE0C0D7B1
:100F7000C00EDF15016EE0C002F0000E0216000E7A
:100F8000021802E1000E01183EE11FC5E9FF20C56D
:100F9000EAFFEECF00F0EECF01F000C0E9FF01C0A4
:100FA000EAFFEECF21F5EECF22F51FC5E9FF20C500
:100FB000EAFF020EEE24006E000EEE20016E1FC549
:100FC000E1FF20C5E2FF00C0E6FF01C0E6FF800EA2
:100FD00005012219006E800E005C02E1000E215D09
:100FE00011E2030E0001DF13000EE0130501215191
:100FF0000008006E22C501F0000E015600C021F568
:1010000001C022F522D01FC5E9FF20C5EAFFEECFBF
:1010100000F0EECF01F000C0E9FF01C0EAFFEECF23
:1010200021F5EECF22F51FC5E9FF20C5EAFF020E2C
:10103000EE24006E000EEE20016E1FC5E1FF20C5FC
:10104000E2FF00C0E6FF01C0E6FF000E01015E19ED
:1010500002E1000E5D190AE1000E0501221902E10C
:10106000000E211903E101015D4B5E2BC00E000152
:10107000DF15006E00C005F084D00001010EE56FA1
:10108000E551050A25E0E5C000F0000E016E026E94
:10109000036E003600900136023603360D0E002432
:1010A000F66E570E0120F76E000E0220F86E090052
:1010B000F5CF01F00900F5CF02F002500501225DE5
:1010C00002E10150215D01E203D00001E52BD8D7F8
:1010D00066D00001010EE56FE551040A25E0E5C088
:1010E00000F0000E016E026E036E003600900136B5
:1010F000023603362B0E0024F66E570E0120F76ED3
:10110000000E0220F86E0900F5CF01F00900F5CFBE
:1011100002F002500501225D02E10150215D01E271
:1011200003D00001E52BD8D73AD00001010EE56FBE
:10113000E551060A25E0E5C000F0000E016E026EE2
:10114000036E00360090013602360336E10E0024AD
:10115000F66E560E0120F76E000E0220F86E0900A2
:10116000F5CF01F00900F5CF02F002500501225D34
:1011700002E10150215D01E203D00001E52BD8D747
:101180000ED00550000AD8B478D70550C00AD8B49C
:1011900074D70550800A9DE00550400AC6E0800ED5
:1011A000006E800E01015E19005C03E15D510001DB
:1011B000E55D03E25DC1E5F010D0800E01015E192E
:1011C000006E800E005C04E10001E55101015D5DEF
:1011D00004E2E5C05DF1000E5E6F0001E351E41131
:1011E0000EE0030EDF15006EE0C001F0000E0116E8
:1011F0000050011004E0010EE35F000EE45B800E7E
:1012000001015E19006E800E0001E419005C03E12B
:10121000E35101015D5D09E201015D510001E35F00
:1012200001015E510001E45B03D00001E36BE46B5C
:10123000C40EDF15016EE051080B026E0250080A61
:1012400002E1400E011808E1E351E41104E0010E4F
:10125000E35F000EE45B1CD0C00EDF15016EE051B1
:10126000080B026E0250080A02E1800E011810E11C
:10127000800E006E800EE419005C02E1E35102086A
:1012800005E2020EE35F000EE45B02D0E36BE46B69
:101290001AC526F51BC527F581EC02F000C01AF52A
:1012A00001C01BF55DC100F05EC101F0010E01013E
:1012B0005D5F000E5E5B00500110D8B4F1D0C00E2F
:1012C0000001DF15006E00C025F5CDD05DC100F036
:1012D0005EC101F0000E01015EBFFF0E026E036EE3
:1012E000003600900136023603360D0E0024F66EED
:1012F000570E0120F76E000E0220F86E0900F5CFA0
:1013000004F00900F5CF05F021C500F022C501F079
:10131000D6EC01F00A0E046E000E056ED6EC01F05C
:1013200008C000F009C001F0300E00240001E56F94
:10133000AAD00001DFAB36D05DC100F05EC101F084
:10134000000E01015EBFFF0E026E036E00360090BC
:101350000136023603362B0E0024F66E570E01209E
:10136000F76E000E0220F86E0900F5CF04F00900B8
:10137000F5CF05F021C500F022C501F0D6EC01F053
:101380000F0E0016000E0116C00E0024F66E560E4B
:101390000120F76E000EF86E000EF8220900F5CF5E
:1013A000E5F035D001015DC100F05EC101F0000E35
:1013B0005EBFFF0E026E036E0036009001360236ED
:1013C00003362B0E0024F66E570E0120F76E000E2A
:1013D0000220F86E0900F5CF04F00900F5CF05F002
:1013E00021C500F022C501F0D6EC01F00F0E001669
:1013F000000E0116AF0E0024F66E560E0120F76E99
:10140000000EF86E000EF8220900F5CFE5F03BD093
:1014100001015DC100F05EC101F0000E5EBFFF0E74
:10142000026E036E00360090013602360336E10E7E
:101430000024F66E560E0120F76E000E0220F86EA4
:101440000900F5CF04F00900F5CF05F021C500F043
:1014500022C501F0D6EC01F0070E00140001E56F83
:10146000300EE52710D005012551000AD8B42ED73B
:101470002551C00AD8B42AD72551800AD8B459D7E3
:101480002551400AC5E005011AC5E1FF1BC5E2FF71
:10149000E5C0E6FF1A4B1B2B0001E14BE22B02D704
:1014A0000001DFA71CD0800E006E800EE419005CE6
:1014B00002E1E351000813E21AC5E1FF1BC5E2FF98
:1014C000200EE66E05011A4B1B2B0001E14BE22BAF
:1014D000010EE35F000EE45BE351E411EDE132EF56
:1014E00005F0E1C000F0E2C001F01200200E0101A1
:1014F0005C5D03E36DB201D002D0006A39D067C1F0
:1015000026F568C127F5C1EC01F0005230E11DC598
:1015100026F5010E276F1AC528F51BC529F51CC530
:101520002AF5F1EC01F000C067F101C068F101019A
:10153000406B416B426B436B67C126F568C127F571
:10154000C1EC01F0005209E001014051411142118A
:10155000431102E0006A0CD0EFD70101010E6725AC
:10156000E96E000E6821EA6EEECF00F001D0006A4D
:101570001200100E0501186F050E196F0BC51AF534
:101580000CC51BF50DC51CF50EC51DF50FC51EF5CB
:10159000180E1F6F050E206F2DEC05F000C016F51C
:1015A00001C017F5005005010B25E16E01500C211B
:1015B000E26EE66A16C500F017C501F012000ED003
:1015C00000EC05F03DD03CD0FBEC04F039D038D035
:1015D00037D036D035D0000033D032D0000E0501E0
:1015E0002F1902E1010E2E19EBE0000E2F1902E176
:1015F000020E2E19E8E0000E2F1902E1030E2E193B
:10160000E3E02F51000A02E1730E2E19E0E02F51A2
:10161000000A02E1750E2E19DBE02F51000A02E1EB
:10162000740E2E19D6E02F513F0A02E1FF0E2E193B
:10163000D1E02F51000A02E1720E2E19CCE0CDD775
:10164000010E006E12002EC502F02FC503F031C549
:1016500000F032C501F0010E0501315F000E325B72
:101660000050011009E002C0E1FF03C0E2FF30C5F5
:10167000E6FF024A032AEBD712000BC51AF50CC588
:101680001BF50DC51CF5010E05011D6F2FDF1200A6
:10169000ACB202D00000FCD70BC5ADFF12000401B4
:1016A0002251010A13E120C401F01F0E011601505E
:1016B000000A0CE101017B8F04012151030A04E1BE
:1016C000010E01013A6F02D001013A6B040122516F
:1016D000000AD8A48DD020C401F01F0E01160150BD
:1016E000020AD8A485D024C401F00F0E01160150BF
:1016F000000AD8B47DD001017B8F040124BF16D02D
:1017000024C403F00F0E031603C000F0000E016E98
:101710000036009001363C0E0024E96E010E0120D7
:10172000EA6EEECF04F0EECF05F015D024C403F03E
:101730000F0E031603C000F0000E016E003600907D
:1017400001367F0E0024E96E010E0120EA6EEECF15
:1017500004F0EECF05F02151030A07E104C0E1FFD8
:1017600005C0E2FF840EE66E43D024C400F00F0EE5
:101770000016700E026E0F0E036E00500226D8B0D7
:10178000032A02C0E9FF03C0EAFFFE0EEE14006E5A
:10179000EECF01F0FF0E011602C0E1FF03C0E2FF31
:1017A00000C0E6FF01C0E6FF24AF11D004C0E1FF96
:1017B00005C0E2FFE66A040E0418006E00C004F0E3
:1017C00004C0E1FF05C0E2FF400EE66E11D004C088
:1017D000E1FF05C0E2FF880EE66E040E0418006EFD
:1017E00000C004F004C0E1FF05C0E2FFC80EE66ED1
:1017F000120004012051800AD8A47AD0C00E010141
:101800007B6F6BD00101790E006E560E016E000EDB
:10181000026E00C078F101C079F102C07AF1120EB7
:101820007C6F000E7D6F64D00101030E006E000E10
:10183000016E22C404F0000E056E43EC04F0F90EB4
:101840000024E96E010E0120EA6EEECF78F1EECFB2
:1018500079F1EECF7AF1020E7825F66E000E79213D
:10186000F76E000E7A21F86E0900F5CF00F009003E
:10187000F5CF01F000C07CF101C07DF139D0040149
:10188000225101016A5D24E3030E006E000E016E19
:1018900022C404F0000E056E43EC04F08C0E00240C
:1018A000E96E030E0120EA6EEECF78F1EECF79F10A
:1018B000EECF7AF178C1F6FF79C1F7FF7AC1F8FF70
:1018C0000900F5CF00F000C07CF1000E7D6F01D063
:1018D0007B6B0ED001017B6B0BD004012351010AFD
:1018E00091E02351020AA0E02351030AC8E0F2D795
:1018F0001200000E01017D5D02E1080E7C5D10E228
:101900007CC103F07DC104F05151000A03E1010ED6
:10191000516F05D05151010A02E1020E516F04D0FE
:10192000080E036E000E046E7FC1E1FF80C1E2FF6E
:10193000E6927FC1E1FF80C1E2FFE6907FC1E9FF4F
:1019400080C1EAFFEECF00F07FC1E1FF80C1E2FF7E
:1019500004500010E66E010E7F25E16E000E80211E
:10196000E26E03C0E6FF03507C5D006E04507D59BB
:10197000016E00C07CF101C07DF1280E486F040E9D
:10198000496F7BB12FD0035004102BE078C1F6FFD4
:1019900079C1F7FF7AC1F8FF0900F5CF00F048C11F
:1019A000E1FF49C1E2FF00C0E6FF484B492B010EB1
:1019B0007825006E000E7921016E000E7A21026EEC
:1019C00000C078F101C079F102C07AF1010E035C28
:1019D000006E000E0458016E00C003F001C004F058
:1019E000D2D724D00350041021E078C1E9FF79C197
:1019F000EAFF48C1E1FF49C1E2FFEECFE6FF484BF5
:101A0000492B010E7825006E000E7921016E00C071
:101A100078F101C079F1010E035C006E000E0458EC
:101A2000016E00C003F001C004F0DCD71200040115
:101A3000286B296B4AD001017B8F040128810101A9
:101A40003A51010A02E10401288354D001017B8F3D
:101A500051D001017B8F040124BF16D024C403F0B0
:101A60000F0E031603C000F0000E016E003600904A
:101A700001363C0E0024E96E010E0120EA6EEECF25
:101A800004F0EECF05F015D024C403F00F0E0316BA
:101A900003C000F0000E016E0036009001367F0E8C
:101AA0000024E96E010E0120EA6EEECF04F0EECFC5
:101AB00005F004C0E9FF05C0EAFFEECF01F001A484
:101AC00003D00401010E286F15D020C401F01F0EB1
:101AD00001160150000AAFE020C401F01F0E0116EC
:101AE0000150010AB3E020C401F01F0E011601509D
:101AF000020AAFE001017BAF07D0280E786F040E19
:101B0000796F7B81020E7C6F1200CDC4E9FFCEC4D9
:101B1000EAFFEE500401CF1905E1CDC400F0CEC4B8
:101B200001F010D0CDC400F0CEC401F0CD4BCE2BCF
:101B300000C0E9FF01C0EAFFEECF00F00052E5E18E
:101B4000006A016A12000501086B096B0E0E0401A0
:101B5000D125D46F000ED221D56F05010A6B7E0E00
:101B60000401D66FD76BD4C4D8F4100ED96F010E10
:101B7000DA6F000ECE1902E1000ECD1909E1DB6B20
:101B8000DC6BDD6BDE6BDF6BE06BE16BE26B3ED041
:101B9000CDC4E9FFCEC4EAFFEECFDBF4010ECD25C4
:101BA000E96E000ECE21EA6EEECFDCF4020ECD25FA
:101BB000E96E000ECE21EA6EEECFDDF4030ECD25E8
:101BC000E96E000ECE21EA6EEECFDEF4040ECD25D6
:101BD000E96E000ECE21EA6EEECFDFF4050ECD25C4
:101BE000E96E000ECE21EA6EEECFE0F4060ECD25B2
:101BF000E96E000ECE21EA6EEECFE1F4070ECD25A0
:101C0000E96E000ECE21EA6EEECFE2F4FF0EE36F36
:101C1000FE0EE46FE56B010EE66F110E0501086F15
:101C2000000E096F110E0401D125016E000ED221A4
:101C3000026E800E05010919006E800E0218005C0C
:101C400002E10150085D19E2D60E0825E16E040E8E
:101C50000921E26E110E085D006E000E0959016E39
:101C600000500401CF25E96E0150D021EA6EEECF7D
:101C7000E6FF0501084B092BD5D7030E086F000EB0
:101C8000096F030E0401D425016E000ED521026EEA
:101C9000800E05010919006E800E0218005C02E139
:101CA0000150085D0BE2D60E0825D96E040E0921FD
:101CB000DA6EDE500A27084B092BE3D70A51FF08DA
:101CC000006E00C00AF5D60E0825E16E040E09214B
:101CD000E26E00C0E6FF000E0001C61902E1010E2F
:101CE000C51919E181A817D0400E05010B6F060E2A
:101CF0000C6F210E0D6F570E0E6F000E0F6F39DC3B
:101D00000501400E0B6F060E0C6F400E0D6FB5DC1B
:101D1000005201E1F5D70501086B096B040E0401BF
:101D2000D425016E000ED521026E800E0501091921
:101D3000006E800E0218005C02E10150085D36E280
:101D4000D60E0825E96E040E0921EA6EEECF0BF5DA
:101D50009FDC000E0001C61902E1010EC51922E147
:101D600081A820D0400E05010B6F060E0C6F530E9C
:101D70000D6F570E0E6F000E0F6FD60E0825E96E11
:101D8000040E0921EA6EEECF10F5B9EC0AF0050158
:101D9000400E0B6F060E0C6F400E0D6F6EDC005286
:101DA00001E1F5D70501084B092BB8D7000E00015A
:101DB000C61902E1010EC5191AE181A818D0400E1A
:101DC00005010B6F060E0C6F060E0D6F000E0E6FE9
:101DD000000E0F6FB9EC0AF00501400E0B6F060EF6
:101DE0000C6F400E0D6F49DC005201E1F5D7120077
:101DF00001017B8F710E05012E6F0F0E2F6F306B5F
:101E0000010E316F000E326F1EDC4C0E2E6F010E74
:101E10002F6F306B010E316F000E326F14DC22C455
:101E20007EF101017E51000A03E1100E5C6F11D0BA
:101E3000200E5C6F010E05012E6F000E2F6F7E0EBF
:101E4000306F010E316F010E326F000E336FDFEC19
:101E50000AF012000401CA6BCB6BC6C4E9FFC7C409
:101E6000EAFFEE5216E0C8C4CDF4C9C4CEF4C6C42D
:101E7000E9FFC7C4EAFFEECFCFF447DE000E01183A
:101E800002E1000E001805E0C64BC72BCA4BCB2B56
:101E9000E4D7CAC400F0CBC401F012000401CB6B3C
:101EA000CC6BCB6BCC6B800ECC19006E800E005CC3
:101EB00002E1020ECB5D61E2030E026ECBC400F0C4
:101EC000CCC401F0025005E0003600900136FF0F4F
:101ED000FAD7850E0024E96E010E0120EA6EEECFDE
:101EE00001F0EECF02F0000E021802E1010E01181F
:101EF00040E1030E026ECBC400F0CCC401F00250EE
:101F000005E0003600900136FF0FFAD7850E002657
:101F1000010E0122020E0024E96E000E0120EA6E7D
:101F2000EE50010A26E1030E026ECBC400F0CCC4D1
:101F300001F0025005E0003600900136FF0FFAD79D
:101F4000850E0026010E0122040E0024E96E000E0B
:101F50000120EA6EEECFCDF4EECFCEF4C6C4CFF4BE
:101F6000C7C4D0F4C8C4D1F4C9C4D2F4CAC4D3F429
:101F7000EADD0401CB4BCC2B96D71200C6C402F08D
:101F8000C7C403F002C000F003C001F0024A032AF4
:101F900000C0E9FF01C0EAFFEE5201E0F3D70401FF
:101FA000C651025C006EC7510358016E010E005EFF
:101FB000000E015A12000401CA6BC6C4E9FFC7C46F
:101FC000EAFFEE5215E0C8C4CDF4C9C4CEF4C6C4CD
:101FD000E9FFC7C4EAFFEECFCFF497DD000E01188A
:101FE00002E1000E001804E1C64BC72BCA2BE5D74F
:101FF000CAC400F01200010E01014525E96E000E71
:102000004621EA6EEECF00F000C002F0000E735DD4
:1020100002E10250725D03E272C102F00AD0025086
:10202000725D006E000E7359016E00C072F101C046
:1020300073F1036A0250035C1CE2280EE96E040E81
:10204000EA6E0350E926D8B0EA2AEECF00F06FC15D
:10205000E1FF70C1E2FF00C0E6FF010E6F25006ED8
:10206000000E7021016E00C06FF101C070F1032AF3
:10207000E1D7000E006E7351005C02E1725100085E
:1020800028E2010E4E25E16E000E4F21E26E080E91
:10209000E66E020E4E25E16E000E4F21E26E280E16
:1020A000E66E040EE66E45C1E9FF46C1EAFFEECFDB
:1020B00000F000BC07D04EC1E1FF4FC1E2FFC80EE7
:1020C000E66E06D04EC1E1FF4FC1E2FF880EE66E1C
:1020D00019D0010E4E25E16E000E4F21E26E080E62
:1020E000E66E020E4E25E16E000E4F21E26E200ECE
:1020F000E66E040EE66E4EC1E1FF4FC1E2FF840EB4
:10210000E66E719F120001014D6B7FC1E1FF80C13E
:10211000E2FFE66A040E7F19E16E80C1E2FF000E65
:10212000E21AE66A71AF01D0719F120020C401F07B
:10213000600E0116050E006E005004E00132019E93
:10214000FF0FFBD70150000A01E06BD047D001011F
:102150007B8F080E5C6F65D0F9EC0BF062D048DE27
:1021600060D07E0E0101786F010E796F7B81010EC8
:102170007C6F7B8F56D05BDC54D04FEC0BF051D092
:102180004C0E006E010E016E040124510026D8B0E1
:10219000012A00C078F101C079F101017B81010EB3
:1021A0007C6F7B8F3ED001017B8F4C0EE16E010E68
:1021B000E26E04012451E126D8B0E22A22C4E6FFEF
:1021C00030D0020E05012E6F000E2F6F306B316B79
:1021D000326B336BDFEC0AF024D023D004012151A1
:1021E000050AB5E02151060AB7E02151090AB7E016
:1021F0002151080AB6E02151000ABDE02151010A2F
:10220000BCE02151030AB9E021510A0AB9E0215189
:102210000B0AC9E02151070AD4E021510C0ADDE084
:10222000DCD712006D9801017BBF49D071AF28D077
:10223000020E4D6F010E7F25E16E000E8021E26ED1
:10224000E66A7FC1E1FF80C1E2FFC80EE66E010EC3
:102250004E25E16E000E4F21E26E080EE66E020E74
:102260004E25E16E000E4F21E26E280EE66E040E42
:10227000E66E4EC1E1FF4FC1E2FFC80EE66E1ED012
:10228000010E4E25E16E000E4F21E26E080EE66E45
:10229000020E4E25E16E000E4F21E26E200EE66E1C
:1022A000040EE66E4EC1E1FF4FC1E2FF8C0EE66EFA
:1022B0007FC1E1FF80C1E2FF840EE66E83D071BF73
:1022C00081D0040120AF56D001017D510401275D6A
:1022D00004E101017C510401265D04E226C47CF185
:1022E00027C47DF179EC0CF0010E4D6F010E4E25E7
:1022F000E16E000E4F21E26E080EE66E020E4E25D4
:10230000E16E000E4F21E26E200EE66E040EE66EC8
:102310004EC1E1FF4FC1E2FF800EE66E506B010E31
:102320004525E16E000E4621E26E080EE66E020EB5
:102330004525E16E000E4621E26E200EE66E040E8B
:10234000E66E45C1E1FF46C1E2FF840EE66E010E76
:10235000506F020E7F25E16E000E8021E26E280E86
:10236000E66E040EE66E7FC1E1FF80C1E2FFC80E9B
:10237000E66E28D00101020E4D6F010E7F25E16E41
:10238000000E8021E26EE66A7FC1E1FF80C1E2FFBC
:10239000C80EE66E010E4E25E16E000E4F21E26E74
:1023A000080EE66E020E4E25E16E000E4F21E26E23
:1023B000280EE66E040EE66E4EC1E1FF4FC1E2FF4D
:1023C000C80EE66E1200B8C4BBF4B9C4BCF4BBC4FA
:1023D000CDF4BCC4CEF4BAC4CFF485EC0DF000C08B
:1023E000BBF401C0BCF4000E011802E1000E00189D
:1023F00008E0BBC4E1FFBCC4E2FFE66ABB4BBC2BF8
:10240000E6D7B8C400F0B9C401F01200D08EA28A99
:10241000A08AF28E12000401B8515A0806E3410E58
:10242000B85D03E3010E006E01D0006A12000401E2
:10243000C46BC56B800EC519006E800E005C02E196
:10244000040EC45DD8B077D0BA0E05010B6F040E30
:102450000C6F420E0D6F570E0E6F000E0F6F0C0EAD
:10246000006E000E016EC4C404F0C5C405F043EC58
:1024700004F0980E0026030E0122060E0024106FB1
:10248000000E0120116F00C0E9FF01C0EAFFEECF8E
:1024900000F000C002F0010E006E000E016E02504E
:1024A00005E0003600900136FF0FFAD78150001684
:1024B000000E0116000E011802E1000E00180501C1
:1024C000000ED8A4010E126F1253010ED8A4000EF4
:1024D000126FB9EC0AF0000E0401B91902E1000E06
:1024E000B81915E1BA0EC66F040EC76F47DD00C0FC
:1024F000D1F401C0D2F4B8C4CDF4B9C4CEF4BA0E4C
:10250000CF6F040ED06FD36BA3EC0DF010D0BA0ECA
:102510000401C66F040EC76F31DD00C0C8F401C0EE
:10252000C9F4BA0EC66F040EC76FCA6BB7DC0401DC
:10253000C44BC52B7FD712000401B851200A09E013
:10254000B8510D0804E3090EB85D01E302D0006A3A
:1025500002D0010E006E120001014D51020A02E18B
:102560004ADD1ED0D0DD5051000A19E1010E4E2582
:10257000E16E000E4F21E26E080EE66E020E4E2551
:10258000E16E000E4F21E26E200EE66E040EE66E46
:102590004EC1E1FF4FC1E2FF8C0EE66E01D0506BE1
:1025A00012007FC1E9FF80C1EAFFEECF00F000AE6C
:1025B00005D07FC1E1FF80C1E2FFE66A0101516BF6
:1025C0004D6B7C6B7D6B7B6BB1DD030E05012E6F5C
:1025D000000E2F6F306B316B326B336BDFEC0AF018
:1025E00021DE1200000E0401B91902E1000EB81933
:1025F00004E14AC1B8F44BC1B9F4B8C4E9FFB9C4A5
:10260000EAFFEECF00F0005203E1006A016A4AD00F
:10261000B8C4C6F4B9C4C7F4BAC4C8F4BBC4C9F4D6
:1026200019DCB8510026B951012200C0B8F401C02C
:10263000B9F400C0E9FF01C0EAFFEECF00F000529C
:1026400008E101014A6B4B6B000E006E000E016E3B
:1026500029D0B8C4C6F4B9C4C7F4BAC4C8F4BBC45A
:10266000C9F4A9DC000E016EB8510026B95101224F
:1026700000C04AF101C04BF100C0E9FF01C0EAFF10
:10268000EE5209E04AC1E1FF4BC1E2FFE66A0101F7
:102690004A4B4B2B03D001014A6B4B6BB8C400F083
:1026A000B9C401F012007FC1E9FF80C1EAFFEECF9B
:1026B00000F0000E00BC010E05012D6F040E01019B
:1026C0007F19006E00C07FF15C51080A0AE122C444
:1026D0006EFF6E50000803E2100E5C6F02D0040E15
:1026E0005C6F4D51010A28E1020E7F25E16E000E5C
:1026F0008021E26E280EE66E040EE66E79EC0CF098
:102700005151020A07E17FC1E1FF80C1E2FF840E5F
:10271000E66E11D005012D51000A07E17FC1E1FFEE
:1027200080C1E2FFC80EE66E06D07FC1E1FF80C126
:10273000E2FF880EE66E01D0E6DC1200B8C402F0BB
:10274000B9C403F0BBC400F0BCC401F0010E040125
:10275000BB5F000EBC5B0050011009E002C0E1FF4E
:1027600003C0E2FFBAC4E6FF024A032AEBD7120015
:10277000BCC400F00401BC07005228E0B8C4E9FF63
:10278000B9C4EAFFEE50000A0CE0B8C4E9FFB9C4CE
:10279000EAFFBAC4D9FFBBC4DAFFEE50DE1801E18C
:1027A0000FD0B8C4E9FFB9C4EAFFBAC4D9FFBBC4AB
:1027B000DAFFDE50EE5C006E016A000E015A08D0AE
:1027C0000401B84BB92BBA4BBB2BD2D7006A016AB4
:1027D00012000401B8515A0804E3410EB85DD8B0A4
:1027E000B88BB8C400F01200CB0E0101F96F550E82
:1027F000FA6F000EFB6F4F0E03018C6F570E8D6F3B
:10280000000E8E6F330E8F6F570E906F000E916F0C
:10281000F40E926F550E936F000E946F030E956F2A
:10282000570E966F000E976F12000401BB6BBC6BC6
:10283000BD6B020EB825F66E000EB921F76E000EC4
:10284000BA21F86E0900F5CF05F0030EB825F66E33
:10285000000EB921F76E000EBA21F86E0900F5CF0F
:1028600000F000C003F0000E046E03C001F0006A27
:1028700005500024066E000E0120076EB8C408F053
:10288000B9C409F0BAC40AF0010E0824F66E000EAD
:102890000920F76E000E0A20F86E0900F5CF01F04E
:1028A0000150020A1BE1060E0824F66E000E0920F4
:1028B000F76E000E0A20F86E0900F5CF01F0015006
:1028C000BB5D0CE2060E0824F66E000E0920F76EC2
:1028D000000E0A20F86E0900F5CFBBF4010E0824A3
:1028E000F66E000E0920F76E000E0A20F86E090041
:1028F000F5CF01F00150040A1BE1080E0824F66E22
:10290000000E0920F76E000E0A20F86E0900F5CFC0
:1029100001F00150BB5D0CE2080E0824F66E000EBB
:102920000920F76E000E0A20F86E0900F5CFBBF4FF
:1029300008C0F6FF09C0F7FF0AC0F8FF0900F5CF8D
:1029400000F00050BC25016E000EBD21026E01C0DA
:10295000BCF402C0BDF40750025C02E10650015C09
:1029600001E30FD008C0F6FF09C0F7FF0AC0F8FF67
:102970000900F5CF00F000500826000E09220A22B7
:1029800083D7BBC400F01200B8C4E9FFB9C4EAFFA2
:10299000EE5211E0B8C4E9FFB9C4EAFFBAC4D9FFE6
:1029A000BBC4DAFFEE50DE1806E10401B84BB92BC8
:1029B000BA4BBB2BE9D7B8C4E9FFB9C4EAFFBAC424
:1029C000D9FFBBC4DAFFDE50EE5C006E016A000E78
:1029D000015A1200000E0401B91902E1000EB819E3
:1029E00002E1006A2ED0000EBD1902E1000EBC19F2
:1029F00002E1006A26D0B951BD1902E1BC51B819F3
:102A000002E1006A1ED0BA51B825016EBB51B9214E
:102A1000026E0250BD1902E1BC51011803E1010E22
:102A2000006E0FD0BE51BC25016EBF51BD21026E9C
:102A30000250B91902E1B851011803E1020E006E0B
:102A400000D012000401B851660806E3610EB85DBB
:102A500003E3010E006E01D0006A00C0B9F4B85162
:102A6000460806E3410EB85D03E3010E006E01D097
:102A7000006A0050B913B8C426F588EC03F00401CD
:102A8000B951001200C0B9F41200790E006E560E52
:102A9000016E000E026E0E0E0024F66E000E012076
:102AA000F76E000E0220F86E0900F5CF03F003C0A8
:102AB00004F00F0E0024F66E000E0120F76E000EDB
:102AC0000220F86E0900F5CF01F00150035C12E21C
:102AD000790E006E560E016E000E026E0F0E00246F
:102AE000F66E000E0120F76E000E0220F86E09004F
:102AF000F5CF04F0790E006E560E016E000E026ED8
:102B0000100E0024F66E000E0120F76E000E02205B
:102B1000F86E0900F5CF01F00150045C12E2790E65
:102B2000006E560E016E000E026E100E0024F66E40
:102B3000000E0120F76E000E0220F86E0900F5CF9E
:102B400004F004C000F01200160E6F6E9F0E6B6E44
:102B50007B0E696E120070A019D045C1E9FF46C115
:102B6000EAFFEECF01F00150800A0FE17FC1E9FFDB
:102B700080C1EAFFEECF01F00150840A06E145C1B1
:102B8000E1FF46C1E2FF8C0EE66E7090DF0E681624
:102B90001200A19A1200740E05012E6F000E2F6F05
:102BA000306B316B326B336BDFEC0AF06D926994F2
:102BB00068A403D0FB0E6816FBD712006984EF0EE1
:102BC00068166D82750E05012E6F000E2F6F306B2B
:102BD000316B326B336BDFEC0AF01200FD0E01013A
:102BE0004715016E026AFF0E0216000E021802E17E
:102BF000000E01186CE17E0E4715016E01C003F056
:102C00000332039E03C000F0000E016E00360090F8
:102C10000136003600900136000E0024026E040ECC
:102C20000120036E02C045F103C046F102C04EF11F
:102C300003C04FF1040E4E19006E00C04EF102C0E9
:102C4000E9FF03C0EAFFEECF00F000C001F03C0E48
:102C500001160132019E0132019E01500D0A35E13B
:102C6000020E4525E96E000E4621EA6EEECF01F018
:102C7000EECF02F00250040A02E1280E011823E10F
:102C8000020E4525E16E000E4621E26E200EE66E34
:102C9000040EE66E05012C6B080E2C5D14E2200E6E
:102CA000E16E040EE26E2C51E126D8B0E22A280E25
:102CB000E96E040EEA6E2C51E926D8B0EA2AEECF6E
:102CC000E6FF2C2BE9D76DDC01D046DC0DD0FD0EE4
:102CD0004715016E026AFF0E0216000E021802E18D
:102CE000040E011801E1DFDC1200CFDE00C09AF40F
:102CF000CB0E0401B86F550EB96F000EBA6F95DD9B
:102D000000C09BF49A51005C03E29AC400F002D028
:102D10009BC400F0120068DD01015A6B5B6B676BAE
:102D2000686B6A6A686A10DF6D8C6E6A710E0401E6
:102D3000B86F0F0EB96FBA6B010EBB6F000EBC6F90
:102D4000FDDC6D9C9A6B080E9A5D16E29AC400F049
:102D5000000E016E003600900136003600900136FC
:102D6000000E0024E16E040E0120E26EE66AE66ABF
:102D7000E66AE66A9A2BE7D7160E706E68A603D04D
:102D8000F70E6816FBD701017B6B716B726B736B6F
:102D90006D98080E7F6F040E806F7E6B5C6B120067
:102DA00004019A6B9B6B130E9B5DD8B029D19A538B
:102DB000D8A426D19B51010F9C6F800E006E800E0F
:102DC000000A005C02E1140E9C5DD8B017D19A5342
:102DD000D8A414D19BC400F0000E016E0036009000
:102DE0000136003600900136E60E0026000E012264
:102DF00000C0E9FF01C0EAFFEECFB8F4EECFB9F4AE
:102E0000020E0024E96E000E0120EA6EEECFBAF445
:102E1000EECFBBF49CC400F0000E016E00360090B3
:102E20000136003600900136E60E0026000E012223
:102E300000C0E9FF01C0EAFFEECFBCF4EECFBDF465
:102E4000020E0024E96E000E0120EA6EEECFBEF401
:102E5000EECFBFF4BFDD00C09DF40050010A65E174
:102E60009BC400F0000E016E003600900136003663
:102E700000900136E60E0026000E0122020E00240C
:102E8000036E000E0120046E9CC400F0000E016E63
:102E9000003600900136003600900136E60E00261E
:102EA000000E0122020E0024D96E000E0120DA6EFF
:102EB00003C0E9FF04C0EAFFDE50EE24006EDE50DE
:102EC000EE20016E03C0E1FF04C0E2FF00C0E6FF98
:102ED00001C0E6FF9CC400F0000E016E00360090B9
:102EE0000136003600900136E60E0024E16E000E39
:102EF0000120E26EE66AE66A9CC400F0000E016EF4
:102F0000003600900136003600900136E60E0026AD
:102F1000000E0122020E0024E16E000E0120E26E7E
:102F2000E66AE66A010E9A6F67D09D51020A64E173
:102F30009CC400F0000E016E003600900136003691
:102F400000900136E60E0026000E0122020E00243B
:102F5000036E000E0120046E9BC400F0000E016E93
:102F6000003600900136003600900136E60E00264D
:102F7000000E0122020E0024D96E000E0120DA6E2E
:102F800003C0E9FF04C0EAFFDE50EE24006EDE500D
:102F9000EE20016E03C0E1FF04C0E2FF00C0E6FFC7
:102FA00001C0E6FF9BC400F0000E016E00360090E9
:102FB0000136003600900136E60E0024E16E000E68
:102FC0000120E26EE66AE66A9BC400F0000E016E24
:102FD000003600900136003600900136E60E0026DD
:102FE000000E0122020E0024E16E000E0120E26EAE
:102FF000E66AE66A010E9A6F9C2BDFD69B2BD3D62E
:103000009A51010AD8B4CCD60101386B04019B6BEC
:10301000800E006E800E000A005C02E1140E9B5DC3
:1030200021E29BC400F0000E016E003600900136D4
:10303000003600900136E60E0024E96E000E0120F5
:10304000EA6EEECF01F0EECF02F0000E006E0250FD
:10305000005C02E10150000802E20101382B04018A
:103060009B2BD6D70101376B1200A69C9AC4A9FFEF
:10307000A69EA680A8CF00F01200F4EC13F0010188
:103080005A6B5B6B676B686B6A6A686A5DDD6D8C37
:103090006E6A710E05012E6F0F0E2F6F306B010ED1
:1030A000316F000E326F23EC0BF06D9C2C6B080E11
:1030B0002C5D16E22CC500F0000E016E003600906B
:1030C0000136003600900136000E0024E16E040E39
:1030D0000120E26EE66AE66AE66AE66A2C2BE7D72A
:1030E000160E706E68A603D0F70E6816FBD70101A6
:1030F0007B6B716B726B736B6D98080E7F6F040E38
:10310000806F7E6B5C6B1200A6A202D00000FCD721
:10311000A69C9AC4A9FF9BC4A8FFA69EA684F2CF32
:1031200000F0F29E550EA76EAA0EA76EA68200BEF4
:1031300002D0F29E01D0F28EA694120004019C6B84
:103140009D6BA06BA16B9AC4E9FF9BC4EAFFEECF15
:10315000B8F49CEC12F0005203E09A4B9B2BF3D78F
:103160009AC4E9FF9BC4EAFFEE502D0A05E19C4B8F
:103170009D2B9A4B9B2B09D09AC4E9FF9BC4EAFF75
:10318000EE502B0A02E19A4B9B2B9AC400F09BC491
:1031900001F09A4B9B2B00C0E9FF01C0EAFFEECF84
:1031A0009EF4000E9F6F000E9F6F9EC4B8F44ADC21
:1031B000005230E09EC4B8F40BEC12F0005208E06C
:1031C0009EC4B8F4E9EC13F000C09EF4000E9F6FAB
:1031D0009EC426F588EC03F0005206E0300E040190
:1031E0009E5F000E9F5B05D00401570E9E5F000E90
:1031F0009F5BA037A091A137A037A091A137A0373E
:10320000A091A137A037A091A1379E51A027000E11
:10321000A123BBD79C519D1108E0A0510008006E6E
:10322000A1C401F0000E015604D0A0C400F0A1C456
:1032300001F012009AC404F09BC405F004C002F02F
:1032400005C003F0044A052A9CC400F09DC401F0A7
:1032500004019C4B9D2B00C0E9FF01C0EAFF02C0A6
:10326000E1FF03C0E2FFEECFE6FF02C0E9FF03C0CB
:10327000EAFFEE5201E0E2D79AC400F09BC401F0ED
:103280001200200E01015C5D03E36DB201D002D09B
:10329000006A27D05AC126F55BC127F5C1EC01F0C1
:1032A00000521EE1010E01015A25E96E000E5B215C
:1032B000EA6EEECF00F000C09EF49DC426F5050135
:1032C000276B9AC428F59BC429F59CC42AF5F1EC18
:1032D00001F000C05AF101C05BF19EC400F001D0C2
:1032E000006A120004019E6B9F6B000E9B1902E1A5
:1032F000000E9A193BE09E6B9F6B800E9F19006E2B
:10330000800E005C02E1020E9E5D30E29AC4B8F4C9
:103310009BC4B9F4030E026E9EC400F09FC401F07A
:10332000025005E0003600900136FF0FFAD7850EF7
:103330000026010E0122040E0024E96E000E012079
:10334000EA6EEECFBAF4EECFBBF4080EBC6FB8EC69
:1033500013F0000E011802E1000E001803E19EC4F4
:1033600000F045D004019E4B9F2BC7D7000E9D193E
:1033700002E1000E9C1939E09E6B9F6B800E9F1935
:10338000006E800E005C02E1020E9E5D2EE29CC487
:10339000B8F49DC4B9F4030E026E9EC400F09FC43D
:1033A00001F0025005E0003600900136FF0FFAD719
:1033B000850E0026010E0122060E0024E96E000E85
:1033C0000120EA6EEECFBAF4EECFBBF4C4EC14F0F9
:1033D000000E011802E1000E001803E19EC400F087
:1033E00006D004019E4B9F2BC9D7FF0E006E120022
:1033F0006D6A696A01015C6B1200046A056A010169
:10340000365305E004C000F005C001F0EED0066AB6
:10341000800E006E800E000A005C02E1140E065C55
:10342000D8B0DFD006C000F0000E016E003600906C
:103430000136003600900136E60E0024E96E000EDB
:103440000120EA6EEECF01F0EECF02F0000E006E2A
:103450000250005C02E101500008D8B0C0D006C0A4
:1034600000F0000E016E003600900136003600902C
:103470000136E60E0026000E0122020E0024E96E3F
:10348000000E0120EA6EEECF01F0EECF02F0040153
:103490009B51025C02E19A51015CD8A0A0D006C009
:1034A00000F0000E016E00360090013600360090EC
:1034B0000136E60E0026000E012200C0E9FF01C021
:1034C000EAFFEECF04F0EECF05F0020E0024E96E25
:1034D000000E0120EA6EEECF01F0EECF02F00250B6
:1034E0009B5D02E101509A5D4BE206C000F0000EC8
:1034F000016E003600900136003600900136E60E6F
:103500000024026E000E0120036E02C0E9FF03C01A
:10351000EAFFEECF00F0EECF01F09A5100269B516A
:10352000012202C0E1FF03C0E2FF00C0E6FF01C0CC
:10353000E6FF06C000F0000E016E00360090013676
:10354000003600900136E60E0026000E0122020E23
:103550000024026E000E0120036E02C0E9FF03C0CA
:10356000EAFF9A51EE5C006E9B51EE58016E02C06C
:10357000E1FF03C0E2FF00C0E6FF01C0E6FF2AD082
:1035800006C000F0000E016E0036009001360036D5
:1035900000900136E60E0024E16E000E0120E26E7E
:1035A000E66AE66A06C000F0000E016E0036009082
:1035B0000136003600900136E60E0026000E01228C
:1035C000020E0024E16E000E0120E26EE66AE66A59
:1035D0000101380704C000F005C001F006D0062A3A
:1035E00017D704C000F005C001F0120001015C51C2
:1035F000000A0CE16D6A696AA4EC15F006EC12F0A1
:103600006DB602D06D86FCD7010E5C6F12007C0E89
:103610000401B26FB36BB46BB56B000E0001C61939
:1036200002E1020EC51907E0000EC61902E1010E03
:10363000C51901E01FD081A81DD0400E05010B6FF8
:10364000060E0C6FF80E0D6F560E0E6F000E0F6FFC
:103650009AC410F59BC411F5B9EC0AF00501400EAF
:103660000B6F060E0C6F400E0D6F3DEC0BF0005211
:1036700001E1F4D79AC4B8F49BC4B9F40D0E040167
:10368000BA6FE3EC11F000C0B8F401C0B9F40A0E4F
:10369000BA6FE3EC11F000C0B8F401C0B9F4B20E97
:1036A000BA6F040EBB6FF2EC12F000C09EF401C0C2
:1036B0009FF40401B44BB52BB4C400F0B5C401F0C1
:1036C0000036009001369E0E0024B66F040E0120D5
:1036D000B76FB86BB96BB20EBA6F040EBB6FF2EC7A
:1036E00012F0B6C4E1FFB7C4E2FF00C0E6FF01C0BC
:1036F000E6FFB4C400F0B5C401F000360090013616
:103700009E0E0024E96E040E0120EA6EEECF01F059
:10371000EECF02F0000E021802E1000E0118C9E11E
:103720009EC4B8F49FC4B9F4AB0E0401BA6F000E86
:10373000BB6FC4EC14F0000E011802E1000E00187B
:1037400018E1A0C4B8F4A1C4B9F4BC0E0401BA6F66
:10375000000EBB6FC4EC14F0000E011802E1000E65
:10376000001806E19CC4B8F49DC4B9F417EC12F03B
:10377000EDD004019EC4B8F49FC4B9F4DC0EBA6F56
:10378000000EBB6FC4EC14F0000E011802E1000E35
:103790000018D8A4DBD0A0C4B8F4A1C4B9F4C70EF3
:1037A0000401BA6F000EBB6FC4EC14F0000E0118D8
:1037B00002E1000E001826E1A2C4B8F4A3C4B9F4D3
:1037C000DA0E0401BA6F000EBB6FC4EC14F0000EE9
:1037D000011802E1000E001802E1898012D0A2C493
:1037E000B8F4A3C4B9F49B0E0401BA6F000EBB6F0A
:1037F000C4EC14F0000E011802E1000E0018D8B459
:103800008990A4D0A0C4B8F4A1C4B9F4990E04015D
:10381000BA6F000EBB6FC4EC14F0000E011802E189
:10382000000E001826E1A2C4B8F4A3C4B9F4860EB1
:103830000401BA6F000EBB6FC4EC14F0000E011847
:1038400002E1000E001802E1898212D0A2C4B8F48D
:10385000A3C4B9F4A50E0401BA6F000EBB6FC4EC8B
:1038600014F0000E011802E1000E0018D8B489927D
:103870006DD0A0C4B8F4A1C4B9F49D0E0401BA6F10
:10388000000EBB6FC4EC14F0000E011802E1000E34
:10389000001826E1A2C4B8F4A3C4B9F4A10E04012F
:1038A000BA6F000EBB6FC4EC14F0000E011802E1F9
:1038B000000E001802E1898412D0A2C4B8F4A3C497
:1038C000B9F49F0E0401BA6F000EBB6FC4EC14F084
:1038D000000E011802E1000E0018D8B4899436D009
:1038E000A0C4B8F4A1C4B9F4A30E0401BA6F000EC9
:1038F000BB6FC4EC14F0000E011802E1000E0018BA
:1039000025E1A2C4B8F4A3C4B9F4A90E0401BA6FA6
:10391000000EBB6FC4EC14F0000E011802E1000EA3
:10392000001802E1898612D0A2C4B8F4A3C4B9F485
:10393000A70E0401BA6F000EBB6FC4EC14F0000EAA
:10394000011802E1000E0018D8B489961200040193
:103950003A6B3B6B800E3B19006E800E005C02E1FF
:10396000080E3A5D21E2030E0B6E700E0C6E5C0EBB
:103970000D6E0D2EFED70C2EFCD70B2EFAD70000A5
:103980003A5138253C6F3B5139213D6F3A5136252C
:103990009A6F35EC18F03CC4E1FF3DC4E2FF00C073
:1039A000E6FF3A4B3B2BD6D712000401386B396B3C
:1039B000800E3919006E800E005C02E1040E385D45
:1039C000D8B01CD10C0E006E000E016E38C404F08D
:1039D00039C405F043EC04F0980E0024036E030E86
:1039E0000120046E03C0E9FF04C0EAFFEECF00F03F
:1039F00000C002F0010E006E000E016E025005E0E4
:103A0000003600900136FF0FFAD700508114366F50
:103A1000000E0114376F000E371902E1000E36193F
:103A2000000ED8A4010E366F3653010ED8A4000E36
:103A3000366F000E376F010E0324D96E000E04207E
:103A4000DA6EDECF01F0DECF02F03751021802E16C
:103A500001503619D8B49FD00C0E006E000E016EC6
:103A600038C404F039C405F043EC04F0980E002685
:103A7000030E0122050E0024E16E000E0120E26E0D
:103A8000010EE66E0C0E006E000E016E38C404F0DE
:103A900039C405F043EC04F0980E0026030E012211
:103AA000030E0024E96E000E0120EA6E050EEE24DE
:103AB000016E000EEE20026E800E0218006E800E67
:103AC0000001CA19005C02E1C951015C64E20C0EFC
:103AD000006E000E016E38C404F039C405F043ECEA
:103AE00004F0980E0026030E0122050E0024E16E5C
:103AF000000E0120E26EE66A0C0E006E000E016EF2
:103B000038C404F039C405F043EC04F0980E0026E4
:103B1000030E0122010E0024E16E000E0120E26E70
:103B200036C4E6FF37C4E6FFC80E05010B6F030E6F
:103B30000C6F3B0E0D6F570E0E6F000E0F6F0C0EBD
:103B4000006E000E016E38C404F039C405F043EC79
:103B500004F0980E0024106F030E0120116F060E62
:103B60001027000E112336C412F537C413F5B9EC33
:103B70000AF0C80E0401C66F030EC76FBEEC0FF04B
:103B800000C0C8F401C0C9F4C80EC66F030EC76FE9
:103B9000CA6B4EEC0FF00C0E006E000E016E38C4B6
:103BA00004F039C405F043EC04F0980E0026030E2F
:103BB0000122050E0024E96E000E0120EA6EEE508F
:103BC000000A18E10C0E006E000E016E38C404F0FD
:103BD00039C405F043EC04F0980E0026030E0122D0
:103BE000030E0024E16E000E0120E26EC9C0E6FF64
:103BF000CAC0E6FF0401384B392BDAD60001C94BA5
:103C0000CA2B120075EC16F000C06AF1010E01011A
:103C1000696F36C46DF137C46EF138C46BF139C4C5
:103C20006CF18BEC16F0010E016E0150010A01E1FE
:103C3000DDDC120036C400F00032009E0032009E2F
:103C40000032009E0032009ED10E0024F66E560E09
:103C5000F76E000EF722000EF86E000EF822090033
:103C6000F5CF00F037C4E1FF38C4E2FF00C0E6FF43
:103C7000010E04013725E16E000E3821E26E0F0EB1
:103C80003615006ED10E0024F66E560EF76E000E3D
:103C9000F722000EF86E000EF8220900F5CF00F0B2
:103CA00000C0E6FF020E3725E16E000E3821E26EFD
:103CB000E66A12000900F5CFE6FF0006FBE1010607
:103CC000F9E11200900E0101636F160E646F0B0E86
:103CD000656F050E666FEC0E5F6F400E606F000E35
:103CE000616F000E626FE20E566F400E576F000E4E
:103CF000586F000E596FFF0E526FFF0E536F000E7C
:103D0000546F000E556FAC8A900EAB6E948E949CDF
:103D10009EAA03D0AECF00F0FBD712000401366B91
:103D2000376B800E3719006E800E005C02E1020EC8
:103D3000365DD8B0A2D0030E026E36C400F037C490
:103D400001F0025005E0003600900136FF0FFAD76F
:103D5000850E0026010E0122020E0024E96E000EDF
:103D60000120EA6EEE50010AD8A483D0030E026E41
:103D700036C400F037C401F0025005E00036009070
:103D80000136FF0FFAD7850E0026010E0122020E22
:103D90000024E96E000E0120EA6E030E0024D96EA5
:103DA000000E0120DA6EEE50DE1863E0030E026EA4
:103DB00036C400F037C401F0025005E00036009030
:103DC0000136FF0FFAD7850E0026010E0122030EE1
:103DD0000024E16E000E0120E26E020E0024E96E66
:103DE000000E0120EA6EEECFE6FF030E026E36C42F
:103DF00000F037C401F0025005E0003600900136B3
:103E0000FF0FFAD7850E0026010E0122040E0024B2
:103E1000E96E000E0120EA6EEECFB8F4EECFB9F4F1
:103E200017EC12F0030E026E36C400F037C401F036
:103E3000025005E0003600900136FF0FFAD7850EDC
:103E40000026010E0122040E0024E96E000E01205E
:103E5000EA6EEECFCDF4EECFCEF4B00ECF6F000E03
:103E6000D06F0B0ED16F000ED26FD36BA3EC0DF0A1
:103E700089760401364B372B54D70001AF5189198D
:103E800002E18851AE190FE088C0AEF089C0AFF0F2
:103E9000000E891902E1020E881905E10401B86BD0
:103EA000B96B17EC12F0120036C49AF437C49BF4C5
:103EB000FDEC19F000C038F401C039F40150000ADB
:103EC00002E1000E00180FE1010137530CE0D0ECC5
:103ED00016F036C49AF437C49BF4FDEC19F000C018
:103EE00038F401C039F438C400F039C401F01200CC
:103EF000900E0001E86F010EE96FFC0EE66F010EF7
:103F0000E76F010E036E800E006E800E000A005CEB
:103F100002E1140E035C2AE203C000F0000E016E01
:103F2000003600900136003600900136E60E00247F
:103F3000E16E000E0120E26EE66AE66A03C000F060
:103F4000000E016E003600900136003600900136FA
:103F5000E60E0026000E0122020E0024E16E000E85
:103F60000120E26EE66AE66A032ACDD7010E01015E
:103F7000386F366B376B120001015C51010A07E1A3
:103F80006DBA05D0686A69806988020E5C6F68A4A2
:103F900006D069A404D0FB0E6816CBEC15F06DA218
:103FA00003D0C9EC15F080D068A019D069A017D053
:103FB0003DEC18F0040E5C6F200E0401026F040E3D
:103FC000036F080E016F000E0015006E00C000F4B4
:103FD0008C0E0011006E00C000F4FE0E681668A87A
:103FE00006D069A804D0DEEC15F0EF0E681668ACB8
:103FF00011D069AC0FD0730E05012E6F000E2F6F1C
:10400000306B316B010E326F000E336FDFEC0AF054
:10401000BF0E681668AA04D069AA02D0ABEC15F0EE
:1040200068A210D069A20ED0FF0E05012E6F3F0EC0
:104030002F6F306B316B010E326F000E336FDFEC80
:104040000AF06A6A040E01015C5D03E2C9EC15F036
:104050002BD069A627D005012B6B040E2B5D22E225
:1040600068A61CD06CCF47F1F70E6816780E0101D8
:104070004715016E0150000A03E1EEEC15F00DD07A
:10408000720E05012E6F000E2F6F470E306F010E5E
:10409000316F326B336BDFEC0AF001D003D00501D6
:1040A0002B2BDBD7C9EC15F0120004013A6B3B6BEC
:1040B000800E3B19006E800E3919005C02E1385108
:1040C0003A5D0EE23A513625E96E3B513721EA6EF0
:1040D000EECF0BF548EC0BF004013A4B3B2BE8D745
:1040E0001200000E9EBA010E006E1200AECF01F05B
:1040F000ABA202D0AB98AB8801C000F01200040163
:10410000966B976B986B996B98C196F4000E976FAE
:10411000000E971902E1900E9619D8A49AD0040EB9
:10412000366F000E376F800E006E800E3719005C00
:1041300002E136510B0817E3040E365D006E000EE7
:104140003759016E850E0024E16E040E0120E26EE7
:10415000950E3625E96E010E3721EA6EEECFE6FFA9
:10416000364B372BE0D70C0E366F000E376F800EB4
:10417000006E800E3719005C02E136510D0817E31E
:104180000C0E365D006E000E3759016E8D0E002448
:10419000E16E040E0120E26E950E3625E96E010EE9
:1041A0003721EA6EEECFE6FF364B372BE0D70C0E09
:1041B000365D006E000E3759016E8D0E0024E16EE3
:1041C000040E0120E26EE66A0F0E366F000E376FA6
:1041D000020E00018425016E000E8521026E800E04
:1041E0000218006E800E04013719005C02E136519E
:1041F000015C17E30F0E365D006E000E3759016E3D
:10420000380E0024E16E040E0120E26E950E362574
:10421000E96E010E3721EA6EEECFE6FF364B372B03
:10422000D7D70F0E365D006E000E3759016E380E6F
:104230000024E16E040E0120E26EE66A380E9A6FE9
:10424000040E9B6F850E9C6F040E9D6F07EC1BF098
:10425000F6D2000E0401971902E1950E9619D8A422
:10426000C4D0FF0E906FFF0E916FA1C16AF4A2C17E
:104270006BF46C6B040E366F000E376F800E3719BF
:10428000006E800E005C02E10C0E365D17E2040E3B
:10429000365D006E000E3759016E6D0E0024E16E22
:1042A000040E0120E26E950E3625E96E010E3721CF
:1042B000EA6EEECFE6FF364B372BE0D76D0E9A6FE6
:1042C000040E9B6F9C6B9D6B72EC19F000C090F418
:1042D000000E00BEFF0E0401916F800E9119006E5A
:1042E000800E005C02E1000E905D52E3030E026E50
:1042F00090C400F091C401F0025005E00036009037
:104300000136FF0FFAD7850E0026010E0122060E98
:104310000024E96E000E0120EA6EEECF9AF4EECF93
:104320009BF46A0E9C6F040E9D6F1AEC19F0030E3D
:10433000026E90C400F091C401F0025005E0003616
:1043400000900136FF0FFAD7850E0026010E0122DC
:10435000030E0024E16E000E0120E26EE66A030EF9
:10436000026E90C400F091C401F0025005E00036E6
:1043700000900136FF0FFAD7850E0026010E0122AC
:10438000020E0024E16E000E0120E26E010EE66EC8
:10439000366B376B800E3719006E800E005C02E1C1
:1043A000100E365D21E2750E3625E16E040E3721C2
:1043B000E26E1A0E3625006E000E3721016E950E44
:1043C0000024E96E010E0120EA6EEECFE6FF750EC5
:1043D0003625E96E040E3721EA6EEE50000A01E13F
:1043E00003D0364B372BD6D72AD2000E971902E1CD
:1043F000880E9619D8A441D19AC198F49BC199F41A
:1044000001019C51000AD8A437D1040198514E0AE9
:10441000D8A4C8D09951440AD8A4C4D0FF0E926F32
:10442000FF0E936F9DC16AF49EC16BF46C6B0A0E14
:10443000366F000E376F800E3719006E800E005CED
:1044400002E1120E365D17E20A0E365D006E000EB6
:104450003759016E6D0E0024E16E040E0120E26EEC
:10446000950E3625E96E010E3721EA6EEECFE6FF96
:10447000364B372BE0D76D0E9A6F040E9B6F9C6BFB
:104480009D6B72EC19F000C092F4000E00BEFF0E9E
:104490000401936F800E9319006E800E005C02E1A0
:1044A000000E925D52E3030E026E92C400F093C4BC
:1044B00001F0025005E0003600900136FF0FFAD7F8
:1044C000850E0026010E0122060E0024E96E000E64
:1044D0000120EA6EEECF9AF4EECF9BF46A0E9C6F49
:1044E000040E9D6F1AEC19F0030E026E92C400F0D8
:1044F00093C401F0025005E0003600900136FF0F32
:10450000FAD7850E0026010E0122030E0024E16E6B
:10451000000E0120E26EE66A030E026E92C400F005
:1045200093C401F0025005E0003600900136FF0F01
:10453000FAD7850E0026010E0122020E0024E16E3C
:10454000000E0120E26E010EE66E366B376B800EB8
:104550003719006E800E005C02E1100E365D21E21C
:10456000750E3625E16E040E3721E26E130E3625E8
:10457000006E000E3721016E950E0024E96E010ECB
:104580000120EA6EEECFE6FF750E3625E96E040EC9
:104590003721EA6EEE50000A01E103D0364B372B8B
:1045A000D6D76AD098514D0AD8A466D09951590AE5
:1045B000D8A462D09DC183F19EC184F101018351D1
:1045C000FF0A2FE08451FE0A2CE0020E0001886FE2
:1045D000000E896F000EC61902E1020EC51907E030
:1045E000000EC61902E1010EC51901E019D081A81B
:1045F00017D0400E04019A6F060E9B6F8A0E9C6FB7
:10460000000E9D6F1AEC19F0400E05010B6F060E9F
:104610000C6F400E0D6F3DEC0BF0005201E1F4D732
:104620002BD00001886B896B000EC61902E1020EC7
:10463000C51907E0000EC61902E1010EC51901E017
:104640001BD081A819D0400E05010B6F060E0C6F10
:104650009D0E0D6F560E0E6F000E0F6FB9EC0AF027
:104660000501400E0B6F060E0C6F400E0D6F3DECFA
:104670000BF0005201E1F4D7E2D0000E04019719CB
:1046800002E18A0E9619D8A467D001019951030A54
:104690002DE1000E0001C61902E1020EC51907E066
:1046A000000EC61902E1010EC51901E01BD081A858
:1046B00019D0400E05010B6F060E0C6F8B0E0D6F9F
:1046C000560E0E6F000E0F6FB9EC0AF00501400E8A
:1046D0000B6F060E0C6F400E0D6F3DEC0BF0005291
:1046E00001E1F4D70001886B896B35D00101995144
:1046F000020A31E1000E0001891902E1020E881957
:104700002AE0020E886F000E896F000EC61902E1C2
:10471000020EC51907E0000EC61902E1010EC51907
:1047200001E019D081A817D0400E04019A6F060E3F
:104730009B6FCB0E9C6F000E9D6F1AEC19F0400E14
:1047400005010B6F060E0C6F400E0D6F3DEC0BF06C
:10475000005201E1F4D773D0000E0401971902E171
:104760008B0E9619D8A46BD0FF0E946FFF0E956F29
:104770009AC16AF49BC16BF46C6B01019D51000AF4
:1047800001E15DD09D51210A5AE104019A6B9B6BB6
:104790006A0E9C6F040E9D6F72EC19F000C094F4C9
:1047A000000E00BEFF0E0401956F800E9519006E7D
:1047B000800E005C02E1000E945D18E3030E026EB1
:1047C00094C400F095C401F0025005E0003600905A
:1047D0000136FF0FFAD7850E0026010E0122020EC8
:1047E0000024E16E000E0120E26EE66A000E000178
:1047F000C61902E1020EC51907E0000EC61902E152
:10480000010EC51901E01BD081A819D0400E050189
:104810000B6F060E0C6F660E0D6F560E0E6F000EB0
:104820000F6FB9EC0AF00501400E0B6F060E0C6F0E
:10483000400E0D6F3DEC0BF0005201E1F4D7120079
:10484000F8EC19F0120036C4E9FF37C4EAFFEECFE6
:1048500038F4000E0401396F000E396F000E39195B
:1048600002E1200E381907E0000E391902E1090EA5
:10487000381901E003D0364B372BE5D73A6B3B6B49
:104880003C6B3D6B000E391902E12D0E381905E124
:104890003C4B3D2B364B372B08D0000E391902E12B
:1048A0002B0E381902E1364B372B36C4E9FF37C4DB
:1048B000EAFFEECF38F4000E396F000E396F38C4BE
:1048C00026F588EC03F000521AE03AC400F03BC42D
:1048D00001F00A0E046E000E056E43EC04F0300E7B
:1048E0000401385D026E000E3959036E0250002437
:1048F0003A6F035001203B6F364B372BD6D704015C
:104900003C513D1108E03A510008006E3BC401F0F3
:10491000000E015604D03AC400F03BC401F012006E
:1049200004013D6B3E6B3F6B406B3D6B3E6B800EFD
:104930003E19006E800E005C02E1100E3D5D38E213
:104940003D513825E96E3E513921EA6EEECF3AF4F9
:10495000010E3D25006E000E3E21016E00503825EF
:10496000E96E01503921EA6EEECF3BF43C6B3A0E12
:104970009A6F040E9B6F9EEC18F03F5136259A6F8C
:1049800000C09BF484EC18F0020E0B6ED40E0C6E7B
:10499000850E0D6E0D2EFED70C2EFCD70B2EFAD7E2
:1049A00004013F4B402B020E3D27000E3E23BFD794
:1049B00012006DC19AF46EC19BF4400E04019C6F0D
:1049C000010E9D6F41EC19F01200ABEC2BF07C0E48
:1049D0000401326F336B3D0E0B6EE10E0C6E3F0E19
:1049E0000D6E0D2EFED70C2EFCD70B2EFAD7000025
:1049F00000000001886B896BAE6BAF6BB886040E4C
:104A0000B06EE10EAF6EAC8462EC1EF078EC1FF07D
:104A10000301E66BE76B800EE719006E800E005C09
:104A200002E10A0EE65D20E2E6C300F0E7C301F012
:104A3000003600900136E80E00240401346F030EA6
:104A40000120356F1E0E366F000E376F54EC1FF0CD
:104A500034C4E1FF35C4E2FF00C0E6FF01C0E6FF59
:104A60000301E64BE72BD7D79290899092928992D7
:104A70009294899492968996938093829384938654
:104A80009386938AE66BE76B800EE719006E800EC3
:104A9000005C02E1020EE65DD8B0EDD0030E026EBE
:104AA000E6C300F0E7C301F0025005E000360090D5
:104AB0000136FF0FFAD7850E0026010E0122020EE5
:104AC0000024E16E000E0120E26EE66A030E026E23
:104AD000E6C300F0E7C301F0025005E000360090A5
:104AE0000136FF0FFAD7850E0026010E0122030EB4
:104AF0000024E16E000E0120E26EE66A030E026EF3
:104B0000E6C300F0E7C301F0025005E00036009074
:104B10000136FF0FFAD7850E0026010E012200C0D4
:104B200034F401C035F4090EE603F3CF00F0005071
:104B3000010F04019A6F35EC18F034C4E1FF35C45D
:104B4000E2FF00C0E6FF000EE66E030E026EE6C353
:104B500000F0E7C301F0025005E000360090013696
:104B6000FF0FFAD70401850E0026010E0122040E64
:104B70000024346F000E0120356F080E366F000ED2
:104B8000376F54EC1FF034C4E1FF35C4E2FF00C0BE
:104B9000E6FF01C0E6FF030E026EE6C300F0E7C3C6
:104BA00001F0025005E0003600900136FF0FFAD701
:104BB000850E0026010E0122060E00240401346F2A
:104BC000000E0120356F040E366F000E376F54EC67
:104BD0001FF034C4E1FF35C4E2FF00C0E6FF01C0AE
:104BE000E6FF020E0B6E380E0C6EAD0E0D6E0D2E26
:104BF000FED70C2EFCD70B2EFAD7E6C300F0E7C386
:104C000001F0090E046E000E056E43EC04F0020E76
:104C100000240401366F000E0120376F030E026E70
:104C2000E6C300F0E7C301F0025005E00036009053
:104C30000136FF0FFAD7850E0026010E0122040E61
:104C40000024E96E000E0120EA6EEECF38F4EECFBC
:104C500039F4A7EC1CF0020E0B6E380E0C6EAD0E84
:104C60000D6E0D2EFED70C2EFCD70B2EFAD703019E
:104C7000E64BE72B09D7E66BE76B800EE719006E72
:104C8000800E005C02E1040EE65DD8B0A1D00C0EEF
:104C9000006E000E016EE6C304F0E7C305F043ECBE
:104CA00004F0980E0024E16E030E0120E26EE6C3CC
:104CB000E6FF0C0E006E000E016EE6C304F0E7C3C3
:104CC00005F043EC04F0980E0026030E0122010EBD
:104CD0000024E16E000E0120E26E00C0E9FF01C079
:104CE000EAFFEECF00F000C002F0010E006E000EF1
:104CF000016E025005E0003600900136FF0FFAD732
:104D000000508114026E000E0114036E000E031891
:104D100002E1000E0218000ED8A4010E006E00C0C1
:104D2000E6FF000EE66E0C0E006E000E016EE6C38E
:104D300004F0E7C305F043EC04F0980E0026030EE0
:104D40000122010E0024036E000E0120046E03C038
:104D5000E9FF04C0EAFFEECF01F0EECF02F0015010
:104D60000210010ED8A4000E006E03C0E1FF04C0C3
:104D7000E2FF00C0E6FF000EE66E0C0E006E000EB5
:104D8000016EE6C304F0E7C305F043EC04F0980EAF
:104D9000002405010B6F030E01200C6F060E0B277C
:104DA000000E0C23490E0D6F570E0E6F000E0F6F85
:104DB000010E0301E6250501106F000E0301E72136
:104DC0000501116FB9EC0AF00301E64BE72B55D74B
:104DD0000F0EC2120F0EC1120F0EC012070EB41228
:104DE000F28EF28C9D8A81A80BD0000E0401366FE2
:104DF000060E376F400E386F060E396F02EC1EF04C
:104E00000001C56BC66B6B0E0401366F000E376F69
:104E1000080E386F000E396F55EC20F000017B5101
:104E2000010A04E17B6B7FEC20F00DD0D5EC1CF087
:104E30008EEC1EF0100E0C6E940E0D6E0D2EFED725
:104E40000C2EFCD7000081A864D3B3DD0050000A0B
:104E5000D8B45FD30301E66BE76B000E0401B86FB3
:104E6000060EB96F0D0EBA6FE3EC11F000C0B8F486
:104E700001C0B9F40A0EBA6FE3EC11F000C0B8F447
:104E800001C0B9F4320EBA6F040EBB6FF2EC12F02F
:104E900000C0E8F301C0E9F30301E64BE72BE6C3EA
:104EA00000F0E7C301F0003600900136E80E002460
:104EB0000401346F030E0120356FB86BB96B320EED
:104EC000BA6F040EBB6FF2EC12F034C4E1FF35C4CC
:104ED000E2FF00C0E6FF01C0E6FFE6C300F0E7C363
:104EE00001F0003600900136E80E0024E96E030E52
:104EF0000120EA6EEECF01F0EECF02F0000E0218B4
:104F000002E1000E0118C8E1E8C3B8F4E9C3B9F43E
:104F1000730E0401BA6F000EBB6FC4EC14F0000EE8
:104F2000011802E1000E001830E1400E05010B6F80
:104F3000060E0C6FED0E0D6F560E0E6F000E0F6FFE
:104F4000B9EC0AF00501400E0B6F060E0C6F400E17
:104F50000D6F3DEC0BF0005201E1F4D704019A6BA8
:104F6000010E9B6F84EC18F06BDC3D0E0B6EE10EB6
:104F70000C6E3F0E0D6E0D2EFED70C2EFCD70B2E99
:104F8000FAD700000000FF00C4D2E8C3B8F4E9C3B8
:104F9000B9F4600E0401BA6F000EBB6FC4EC14F0DC
:104FA000000E011802E1000E001838E1EAC3B8F45F
:104FB000EBC3B9F45A0E0401BA6F000EBB6FC4EC18
:104FC00014F0000E011802E1000E001826E1ECC3F7
:104FD00036F4EDC337F437DC00C0C5F001C0C6F0CD
:104FE000400E05010B6F060E0C6F170E0D6F570E5E
:104FF0000E6F000E0F6F00C010F501C011F5B9EC77
:105000000AF00501400E0B6F060E0C6F400E0D6F7F
:105010003DEC0BF0005201E1F4D77BD2E8C3B8F4C9
:10502000E9C3B9F4660E0401BA6F000EBB6FC4EC9D
:1050300014F0000E011802E1000E001814E1EAC39A
:10504000C6F4EBC3C7F4BEEC0FF000C0D1F401C04E
:10505000D2F4CD6BCE6BEAC3CFF4EBC3D0F4D36BF9
:10506000A3EC0DF056D2E8C3B8F4E9C3B9F4640E6A
:105070000401BA6F000EBB6FC4EC14F0000E0118EF
:1050800002E1000E00181AE1400E05010B6F060E3A
:105090000C6F4F0E0D6F560E0E6F000E0F6FB9ECAA
:1050A0000AF00501400E0B6F060E0C6F400E0D6FDF
:1050B0003DEC0BF0005201E1F4D72BD2E8C3B8F479
:1050C000E9C3B9F4470E0401BA6F000EBB6FC4EC1C
:1050D00014F0000E011802E1000E001801E119D2CF
:1050E000E8C3B8F4E9C3B9F4400E0401BA6F000E86
:1050F000BB6FC4EC14F0000E011802E1000E0018A2
:10510000D8A407D2EAC3B8F4EBC3B9F4530E040130
:10511000BA6F000EBB6FC4EC14F0000E011802E170
:10512000000E0018D8A4E5D0ECC3B8F4EDC3B9F470
:105130004C0E0401BA6F000EBB6FC4EC14F0000EED
:10514000011802E1000E0018D8A4D2D00301FC6BB4
:10515000FD6BEEC336F4EFC337F423EC24F000C04C
:10516000FCF301C0FDF3800E026E800E0118025C9C
:1051700002E100500008D8B0BBD0010E0301FC5D75
:10518000016E000EFD59026E800E0218006E800E38
:10519000005C02E1020E015CD8B0AAD0F0C336F484
:1051A000F1C337F423EC24F000C0D2F301C0D3F3F1
:1051B000000E011802E1000E001808E0000E0301C5
:1051C000D31902E1010ED21901E092D00301010EC0
:1051D000FC5D006E000EFD59016E090E046E000E9E
:1051E000056E43EC04F0010E00240401366F000E3E
:1051F0000120376FF0C338F4F1C339F490EC24F098
:10520000010E0301FC5D006E000EFD59016E090EDA
:10521000046E000E056E43EC04F0020E002404013F
:10522000366F000E0120376FF2C338F4F3C339F440
:1052300090EC24F0010E0301FC5D006E000EFD59A0
:10524000016E090E046E000E056E43EC04F0010EB3
:1052500000240401366F000E0120376F030E026E2A
:10526000E6C300F0E7C301F0025005E0003600900D
:105270000136FF0FFAD7850E0024E96E010E0120DA
:10528000EA6EEECF38F4EECF39F4A7EC1CF0010E45
:105290000301FC5D006E000EFD59016E090E046EE7
:1052A000000E056E43EC04F0020E00240401366F7C
:1052B000000E0120376F030E026EE6C300F0E7C355
:1052C00001F0025005E0003600900136FF0FFAD7DA
:1052D000850E0026010E0122040E0024E96E000E48
:1052E0000120EA6EEECF38F4EECF39F4A7EC1CF0D3
:1052F00010D10401EAC3B8F4EBC3B9F4310EBA6FAC
:10530000000EBB6FC4EC14F0000E011802E1000E99
:105310000018D8A4C5D0ECC3B8F4EDC3B9F42A0E74
:105320000401BA6F000EBB6FC4EC14F0000E01183C
:1053300002E1000E0018D8A4B2D00401306B316B2A
:10534000EEC336F4EFC337F423EC24F000C030F49E
:1053500001C031F4800E026E800E0118025C02E181
:1053600000500008D8B09BD0010E305D016E000ED9
:105370003159026E800E0218006E800E005C02E150
:10538000020E015CD8B08BD00301FE6BFF6BD46BB7
:10539000D56B800ED519006E800E005C02E1080E00
:1053A000D45D3EE2010E0401305D036E000E315902
:1053B000046E030E026E03C000F004C001F0025040
:1053C00005E0003600900136FF0FFAD7850E002663
:1053D000010E0122040E0024E96E000E0120EA6E87
:1053E000EECF00F0EECF01F00301D4510024E96EBE
:1053F000D5510120EA6EEECF36F4D60EFE2504011B
:10540000376F030E0301FF210401386F1AEC1EF001
:10541000020E0301FE27000EFF23D44BD52BB9D774
:10542000400E05010B6F060E0C6F370E0D6F560EFA
:105430000E6F000E0F6F30C410F531C411F5D60E8B
:10544000126F030E136F010E0401305D036E000E28
:105450003159046E030E026E03C000F004C001F067
:10546000025005E0003600900136FF0FFAD7850E96
:105470000024E96E010E0120EA6EEECF14F5EECFA6
:1054800015F5B9EC0AF00501400E0B6F060E0C6F16
:10549000400E0D6F3DEC0BF0005201E1F4D739D016
:1054A000EAC3B8F4EBC3B9F43D0E0401BA6F000EC1
:1054B000BB6FC4EC14F0000E011802E1000E0018DE
:1054C0000CE1350E0401366F000E376F080E386F91
:1054D000000E396F55EC20F01CD00401EAC3B8F47B
:1054E000EBC3B9F4570EBA6F000EBB6FC4EC14F0E7
:1054F000000E011802E1000E00180BE16B0E040112
:10550000366F000E376F080E386F000E396F55EC8E
:1055100020F084D4FFD744455649434500474554BD
:10552000007E000408014D59504D59005A49474228
:1055300045450052454144004445564943450053C2
:105540004554004E440044454255470053455400DD
:105550003F0053454E44007E000408014E4464550C
:1055600050475241444500000000006E756C6C00CD
:105570006300310000005A49474245457C4A4F4983
:105580004E45440A00320030003300300031003410
:1055900000300030003100494F000000494F7C4787
:1055A0004554535441544500474554535441544580
:1055B000000000310000005A49474245457C4A4FEF
:1055C000494E45440A003100494E000902290001B4
:1055D00001008032090400000203000000092101DB
:1055E0000100012221000705810340000107050198
:1055F0000340000122034B005000500020005A00DD
:1056000069006700620065006500200042006F00CD
:105610006100720064000600FF0901A1011901295F
:1056200040150026FF0075089540810219012940A8
:10563000750895409102C05A49474245457C44450A
:10564000564943457C25647C25737C25640A004BC0
:105650005050205A494742454520424F415244202C
:1056600056312E310A005A49474245457C41434B49
:10567000204641494C45440A001201000200000046
:1056800008010002000100010203015A4947424596
:10569000457C4E4F4E4554574F524B0A005A49478E
:1056A0004245457C4E4F4E4554574F524B0A0030B1
:1056B00031323334353637383961626364656600B8
:1056C0003031323334353637383941424344454638
:1056D000003031323334353637383941424344456E
:1056E00046010008004000000200100080555047AD
:1056F000524144494E470A005A49474245457C2594
:10570000730A000A03550053004200340001000AE6
:10571000006400E803102744454255477C25640A8D
:10572000000A5061636B65743A20000100100000AC
:1057300001001008034B005000500025737C2564C5
:10574000000025737C25640000494E7C256400041C
:1057500003090425580010EE2AF0B50E006E010E64
:10576000016E160EF66E550EF76E000EF86E5AECC0
:105770001EF01200FFFFFFFFFFFFFFFFFFFFFFFF15
:020000040030CA
:0E000000240E3F1EFF8081FF0FC00FE00F4057
:00000001FF
