:1000000086EF24F0FFFF0A0000C01FF001C01EF0C1
:1000100002C01DF003C01CF004C01BF005C01AF0A4
:1000200006C019F008C018F009C017F00AC016F091
:100030000BC015F0E1CF28F0E2CF29F0E9CF26F090
:10004000EACF27F0F3CF24F0F4CF25F0F5CF23F05B
:10005000F8CF20F0F7CF21F0F6CF22F0A1AA04D0FC
:1000600081A802D057EC1DF09EAA42D05DEC1EF094
:100070000050010A3DE162EC1EF000C040F100506A
:100080007E0A05E100017D6B7E6B010E7C6F000135
:100090007C51010A2DE1830E7D25E16E010E7E214A
:1000A000E26E40C1E6FF000E7E1902E1020E7D19EC
:1000B00008E10101855184250001C96FCA6B000E5A
:1000C000CA237D4B7E2B040EC925016E000ECA216A
:1000D000026E800E7E19006E800E0218005C02E136
:1000E00001507D5D05E37D6B7E6B7C6B010E7B6F4C
:1000F00023C0F5FF20C0F8FF21C0F7FF22C0F6FFA4
:1001000024C0F3FF25C0F4FF1FC000F01EC001F0A3
:100110001DC002F01CC003F01BC004F01AC005F0A3
:1001200019C006F018C008F017C009F016C00AF090
:1001300015C00BF026C0E9FF27C0EAFF28C0E1FF89
:1001400029C0E2FF1100000E056E040E066E39C5CF
:1001500003F0000E046E03360436039003360436B3
:1001600003903AC500F0000E016E00360136009093
:10017000005003260150042203C001F004C002F025
:1001800001360190023601360190023601C003F0BB
:1001900002C004F004320332049E04BC048E043214
:1001A0000332049E04BC048E03C000F004C001F0BE
:1001B00000360090013600360090013605500026CA
:1001C0000650012200C005F001C006F000C0E1FFAA
:1001D00001C0E2FFE69E05013A51000A12E139C56D
:1001E00000F0000E016E0036009001366A0E002409
:1001F000E16E010E0120E26E05C0E6FF06C0E6FFDB
:1002000011D039C500F0000E016E003600900136A5
:10021000760E0024E16E010E0120E26E05C0E6FFBD
:1002200006C0E6FF05C0E1FF06C0E2FFE69C040E43
:100230000524E16E000E0620E26EE68C1200800EB0
:1002400005013911006E00C071F1120039C56EF15F
:100250003AC56FF13BC572F13CC573F1800E0501E3
:100260003D11006E008000C071F1120039C56EF1C1
:100270003AC56FF13BC570F13CC572F13DC573F1F4
:10028000800E05013E11006E00C071F112002DD0EC
:100290000001E187010E05012627000E27232823F0
:1002A00061D00001E181010E05012627000E272300
:1002B000282358D00001E183010E05012627000EF6
:1002C000272328234FD00001E287010E05012627AE
:1002D000000E2723282346D00001E185010E0501E9
:1002E0002627000E272328233DD026C5F6FF27C545
:1002F000F7FF28C5F8FF0900F5CF01F001502D0ADE
:10030000C7E026C5F6FF27C5F7FF28C5F8FF090097
:10031000F5CF01F00150200AC4E026C5F6FF27C53D
:10032000F7FF28C5F8FF0900F5CF01F001502B0AAF
:10033000C1E026C5F6FF27C5F7FF28C5F8FF09006D
:10034000F5CF01F00150230ABEE026C5F6FF27C510
:10035000F7FF28C5F8FF0900F5CF01F00150300A7A
:10036000BBE001D094D70001E1A301D0E191E1A766
:1003700001D0E19526C500F027C501F028C502F09F
:100380001200000E0501271902E1000E261902E1F4
:10039000016A09D026C5E9FF27C5EAFFEECF00F0C4
:1003A000016A00BE012A01C000F01200086A096A51
:1003B000100E0C6E0134083609360450085E0550E4
:1003C000D8A0053C095ED8B007D0045008260550D7
:1003D000D8B0053C0926D890003601360C2EEAD755
:1003E000120005012751000A12E026C500F0000E98
:1003F000016E003600900136760E0024E96E010E83
:100400000120EA6EEECF04F0EECF05F011D026C544
:1004100000F0000E016E0036009001366A0E0024D6
:10042000E96E010E0120EA6EEECF04F0EECF05F08A
:10043000020E0424E16E000E0520E26E28C5E6FFE0
:1004400029C5E6FF010E0424E16E000E0520E26ED0
:100450002AC5E6FF04C0E9FF05C0EAFFEECF00F0C1
:1004600004C0E1FF05C0E2FF400E0014E66E04C0C8
:10047000E9FF05C0EAFFEECF00F004C0E1FF05C0D0
:10048000E2FF880E0010E66E2751000A1BE026C529
:1004900000F0000E016E003600900136760E00244A
:1004A000026E010E0120036E02C0E9FF03C0EAFFE5
:1004B000040EEE18006E02C0E1FF03C0E2FF00C0B0
:1004C000E6FF1AD026C500F0000E016E003600903F
:1004D00001366A0E0024026E010E0120036E02C076
:1004E000E9FF03C0EAFF040EEE18006E02C0E1FF50
:1004F00003C0E2FF00C0E6FF04C000F005C001F049
:1005000012000001E1A567D0E1A314D0E1A103D05E
:100510002D0E006E02D02B0E006E26C5E1FF27C502
:10052000E2FF00C0E6FF0501264B272B0001DF4B51
:10053000E02B3AD0E1A10DD026C5E1FF27C5E2FFAF
:10054000200EE66E0501264B272B0001DF4BE02B2A
:100550002BD0C00EE115016EE251080B026E025065
:10056000080A02E1800E01181FE126C5E1FF27C538
:10057000E2FF300EE66E0501264B272B0001DF4B14
:10058000E02BE1AB03D0580E006E02D0780E006E67
:1005900026C5E1FF27C5E2FF00C0E6FF0501264BA7
:1005A000272B0001DF4BE02BE551E61113E026C5B8
:1005B000E1FF27C5E2FF300EE66E0501264B272B33
:1005C0000001DF4BE02B010EE55F000EE65BE5511D
:1005D000E611EDE180D0E551E61115E0E1B713D069
:1005E00026C5E1FF27C5E2FF200EE66E0501264B7A
:1005F000272B0001DF4BE02B010EE55F000EE65BD1
:10060000E551E611EDE1E1A314D0E1A103D02D0EF7
:10061000006E02D02B0E006E26C5E1FF27C5E2FF5B
:1006200000C0E6FF0501264B272B0001DF4BE02B26
:100630000ED0E1A10CD026C5E1FF27C5E2FF200EB8
:10064000E66E0501264B272B0001DF4BE02BC00E89
:10065000E115016EE251080B026E0250080A02E138
:10066000400E01180DE126C5E1FF27C5E2FF300E5F
:10067000E66E0501264B272B0001DF4BE02B2BD02C
:10068000C00EE115016EE251080B026E0250080A1D
:1006900002E1800E01181FE126C5E1FF27C5E2FF38
:1006A000300EE66E0501264B272B0001DF4BE02BB9
:1006B000E1AB03D0580E006E02D0780E006E26C556
:1006C000E1FF27C5E2FF00C0E6FF0501264B272B0F
:1006D0000001DF4BE02B800E006E800EE419005C01
:1006E00003E1E3510101595D0DE226C5E1FF27C594
:1006F000E2FF300EE66E0501264B272B0001DF4B93
:10070000E02BE9D726C500F027C501F0120005014E
:100710002651390806E3300E265D03E3010E006E14
:1007200001D0006A1200700EE16E0F0EE26E05013C
:100730003451E126D8B0E22A35C5E6FF35A504D00C
:1007400034C539F53A6BFFDC35A305D034C539F52E
:10075000010E3A6FF8DC120020C401F01F0E0116E2
:100760000150010A01E08DD004012451000A01E08A
:1007700088D02151060A3AE12FD001016851010ABF
:1007800013E1130E0501396F550E3A6F000E3B6FE2
:10079000120E3927000E3A233B23090E3C6F000E40
:1007A0003D6F400E3E6F62DD21D001016851010AAC
:1007B0000EE15E0E0501396F550E3A6F000E3B6F6C
:1007C000210E3C6F000E3D6F400E3E6F4FDD0ED090
:1007D0000501396B34DD0AD004012351210ACDE033
:1007E0002351220AE2E02351230AF2E020C401F05F
:1007F000600E0116050E006E005004E00132019EED
:10080000FF0FFBD70150010A01E03BD027D039D0C0
:1008100038D03A0E0501396F010E3A6F010E3B6F69
:10082000000E3C6F400E3D6F11DD2BD00501396B82
:1008300006DD23C43AF125D005013C0E396F010EC7
:100840003A6F010E3B6F000E3C6F3D6BFFDC19D021
:100850000501396BF4DC22C43CF113D004012151B1
:10086000010AD5E02151090AD3E02151020AD1E061
:1008700021510A0ADBE02151030ADEE021510B0A73
:10088000E7E012000B6A0A6A096A00500402F4CF1A
:1008900009F0F3CF08F001500502F4CF0BF0F3CFCD
:1008A0000AF000500502F3500926F4500A22E86AC3
:1008B0000B2201500402F3500926F4500A22E86A80
:1008C0000B2208C000F009C001F00AC002F00BC002
:1008D00003F0120005013551000A12E034C500F0A2
:1008E000000E016E003600900136760E0024E96E8F
:1008F000010E0120EA6EEECF04F0EECF05F011D02C
:1009000034C500F0000E016E0036009001366A0E0C
:100910000024E96E010E0120EA6EEECF04F0EECF66
:1009200005F0020E0424E16E000E0520E26E36C5CD
:10093000E6FF37C5E6FF010E0424E16E000E052038
:10094000E26E38C5E6FF04C0E9FF05C0EAFFEECF5E
:1009500000F004C0E1FF05C0E2FF400E0014E66EA7
:1009600004C0E9FF05C0EAFFEECF00F004C0E1FFDC
:1009700005C0E2FF880E0010E66E3551000A1BE04C
:1009800034C500F0000E016E003600900136760E80
:100990000024026E010E0120036E02C0E9FF03C0B5
:1009A000EAFF040EEE18006E02C0E1FF03C0E2FF92
:1009B00000C0E6FF1AD034C500F0000E016E00360C
:1009C000009001366A0E0024026E010E0120036EB3
:1009D00002C0E9FF03C0EAFF040EEE18006E02C079
:1009E000E1FF03C0E2FF00C0E6FF04C000F005C065
:1009F00001F0120001013F5301E0AEDE12000101DF
:100A00003F5315E0010E0501346F1E0E356F8BDE6E
:100A1000010E346F356B56C136F557C137F5400EB0
:100A2000386F58DF00C062F101C063F114D00501D6
:100A3000010E346F1E0E356F76DE010E346F356B8E
:100A400056C136F557C137F5400E386F43DF00C049
:100A500062F101C063F112000001DF6BE06BE16B3A
:100A6000E26B1CC500F01DC501F01EC502F0010EB1
:100A700005011C27000E1D231E2300C0F6FF01C028
:100A8000F7FF02C0F8FF0900F5CF00F000C059F1F0
:100A90000052D8B467EF0AF001015951250A0DE060
:100AA0001AC5E1FF1BC5E2FF59C1E6FF05011A4B5C
:100AB0001B2B0001DF4BE02BD4D70001E56BE66B6D
:100AC000E16BE26B1CC526F51DC527F51EC528F593
:100AD00047EC01F000C01CF501C01DF502C01EF579
:100AE00000C0F6FF01C0F7FF02C0F8FF0900F5CF14
:100AF00000F0000E016E00C026F509DE005237E05E
:100B00000001E56BE66B0001E5C000F0E6C001F016
:100B10000A0E046E000E056EB5DE1CC5F6FF1DC57F
:100B2000F7FF1EC5F8FF0900F5CF02F002500024C0
:100B3000E56F000E0120E66F300EE55F000EE65B0C
:100B4000010E05011C27000E1D231E231CC5F6FFE8
:100B50001DC5F7FF1EC5F8FF0900F5CF00F0000E18
:100B6000016E00C026F5D3DD0052CDE133D01CC5A7
:100B7000F6FF1DC5F7FF1EC5F8FF0900F5CF01F010
:100B800001502A0A27E11FC5E9FF20C5EAFFEECF81
:100B900000F0EECF01F000C0E9FF01C0EAFFEECFA8
:100BA000E5F0EECFE6F01FC5E9FF20C5EAFF020E33
:100BB000EE24006E000EEE20016E1FC5E1FF20C581
:100BC000E2FF00C0E6FF01C0E6FF010E1C27000E99
:100BD0001D231E231CC5F6FF1DC5F7FF1EC5F8FF0C
:100BE0000900F5CF01F001502E0A72E10501010E56
:100BF0001C27000E1D231E231CC5F6FF1DC5F7FF75
:100C00001EC5F8FF0900F5CF01F001502A0A28E1BE
:100C10001FC5E9FF20C5EAFFEECF00F0EECF01F0DF
:100C200000C0E9FF01C0EAFFEECFE3F0EECFE4F051
:100C30001FC5E9FF20C5EAFF020EEE24006E000E7C
:100C4000EE20016E1FC5E1FF20C5E2FF00C0E6FFF8
:100C500001C0E6FF010E1C27000E1D231E2337D006
:100C60000001E36BE46B1CC5F6FF1DC5F7FF1EC555
:100C7000F8FF0900F5CF00F0000E016E00C026F568
:100C800046DD005224E0E3C000F0E4C001F00A0EAB
:100C9000046E000E056EF6DD1CC5F6FF1DC5F7FFE0
:100CA0001EC5F8FF0900F5CF02F002500024000134
:100CB000E36F000E0120E46F300EE35F000EE45B93
:100CC000010E05011C27000E1D231E23CCD703D0C7
:100CD0000001E36BE46B1CC500F01DC501F01EC5EF
:100CE00002F0010E05011C27000E1D231E2300C06B
:100CF000F6FF01C0F7FF02C0F8FF0900F5CF59F178
:100D000008D1DFC000F0E0C001F0E5D30001E18DC3
:100D100030D12FD10001E18B0001E18F2AD11FC515
:100D2000E9FF20C5EAFFEECF00F0EECF01F000C0F2
:100D3000E9FF01C0EAFFEECF21F5EECF22F51FC596
:100D4000E9FF20C5EAFF020EEE24006E000EEE2041
:100D5000016E1FC5E1FF20C5E2FF00C0E6FF01C034
:100D6000E6FF000E0501221902E1000E211904E13F
:100D70007F0E216F000E226F236B246B23512125E0
:100D8000E96E24512221EA6EEE520BE0010E23257A
:100D9000006E000E2421016E00C023F501C024F571
:100DA000EDD70001E351E4110EE0050124510001EB
:100DB000E45D04E1050123510001E35D04E2E3C0C9
:100DC00023F5E4C024F5E6510501245D04E10001AA
:100DD000E5510501235D08E223510001E55F0501AE
:100DE00024510001E65B03D00001E56BE66BE1B73F
:100DF00018D0E5C000F0E6C001F0010EE55F000E7E
:100E0000E65B005001100DE01AC5E1FF1BC5E2FFD3
:100E1000200EE66E05011A4B1B2B0001DF4BE02B69
:100E2000E8D723C502F024C503F0010E0501235DB8
:100E3000006E000E2459016E00C023F501C024F598
:100E4000025003101AE021C5E9FF22C5EAFF1AC5C6
:100E5000E1FF1BC5E2FFEECFE6FF1A4B1B2B010E95
:100E60002125006E000E2221016E00C021F501C077
:100E700022F50001DF4BE02BD4D70001E1A718D009
:100E8000E5C000F0E6C001F0010EE55F000EE65B94
:100E9000005001100DE01AC5E1FF1BC5E2FF200E56
:100EA000E66E05011A4B1B2B0001DF4BE02BE8D748
:100EB000D8D51FC5E9FF20C5EAFFEECF00F0EECF81
:100EC00001F000C0E9FF01C0EAFFEECF59F11FC5F4
:100ED000E9FF20C5EAFF020EEE24006E000EEE20B0
:100EE000016E1FC5E1FF20C5E2FF00C0E6FF01C0A3
:100EF000E6FF590E0501216F010E226F010E236FCF
:100F0000000E246F4ED7C00E0001E113000EE21355
:100F100030D001015951000AD8B4F3D659516C0AA6
:100F2000D8B4F4D659514C0AD8B4F0D659516F0AF6
:100F3000D8B4ECD65951640AD8B4EBD65951690AE1
:100F4000D8B4E7D65951700AD8B4E4D65951580AE2
:100F5000D8B4E0D65951780AD8B4DED65951730ABC
:100F6000D8B4DDD65951630AA4E05951750ACBE0D3
:100F7000C0D7C00E0001E115016EE2C002F0000E04
:100F80000216000E021802E1000E01183EE11FC514
:100F9000E9FF20C5EAFFEECF00F0EECF01F000C080
:100FA000E9FF01C0EAFFEECF21F5EECF22F51FC524
:100FB000E9FF20C5EAFF020EEE24006E000EEE20CF
:100FC000016E1FC5E1FF20C5E2FF00C0E6FF01C0C2
:100FD000E6FF800E05012219006E800E005C02E122
:100FE000000E215D11E2030E0001E113000EE21379
:100FF000050121510008006E22C501F0000E0156C6
:1010000000C021F501C022F522D01FC5E9FF20C58F
:10101000EAFFEECF00F0EECF01F000C0E9FF01C023
:10102000EAFFEECF21F5EECF22F51FC5E9FF20C57F
:10103000EAFF020EEE24006E000EEE20016E1FC5C8
:10104000E1FF20C5E2FF00C0E6FF01C0E6FF000EA1
:101050000001E41902E1000EE3190AE1000E0501A6
:10106000221902E1000E211903E10001E34BE42BF8
:101070000001C00EE115006E00C005F084D0010E25
:101080000101596F5951050A25E059C100F0000EC0
:10109000016E026E036E0036009001360236033692
:1010A000550E0024F66E560E0120F76E000E02203B
:1010B000F86E0900F5CF01F00900F5CF02F00250FB
:1010C0000501225D02E10150215D01E203D0010131
:1010D000592BD8D766D00101010E596F5951040A16
:1010E00025E059C100F0000E016E026E036E00365D
:1010F0000090013602360336730E0024F66E560E4B
:101100000120F76E000E0220F86E0900F5CF01F005
:101110000900F5CF02F002500501225D02E1015005
:10112000215D01E203D00101592BD8D73AD001014A
:10113000010E596F5951060A25E059C100F0000E01
:10114000016E026E036E00360090013602360336E1
:10115000290E0024F66E560E0120F76E000E0220B6
:10116000F86E0900F5CF01F00900F5CF02F002504A
:101170000501225D02E10150215D01E203D0010180
:10118000592BD8D70ED00550000AD8B478D70550BF
:10119000C00AD8B474D70550800A9DE00550400AB3
:1011A000C6E0800E006E800E0001E419005C03E1D1
:1011B000E3510101595D03E2E3C059F110D0800E03
:1011C0000001E419006E800E005C04E10101595138
:1011D0000001E35D04E259C1E3F0000EE46F000199
:1011E000E551E6110EE0030EE115006EE2C001F0DC
:1011F000000E01160050011004E0010EE55F000E24
:10120000E65B800EE419006E800EE619005C02E1D8
:10121000E551E35D05E2E351E55FE451E65B02D0B1
:10122000E56BE66BC40EE115016EE251080B026E30
:101230000250080A02E1400E011808E1E551E611EA
:1012400004E0010EE55F000EE65B1CD0C00EE11568
:10125000016EE251080B026E0250080A02E1800E94
:10126000011810E1800E006E800EE619005C02E1AC
:10127000E551020805E2020EE55F000EE65B02D0D2
:10128000E56BE66B1AC526F51BC527F581EC02F068
:1012900000C01AF501C01BF5E3C000F0E4C001F086
:1012A000010E0001E35F000EE45B00500110D8B4B2
:1012B000EED0C00EE115006E00C025F5CBD00001C8
:1012C000E3C000F0E4C001F0000EE4BFFF0E026EC8
:1012D000036E00360090013602360336550E0024A8
:1012E000F66E560E0120F76E000E0220F86E090011
:1012F000F5CF04F00900F5CF05F021C500F022C5B7
:1013000001F0D6EC01F00A0E046E000E056ED6EC6C
:1013100001F008C000F009C001F0300E0024010106
:10132000596FA8D00001E1AB35D0E3C000F0E4C0B4
:1013300001F0000EE4BFFF0E026E036E0036009057
:10134000013602360336730E0024F66E560E012067
:10135000F76E000E0220F86E0900F5CF04F00900C8
:10136000F5CF05F021C500F022C501F0D6EC01F063
:101370000F0E0016000E0116F70E0024F66E550E25
:101380000120F76E000EF86E000EF8220900F5CF6E
:1013900059F134D0E3C000F0E4C001F0000EE4BF26
:1013A000FF0E026E036E00360090013602360336E1
:1013B000730E0024F66E560E0120F76E000E02200A
:1013C000F86E0900F5CF04F00900F5CF05F021C54E
:1013D00000F022C501F0D6EC01F00F0E0016000E51
:1013E0000116080E0024F66E560E0120F76E000E50
:1013F000F86E000EF8220900F5CF59F13BD000013C
:10140000E3C000F0E4C001F0000EE4BFFF0E026E86
:10141000036E00360090013602360336290E002492
:10142000F66E560E0120F76E000E0220F86E0900CF
:10143000F5CF04F00900F5CF05F021C500F022C575
:1014400001F0D6EC01F0070E00140101596F300EC7
:10145000592710D005012551000AD8B430D725519D
:10146000C00AD8B42CD72551800AD8B45BD72551EF
:10147000400AC5E005011AC5E1FF1BC5E2FF59C1DD
:10148000E6FF1A4B1B2B0001DF4BE02B05D7E1A732
:101490001CD0800E006E800EE619005C02E1E55162
:1014A000000813E21AC5E1FF1BC5E2FF200EE66E3D
:1014B00005011A4B1B2B0001DF4BE02B010EE55FF2
:1014C000000EE65BE551E611EDE131EF05F0DFC01E
:1014D00000F0E0C001F01200200E0101585D03E3AE
:1014E0006DB201D002D0006A39D074C126F575C141
:1014F00027F5C1EC01F0005230E11DC526F5010EC3
:10150000276F1AC528F51BC529F51CC52AF5F1EC6E
:1015100001F000C074F101C075F10101646B656BED
:10152000666B676B74C126F575C127F5C1EC01F0D8
:10153000005209E00101645165116611671102E072
:10154000006A0CD0EFD70101010E7425E96E000E80
:101550007521EA6EEECF00F001D0006A1200100E85
:101560000501186F050E196F0BC51AF50CC51BF593
:101570000DC51CF50EC51DF50FC51EF5180E1F6F08
:10158000050E206F2CEC05F000C016F501C017F514
:10159000005005010B25E16E01500C21E26EE66A58
:1015A00016C500F017C501F012000ED0FFEC04F0D4
:1015B0003DD03CD0FAEC04F039D038D037D036D01A
:1015C00035D0000033D032D0000E05012F1902E1D2
:1015D000010E2E19EBE0000E2F1902E1020E2E195A
:1015E000E8E0000E2F1902E1030E2E19E3E02F515F
:1015F000000A02E1730E2E19E0E02F51000A02E109
:10160000750E2E19DBE02F51000A02E1740E2E191F
:10161000D6E02F513F0A02E1FF0E2E19D1E02F51E3
:10162000000A02E1720E2E19CCE0CDD7010E006E39
:1016300012002EC502F02FC503F031C500F032C5EF
:1016400001F0010E0501315F000E325B0050011008
:1016500009E002C0E1FF03C0E2FF30C5E6FF024A35
:10166000032AEBD712000BC51AF50CC51BF50DC5E7
:101670001CF5010E05011D6F2FDF1200ACB202D068
:101680000000FCD70BC5ADFF120004012251010A76
:1016900013E120C401F01F0E01160150000A0CE1F5
:1016A0000101718F04012151030A04E1010E0101BE
:1016B0003B6F02D001013B6B04012251000AD8A408
:1016C0008DD020C401F01F0E01160150020AD8A4CB
:1016D00085D024C401F00F0E01160150000AD8B4C1
:1016E0007DD00101718F040124BF16D024C403F002
:1016F0000F0E031603C000F0000E016E00360090BE
:1017000001366A0E0024E96E010E0120EA6EEECF6A
:1017100004F0EECF05F015D024C403F00F0E03162D
:1017200003C000F0000E016E003600900136760E08
:101730000024E96E010E0120EA6EEECF04F0EECF38
:1017400005F02151030A07E104C0E1FF05C0E2FFF3
:10175000840EE66E43D024C400F00F0E0016700E07
:10176000026E0F0E036E00500226D8B0032A02C08C
:10177000E9FF03C0EAFFFE0EEE14006EEECF01F0AB
:10178000FF0E011602C0E1FF03C0E2FF00C0E6FF4A
:1017900001C0E6FF24AF11D004C0E1FF05C0E2FFA5
:1017A000E66A040E0418006E00C004F004C0E1FFF5
:1017B00005C0E2FF400EE66E11D004C0E1FF05C097
:1017C000E2FF880EE66E040E0418006E00C004F0FE
:1017D00004C0E1FF05C0E2FFC80EE66E120004017E
:1017E0002051800AD8A47AD0C00E0101716F6BD04D
:1017F0000101E50E006E550E016E000E026E00C076
:101800006EF101C06FF102C070F1120E726F000E26
:10181000736F64D00101030E006E000E016E22C4CE
:1018200004F0000E056E42EC04F0E70E0024E96EB1
:10183000010E0120EA6EEECF6EF1EECF6FF1EECF2A
:1018400070F1020E6E25F66E000E6F21F76E000E1F
:101850007021F86E0900F5CF00F00900F5CF01F016
:1018600000C072F101C073F139D0040122510101AD
:10187000695D24E3030E006E000E016E22C404F0C5
:10188000000E056E42EC04F0EA0E0024E96E010E33
:101890000120EA6EEECF6EF1EECF6FF1EECF70F178
:1018A0006EC1F6FF6FC1F7FF70C1F8FF0900F5CFF9
:1018B00000F000C072F1000E736F01D0716B0ED09A
:1018C0000101716B0BD004012351010A91E02351F6
:1018D000020AA0E02351030AC8E0F2D71200000E6A
:1018E0000101735D02E1080E725D10E272C103F046
:1018F00073C104F04D51000A03E1010E4D6F05D094
:101900004D51010A02E1020E4D6F04D0080E036E24
:10191000000E046E76C1E1FF77C1E2FFE69276C168
:10192000E1FF77C1E2FFE69076C1E9FF77C1EAFF08
:10193000EECF00F076C1E1FF77C1E2FF0450001066
:10194000E66E010E7625E16E000E7721E26E03C091
:10195000E6FF0350725D006E04507359016E00C0C3
:1019600072F101C073F1280E446F040E456F71B11E
:101970002FD0035004102BE06EC1F6FF6FC1F7FFAC
:1019800070C1F8FF0900F5CF00F044C1E1FF45C187
:10199000E2FF00C0E6FF444B452B010E6E25006EB2
:1019A000000E6F21016E000E7021026E00C06EF1FC
:1019B00001C06FF102C070F1010E035C006E000EF9
:1019C0000458016E00C003F001C004F0D2D724D047
:1019D0000350041021E06EC1E9FF6FC1EAFF44C16A
:1019E000E1FF45C1E2FFEECFE6FF444B452B010E80
:1019F0006E25006E000E6F21016E00C06EF101C0F9
:101A00006FF1010E035C006E000E0458016E00C001
:101A100003F001C004F0DCD712000401286B296B2D
:101A20004AD00101718F0401288101013B51010A53
:101A300002E10401288354D00101718F51D00101CA
:101A4000718F040124BF16D024C403F00F0E0316B7
:101A500003C000F0000E016E0036009001366A0EE1
:101A60000024E96E010E0120EA6EEECF04F0EECF05
:101A700005F015D024C403F00F0E031603C000F0C8
:101A8000000E016E003600900136760E0024E96EDD
:101A9000010E0120EA6EEECF04F0EECF05F004C097
:101AA000E9FF05C0EAFFEECF01F001A403D0040175
:101AB000010E286F15D020C401F01F0E0116015031
:101AC000000AAFE020C401F01F0E01160150010A08
:101AD000B3E020C401F01F0E01160150020AAFE06E
:101AE000010171AF07D0280E6E6F040E6F6F718108
:101AF000020E726F1200CDC4E9FFCEC4EAFFEE50B1
:101B00000401CF1905E1CDC400F0CEC401F010D01E
:101B1000CDC400F0CEC401F0CD4BCE2B00C0E9FF08
:101B200001C0EAFFEECF00F00052E5E1006A016A71
:101B300012000501086B096B0E0E0401D125D46F4C
:101B4000000ED221D56F05010A6B7E0E0401D66FFF
:101B5000D76BD4C4D8F4100ED96F010EDA6F000E13
:101B6000CE1902E1000ECD1909E1DB6BDC6BDD6BF8
:101B7000DE6BDF6BE06BE16BE26B3ED0CDC4E9FF67
:101B8000CEC4EAFFEECFDBF4010ECD25E96E000EE8
:101B9000CE21EA6EEECFDCF4020ECD25E96E000E0A
:101BA000CE21EA6EEECFDDF4030ECD25E96E000EF8
:101BB000CE21EA6EEECFDEF4040ECD25E96E000EE6
:101BC000CE21EA6EEECFDFF4050ECD25E96E000ED4
:101BD000CE21EA6EEECFE0F4060ECD25E96E000EC2
:101BE000CE21EA6EEECFE1F4070ECD25E96E000EB0
:101BF000CE21EA6EEECFE2F4FF0EE36FFE0EE46F4D
:101C0000E56B010EE66F110E0501086F000E096FFE
:101C1000110E0401D125016E000ED221026E800E3C
:101C200005010919006E800E0218005C02E10150E6
:101C3000085D19E2D60E0825E16E040E0921E26E58
:101C4000110E085D006E000E0959016E005004016E
:101C5000CF25E96E0150D021EA6EEECFE6FF0501F7
:101C6000084B092BD5D7030E086F000E096F030E22
:101C70000401D425016E000ED521026E800E0501EF
:101C80000919006E800E0218005C02E10150085D27
:101C90000BE2D60E0825D96E040E0921DA6EDE504D
:101CA0000A27084B092BE3D70A51FF08006E00C032
:101CB0000AF5D60E0825E16E040E0921E26E00C079
:101CC000E6FF000E00019E1902E1010E9D1919E1C7
:101CD00081A817D0400E05010B6F060E0C6F4B0E3E
:101CE0000D6F560E0E6F000E0F6F39DC0501400EA2
:101CF0000B6F060E0C6F400E0D6FB5DC005201E14C
:101D0000F5D70501086B096B040E0401D425016E9B
:101D1000000ED521026E800E05010919006E800E9D
:101D20000218005C02E10150085D36E2D60E08257B
:101D3000E96E040E0921EA6EEECF0BF59FDC000E72
:101D400000019E1902E1010E9D1922E181A820D017
:101D5000400E05010B6F060E0C6F9B0E0D6F560E9D
:101D60000E6F000E0F6FD60E0825E96E040E0921C6
:101D7000EA6EEECF10F5AFEC0AF00501400E0B6FE6
:101D8000060E0C6F400E0D6F6EDC005201E1F5D7B0
:101D90000501084B092BB8D7000E00019E1902E17E
:101DA000010E9D191AE181A818D0400E05010B6F94
:101DB000060E0C6F060E0D6F000E0E6F000E0F6FED
:101DC000AFEC0AF00501400E0B6F060E0C6F400ED3
:101DD0000D6F49DC005201E1F5D712000101718F4E
:101DE000710E05012E6F0F0E2F6F306B010E316FCC
:101DF000000E326F1EDC480E2E6F010E2F6F306BFF
:101E0000010E316F000E326F14DC22C468F1010143
:101E10006851000A03E1100E586F11D0200E586F60
:101E2000010E05012E6F000E2F6F680E306F010E30
:101E3000316F010E326F000E336FD5EC0AF01200D5
:101E40000401CA6BCB6BC6C4E9FFC7C4EAFFEE52FC
:101E500016E0C8C4CDF4C9C4CEF4C6C4E9FFC7C4F3
:101E6000EAFFEECFCFF447DE000E011802E1000ECC
:101E7000001805E0C64BC72BCA4BCB2BE4D7CAC40E
:101E800000F0CBC401F012000401CB6BCC6BCB6B28
:101E9000CC6B800ECC19006E800E005C02E1020E4D
:101EA000CB5D47E2030E026ECBC400F0CCC401F060
:101EB000025005E0003600900136FF0FFAD7F60E0B
:101EC0000024E96E010E0120EA6EEECF01F0EECFA4
:101ED00002F0000E021802E1010E011826E1030EC5
:101EE000026ECBC400F0CCC401F0025005E0003615
:101EF00000900136FF0FFAD7F60E0026010E0122E0
:101F0000040E0024E96E000E0120EA6EEECFCDF43F
:101F1000EECFCEF4C6C4CFF4C7C4D0F4C8C4D1F455
:101F2000C9C4D2F4CAC4D3F404DE0401CB4BCC2B15
:101F3000B0D71200C6C402F0C7C403F002C000F05C
:101F400003C001F0024A032A00C0E9FF01C0EAFF12
:101F5000EE5201E0F3D70401C651025C006EC75196
:101F60000358016E010E005E000E015A12000401BA
:101F7000CA6BC6C4E9FFC7C4EAFFEE5215E0C8C485
:101F8000CDF4C9C4CEF4C6C4E9FFC7C4EAFFEECF9E
:101F9000CFF4B1DD000E011802E1000E001804E1DB
:101FA000C64BC72BCA2BE5D7CAC400F01200010EDE
:101FB00001014125E96E000E4221EA6EEECF00F0EC
:101FC00000C002F0000E7E5D02E102507D5D03E282
:101FD0007DC102F00AD002507D5D006E000E7E5978
:101FE000016E00C07DF101C07EF1036A0250035C06
:101FF0001CE2280EE96E040EEA6E0350E926D8B002
:10200000EA2AEECF00F07AC1E1FF7BC1E2FF00C017
:10201000E6FF010E7A25006E000E7B21016E00C0E6
:102020007AF101C07BF1032AE1D7000E006E7E51E8
:10203000005C02E17D51000828E2010E4A25E16EB4
:10204000000E4B21E26E080EE66E020E4A25E16E8E
:10205000000E4B21E26E280EE66E040EE66E41C1C4
:10206000E9FF42C1EAFFEECF00F000BC07D04AC151
:10207000E1FF4BC1E2FFC80EE66E06D04AC1E1FFA8
:102080004BC1E2FF880EE66E19D0010E4A25E16EC3
:10209000000E4B21E26E080EE66E020E4A25E16E3E
:1020A000000E4B21E26E200EE66E040EE66E4AC173
:1020B000E1FF4BC1E2FF840EE66E7C9F120001013E
:1020C000496B76C1E1FF77C1E2FFE66A040E76193B
:1020D000E16E77C1E2FF000EE21AE66A7CAF01D042
:1020E0007C9F120020C401F0600E0116050E006EE8
:1020F000005004E00132019EFF0FFBD70150000A9F
:1021000001E06BD047D00101718F080E586F65D088
:10211000EFEC0BF062D062DE60D0680E01016E6FF2
:10212000010E6F6F7181010E726F718F56D075DC69
:1021300054D045EC0BF051D0480E006E010E016EEC
:10214000040124510026D8B0012A00C06EF101C05C
:102150006FF101017181010E726F718F3ED001012B
:10216000718F480EE16E010EE26E04012451E126EA
:10217000D8B0E22A22C4E6FF30D0020E05012E6F4D
:10218000000E2F6F306B316B326B336BD5EC0AF076
:1021900024D023D004012151050AB5E02151060ABB
:1021A000B7E02151090AB7E02151080AB6E02151F0
:1021B000000ABDE02151010ABCE02151030AB9E047
:1021C00021510A0AB9E021510B0AC9E02151070A3D
:1021D000D4E021510C0ADDE0DCD712006D9801013A
:1021E00071BF49D07CAF28D0020E496F010E762511
:1021F000E16E000E7721E26EE66A76C1E1FF77C1FB
:10220000E2FFC80EE66E010E4A25E16E000E4B217C
:10221000E26E080EE66E020E4A25E16E000E4B21BC
:10222000E26E280EE66E040EE66E4AC1E1FF4BC177
:10223000E2FFC80EE66E1ED0010E4A25E16E000ECA
:102240004B21E26E080EE66E020E4A25E16E000E8C
:102250004B21E26E200EE66E040EE66E4AC1E1FFEF
:102260004BC1E2FF8C0EE66E76C1E1FF77C1E2FF63
:10227000840EE66E83D07CBF81D0040120AF56D09F
:10228000010173510401275D04E101017251040150
:10229000265D04E226C472F127C473F16FEC0CF0E2
:1022A000010E496F010E4A25E16E000E4B21E26ED0
:1022B000080EE66E020E4A25E16E000E4B21E26E1C
:1022C000200EE66E040EE66E4AC1E1FF4BC1E2FF4E
:1022D000800EE66E4C6B010E4125E16E000E422130
:1022E000E26E080EE66E020E4125E16E000E4221FE
:1022F000E26E200EE66E040EE66E41C1E1FF42C1C1
:10230000E2FF840EE66E010E4C6F020E7625E16E42
:10231000000E7721E26E280EE66E040EE66E76C1A0
:10232000E1FF77C1E2FFC80EE66E28D00101020E80
:10233000496F010E7625E16E000E7721E26EE66AA6
:1023400076C1E1FF77C1E2FFC80EE66E010E4A25B5
:10235000E16E000E4B21E26E080EE66E020E4A257B
:10236000E16E000E4B21E26E280EE66E040EE66E64
:102370004AC1E1FF4BC1E2FFC80EE66E1200040144
:10238000B8515A0806E3410EB85D03E3010E006E32
:1023900001D0006A1200B8C4BBF4B9C4BCF4BBC419
:1023A000CDF4BCC4CEF4BAC4CFF47BEC0DF000C0C5
:1023B000BBF401C0BCF4000E011802E1000E0018CD
:1023C00008E0BBC4E1FFBCC4E2FFE66ABB4BBC2B28
:1023D000E6D7B8C400F0B9C401F01200000E040141
:1023E000B91902E1000EB81902E1006A2ED0000E00
:1023F000BD1902E1000EBC1902E1006A26D0B951F4
:10240000BD1902E1BC51B81902E1006A1ED0BA51EF
:10241000B825016EBB51B921026E0250BD1902E10F
:10242000BC51011803E1010E006E0FD0BE51BC2556
:10243000016EBF51BD21026E0250B91902E1B851BF
:10244000011803E1020E006E00D012000401B85121
:102450005A0804E3410EB85DD8B0B88BB8C400F098
:102460001200B8C4E9FFB9C4EAFFEE5211E0B8C4E3
:10247000E9FFB9C4EAFFBAC4D9FFBBC4DAFFEE5022
:10248000DE1806E10401B84BB92BBA4BBB2BE9D7D8
:10249000B8C4E9FFB9C4EAFFBAC4D9FFBBC4DAFFC4
:1024A000DE50EE5C006E016A000E015A120001015E
:1024B0004951020A02E17BDD1ED001DE4C51000AC7
:1024C00019E1010E4A25E16E000E4B21E26E080E65
:1024D000E66E020E4A25E16E000E4B21E26E200EE2
:1024E000E66E040EE66E4AC1E1FF4BC1E2FF8C0EC0
:1024F000E66E01D04C6B120076C1E9FF77C1EAFFAE
:10250000EECF00F000AE05D076C1E1FF77C1E2FF6B
:10251000E66A01014D6B496B726B736B716BE2DDA7
:10252000030E05012E6F000E2F6F306B316B326B77
:10253000336BD5EC0AF052DE12000401C46BC56B9C
:10254000800EC519006E800E005C02E1040EC45DB1
:10255000D8B077D0BA0E05010B6F040E0C6F830E46
:102560000D6F560E0E6F000E0F6F0C0E006E000EEC
:10257000016EC4C404F0C5C405F042EC04F0060EBC
:102580000026020E0122060E0024106F000E01200C
:10259000116F00C0E9FF01C0EAFFEECF00F000C0FC
:1025A00002F0010E006E000E016E025005E00036D2
:1025B00000900136FF0FFAD781500016000E011669
:1025C000000E011802E1000E00180501000ED8A44B
:1025D000010E126F1253010ED8A4000E126FAFEC51
:1025E0000AF0000E0401B91902E1000EB81915E154
:1025F000BA0EC66F040EC76F9DDC00C0D1F401C0D7
:10260000D2F4B8C4CDF4B9C4CEF4BA0ECF6F040E70
:10261000D06FD36B99EC0DF010D0BA0E0401C66FD9
:10262000040EC76F87DC00C0C8F401C0C9F4BA0E3D
:10263000C66F040EC76FCA6B27DC0401C44BC52BE1
:102640007FD7120076C1E9FF77C1EAFFEECF00F035
:10265000000E00BC010E05012D6F040E010176195C
:10266000006E00C076F15851080A0AE122C46EFFDC
:102670006E50000803E2100E586F02D0040E586F1F
:102680004951010A28E1020E7625E16E000E7721FC
:10269000E26E280EE66E040EE66E6FEC0CF04D5105
:1026A000020A07E176C1E1FF77C1E2FF840EE66E20
:1026B00011D005012D51000A07E176C1E1FF77C174
:1026C000E2FFC80EE66E06D076C1E1FF77C1E2FFF9
:1026D000880EE66E01D0F3DC12000401B851200A26
:1026E00009E0B8510D0804E3090EB85D01E302D01A
:1026F000006A02D0010E006E12000401BB6BBC6BBD
:10270000BD6B020EB825F66E000EB921F76E000EF5
:10271000BA21F86E0900F5CF05F0030EB825F66E64
:10272000000EB921F76E000EBA21F86E0900F5CF40
:1027300000F000C003F0000E046E03C001F0006A58
:1027400005500024066E000E0120076EB8C408F084
:10275000B9C409F0BAC40AF0010E0824F66E000EDE
:102760000920F76E000E0A20F86E0900F5CF01F07F
:102770000150020A1BE1060E0824F66E000E092025
:10278000F76E000E0A20F86E0900F5CF01F0015037
:10279000BB5D0CE2060E0824F66E000E0920F76EF3
:1027A000000E0A20F86E0900F5CFBBF4010E0824D4
:1027B000F66E000E0920F76E000E0A20F86E090072
:1027C000F5CF01F00150040A1BE1080E0824F66E53
:1027D000000E0920F76E000E0A20F86E0900F5CFF2
:1027E00001F00150BB5D0CE2080E0824F66E000EED
:1027F0000920F76E000E0A20F86E0900F5CFBBF431
:1028000008C0F6FF09C0F7FF0AC0F8FF0900F5CFBE
:1028100000F00050BC25016E000EBD21026E01C00B
:10282000BCF402C0BDF40750025C02E10650015C3A
:1028300001E30FD008C0F6FF09C0F7FF0AC0F8FF98
:102840000900F5CF00F000500826000E09220A22E8
:1028500083D7BBC400F01200B8C402F0B9C403F0BF
:10286000BBC400F0BCC401F0010E0401BB5F000E4C
:10287000BC5B0050011009E002C0E1FF03C0E2FFB1
:10288000BAC4E6FF024A032AEBD712000401B8518A
:10289000660806E3610EB85D03E3010E006E01D029
:1028A000006A00C0B9F4B851460806E3410EB85DAD
:1028B00003E3010E006E01D0006A0050B913B8C4E2
:1028C00026F587EC03F00401B951001200C0B9F4F9
:1028D0001200E50E006E550E016E000E026E0E0E19
:1028E0000024F66E000E0120F76E000E0220F86E36
:1028F0000900F5CF03F003C004F00F0E0024F66EBC
:10290000000E0120F76E000E0220F86E0900F5CFD0
:1029100001F00150035C12E2E50E006E550E016EEF
:10292000000E026E0F0E0024F66E000E0120F76EF0
:10293000000E0220F86E0900F5CF04F0E50E006EDF
:10294000550E016E000E026E100E0024F66E000E83
:102950000120F76E000E0220F86E0900F5CF01F09D
:102960000150045C12E2E50E006E550E016E000E81
:10297000026E100E0024F66E000E0120F76E000E9F
:102980000220F86E0900F5CF04F004C000F0120038
:10299000130E0101E76F550EE86F000EE96F970EF9
:1029A000EA6F560EEB6F000EEC6F7B0EED6F560E5E
:1029B000EE6F000EEF6F3C0EF06F550EF16F000ED4
:1029C000F26F690EF36F560EF46F000EF56F120082
:1029D000000E0401B91902E1000EB81904E146C164
:1029E000B8F447C1B9F4B8C4E9FFB9C4EAFFEECFFF
:1029F00000F0005203E1006A016A4CD0B8C4C6F48A
:102A0000B9C4C7F4BAC4C8F4BBC4C9F420EC0FF00D
:102A1000B8510026B951012200C0B8F401C0B9F480
:102A200000C0E9FF01C0EAFFEECF00F0005208E16C
:102A30000101466B476B000E006E000E016E2AD03E
:102A4000B8C4C6F4B9C4C7F4BAC4C8F4BBC4C9F4A2
:102A5000B7EC0FF0000E016EB8510026B9510122FB
:102A600000C046F101C047F100C0E9FF01C0EAFF24
:102A7000EE5209E046C1E1FF47C1E2FFE66A01010B
:102A8000464B472B03D00101466B476BB8C400F09F
:102A9000B9C401F01200D08EA28AA08AF28E120070
:102AA000160E6F6E9F0E6B6E7B0E696E120070A01D
:102AB00019D041C1E9FF42C1EAFFEECF01F0015058
:102AC000800A0FE176C1E9FF77C1EAFFEECF01F09E
:102AD0000150840A06E141C1E1FF42C1E2FF8C0ED0
:102AE000E66E7090DF0E68161200A19A1200740E46
:102AF00005012E6F000E2F6F306B316B326B336B15
:102B0000D5EC0AF06D92699468A403D0FB0E6816A8
:102B1000FBD712006984EF0E68166D82750E0501F1
:102B20002E6F000E2F6F306B316B326B336BD5EC29
:102B30000AF01200FD0E01014315016E026AFF0E3C
:102B40000216000E021802E1000E01186CE17E0E62
:102B50004315016E01C003F00332039E03C000F071
:102B6000000E016E003600900136003600900136EE
:102B7000000E0024026E040E0120036E02C041F11B
:102B800003C042F102C04AF103C04BF1040E4A19DE
:102B9000006E00C04AF102C0E9FF03C0EAFFEECFB9
:102BA00000F000C001F03C0E01160132019E01321E
:102BB000019E01500D0A35E1020E4125E96E000E1D
:102BC0004221EA6EEECF01F0EECF02F00250040A8D
:102BD00002E1280E011823E1020E4125E16E000EEC
:102BE0004221E26E200EE66E040EE66E05012C6BAD
:102BF000080E2C5D14E2200EE16E040EE26E2C51E4
:102C0000E126D8B0E22A280EE96E040EEA6E2C51B5
:102C1000E926D8B0EA2AEECFE6FF2C2BE9D76CDC08
:102C200001D045DC0DD0FD0E4315016E026AFF0E8A
:102C30000216000E021802E1040E011801E102DD85
:102C4000120047DE00C09AF4130E0401B86F550E4F
:102C5000B96F000EBA6F51DD00C09BF49A51005C51
:102C600003E29AC400F002D09BC400F0120090DE90
:102C7000626B636B746B756B6A6A686A11DF6D8C6B
:102C80006E6A710E0401B86F0F0EB96FBA6B010E48
:102C9000BB6F000EBC6FE0DD6D9C9A6B080E9A5DF9
:102CA00016E29AC400F0000E016E00360090013664
:102CB000003600900136000E0024E16E040E012063
:102CC000E26EE66AE66AE66AE66A9A2BE7D7160ECD
:102CD000706E68A603D0F70E6816FBD70101716B02
:102CE0007C6B7D6B7E6B6D98080E766F040E776F34
:102CF000686B586B120001015851000A0AE16D6AB5
:102D0000696ACEDEC8DE6DB602D06D86FCD7010ED4
:102D1000586F120004019E6B9F6B000E9B1902E11D
:102D2000000E9A1939E09E6B9F6B800E9F19006E02
:102D3000800E005C02E1020E9E5D2EE29AC4B8F4A1
:102D40009BC4B9F4030E026E9EC400F09FC401F050
:102D5000025005E0003600900136FF0FFAD7F60E5C
:102D60000026010E0122040E0024E96E000E01204F
:102D7000EA6EEECFBAF4EECFBBF431EC12F0000EF7
:102D8000011802E1000E001803E19EC400F045D0D6
:102D900004019E4B9F2BC9D7000E9D1902E1000E26
:102DA0009C1939E09E6B9F6B800E9F19006E800E00
:102DB000005C02E1020E9E5D2EE29CC4B8F49DC44C
:102DC000B9F4030E026E9EC400F09FC401F00250DD
:102DD00005E0003600900136FF0FFAD7F60E002608
:102DE000010E0122060E0024E96E000E0120EA6E9B
:102DF000EECFBAF4EECFBBF431EC12F0000E0118B6
:102E000002E1000E001803E19EC400F006D00401A8
:102E10009E4B9F2BC9D7FF0E006E1200B9DD626B6F
:102E2000636B746B756B6A6A686A3ADE6D8C6E6A86
:102E3000710E05012E6F0F0E2F6F306B010E316F6B
:102E4000000E326F19EC0BF06D9C2C6B080E2C5D94
:102E500016E22CC500F0000E016E0036009001361F
:102E6000003600900136000E0024E16E040E0120B1
:102E7000E26EE66AE66AE66AE66A2C2BE7D7160E89
:102E8000706E68A603D0F70E6816FBD70101716B50
:102E90007C6B7D6B7E6B6D98080E766F040E776F82
:102EA000686B586B120004019A6B9B6B130E9B5D51
:102EB000D8B02AD19A53D8A427D19B51010F9C6F27
:102EC000800E006E800E000A005C02E1140E9C5D14
:102ED000D8B018D19A53D8A415D19BC400F0000ED5
:102EE000016E003600900136003600900136E80E83
:102EF0000026000E012200C0E9FF01C0EAFFEECF6C
:102F0000B8F4EECFB9F4020E0024E96E000E0120F1
:102F1000EA6EEECFBAF4EECFBBF49CC400F0000E24
:102F2000016E003600900136003600900136E80E42
:102F30000026000E012200C0E9FF01C0EAFFEECF2B
:102F4000BCF4EECFBDF4020E0024E96E000E0120A9
:102F5000EA6EEECFBEF4EECFBFF4EEEC11F000C09F
:102F60009DF40050010A65E19BC400F0000E016E63
:102F7000003600900136003600900136E80E00263B
:102F8000000E0122020E0024036E000E0120046ECA
:102F90009CC400F0000E016E003600900136003631
:102FA00000900136E80E0026000E0122020E0024D9
:102FB000D96E000E0120DA6E03C0E9FF04C0EAFFFB
:102FC000DE50EE24006EDE50EE20016E03C0E1FF05
:102FD00004C0E2FF00C0E6FF01C0E6FF9CC400F0B1
:102FE000000E016E0036009001360036009001366A
:102FF000E80E0024E16E000E0120E26EE66AE66A49
:103000009CC400F0000E016E0036009001360036C0
:1030100000900136E80E0026000E0122020E002468
:10302000E16E000E0120E26EE66AE66A010E9A6F1A
:1030300067D09D51020A64E19CC400F0000E016E4D
:10304000003600900136003600900136E80E00266A
:10305000000E0122020E0024036E000E0120046EF9
:103060009BC400F0000E016E003600900136003661
:1030700000900136E80E0026000E0122020E002408
:10308000D96E000E0120DA6E03C0E9FF04C0EAFF2A
:10309000DE50EE24006EDE50EE20016E03C0E1FF34
:1030A00004C0E2FF00C0E6FF01C0E6FF9BC400F0E1
:1030B000000E016E00360090013600360090013699
:1030C000E80E0024E16E000E0120E26EE66AE66A78
:1030D0009BC400F0000E016E0036009001360036F1
:1030E00000900136E80E0026000E0122020E002498
:1030F000E16E000E0120E26EE66AE66A010E9A6F4A
:103100009C2BDED69B2BD2D69A51010AD8B4CBD6B3
:103110000001E76B04019B6B800E006E800E000ABD
:10312000005C02E1140E9B5D21E29BC400F0000EE6
:10313000016E003600900136003600900136E80E30
:103140000024E96E000E0120EA6EEECF01F0EECF12
:1031500002F0000E006E0250005C02E10150000817
:1031600002E20001E72B04019B2BD6D70101386B4B
:1031700012007C0E0401B26FB36BB46BB56B000E22
:1031800000019E1902E1020E9D1907E0000E9E1932
:1031900002E1010E9D1901E01FD081A81DD0400E53
:1031A00005010B6F060E0C6F400E0D6F560E0E6F65
:1031B000000E0F6F9AC410F59BC411F5AFEC0AF026
:1031C0000501400E0B6F060E0C6F400E0D6F33ECB9
:1031D0000BF0005201E1F4D79AC4B8F49BC4B9F4DF
:1031E0000D0E0401BA6FCBEC11F000C0B8F401C0B1
:1031F000B9F40A0EBA6FCBEC11F000C0B8F401C0FC
:10320000B9F4B20EBA6F040EBB6FE8EC14F000C054
:103210009EF401C09FF40401B44BB52BB4C400F07C
:10322000B5C401F00036009001369E0E0024B66F42
:10323000040E0120B76FB86BB96BB20EBA6F040EF3
:10324000BB6FE8EC14F0B6C4E1FFB7C4E2FF00C006
:10325000E6FF01C0E6FFB4C400F0B5C401F00036DB
:10326000009001369E0E0024E96E040E0120EA6EE5
:10327000EECF01F0EECF02F0000E021802E1000ED8
:103280000118C9E19EC4B8F49FC4B9F4AE0E04019C
:10329000BA6F000EBB6F31EC12F0000E011802E1A4
:1032A000000E001818E1A0C4B8F4A1C4B9F4B10E1E
:1032B0000401BA6F000EBB6F31EC12F0000E011862
:1032C00002E1000E001806E19CC4B8F49DC4B9F4F4
:1032D0009DEC12F0EDD004019EC4B8F49FC4B9F483
:1032E0009A0EBA6F000EBB6F31EC12F0000E01188F
:1032F00002E1000E0018D8A4DBD0A0C4B8F4A1C429
:10330000B9F48A0E0401BA6F000EBB6F31EC12F0F3
:10331000000E011802E1000E001826E1A2C4B8F464
:10332000A3C4B9F48C0E0401BA6F000EBB6F31EC6C
:1033300012F0000E011802E1000E001802E189806F
:1033400012D0A2C4B8F4A3C4B9F4880E0401BA6FB1
:10335000000EBB6F31EC12F0000E011802E1000EFE
:103360000018D8B48990A4D0A0C4B8F4A1C4B9F40A
:10337000840E0401BA6F000EBB6F31EC12F0000E28
:10338000011802E1000E001826E1A2C4B8F4A3C49B
:10339000B9F4860E0401BA6F000EBB6F31EC12F067
:1033A000000E011802E1000E001802E1898212D01D
:1033B000A2C4B8F4A3C4B9F4940E0401BA6F000E09
:1033C000BB6F31EC12F0000E011802E1000E001884
:1033D000D8B489926DD0A0C4B8F4A1C4B9F4960E43
:1033E0000401BA6F000EBB6F31EC12F0000E011831
:1033F00002E1000E001826E1A2C4B8F4A3C4B9F497
:10340000980E0401BA6F000EBB6F31EC12F0000E83
:10341000011802E1000E001802E1898412D0A2C452
:10342000B8F4A3C4B9F48E0E0401BA6F000EBB6FDA
:1034300031EC12F0000E011802E1000E0018D8B4B1
:10344000899436D0A0C4B8F4A1C4B9F4900E040194
:10345000BA6F000EBB6F31EC12F0000E011802E1E2
:10346000000E001825E1A2C4B8F4A3C4B9F4920E6A
:103470000401BA6F000EBB6F31EC12F0000E0118A0
:1034800002E1000E001802E1898612D0A2C4B8F44D
:10349000A3C4B9F4DB0E0401BA6F000EBB6F31ECAC
:1034A00012F0000E011802E1000E0018D8B489963F
:1034B000120004019C6B9D6BA06BA16B9AC4E9FF89
:1034C0009BC4EAFFEECFB8F46DEC13F0005203E0BA
:1034D0009A4B9B2BF3D79AC4E9FF9BC4EAFFEE50AB
:1034E0002D0A05E19C4B9D2B9A4B9B2B09D09AC42E
:1034F000E9FF9BC4EAFFEE502B0A02E19A4B9B2B9B
:103500009AC400F09BC401F09A4B9B2B00C0E9FFCA
:1035100001C0EAFFEECF9EF4000E9F6F000E9F6F7A
:103520009EC4B8F446EC14F0005230E09EC4B8F4E7
:10353000BFEC11F0005208E09EC4B8F426EC12F083
:1035400000C09EF4000E9F6F9EC426F587EC03F02A
:10355000005206E0300E04019E5F000E9F5B05D016
:103560000401570E9E5F000E9F5BA037A091A1370C
:10357000A037A091A137A037A091A137A037A09183
:10358000A1379E51A027000EA123BAD79C519D11AF
:1035900008E0A0510008006EA1C401F0000E015621
:1035A00004D0A0C400F0A1C401F01200046A056AAE
:1035B0000101395305E004C000F005C001F0EED070
:1035C000066A800E006E800E000A005C02E1140E96
:1035D000065CD8B0DFD006C000F0000E016E0036E9
:1035E00000900136003600900136E80E0024E96EA6
:1035F000000E0120EA6EEECF01F0EECF02F0000ED9
:10360000006E0250005C02E101500008D8B0C0D04A
:1036100006C000F0000E016E003600900136003644
:1036200000900136E80E0026000E0122020E002452
:10363000E96E000E0120EA6EEECF01F0EECF02F04F
:1036400004019B51025C02E19A51015CD8A0A0D018
:1036500006C000F0000E016E003600900136003604
:1036600000900136E80E0026000E012200C0E9FF9E
:1036700001C0EAFFEECF04F0EECF05F0020E002409
:10368000E96E000E0120EA6EEECF01F0EECF02F0FF
:1036900002509B5D02E101509A5D4BE206C000F0D2
:1036A000000E016E003600900136003600900136A3
:1036B000E80E0024026E000E0120036E02C0E9FF36
:1036C00003C0EAFFEECF00F0EECF01F09A510026E2
:1036D0009B51012202C0E1FF03C0E2FF00C0E6FFF0
:1036E00001C0E6FF06C000F0000E016E003600903B
:1036F0000136003600900136E80E0026000E012249
:10370000020E0024026E000E0120036E02C0E9FFCB
:1037100003C0EAFF9A51EE5C006E9B51EE58016EB9
:1037200002C0E1FF03C0E2FF00C0E6FF01C0E6FF08
:103730002AD006C000F0000E016E0036009001365F
:10374000003600900136E80E0024E16E000E0120E4
:10375000E26EE66AE66A06C000F0000E016E003610
:1037600000900136003600900136E80E0026000E6B
:103770000122020E0024E16E000E0120E26EE66AD4
:10378000E66A0001E70704C000F005C001F006D0BA
:10379000062A17D704C000F005C001F01200A6A247
:1037A00002D00000FCD7A69C9AC4A9FF9BC4A8FF26
:1037B000A69EA684F2CF00F0F29E550EA76EAA0E2A
:1037C000A76EA68200BE02D0F29E01D0F28EA69411
:1037D00012006D6A696A0101586B1200200E010126
:1037E000585D03E36DB201D002D0006A27D062C1F8
:1037F00026F563C127F5C1EC01F000521EE1010E70
:1038000001016225E96E000E6321EA6EEECF00F041
:1038100000C09EF49DC426F50501276B9AC428F5C7
:103820009BC429F59CC42AF5F1EC01F000C062F1BB
:1038300001C063F19EC400F001D0006A1200A69C92
:103840009AC4A9FFA69EA680A8CF00F012009AC431
:1038500004F09BC405F004C002F005C003F0044A64
:10386000052A9CC400F09DC401F004019C4B9D2BD3
:1038700000C0E9FF01C0EAFF02C0E1FF03C0E2FFB0
:10388000EECFE6FF02C0E9FF03C0EAFFEE5201E01F
:10389000E2D79AC400F09BC401F0120004013A6B15
:1038A0003B6B800E3B19006E800E005C02E1080E3F
:1038B0003A5D20E2030E0B6E700E0C6E5C0E0D6E08
:1038C0000D2EFED70C2EFCD70B2EFAD700003A5146
:1038D00038253C6F3B5139213D6F3A5136259A6F5F
:1038E000AEDF3CC4E1FF3DC4E2FF00C0E6FF3A4B5F
:1038F0003B2BD7D7120036C49AF437C49BF456DE5C
:1039000000C038F401C039F40150000A02E1000E91
:1039100000180EE1010138530BE053EC17F036C4E8
:103920009AF437C49BF442DE00C038F401C039F485
:1039300038C400F039C401F0120004013A6B3B6B4B
:10394000800E3B19006E800E3919005C02E138517F
:103950003A5D0EE23A513625E96E3B513721EA6E67
:10396000EECF0BF53EEC0BF004013A4B3B2BE8D7C6
:1039700012002FDF12000900F5CFE6FF0006FBE181
:103980000106F9E1120021EC16F000C069F1010E08
:1039900001013F6F36C456F137C457F138C43DF1C9
:1039A00039C43EF137EC16F0010E016E0150010AE8
:1039B00002E17BEC16F0120056C19AF457C19BF459
:1039C000400E04019C6F010E9D6F08DF12007C0EFB
:1039D00001015E6F160E5F6F0B0E606F050E616F5B
:1039E000C40E5A6F3C0E5B6F000E5C6F000E5D6F75
:1039F000BA0E526F3C0E536F000E546F000E556F8F
:103A0000FF0E4E6FFF0E4F6F000E506F000E516F86
:103A1000AC8A900EAB6E948E949C9EAA03D0AECFCF
:103A200000F0FBD71200900E0001EA6F010EEB6F61
:103A3000420EE86F020EE96F010E036E800E006EFB
:103A4000800E000A005C02E1140E035C2AE203C04F
:103A500000F0000E016E0036009001360036009036
:103A60000136E80E0024E16E000E0120E26EE66AE7
:103A7000E66A03C000F0000E016E003600900136C9
:103A8000003600900136E80E0026000E0122020EDC
:103A90000024E16E000E0120E26EE66AE66A032A67
:103AA000CDD7010EE76F0101396B386B12000101B0
:103AB0005851010A07E16DBA05D0686A69806988C2
:103AC000020E586F68A406D069A404D0FB0E6816D5
:103AD00077EC15F06DA203D075EC15F080D068A0DE
:103AE00019D069A017D00EEC17F0040E586F200EF5
:103AF0000401026F040E036F080E016F000E001523
:103B0000006E00C000F48C0E0011006E00C000F4C6
:103B1000FE0E681668A806D069A804D08AEC15F0D5
:103B2000EF0E681668AC11D069AC0FD0730E0501AA
:103B30002E6F000E2F6F306B316B010E326F000E47
:103B4000336FD5EC0AF0BF0E681668AA04D069AAD4
:103B500002D057EC15F068A210D069A20ED0FF0E6B
:103B600005012E6F3F0E2F6F306B316B010E326FE0
:103B7000000E336FD5EC0AF06A6A040E0101585D3D
:103B800003E275EC15F02BD069A627D005012B6B4D
:103B9000040E2B5D22E268A61CD06CCF43F1F70E19
:103BA0006816780E01014315016E0150000A03E109
:103BB0009AEC15F00DD0720E05012E6F000E2F6FCE
:103BC000430E306F010E316F326B336BD5EC0AF060
:103BD00001D003D005012B2BDBD775EC15F01200BB
:103BE00036C4E9FF37C4EAFFEECF38F4000E040113
:103BF000396F000E396F000E391902E1200E3819A5
:103C000007E0000E391902E1090E381901E003D06E
:103C1000364B372BE5D73A6B3B6B3C6B3D6B000E5D
:103C2000391902E12D0E381905E13C4B3D2B364B7D
:103C3000372B08D0000E391902E12B0E381902E19A
:103C4000364B372B36C4E9FF37C4EAFFEECF38F4E2
:103C5000000E396F000E396F38C426F587EC03F07B
:103C600000521AE03AC400F03BC401F00A0E046EA0
:103C7000000E056E42EC04F0300E0401385D026E59
:103C8000000E3959036E025000243A6F0350012090
:103C90003B6F364B372BD6D704013C513D1108E022
:103CA0003A510008006E3BC401F0000E015604D0EA
:103CB0003AC400F03BC401F01200000E9EBA010E9F
:103CC000006E1200AECF01F0ABA202D0AB98AB8871
:103CD00001C000F012000401366B376B800E3719FB
:103CE000006E800E005C02E1020E365DD8B0A1D0FD
:103CF000030E026E36C400F037C401F0025005E036
:103D0000003600900136FF0FFAD7F60E0026010E9E
:103D10000122020E0024E96E000E0120EA6E030E5D
:103D20000024D96E000E0120DA6EEE50DE18D8B4F1
:103D30007CD0030E026E36C400F037C401F002508E
:103D400005E0003600900136FF0FFAD7F60E002688
:103D5000010E0122030E0024E16E000E0120E26E2E
:103D6000020E0024E96E000E0120EA6EEECFE6FF9F
:103D7000030E026E36C400F037C401F0025005E0B5
:103D8000003600900136FF0FFAD7F60E0026010E1E
:103D90000122020E0024E96E000E0120EA6EEE50B0
:103DA000010A43E1030E026E36C400F037C401F08D
:103DB000025005E0003600900136FF0FFAD7F60EEC
:103DC0000026010E0122040E0024E96E000E0120DF
:103DD000EA6EEECFB8F4EECFB9F49DEC12F0030E1C
:103DE000026E36C400F037C401F0025005E0003620
:103DF00000900136FF0FFAD7F60E0026010E0122C1
:103E0000040E0024E96E000E0120EA6EEECFCDF420
:103E1000EECFCEF4CD0ECF6F000ED06F0B0ED16F64
:103E2000000ED26FD36B99EC0DF00401364B372B9B
:103E300055D70001DA51CC1902E1CB51D9190FE065
:103E4000CBC0D9F0CCC0DAF0000ECC1902E1020EE2
:103E5000CB1905E10401B86BB96B9DEC12F01200AF
:103E600036C400F00032009E0032009E0032009EF8
:103E70000032009E190E0024F66E560EF76E000EEC
:103E8000F722000EF86E000EF8220900F5CF00F0C0
:103E900037C4E1FF38C4E2FF00C0E6FF010E0401B1
:103EA0003725E16E000E3821E26E0F0E3615006EDA
:103EB000190E0024F66E560EF76E000EF722000E55
:103EC000F86E000EF8220900F5CF00F000C0E6FF02
:103ED000020E3725E16E000E3821E26EE66A12000E
:103EE00004013D6B3E6B3F6B406B3D6B3E6B800E48
:103EF0003E19006E800E005C02E1100E3D5D37E25F
:103F00003D513825E96E3E513921EA6EEECF3AF443
:103F1000010E3D25006E000E3E21016E0050382539
:103F2000E96E01503921EA6EEECF3BF43C6B3A0E5C
:103F30009A6F040E9B6F59EC1AF03F5136259A6F19
:103F400000C09BF42CDC020E0B6ED40E0C6E850EA2
:103F50000D6E0D2EFED70C2EFCD70B2EFAD70401BA
:103F60003F4B402B020E3D27000E3E23C0D71200D0
:103F70000401386B396B800E3919006E800E005CBD
:103F800002E1040E385DD8B01CD10C0E006E000E9C
:103F9000016E38C404F039C405F042EC04F0060E9A
:103FA0000024036E020E0120046E03C0E9FF04C06A
:103FB000EAFFEECF00F000C002F0010E006E000E2E
:103FC000016E025005E0003600900136FF0FFAD76F
:103FD00000508114366F000E0114376F000E371930
:103FE00002E1000E3619000ED8A4010E366F3653CA
:103FF000010ED8A4000E366F000E376F010E032499
:10400000D96E000E0420DA6EDECF01F0DECF02F0B2
:104010003751021802E101503619D8B49FD00C0E66
:10402000006E000E016E38C404F039C405F042EC95
:1040300004F0060E0026020E0122050E0024E16E99
:10404000000E0120E26E010EE66E0C0E006E000EF8
:10405000016E38C404F039C405F042EC04F0060ED9
:104060000026020E0122030E0024E96E000E01203C
:10407000EA6E050EEE24016E000EEE20026E800E3A
:104080000218006E800E0001DE19005C02E1DD51B5
:10409000015C64E20C0E006E000E016E38C404F088
:1040A00039C405F042EC04F0060E0026020E01228F
:1040B000050E0024E16E000E0120E26EE66A0C0E91
:1040C000006E000E016E38C404F039C405F042ECF5
:1040D00004F0060E0026020E0122010E0024E16EFD
:1040E000000E0120E26E36C4E6FF37C4E6FF380E4C
:1040F00005010B6F020E0C6F8A0E0D6F560E0E6FC0
:10410000000E0F6F0C0E006E000E016E38C404F02E
:1041100039C405F042EC04F0060E0024106F020EC4
:104120000120116F060E1027000E112336C412F560
:1041300037C413F5AFEC0AF0380E0401C66F020E57
:10414000C76F9AEC0FF000C0C8F401C0C9F4380E74
:10415000C66F020EC76FCA6B44EC0FF00C0E006EF8
:10416000000E016E38C404F039C405F042EC04F0CE
:10417000060E0026020E0122050E0024E96E000E36
:104180000120EA6EEE50000A18E10C0E006E000EDF
:10419000016E38C404F039C405F042EC04F0060E98
:1041A0000026020E0122030E0024E16E000E012003
:1041B000E26EDDC0E6FFDEC0E6FF0401384B392BBE
:1041C000DAD60001DD4BDE2B12000401966B976BF3
:1041D000986B996B86C196F4000E976F000E971935
:1041E00002E1900E9619D8A49AD0040E366F000EF4
:1041F000376F800E006E800E3719005C02E1365179
:104200000B0817E3040E365D006E000E3759016E81
:10421000850E0024E16E040E0120E26E830E362529
:10422000E96E010E3721EA6EEECFE6FF364B372BF3
:10423000E0D70C0E366F000E376F800E006E800ECA
:104240003719005C02E136510D0817E30C0E365D9C
:10425000006E000E3759016E8D0E0024E16E040EC3
:104260000120E26E830E3625E96E010E3721EA6EDB
:10427000EECFE6FF364B372BE0D70C0E365D006EE7
:10428000000E3759016E8D0E0024E16E040E0120E0
:10429000E26EE66A0F0E366F000E376F020E0001F7
:1042A000C925016E000ECA21026E800E0218006E32
:1042B000800E04013719005C02E13651015C17E3FE
:1042C0000F0E365D006E000E3759016E380E002459
:1042D000E16E040E0120E26E830E3625E96E010EBA
:1042E0003721EA6EEECFE6FF364B372BD7D70F0ECE
:1042F000365D006E000E3759016E380E0024E16EF7
:10430000040E0120E26EE66A380E9A6F040E9B6F6F
:10431000850E9C6F040E9D6FB9EC18F0F6D2000E5E
:104320000401971902E1950E9619D8A4C4D0FF0E86
:10433000906FFF0E916F8FC16AF490C16BF46C6B3C
:10434000040E366F000E376F800E3719006E800E28
:10435000005C02E10C0E365D17E2040E365D006E65
:10436000000E3759016E6D0E0024E16E040E01201F
:10437000E26E830E3625E96E010E3721EA6EEECF2E
:10438000E6FF364B372BE0D76D0E9A6F040E9B6F0E
:104390009C6B9D6B8AEC16F000C090F4000E00BE82
:1043A000FF0E0401916F800E9119006E800E005C6B
:1043B00002E1000E905D52E3030E026E90C400F025
:1043C00091C401F0025005E0003600900136FF0F65
:1043D000FAD7F60E0026010E0122060E0024E96E21
:1043E000000E0120EA6EEECF9AF4EECF9BF46A0E37
:1043F0009C6F040E9D6F27EC1CF0030E026E90C4A0
:1044000000F091C401F0025005E000360090013642
:10441000FF0FFAD7F60E0026010E0122030E00242C
:10442000E16E000E0120E26EE66A030E026E90C499
:1044300000F091C401F0025005E000360090013612
:10444000FF0FFAD7F60E0026010E0122020E0024FD
:10445000E16E000E0120E26E010EE66E366B376BE8
:10446000800E3719006E800E005C02E1100E365D82
:1044700021E2750E3625E16E040E3721E26E1A0E2A
:104480003625006E000E3721016E830E0024E96E82
:10449000010E0120EA6EEECFE6FF750E3625E96EBD
:1044A000040E3721EA6EEE50000A01E103D0364BCC
:1044B000372BD6D72AD2000E971902E1880E96190B
:1044C000D8A441D188C198F489C199F401018A51D5
:1044D000000AD8A437D1040198514E0AD8A4C8D0F4
:1044E0009951440AD8A4C4D0FF0E926FFF0E936F67
:1044F0008BC16AF48CC16BF46C6B0A0E366F000EC4
:10450000376F800E3719006E800E005C02E1120ECC
:10451000365D17E20A0E365D006E000E3759016EE9
:104520006D0E0024E16E040E0120E26E830E36252E
:10453000E96E010E3721EA6EEECFE6FF364B372BE0
:10454000E0D76D0E9A6F040E9B6F9C6B9D6B8AEC8F
:1045500016F000C092F4000E00BEFF0E0401936F2F
:10456000800E9319006E800E005C02E1000E925DD9
:1045700052E3030E026E92C400F093C401F00250A5
:1045800005E0003600900136FF0FFAD7F60E002640
:10459000010E0122060E0024E96E000E0120EA6ED3
:1045A000EECF9AF4EECF9BF46A0E9C6F040E9D6FD3
:1045B00027EC1CF0030E026E92C400F093C401F0CD
:1045C000025005E0003600900136FF0FFAD7F60ED4
:1045D0000026010E0122030E0024E16E000E0120D0
:1045E000E26EE66A030E026E92C400F093C401F01C
:1045F000025005E0003600900136FF0FFAD7F60EA4
:104600000026010E0122020E0024E16E000E0120A0
:10461000E26E010EE66E366B376B800E3719006E58
:10462000800E005C02E1100E365D21E2750E36252B
:10463000E16E040E3721E26E130E3625006E000E79
:104640003721016E830E0024E96E010E0120EA6E0F
:10465000EECFE6FF750E3625E96E040E3721EA6EC1
:10466000EE50000A01E103D0364B372BD6D76AD083
:1046700098514D0AD8A466D09951590AD8A462D04D
:104680008BC136F28CC137F202013651FF0A2FE09E
:104690003751FE0A2CE0020E0001CB6F000ECC6FEA
:1046A000000E9E1902E1020E9D1907E0000E9E19F0
:1046B00002E1010E9D1901E019D081A817D0400E2A
:1046C00004019A6F060E9B6FBA0E9C6F000E9D6FD1
:1046D00027EC1CF0400E05010B6F060E0C6F400E10
:1046E0000D6F33EC0BF0005201E1F4D72BD0000139
:1046F000CB6BCC6B000E9E1902E1020E9D1907E0F8
:10470000000E9E1902E1010E9D1901E01BD081A847
:1047100019D0400E05010B6F060E0C6FC10E0D6F08
:10472000550E0E6F000E0F6FAFEC0AF00501400E34
:104730000B6F060E0C6F400E0D6F33EC0BF000523A
:1047400001E1F4D7E2D0000E0401971902E18A0ECC
:104750009619D8A467D001018751030A2DE1000EF4
:1047600000019E1902E1020E9D1907E0000E9E193C
:1047700002E1010E9D1901E01BD081A819D0400E65
:1047800005010B6F060E0C6FD30E0D6F550E0E6FDD
:10479000000E0F6FAFEC0AF00501400E0B6F060E16
:1047A0000C6F400E0D6F33EC0BF0005201E1F4D7AB
:1047B0000001CB6BCC6B35D001018751020A31E18E
:1047C000000E0001CC1902E1020ECB192AE0020E04
:1047D000CB6F000ECC6F000E9E1902E1020E9D19E8
:1047E00007E0000E9E1902E1010E9D1901E019D0AB
:1047F00081A817D0400E04019A6F060E9B6F9F0E82
:104800009C6F000E9D6F27EC1CF0400E05010B6F96
:10481000060E0C6F400E0D6F33EC0BF0005201E1F1
:10482000F4D773D0000E0401971902E18B0E96198C
:10483000D8A46BD0FF0E946FFF0E956F88C16AF4F9
:1048400089C16BF46C6B01018B51000A01E15DD0F1
:104850008B51210A5AE104019A6B9B6B6A0E9C6F83
:10486000040E9D6F8AEC16F000C094F4000E00BE9A
:10487000FF0E0401956F800E9519006E800E005C8E
:1048800002E1000E945D18E3030E026E94C400F082
:1048900095C401F0025005E0003600900136FF0F8C
:1048A000FAD7F60E0026010E0122020E0024E16E58
:1048B000000E0120E26EE66A000E00019E1902E180
:1048C000020E9D1907E0000E9E1902E1010E9D19CE
:1048D00001E01BD081A819D0400E05010B6F060E18
:1048E0000C6FAE0E0D6F550E0E6F000E0F6FAFEC0E
:1048F0000AF00501400E0B6F060E0C6F400E0D6F97
:1049000033EC0BF0005201E1F4D712004FEC2BF026
:104910007C0E0401326F336B3D0E0B6EE10E0C6E9C
:104920003F0E0D6E0D2EFED70C2EFCD70B2EFAD798
:10493000000000000001CB6BCC6BD96BDA6BB88642
:10494000040EB06EE10EAF6EAC84E7EC1CF013EC1D
:104950001DF00301E66BE76B800EE719006E800E19
:10496000005C02E10A0EE65D20E2E6C300F0E7C368
:1049700001F0003600900136E80E00240401346F87
:10498000030E0120356F1E0E366F000E376F7BEC65
:104990001CF034C4E1FF35C4E2FF00C0E6FF01C0F3
:1049A000E6FF0301E64BE72BD7D7929089909292CE
:1049B0008992929489949296899693809382938413
:1049C00093869386938AE66BE76B800EE719006EF9
:1049D000800E005C02E1020EE65DD8B0EDD0030E61
:1049E000026EE6C300F0E7C301F0025005E00036B6
:1049F00000900136FF0FFAD7F60E0026010E0122B5
:104A0000020E0024E16E000E0120E26EE66A030E43
:104A1000026EE6C300F0E7C301F0025005E0003685
:104A200000900136FF0FFAD7F60E0026010E012284
:104A3000030E0024E16E000E0120E26EE66A030E12
:104A4000026EE6C300F0E7C301F0025005E0003655
:104A500000900136FF0FFAD7F60E0026010E012254
:104A600000C034F401C035F4090EE603F3CF00F0C2
:104A70000050010F04019A6F1FEC1CF034C4E1FFD9
:104A800035C4E2FF00C0E6FF000EE66E030E026EC4
:104A9000E6C300F0E7C301F0025005E000360090E5
:104AA0000136FF0FFAD70401F60E0026010E01228F
:104AB000040E0024346F000E0120356F080E366F8F
:104AC000000E376F7BEC1CF034C4E1FF35C4E2FF0D
:104AD00000C0E6FF01C0E6FF030E026EE6C300F071
:104AE000E7C301F0025005E0003600900136FF0FE9
:104AF000FAD7F60E0026010E0122060E002404014C
:104B0000346F000E0120356F040E366F000E376FC4
:104B10007BEC1CF034C4E1FF35C4E2FF00C0E6FFCB
:104B200001C0E6FF020E0B6E380E0C6EAD0E0D6E60
:104B30000D2EFED70C2EFCD70B2EFAD7E6C300F0B5
:104B4000E7C301F0090E046E000E056E42EC04F09E
:104B5000020E00240401366F000E0120376F030E91
:104B6000026EE6C300F0E7C301F0025005E0003634
:104B700000900136FF0FFAD7F60E0026010E012233
:104B8000040E0024E96E000E0120EA6EEECF38F428
:104B9000EECF39F44EEC1CF0020E0B6E380E0C6E9C
:104BA000AD0E0D6E0D2EFED70C2EFCD70B2EFAD7A8
:104BB0000301E64BE72B09D7E66BE76B800EE7199D
:104BC000006E800E005C02E1040EE65DD8B0A1D05C
:104BD0000C0E006E000E016EE6C304F0E7C305F094
:104BE00042EC04F0060E0024E16E020E0120E26E9B
:104BF000E6C3E6FF0C0E006E000E016EE6C304F085
:104C0000E7C305F042EC04F0060E0026020E012276
:104C1000010E0024E16E000E0120E26E00C0E9FFEB
:104C200001C0EAFFEECF00F000C002F0010E006EFE
:104C3000000E016E025005E0003600900136FF0FB5
:104C4000FAD700508114026E000E0114036E000E9C
:104C5000031802E1000E0218000ED8A4010E006E27
:104C600000C0E6FF000EE66E0C0E006E000E016E38
:104C7000E6C304F0E7C305F042EC04F0060E00269C
:104C8000020E0122010E0024036E000E0120046EAC
:104C900003C0E9FF04C0EAFFEECF01F0EECF02F05F
:104CA00001500210010ED8A4000E006E03C0E1FFF7
:104CB00004C0E2FF00C0E6FF000EE66E0C0E006EC0
:104CC000000E016EE6C304F0E7C305F042EC04F009
:104CD000060E002405010B6F020E01200C6F060E5C
:104CE0000B27000E0C23910E0D6F560E0E6F000E4B
:104CF0000F6F010E0301E6250501106F000E030181
:104D0000E7210501116FAFEC0AF00301E64BE72B39
:104D100055D70F0EC2120F0EC1120F0EC012070E82
:104D2000B412F28EF28C9D8A81A80BD0000E040181
:104D3000366F060E376F400E386F060E396FC3ECB4
:104D40001CF000019D6B9E6B6B0E0401366F000E14
:104D5000376F080E386F000E396F9DEC1CF00001A4
:104D60007B51010A04E17B6BE5EC20F00DD0B8EC3F
:104D70001FF06BEC1EF0100E0C6E940E0D6E0D2ECF
:104D8000FED70C2EFCD7000081A867D3DCEC1CF00A
:104D90000050000AD8B461D30301E66BE76B000E44
:104DA0000401B86F060EB96F0D0EBA6FCBEC11F09F
:104DB00000C0B8F401C0B9F40A0EBA6FCBEC11F020
:104DC00000C0B8F401C0B9F4320EBA6F040EBB6F64
:104DD000E8EC14F000C0E8F301C0E9F30301E64B8E
:104DE000E72BE6C300F0E7C301F000360090013680
:104DF000E80E00240401346F030E0120356FB86BF8
:104E0000B96B320EBA6F040EBB6FE8EC14F034C409
:104E1000E1FF35C4E2FF00C0E6FF01C0E6FFE6C3E4
:104E200000F0E7C301F0003600900136E80E0024E0
:104E3000E96E030E0120EA6EEECF01F0EECF02F034
:104E4000000E021802E1000E0118C8E1E8C3B8F430
:104E5000E9C3B9F4730E0401BA6F000EBB6F31ECF5
:104E600012F0000E011802E1000E001831E1400EB0
:104E700005010B6F060E0C6F350E0D6F560E0E6F83
:104E8000000E0F6FAFEC0AF00501400E0B6F060E1F
:104E90000C6F400E0D6F33EC0BF0005201E1F4D7B4
:104EA00004019A6B010E9B6FCFEC1BF0B9EC1CF068
:104EB0003D0E0B6EE10E0C6E3F0E0D6E0D2EFED7ED
:104EC0000C2EFCD70B2EFAD700000000FF00C5D235
:104ED000E8C3B8F4E9C3B9F4600E0401BA6F000E78
:104EE000BB6F31EC12F0000E011802E1000E001849
:104EF00039E1EAC3B8F4EBC3B9F45A0E0401BA6F4E
:104F0000000EBB6F31EC12F0000E011802E1000E32
:104F1000001827E1ECC336F4EDC337F4F0EC1DF0D4
:104F200000C09DF001C09EF0400E05010B6F060E03
:104F30000C6F5F0E0D6F560E0E6F000E0F6F00C0E0
:104F400010F501C011F5AFEC0AF00501400E0B6F32
:104F5000060E0C6F400E0D6F33EC0BF0005201E1AA
:104F6000F4D77BD2E8C3B8F4E9C3B9F4660E040100
:104F7000BA6F000EBB6F31EC12F0000E011802E1A7
:104F8000000E001814E1EAC3C6F4EBC3C7F49AECB0
:104F90000FF000C0D1F401C0D2F4CD6BCE6BEAC3E8
:104FA000CFF4EBC3D0F4D36B99EC0DF056D2E8C339
:104FB000B8F4E9C3B9F4640E0401BA6F000EBB6F14
:104FC00031EC12F0000E011802E1000E00181AE197
:104FD000400E05010B6F060E0C6F970E0D6F550EF0
:104FE0000E6F000E0F6FAFEC0AF00501400E0B6F55
:104FF000060E0C6F400E0D6F33EC0BF0005201E10A
:10500000F4D72BD2E8C3B8F4E9C3B9F4470E0401CE
:10501000BA6F000EBB6F31EC12F0000E011802E106
:10502000000E001801E119D2E8C3B8F4E9C3B9F4DD
:10503000400E0401BA6F000EBB6F31EC12F0000E8F
:10504000011802E1000E0018D8A407D2EAC3B8F490
:10505000EBC3B9F4530E0401BA6F000EBB6F31EC11
:1050600012F0000E011802E1000E0018D8A4E5D0DD
:10507000ECC3B8F4EDC3B9F44C0E0401BA6F000EE2
:10508000BB6F31EC12F0000E011802E1000E0018A7
:10509000D8A4D2D00301FC6BFD6BEEC336F4EFC392
:1050A00037F4F0EC1DF000C0FCF301C0FDF3800EFE
:1050B000026E800E0118025C02E100500008D8B0B8
:1050C000BBD0010E0301FC5D016E000EFD59026EA6
:1050D000800E0218006E800E005C02E1020E015C80
:1050E000D8B0AAD0F0C336F4F1C337F4F0EC1DF019
:1050F00000C0D2F301C0D3F3000E011802E1000E8C
:10510000001808E0000E0301D31902E1010ED219C4
:1051100001E092D00301010EFC5D006E000EFD590E
:10512000016E090E046E000E056E42EC04F0010ED5
:1051300000240401366F000E0120376FF0C338F4ED
:10514000F1C339F470EC1FF0010E0301FC5D006E39
:10515000000EFD59016E090E046E000E056E42EC44
:1051600004F0020E00240401366F000E0120376F98
:10517000F2C338F4F3C339F470EC1FF0010E0301ED
:10518000FC5D006E000EFD59016E090E046E000EEE
:10519000056E42EC04F0010E00240401366F000E8F
:1051A0000120376F030E026EE6C300F0E7C301F083
:1051B000025005E0003600900136FF0FFAD7F60ED8
:1051C0000024E96E010E0120EA6EEECF38F4EECF36
:1051D00039F44EEC1CF0010E0301FC5D006E000E74
:1051E000FD59016E090E046E000E056E42EC04F0CE
:1051F000020E00240401366F000E0120376F030EEB
:10520000026EE6C300F0E7C301F0025005E000368D
:1052100000900136FF0FFAD7F60E0026010E01228C
:10522000040E0024E96E000E0120EA6EEECF38F481
:10523000EECF39F44EEC1CF010D10401EAC3B8F4FF
:10524000EBC3B9F4310EBA6F000EBB6F31EC12F044
:10525000000E011802E1000E0018D8A4C5D0ECC35E
:10526000B8F4EDC3B9F42A0E0401BA6F000EBB6F97
:1052700031EC12F0000E011802E1000E0018D8A463
:10528000B2D00401306B316BEEC336F4EFC337F4A8
:10529000F0EC1DF000C030F401C031F4800E026E5D
:1052A000800E0118025C02E100500008D8B09BD0CB
:1052B000010E305D016E000E3159026E800E021833
:1052C000006E800E005C02E1020E015CD8B08BD053
:1052D0000301FE6BFF6BD46BD56B800ED519006E8E
:1052E000800E005C02E1080ED45D3EE2010E040176
:1052F000305D036E000E3159046E030E026E03C062
:1053000000F004C001F0025005E0003600900136C4
:10531000FF0FFAD7F60E0026010E0122040E00241C
:10532000E96E000E0120EA6EEECF00F0EECF01F044
:105330000301D4510024E96ED5510120EA6EEECF6D
:1053400036F4D60EFE250401376F030E0301FF214C
:105350000401386F30EC1FF0020E0301FE27000E2F
:10536000FF23D44BD52BB9D7400E05010B6F060E8A
:105370000C6F7F0E0D6F550E0E6F000E0F6F30C449
:1053800010F531C411F5D60E126F030E136F010E16
:105390000401305D036E000E3159046E030E026E7F
:1053A00003C000F004C001F0025005E00036009098
:1053B0000136FF0FFAD7F60E0024E96E010E012028
:1053C000EA6EEECF14F5EECF15F5AFEC0AF005015D
:1053D000400E0B6F060E0C6F400E0D6F33EC0BF092
:1053E000005201E1F4D739D0EAC3B8F4EBC3B9F401
:1053F0003D0E0401BA6F000EBB6F31EC12F0000ECF
:10540000011802E1000E00180CE1350E0401366FA0
:10541000000E376F080E386F000E396F9DEC1CF0D0
:105420001CD00401EAC3B8F4EBC3B9F4570EBA6F49
:10543000000EBB6F31EC12F0000E011802E1000EFD
:1054400000180BE16B0E0401366F000E376F080E6B
:10545000386F000E396F9DEC1CF081D4FFD74445A6
:105460005649434500474554007E000408014D5904
:10547000504D59005A494742454500524541440064
:1054800044455649434500534554004E4400444565
:1054900042554700534554003F0053454E44007E5B
:1054A000000408014E4464555047524144450000F1
:1054B0000000006E756C6C0032003100300031006D
:1054C0003100300034003100300033003100494EEB
:1054D0000000005A49474245457C4A4F494E4544E1
:1054E0000A00494F004745545354415445005A4916
:1054F000474245457C4A4F494E45440A00630000F7
:1055000000494F7C474554535441544500000030F6
:105510000000000902290001010080320904000096
:1055200002030000000921010100012221000705FA
:1055300081034000010705010340000122034B00E5
:105540005000500020005A006900670062006500AA
:105550006500200042006F006100720064000600D8
:10556000FF0901A10119012940150026FF00750856
:105570009540810219012940750895409102C05A51
:1055800049474245457C4445564943457C25647C12
:1055900025737C25640A004B5050205A49474245E8
:1055A0004520424F4152442056312E310A005A497B
:1055B000474245457C41434B204641494C45440ABE
:1055C000005A49474245457C4E4F4E4554574F522D
:1055D0004B0A005A49474245457C4E4F4E45545769
:1055E0004F524B0A001201000200000008010002A5
:1055F00000010001020301303132333435363738CF
:105600003941424344454600303132333435363730
:10561000383961626364656600303132333435365F
:1056200037383941424344454601000800400000F4
:105630000200100080555047524144494E470A002D
:105640005A49474245457C25730A000A5061636BFD
:1056500065743A200001000A006400E80310274442
:10566000454255477C25640A000A03550053004211
:10567000003400010010000001001008034B00502E
:1056800000500025737C2564000025737C25640090
:1056900000494E7C2564000403090425580010EEDF
:1056A0002AF0B50E006E010E016E5E0EF66E540EFF
:1056B000F76E000EF86EBBEC1CF01200FFFFFFFF50
:020000040030CA
:0E000000240E3F1EFF8081FF0FC00FE00F4057
:00000001FF
