:1000000034EF22F0FFFF0A0000C01FF001C01EF015
:1000100002C01DF003C01CF004C01BF005C01AF0A4
:1000200006C019F008C018F009C017F00AC016F091
:100030000BC015F0E1CF28F0E2CF29F0E9CF26F090
:10004000EACF27F0F3CF24F0F4CF25F0F5CF23F05B
:10005000F8CF20F0F7CF21F0F6CF22F0A1AA04D0FC
:1000600081A802D021EC1EF09EAA41D0D2EC1EF055
:100070000050010A3CE1D7EC1EF000C03AF10050FC
:100080007E0A04E12B6A2C6A010E2A6E2A50010AAC
:100090002EE11F0E2B24E16E030E2C20E26E3AC1DE
:1000A000E6FF000E2C1802E1020E2B1808E10301F6
:1000B0002151202501012F6F306B000E30230101EB
:1000C0002B4A2C2A040E2F25016E000E3021026EC1
:1000D000800E2C18006E800E0218005C02E10150A8
:1000E0002B5C05E32B6A2C6A2A6A010E3D6E23C045
:1000F000F5FF20C0F8FF21C0F7FF22C0F6FF24C0A3
:10010000F3FF25C0F4FF1FC000F01EC001F01DC0AA
:1001100002F01CC003F01BC004F01AC005F019C0A7
:1001200006F018C008F017C009F016C00AF015C094
:100130000BF026C0E9FF27C0EAFF28C0E1FF29C075
:10014000E2FF1100000E056E040E066EB4C403F04B
:10015000000E046E03360436039003360436039013
:10016000B5C400F0000E016E00360136009000505C
:1001700003260150042203C001F004C002F001363E
:100180000190023601360190023601C003F002C030
:1001900004F004320332049E04BC048E04320332A1
:1001A000049E04BC048E03C000F004C001F00036BD
:1001B00000900136003600900136055000260650AA
:1001C000012200C005F001C006F000C0E1FF01C03F
:1001D000E2FFE69E0401B551000A12E1B4C400F04A
:1001E000000E016E0036009001363B0E0024E16ED9
:1001F000010E0120E26E05C0E6FF06C0E6FF11D049
:10020000B4C400F0000E016E003600900136610E9D
:100210000024E16E010E0120E26E05C0E6FF06C07B
:10022000E6FF05C0E1FF06C0E2FFE69C040E0524E0
:10023000E16E000E0620E26EE68C1200800E0401D4
:10024000B411006E00C076F11200B4C473F1B5C4ED
:1002500074F1B6C477F1B7C478F1800E0401B81117
:10026000006E008000C076F11200B4C473F1B5C412
:1002700074F1B6C475F1B7C477F1B8C478F1800EE3
:100280000401B911006E00C076F1120020C401F023
:100290001F0E01160150010A01E089D0040124510A
:1002A000000A01E084D02151060A39E12FD0010172
:1002B0006F51010A13E1640E0401B46F4D0EB56F66
:1002C000000EB66F120EB427000EB523B623090E2A
:1002D000B76F000EB86F400EB96FC7DF20D00101B5
:1002E0006F51010A0EE1AF0E0401B46F4D0EB56FF0
:1002F000000EB66F210EB76F000EB86F400EB96FCB
:10030000B4DF0DD00401B46B99DF09D02351210A69
:10031000CEE02351220AE3E02351230AF3E020C474
:1003200001F0600E0116050E006E005004E001326F
:10033000019EFF0FFBD70150010A01E038D024D005
:1003400036D035D00401340EB46F010EB56F010EF6
:10035000B66F000EB76F400EB86F77DF28D0B46B62
:100360006DDF23C434F123D04A0EB46F010EB56F94
:10037000010EB66F000EB76FB86B67DF18D0B46BA5
:100380005DDF22C44AF113D004012151010AD8E0F3
:100390002151090AD6E02151020AD4E021510A0A6A
:1003A000DEE02151030AE0E021510B0AE8E01200EF
:1003B000700EE16E0F0EE26E0401AF51E126D8B06F
:1003C000E22AB0C4E6FFB0A504D0AFC4B4F4B56B64
:1003D000B9DEB0A305D0AFC4B4F4010EB56FB2DE80
:1003E00012000401B051000A12E0AFC400F0000E88
:1003F000016E003600900136610E0024E96E010E98
:100400000120EA6EEECF04F0EECF05F011D0AFC4BC
:1004100000F0000E016E0036009001363B0E002405
:10042000E96E010E0120EA6EEECF04F0EECF05F08A
:10043000020E0424E16E000E0520E26EB1C4E6FF58
:10044000B2C4E6FF010E0424E16E000E0520E26E48
:10045000B3C4E6FF04C0E9FF05C0EAFFEECF00F039
:1004600004C0E1FF05C0E2FF400E0014E66E04C0C8
:10047000E9FF05C0EAFFEECF00F004C0E1FF05C0D0
:10048000E2FF880E0010E66EB051000A1BE0AFC418
:1004900000F0000E016E003600900136610E00245F
:1004A000026E010E0120036E02C0E9FF03C0EAFFE5
:1004B000040EEE18006E02C0E1FF03C0E2FF00C0B0
:1004C000E6FF1AD0AFC400F0000E016E00360090B7
:1004D00001363B0E0024026E010E0120036E02C0A5
:1004E000E9FF03C0EAFF040EEE18006E02C0E1FF50
:1004F00003C0E2FF00C0E6FF04C000F005C001F049
:1005000012000101605315E0010E0401AF6F1E0ED1
:10051000B06F4EDF010EAF6FB06B5EC1B1F45FC163
:10052000B2F4400EB36F5DDF00C070F101C071F135
:1005300014D00401010EAF6F1E0EB06F39DF010E33
:10054000AF6FB06B5EC1B1F45FC1B2F4400EB36F78
:1005500048DF00C070F101C071F112000101605369
:1005600001E094DE12000B6A0A6A096A0050040274
:10057000F4CF09F0F3CF08F001500502F4CF0BF0EF
:10058000F3CF0AF000500502F3500926F4500A2276
:10059000E86A0B2201500402F3500926F4500A22A3
:1005A000E86A0B2208C000F009C001F00AC002F09E
:1005B0000BC003F012000CD0A4DF3CD03BD0CEDF48
:1005C00039D038D037D036D035D0000033D032D003
:1005D000000E0401AA1902E1010EA919EDE0000EB6
:1005E000AA1902E1020EA919E9E0000EAA1902E116
:1005F000030EA919E4E0AA51000A02E1730EA91939
:10060000E0E0AA51000A02E1750EA919DBE0AA5147
:10061000000A02E1740EA919D6E0AA513F0A02E1CC
:10062000FF0EA919D1E0AA51000A02E1720EA91920
:10063000CCE0CDD7010E006E1200A9C402F0AAC40E
:1006400003F0ACC400F0ADC401F0010E0401AC5FD6
:10065000000EAD5B0050011009E002C0E1FF03C0D5
:10066000E2FFABC4E6FF024A032AEBD71200000EFA
:100670000401A21902E1000EA11902E1016A09D0E8
:10068000A1C4E9FFA2C4EAFFEECF00F0016A00BEF8
:10069000012A01C000F012000401A251000A12E078
:1006A000A1C400F0000E016E003600900136610E0C
:1006B0000024E96E010E0120EA6EEECF04F0EECFC9
:1006C00005F011D0A1C400F0000E016E00360090BC
:1006D00001363B0E0024E96E010E0120EA6EEECFDA
:1006E00004F0EECF05F0020E0424E16E000E0520AA
:1006F000E26EA3C4E6FFA4C4E6FF010E0424E16E8B
:10070000000E0520E26EA5C4E6FF04C0E9FF05C0A7
:10071000EAFFEECF00F004C0E1FF05C0E2FF400EAB
:100720000014E66E04C0E9FF05C0EAFFEECF00F05A
:1007300004C0E1FF05C0E2FF880E0010E66EA25182
:10074000000A1BE0A1C400F0000E016E003600900C
:100750000136610E0024026E010E0120036E02C0FC
:10076000E9FF03C0EAFF040EEE18006E02C0E1FFCD
:1007700003C0E2FF00C0E6FF1AD0A1C400F0000EE3
:10078000016E0036009001363B0E0024026E010E11
:100790000120036E02C0E9FF03C0EAFF040EEE1859
:1007A000006E02C0E1FF03C0E2FF00C0E6FF04C02C
:1007B00000F005C001F01200A1C4E9FFA2C4EAFFE5
:1007C000EE500401A31905E1A1C400F0A2C401F098
:1007D00010D0A1C400F0A2C401F0A14BA22B00C014
:1007E000E9FF01C0EAFFEECF00F00052E5E1006A48
:1007F000016A120001017BA567D07BA314D07BA105
:1008000003D02D0E006E02D02B0E006EA1C4E1FFAE
:10081000A2C4E2FF00C0E6FF0401A14BA22B01012C
:10082000804B812B3AD07BA10DD0A1C4E1FFA2C4A3
:10083000E2FF200EE66E0401A14BA22B0101804BCA
:10084000812B2BD0C00E7B15016E7C51080B026EE4
:100850000250080A02E1800E01181FE1A1C4E1FF65
:10086000A2C4E2FF300EE66E0401A14BA22B0101EF
:10087000804B812B7BAB03D0580E006E02D0780EDC
:10088000006EA1C4E1FFA2C4E2FF00C0E6FF0401C4
:10089000A14BA22B0101804B812B7E517F1113E0D4
:1008A000A1C4E1FFA2C4E2FF300EE66E0401A14B39
:1008B000A22B0101804B812B010E7E5F000E7F5B1E
:1008C0007E517F11EDE180D07E517F1115E07BB725
:1008D00013D0A1C4E1FFA2C4E2FF200EE66E040122
:1008E000A14BA22B0101804B812B010E7E5F000EDC
:1008F0007F5B7E517F11EDE17BA314D07BA103D000
:100900002D0E006E02D02B0E006EA1C4E1FFA2C41A
:10091000E2FF00C0E6FF0401A14BA22B0101804BC6
:10092000812B0ED07BA10CD0A1C4E1FFA2C4E2FFB9
:10093000200EE66E0401A14BA22B0101804B812BFE
:10094000C00E7B15016E7C51080B026E0250080A26
:1009500002E1400E01180DE1A1C4E1FFA2C4E2FFD3
:10096000300EE66E0401A14BA22B0101804B812BBE
:100970002BD0C00E7B15016E7C51080B026E02500D
:10098000080A02E1800E01181FE1A1C4E1FFA2C420
:10099000E2FF300EE66E0401A14BA22B0101804B59
:1009A000812B7BAB03D0580E006E02D0780E006E08
:1009B000A1C4E1FFA2C4E2FF00C0E6FF0401A14B15
:1009C000A22B0101804B812B800E006E800E5D19E1
:1009D000005C02E15C515B5D0DE2A1C4E1FFA2C4D9
:1009E000E2FF300EE66E0401A14BA22B0101804B09
:1009F000812BEAD7A1C400F0A2C401F01200086A5A
:100A0000096A100E0C6E0134083609360450085E6F
:100A10000550D8A0053C095ED8B007D00450082680
:100A20000550D8B0053C0926D890003601360C2E6A
:100A3000EAD712002DD001017B87010E0401A12706
:100A4000000EA223A32361D001017B81010E0401CA
:100A5000A127000EA223A32358D001017B83010EFE
:100A60000401A127000EA223A3234FD001017C87FC
:100A7000010E0401A127000EA223A32346D00101E9
:100A80007B85010E0401A127000EA223A3233DD0E4
:100A9000A1C4F6FFA2C4F7FFA3C4F8FF0900F5CF75
:100AA00001F001502D0AC7E0A1C4F6FFA2C4F7FF70
:100AB000A3C4F8FF0900F5CF01F00150200AC4E0FB
:100AC000A1C4F6FFA2C4F7FFA3C4F8FF0900F5CF45
:100AD00001F001502B0AC1E0A1C4F6FFA2C4F7FF48
:100AE000A3C4F8FF0900F5CF01F00150230ABEE0CE
:100AF000A1C4F6FFA2C4F7FFA3C4F8FF0900F5CF15
:100B000001F00150300ABBE001D094D701017BA372
:100B100001D07B917BA701D07B95A1C400F0A2C43A
:100B200001F0A3C402F012000401A151390806E348
:100B3000300EA15D03E3010E006E01D0006A1200C9
:100B400004012251010A13E120C401F01F0E011615
:100B50000150000A0CE10101768F04012151030AC2
:100B600004E1010E0101416F02D00101416B04015A
:100B70002251000AD8A48DD020C401F01F0E011606
:100B80000150020AD8A485D024C401F00F0E01162A
:100B90000150000AD8B47DD00101768F040124BF32
:100BA00016D024C403F00F0E031603C000F0000E8D
:100BB000016E0036009001363B0E0024E96E010EF6
:100BC0000120EA6EEECF04F0EECF05F015D024C47C
:100BD00003F00F0E031603C000F0000E016E003686
:100BE00000900136610E0024E96E010E0120EA6ECC
:100BF000EECF04F0EECF05F02151030A07E104C067
:100C0000E1FF05C0E2FF840EE66E43D024C400F08D
:100C10000F0E0016700E026E0F0E036E00500226AD
:100C2000D8B0032A02C0E9FF03C0EAFFFE0EEE14AB
:100C3000006EEECF01F0FF0E011602C0E1FF03C00F
:100C4000E2FF00C0E6FF01C0E6FF24AF11D004C000
:100C5000E1FF05C0E2FFE66A040E0418006E00C062
:100C600004F004C0E1FF05C0E2FF400EE66E11D0C3
:100C700004C0E1FF05C0E2FF880EE66E040E041812
:100C8000006E00C004F004C0E1FF05C0E2FFC80E22
:100C9000E66E12000401286B296B4AD00101768FA1
:100CA0000401288101014151010A02E10401288364
:100CB00054D00101768F51D00101768F040124BFF9
:100CC00016D024C403F00F0E031603C000F0000E6C
:100CD000016E0036009001363B0E0024E96E010ED5
:100CE0000120EA6EEECF04F0EECF05F015D024C45B
:100CF00003F00F0E031603C000F0000E016E003665
:100D000000900136610E0024E96E010E0120EA6EAA
:100D1000EECF04F0EECF05F004C0E9FF05C0EAFF16
:100D2000EECF01F001A403D00401010E286F15D00D
:100D300020C401F01F0E01160150000AAFE020C4CC
:100D400001F01F0E01160150010AB3E020C401F0AA
:100D50001F0E01160150020AAFE0010176AF07D065
:100D6000280E736F040E746F7681020E776F120077
:100D7000000E0101785D02E1080E775D10E277C197
:100D800003F078C104F0DB51000A03E1010EDB6FD0
:100D900005D0DB51010A02E1020EDB6F04D0080E20
:100DA000036E000E046E61C1E1FF62C1E2FFE692D4
:100DB00061C1E1FF62C1E2FFE69061C1E9FF62C18A
:100DC000EAFFEECF00F061C1E1FF62C1E2FF045033
:100DD0000010E66E010E6125E16E000E6221E26EEA
:100DE00003C0E6FF0350775D006E04507859016E32
:100DF00000C077F101C078F1280ED86F040ED96FCA
:100E000076B12FD0035004102BE073C1F6FF74C1EC
:100E1000F7FF75C1F8FF0900F5CF00F0D8C1E1FF79
:100E2000D9C1E2FF00C0E6FFD84BD92B010E7325D4
:100E3000006E000E7421016E000E7521026E00C05E
:100E400073F101C074F102C075F1010E035C006E14
:100E5000000E0458016E00C003F001C004F0D2D7A8
:100E600024D00350041021E073C1E9FF74C1EAFFEC
:100E7000D8C1E1FFD9C1E2FFEECFE6FFD84BD92BB5
:100E8000010E7325006E000E7421016E00C073F117
:100E900001C074F1010E035C006E000E0458016E77
:100EA00000C003F001C004F0DCD71200040120519F
:100EB000800AD8A47AD0C00E0101766F6BD00101F0
:100EC0002E0E006E4E0E016E000E026E00C073F10B
:100ED00001C074F102C075F1120E776F000E786FC9
:100EE00064D00101030E006E000E016E22C404F0F6
:100EF000000E056EB3EC02F00C0E0024E96E030E3A
:100F00000120EA6EEECF73F1EECF74F1EECF75F102
:100F1000020E7325F66E000E7421F76E000E752119
:100F2000F86E0900F5CF00F00900F5CF01F000C020
:100F300077F101C078F139D0040122510101725DCD
:100F400024E3030E006E000E016E22C404F0000EB6
:100F5000056EB3EC02F0110E0024E96E030E0120C1
:100F6000EA6EEECF73F1EECF74F1EECF75F173C18F
:100F7000F6FF74C1F7FF75C1F8FF0900F5CF00F067
:100F800000C077F1000E786F01D0766B0ED00101B2
:100F9000766B0BD004012351010A91E02351020A20
:100FA000A0E02351030AC8E0F2D712000101768FB6
:100FB000710E0401A96F0F0EAA6FAB6B010EAC6F1F
:100FC000000EAD6F1DEC03F0DC0EA96F010EAA6FD1
:100FD000AB6B010EAC6F000EAD6F1DEC03F022C4C5
:100FE0006FF101016F51000A03E1100E6E6F11D015
:100FF000200E6E6F010E0401A96F000EAA6F6F0E16
:10100000AB6F010EAC6F010EAD6F000EAE6FDBEC7F
:1010100002F01200200E01016E5D03E36DB201D0FB
:1010200002D0006A39D079C1A1F47AC1A2F437ECB8
:1010300003F0005230E198C4A1F4010EA26F95C4F0
:10104000A3F496C4A4F497C4A5F44CEC03F000C038
:1010500079F101C07AF10101356B366B376B386B72
:1010600079C1A1F47AC1A2F437EC03F0005209E08F
:101070000101355136113711381102E0006A0CD0E8
:10108000EFD70101010E7925E96E000E7A21EA6E93
:10109000EECF00F001D0006A12000101806B816B7D
:1010A0007B6B7C6B97C400F098C401F099C402F08C
:1010B000010E04019727000E9823992300C0F6FF24
:1010C00001C0F7FF02C0F8FF0900F5CF00F000C033
:1010D0005BF10052D8B47DEF0DF001015B51250AA0
:1010E0000DE095C4E1FF96C4E2FF5BC1E6FF040199
:1010F000954B962B0101804B812BD4D77E6B7F6B58
:101100007B6B7C6B97C4A1F498C4A2F499C4A3F43C
:1011100091DC00C097F401C098F402C099F400C0BB
:10112000F6FF01C0F7FF02C0F8FF0900F5CF00F09D
:10113000000E016E00C0A1F4F7DC005238E001019E
:101140007E6B7F6B01017EC100F07FC101F00A0E52
:10115000046E000E056EB3EC02F097C4F6FF98C45F
:10116000F7FF99C4F8FF0900F5CF02F00250002400
:101170007E6F000E01207F6F300E7E5F000E7F5B62
:10118000010E04019727000E9823992397C4F6FFB8
:1011900098C4F7FF99C4F8FF0900F5CF00F0000EDE
:1011A000016E00C0A1F4C0DC0052CCE133D097C482
:1011B000F6FF98C4F7FF99C4F8FF0900F5CF01F0D6
:1011C00001502A0A27E19AC4E9FF9BC4EAFFEECF47
:1011D00000F0EECF01F000C0E9FF01C0EAFFEECF62
:1011E0007EF1EECF7FF19AC4E9FF9BC4EAFF020EC5
:1011F000EE24006E000EEE20016E9AC4E1FF9BC447
:10120000E2FF00C0E6FF01C0E6FF010E9727000ED7
:101210009823992397C4F6FF98C4F7FF99C4F8FF61
:101220000900F5CF01F001502E0A73E10401010E0F
:101230009727000E9823992397C4F6FF98C4F7FFC9
:1012400099C4F8FF0900F5CF01F001502A0A28E1FE
:101250009AC4E9FF9BC4EAFFEECF00F0EECF01F0A5
:1012600000C0E9FF01C0EAFFEECF5CF1EECF5DF117
:101270009AC4E9FF9BC4EAFF020EEE24006E000E42
:10128000EE20016E9AC4E1FF9BC4E2FF00C0E6FFBE
:1012900001C0E6FF010E9727000E9823992338D04E
:1012A00001015C6B5D6B97C4F6FF98C4F7FF99C4AE
:1012B000F8FF0900F5CF00F0000E016E00C0A1F4A8
:1012C00033DC005225E05CC100F05DC101F00A0E84
:1012D000046E000E056EB3EC02F097C4F6FF98C4DE
:1012E000F7FF99C4F8FF0900F5CF02F0025000247F
:1012F00001015C6F000E01205D6F300E5C5F000E1F
:101300005D5B010E04019727000E98239923CBD72C
:1013100003D001015C6B5D6B97C400F098C401F0D1
:1013200099C402F0010E04019727000E9823992317
:1013300000C0F6FF01C0F7FF02C0F8FF0900F5CFBB
:101340005BF106D180C100F081C101F0DAD3010167
:101350007B8D2ED12DD17B8B7B8F2AD19AC4E9FF37
:101360009BC4EAFFEECF00F0EECF01F000C0E9FF32
:1013700001C0EAFFEECF9CF4EECF9DF49AC4E9FFE2
:101380009BC4EAFF020EEE24006E000EEE20016EFA
:101390009AC4E1FF9BC4E2FF00C0E6FF01C0E6FF84
:1013A000000E04019D1902E1000E9C1904E1580E83
:1013B0009C6F000E9D6F9E6B9F6B9E519C25E96EEE
:1013C0009F519D21EA6EEE520BE0010E9E25006EAC
:1013D000000E9F21016E00C09EF401C09FF4EDD766
:1013E00001015C515D110EE004019F5101015D5D41
:1013F00004E104019E5101015C5D04E25CC19EF4C4
:101400005DC19FF47F5104019F5D04E101017E51A4
:1014100004019E5D08E29E5101017E5F04019F511F
:1014200001017F5B03D001017E6B7F6B7BB718D01E
:101430007EC100F07FC101F0010E7E5F000E7F5B78
:10144000005001100DE095C4E1FF96C4E2FF200EAC
:10145000E66E0401954B962B0101804B812BE8D75A
:101460009EC402F09FC403F0010E04019E5D006E55
:10147000000E9F59016E00C09EF401C09FF40250FF
:1014800003101AE09CC4E9FF9DC4EAFF95C4E1FF84
:1014900096C4E2FFEECFE6FF954B962B010E9C25FE
:1014A000006E000E9D21016E00C09CF401C09DF4F1
:1014B0000101804B812BD4D701017BA718D07EC1BD
:1014C00000F07FC101F0010E7E5F000E7F5B0050D7
:1014D00001100DE095C4E1FF96C4E2FF200EE66E18
:1014E0000401954B962B0101804B812BE8D7DAD56F
:1014F0009AC4E9FF9BC4EAFFEECF00F0EECF01F003
:1015000000C0E9FF01C0EAFFEECF5BF19AC4E9FF3A
:101510009BC4EAFF020EEE24006E000EEE20016E68
:101520009AC4E1FF9BC4E2FF00C0E6FF01C0E6FFF2
:101530005B0E04019C6F010E9D6F010E9E6F000EED
:101540009F6F4ED7C00E01017B13000E7C1330D06D
:1015500001015B51000AD8B4F5D65B516C0AD8B4CE
:10156000F6D65B514C0AD8B4F2D65B516F0AD8B4A8
:10157000EED65B51640AD8B4EDD65B51690AD8B493
:10158000E9D65B51700AD8B4E6D65B51580AD8B494
:10159000E2D65B51780AD8B4DFD65B51730AD8B46F
:1015A000DDD65B51630AA4E05B51750ACBE0C0D77E
:1015B000C00E7B15016E7CC102F0000E0216000EFB
:1015C000021802E1000E01183EE19AC4E9FF9BC433
:1015D000EAFFEECF00F0EECF01F000C0E9FF01C05E
:1015E000EAFFEECF9CF4EECF9DF49AC4E9FF9BC4D2
:1015F000EAFF020EEE24006E000EEE20016E9AC489
:10160000E1FF9BC4E2FF00C0E6FF01C0E6FF800EE1
:1016100004019D19006E800E005C02E1000E9C5DCD
:1016200011E2030E01017B13000E7C1304019C5197
:101630000008006E9DC401F0000E015600C09CF42D
:1016400001C09DF422D09AC4E9FF9BC4EAFFEECF0B
:1016500000F0EECF01F000C0E9FF01C0EAFFEECFDD
:101660009CF4EECF9DF49AC4E9FF9BC4EAFF020EFE
:10167000EE24006E000EEE20016E9AC4E1FF9BC4C2
:10168000E2FF00C0E6FF01C0E6FF000E01015D19A8
:1016900002E1000E5C190AE1000E04019D1902E14D
:1016A000000E9C1903E101015C4B5D2B0101C00E92
:1016B0007B15006E00C005F084D00101010E5B6F48
:1016C0005B51050A25E05BC100F0000E016E026E61
:1016D000036E00360090013602360336A60E002453
:1016E000F66E4E0E0120F76E000E0220F86E090015
:1016F000F5CF01F00900F5CF02F0025004019D5D25
:1017000002E101509C5D01E203D001015B2BD8D7BF
:1017100066D00101010E5B6F5B51040A25E05BC1DD
:1017200000F0000E016E026E036E0036009001366E
:1017300002360336FA0E0024F66E4E0E0120F76EC6
:10174000000E0220F86E0900F5CF01F00900F5CF78
:1017500002F0025004019D5D02E101509C5D01E236
:1017600003D001015B2BD8D73AD00101010E5B6F8A
:101770005B51060A25E05BC100F0000E016E026EAF
:10178000036E00360090013602360336840E0024C4
:10179000F66E4E0E0120F76E000E0220F86E090064
:1017A000F5CF01F00900F5CF02F0025004019D5D74
:1017B00002E101509C5D01E203D001015B2BD8D70F
:1017C0000ED00550000AD8B478D70550C00AD8B456
:1017D00074D70550800A9DE00550400AC6E001011B
:1017E000800E006E800E5D19005C02E15C515B5D55
:1017F00003E25CC15BF10DD0800E5D19006E800EBE
:10180000005C02E15B515C5D04E25BC15CF1000ED7
:101810005D6F7E517F110EE0030E7B15006E7CC163
:1018200001F0000E01160050011004E0010E7E5F71
:10183000000E7F5B800E5D19006E800E7F19005CCC
:1018400002E17E515C5D05E25C517E5F5D517F5B34
:1018500002D07E6B7F6BC40E7B15016E7C51080B32
:10186000026E0250080A02E1400E011808E17E51A2
:101870007F1104E0010E7E5F000E7F5B1CD0C00E66
:101880007B15016E7C51080B026E0250080A02E1C2
:10189000800E011810E1800E006E800E7F19005C32
:1018A00002E17E51020805E2020E7E5F000E7F5BC0
:1018B00002D07E6B7F6B95C4A1F496C4A2F4FAECBF
:1018C00003F000C095F401C096F45CC100F05DC166
:1018D00001F0010E5C5F000E5D5B00500110D8B49A
:1018E000ECD0C00E7B15006E00C0A0F4C9D0010181
:1018F0005CC100F05DC101F0000E5DBFFF0E026E25
:10190000036E00360090013602360336A60E002420
:10191000F66E4E0E0120F76E000E0220F86E0900E2
:10192000F5CF04F00900F5CF05F09CC400F09DC48C
:1019300001F0FFEC04F00A0E046E000E056EFFECE1
:1019400004F008C000F009C001F0300E00245B6F05
:10195000A7D001017BAB35D05CC100F05DC101F0C7
:10196000000E5DBFFF0E026E036E00360090013662
:1019700002360336FA0E0024F66E4E0E0120F76E84
:10198000000E0220F86E0900F5CF04F00900F5CF33
:1019900005F09CC400F09DC401F0FFEC04F00F0EB4
:1019A0000016000E0116630E0024F66E4E0E012086
:1019B000F76E000EF86E000EF8220900F5CF5BF10D
:1019C00034D05CC100F05DC101F0000E5DBFFF0EC0
:1019D000026E036E00360090013602360336FA0EB0
:1019E0000024F66E4E0E0120F76E000E0220F86EF7
:1019F0000900F5CF04F00900F5CF05F09CC400F014
:101A00009DC401F0FFEC04F00F0E0016000E01164D
:101A1000520E0024F66E4E0E0120F76E000EF86E88
:101A2000000EF8220900F5CF5BF13AD001015CC14C
:101A300000F05DC101F0000E5DBFFF0E026E036E8F
:101A400000360090013602360336840E0024F66E0E
:101A50004E0E0120F76E000E0220F86E0900F5CF41
:101A600004F00900F5CF05F09CC400F09DC401F01E
:101A7000FFEC04F0070E00145B6F300E5B2710D0F4
:101A80000401A051000AD8B432D7A051C00AD8B47A
:101A90002ED7A051800AD8B45CD7A051400AC6E026
:101AA000040195C4E1FF96C4E2FF5BC1E6FF954BDC
:101AB000962B0101804B812B08D77BA71CD0800E71
:101AC000006E800E7F19005C02E17E51000813E277
:101AD00095C4E1FF96C4E2FF200EE66E0401954B2B
:101AE000962B0101804B812B010E7E5F000E7F5BE8
:101AF0007E517F11EDE152EF08F080C100F081C10D
:101B000001F012000401996B95C4E9FF96C4EAFF45
:101B1000EE5216E097C4A1F498C4A2F495C4E9FF6C
:101B200096C4EAFFEECFA3F4DCEC03F0000E01183C
:101B300002E1000E001804E1954B962B992BE4D797
:101B400099C400F012000401996B9A6B95C4E9FFE7
:101B500096C4EAFFEE5217E097C4A1F498C4A2F429
:101B600095C4E9FF96C4EAFFEECFA3F4DCEC03F0E2
:101B7000000E011802E1000E001805E0954B962BAF
:101B8000994B9A2BE3D799C400F09AC401F0120044
:101B90006D98010176BF49D067AF28D0020E396F2A
:101BA000010E6125E16E000E6221E26EE66A61C1FE
:101BB000E1FF62C1E2FFC80EE66E010E3F25E16E55
:101BC000000E4021E26E080EE66E020E3F25E16E29
:101BD000000E4021E26E280EE66E040EE66E3FC156
:101BE000E1FF40C1E2FFC80EE66E1ED0010E3F25A8
:101BF000E16E000E4021E26E080EE66E020E3F25F9
:101C0000E16E000E4021E26E200EE66E040EE66EDE
:101C10003FC1E1FF40C1E2FF8C0EE66E61C1E1FF12
:101C200062C1E2FF840EE66E83D067BF81D00401FB
:101C300020AF56D0010178510401275D04E1010174
:101C400077510401265D04E226C477F127C478F1B8
:101C5000B8EC06F0010E396F010E3F25E16E000E63
:101C60004021E26E080EE66E020E3F25E16E000E88
:101C70004021E26E200EE66E040EE66E3FC1E1FFEB
:101C800040C1E2FF800EE66EDA6B010E4225E16E86
:101C9000000E4321E26E080EE66E020E4225E16E52
:101CA000000E4321E26E200EE66E040EE66E42C187
:101CB000E1FF43C1E2FF840EE66E010EDA6F020E11
:101CC0006125E16E000E6221E26E280EE66E040EC2
:101CD000E66E61C1E1FF62C1E2FFC80EE66E28D088
:101CE0000101020E396F010E6125E16E000E6221C5
:101CF000E26EE66A61C1E1FF62C1E2FFC80EE66E14
:101D0000010E3F25E16E000E4021E26E080EE66EE8
:101D1000020E3F25E16E000E4021E26E280EE66EB7
:101D2000040EE66E3FC1E1FF40C1E2FFC80EE66E61
:101D30001200010E01014225E96E000E4321EA6EF8
:101D4000EECF00F000C002F0000E695D02E102502B
:101D5000685D03E268C102F00AD00250685D006E5F
:101D6000000E6959016E00C068F101C069F1036A93
:101D70000250035C1CE2280EE96E040EEA6E03506A
:101D8000E926D8B0EA2AEECF00F065C1E1FF66C1CE
:101D9000E2FF00C0E6FF010E6525006E000E662121
:101DA000016E00C065F101C066F1032AE1D7000EA3
:101DB000006E6951005C02E16851000828E2010EE2
:101DC0003F25E16E000E4021E26E080EE66E020E27
:101DD0003F25E16E000E4021E26E280EE66E040EF5
:101DE000E66E42C1E9FF43C1EAFFEECF00F000BC5E
:101DF00007D03FC1E1FF40C1E2FFC80EE66E06D04A
:101E00003FC1E1FF40C1E2FF880EE66E19D0010E2E
:101E10003F25E16E000E4021E26E080EE66E020ED6
:101E20003F25E16E000E4021E26E200EE66E040EAC
:101E3000E66E3FC1E1FF40C1E2FF840EE66E679FA0
:101E400012000101396B61C1E1FF62C1E2FFE66A84
:101E5000040E6119E16E62C1E2FF000EE21AE66A49
:101E600067AF01D0679F120020C401F0600E011619
:101E7000050E006E005004E00132019EFF0FFBD7FB
:101E80000150000A01E06CD048D00101768F080EA5
:101E90006E6F66D056EC07F063D0D6EC07F060D0DA
:101EA0006F0E0101736F010E746F7681010E776FF3
:101EB000768F56D04AEC06F053D0A0EC05F050D007
:101EC000DC0E006E010E016E040124510026D8B014
:101ED000012A00C073F101C074F101017681010E85
:101EE000776F768F3DD00101768FDC0EE16E010EAB
:101EF000E26E04012451E126D8B0E22A22C4E6FFB2
:101F00002FD0020EA96F000EAA6FAB6BAC6BAD6B3E
:101F1000AE6BDBEC02F024D023D004012151050A82
:101F2000B4E02151060AB6E02151090AB6E0215178
:101F3000080AB6E02151000ABDE02151010ABDE0C6
:101F40002151030ABAE021510A0ABAE021510B0AD1
:101F5000CAE02151070AD5E021510C0ADDE0DCD7A7
:101F60001200040187515A0806E3410E875D03E31E
:101F7000010E006E01D0006A1200000E04018819E3
:101F800002E1000E871902E1006A2ED0000E8C19C2
:101F900002E1000E8B1902E1006A26D088518C19EB
:101FA00002E18B51871902E1006A1ED08951872511
:101FB000016E8A518821026E02508C1902E18B5108
:101FC000011803E1010E006E0FD08D518B25016EBB
:101FD0008E518C21026E0250881902E1875101183E
:101FE00003E1020E006E00D01200000E04018819F9
:101FF00002E1000E871904E10AC387F40BC388F4D9
:1020000087C4E9FF88C4EAFFEECF00F0005203E185
:10201000006A016A4AD087C495F488C496F489C4DA
:1020200097F48AC498F48FDD8751002688510122E5
:1020300000C087F401C088F400C0E9FF01C0EAFFD6
:10204000EECF00F0005208E103010A6B0B6B000EAB
:10205000006E000E016E29D087C495F488C496F4F2
:1020600089C497F48AC498F44DDD000E016E87513F
:1020700000268851012200C00AF301C00BF300C002
:10208000E9FF01C0EAFFEE5209E00AC3E1FF0BC31A
:10209000E2FFE66A03010A4B0B2B03D003010A6B34
:1020A0000B6B87C400F088C401F012000401875153
:1020B0005A0804E3410E875DD8B0878B87C400F0CF
:1020C000120001013951020A02E133DE1ED0B9DEED
:1020D000DA51000A19E1010E3F25E16E000E4021A0
:1020E000E26E080EE66E020E3F25E16E000E402104
:1020F000E26E200EE66E040EE66E3FC1E1FF40C1C7
:10210000E2FF8C0EE66E01D0DA6B120061C1E9FFCE
:1021100062C1EAFFEECF00F0000E00BC010E040128
:10212000A86F040E01016119006E00C061F16E51CB
:10213000080A0AE122C46EFF6E50000803E2100E86
:102140006E6F02D0040E6E6F3951010A28E1020E43
:102150006125E16E000E6221E26E280EE66E040E2D
:10216000E66EB8EC06F0DB51020A07E161C1E1FF5F
:1021700062C1E2FF840EE66E11D00401A851000A8C
:1021800007E161C1E1FF62C1E2FFC80EE66E06D061
:1021900061C1E1FF62C1E2FF880EE66E01D051DE4F
:1021A000120087C4E9FF88C4EAFFEE5211E087C439
:1021B000E9FF88C4EAFF89C4D9FF8AC4DAFFEE5078
:1021C000DE1806E10401874B882B894B8A2BE9D75F
:1021D00087C4E9FF88C4EAFF89C4D9FF8AC4DAFF4B
:1021E000DE50EE5C006E016A000E015A120061C101
:1021F000E9FF62C1EAFFEECF00F000AE05D061C199
:10220000E1FF62C1E2FFE66A0101DB6B396B776BCC
:10221000786B766B29DE030E0401A96F000EAA6F9E
:10222000AB6BAC6BAD6BAE6BDBEC02F0B1DC1200F8
:1022300004018A6B8B6B8C6B020E8725F66E000E89
:102240008821F76E000E8921F86E0900F5CF05F0A0
:10225000030E8725F66E000E8821F76E000E892189
:10226000F86E0900F5CF00F000C003F0000E046E18
:1022700003C001F0006A05500024066E000E012024
:10228000076E87C408F088C409F089C40AF0010EFB
:102290000824F66E000E0920F76E000E0A20F86E74
:1022A0000900F5CF01F00150020A1BE1060E0824D7
:1022B000F66E000E0920F76E000E0A20F86E090077
:1022C000F5CF01F001508A5D0CE2060E0824F66E8F
:1022D000000E0920F76E000E0A20F86E0900F5CFF7
:1022E0008AF4010E0824F66E000E0920F76E000E27
:1022F0000A20F86E0900F5CF01F00150040A1BE135
:10230000080E0824F66E000E0920F76E000E0A2053
:10231000F86E0900F5CF01F001508A5D0CE2080E5D
:102320000824F66E000E0920F76E000E0A20F86EE3
:102330000900F5CF8AF408C0F6FF09C0F7FF0AC00C
:10234000F8FF0900F5CF00F000508B25016E000E5C
:102350008C21026E01C08BF402C08CF40750025C29
:1023600002E10650015C01E30FD008C0F6FF09C08E
:10237000F7FF0AC0F8FF0900F5CF00F0005008266B
:10238000000E09220A2283D78AC400F01200D08EE0
:10239000A28AA08AF28E120087C495F488C496F4AB
:1023A00089C497F4010E0401986F0AEC08F012003A
:1023B0008C0E0401936F040E946F87C495F488C447
:1023C00096F489C497F48AC498F48BC499F4930E54
:1023D0009A6F040E9B6F4DEC08F000C091F401C0A1
:1023E00092F4005004018725E16E01508821E26ECD
:1023F000E66A91C400F092C401F012000401875112
:10240000660806E3610E875D03E3010E006E01D0EE
:10241000006A00C088F48751460806E3410E875DD4
:1024200003E3010E006E01D0006A0050881387C4D8
:10243000A1F494EC05F08851001200C088F4120059
:10244000640E03010C6F4D0E0D6F000E0E6F020E29
:10245000116F4F0E126F000E136FF20E146F4E0EAF
:10246000156F000E166F8D0E176F4D0E186F000E44
:10247000196FC40E1A6F4E0E1B6F000E1C6F1200E8
:10248000160E6F6E9F0E6B6E7B0E696E12002E0E17
:10249000006E4E0E016E000E026E0E0E0024F66EE1
:1024A000000E0120F76E000E0220F86E0900F5CF35
:1024B00003F003C004F00F0E0024F66E000E01209E
:1024C000F76E000E0220F86E0900F5CF01F0015002
:1024D000035C12E22E0E006E4E0E016E000E026EB6
:1024E0000F0E0024F66E000E0120F76E000E022083
:1024F000F86E0900F5CF04F02E0E006E4E0E016E40
:10250000000E026E100E0024F66E000E0120F76E13
:10251000000E0220F86E0900F5CF01F00150045CB6
:1025200012E22E0E006E4E0E016E000E026E100EA6
:102530000024F66E000E0120F76E000E0220F86EE9
:102540000900F5CF04F004C000F01200ACB202D0D4
:102550000000FCD787C4ADFF120087C402F088C416
:1025600003F08AC400F08BC401F0010E04018A5FFD
:10257000000E8B5B0050011009E002C0E1FF03C0B8
:10258000E2FF89C4E6FF024A032AEBD7120087C4A0
:102590008AF488C48BF48AC4A1F48BC4A2F489C4DD
:1025A000A3F4DCEC03F000C08AF401C08BF4000E4D
:1025B000011802E1000E001808E08AC4E1FF8BC494
:1025C000E2FFE66A8A4B8B2BE6D787C400F088C40B
:1025D00001F0120004018751200A09E087510D081B
:1025E00004E3090E875D01E302D0006A02D0010E08
:1025F000006E120045C404F046C405F004C002F0A9
:1026000005C003F0044A052A47C400F048C401F09D
:102610000401474B482B00C0E9FF01C0EAFF02C09C
:10262000E1FF03C0E2FFEECFE6FF02C0E9FF03C017
:10263000EAFFEE5201E0E2D745C400F046C401F0E3
:10264000120001016E51000A0AE16D6A696A18DF21
:102650009EDE6DB602D06D86FCD7010E6E6F120045
:10266000FD0E03010915016E026AFF0E0216000E2F
:10267000021802E1000E01186DE17E0E0915016ECF
:1026800001C003F00332039E03C000F0000E016E90
:10269000003600900136003600900136000E00240E
:1026A000026E040E0120036E02C042F103C043F12A
:1026B00002C03FF103C040F1040E01013F19006E5A
:1026C00000C03FF102C0E9FF03C0EAFFEECF00F017
:1026D00000C001F03C0E01160132019E0132019E44
:1026E00001500D0A35E1020E4225E96E000E43212C
:1026F000EA6EEECF01F0EECF02F00250040A02E1E2
:10270000280E011823E1020E4225E16E000E43213E
:10271000E26E200EE66E040EE66E0401A76B080E54
:10272000A75D14E2200EE16E040EE26EA751E126D1
:10273000D8B0E22A280EE96E040EEA6EA751E92607
:10274000D8B0EA2AEECFE6FFA72BE9D750DD01D0BB
:10275000B8DC0ED0FD0E03010915016E026AFF0EF2
:102760000216000E021802E1040E011801E1CEDC8F
:1027700012006984EF0E68166D82750E0401A96F50
:10278000000EAA6FAB6BAC6BAD6BAE6BDBEC02F00B
:10279000120070A019D042C1E9FF43C1EAFFEECF99
:1027A00001F00150800A0FE161C1E9FF62C1EAFF57
:1027B000EECF01F00150840A06E142C1E1FF43C1BE
:1027C000E2FF8C0EE66E7090DF0E681612000401B8
:1027D000456B466B130E465DD8B02AD14553D8A43D
:1027E00027D14651010F476F800E006E800E000A00
:1027F000005C02E1140E475DD8B018D14553D8A44F
:1028000015D146C400F0000E016E0036009001366E
:10281000003600900136860E0026010E012200C00F
:10282000E9FF01C0EAFFEECF87F4EECF88F4020E95
:102830000024E96E000E0120EA6EEECF89F4EECF9F
:102840008AF447C400F0000E016E00360090013695
:10285000003600900136860E0026010E012200C0CF
:10286000E9FF01C0EAFFEECF8BF4EECF8CF4020E4D
:102870000024E96E000E0120EA6EEECF8DF4EECF5B
:102880008EF4BDEC0FF000C048F40050010A65E181
:1028900046C400F0000E016E00360090013600368E
:1028A00000900136860E0026010E0122020E002441
:1028B000036E000E0120046E47C400F0000E016E8E
:1028C000003600900136003600900136860E002654
:1028D000010E0122020E0024D96E000E0120DA6ED4
:1028E00003C0E9FF04C0EAFFDE50EE24006EDE50B4
:1028F000EE20016E03C0E1FF04C0E2FF00C0E6FF6E
:1029000001C0E6FF47C400F0000E016E00360090E3
:102910000136003600900136860E0024E16E010E6D
:102920000120E26EE66AE66A47C400F0000E016E1E
:10293000003600900136003600900136860E0026E3
:10294000010E0122020E0024E16E000E0120E26E53
:10295000E66AE66A010E456F67D04851020A64E1F3
:1029600047C400F0000E016E0036009001360036BC
:1029700000900136860E0026010E0122020E002470
:10298000036E000E0120046E46C400F0000E016EBE
:10299000003600900136003600900136860E002683
:1029A000010E0122020E0024D96E000E0120DA6E03
:1029B00003C0E9FF04C0EAFFDE50EE24006EDE50E3
:1029C000EE20016E03C0E1FF04C0E2FF00C0E6FF9D
:1029D00001C0E6FF46C400F0000E016E0036009014
:1029E0000136003600900136860E0024E16E010E9D
:1029F0000120E26EE66AE66A46C400F0000E016E4F
:102A0000003600900136003600900136860E002612
:102A1000010E0122020E0024E16E000E0120E26E82
:102A2000E66AE66A010E456F472BDED6462BD2D604
:102A30004551010AD8B4CBD60101856B0401466B20
:102A4000800E006E800E000A005C02E1140E465DEE
:102A500021E246C400F0000E016E003600900136FF
:102A6000003600900136860E0024E96E010E01202A
:102A7000EA6EEECF01F0EECF02F0000E006E0250D3
:102A8000005C02E10150000802E20101852B040113
:102A9000462BD6D70101826B1200A69C45C4A9FF24
:102AA000A69EA680A8CF00F01200F1DC00C045F47D
:102AB000640E0401876F4D0E886F000E896F18EC4D
:102AC00011F000C046F44551005C03E245C400F03B
:102AD00002D046C400F012007C0E04015D6F5E6BF4
:102AE0005F6B606B000E00018D1902E1020E8C1904
:102AF00007E0000E8D1902E1010E8C1901E01DD0D6
:102B000081A81BD0400E0401876F060E886F900EBF
:102B1000896F4E0E8A6F000E8B6F45C48CF446C4CD
:102B20008DF446DC0401400E876F060E886F400E60
:102B3000896F32DC005201E1F5D745C487F446C401
:102B400088F40D0E0401896F22DD00C087F401C0F6
:102B500088F40A0E896F1BDD00C087F401C088F479
:102B60005D0E896F040E8A6FF5EC0FF000C049F41A
:102B700001C04AF404015F4B602B5FC400F060C4E5
:102B800001F0003600900136490E0024616F040EFA
:102B90000120626F876B886B5D0E896F040E8A6FF0
:102BA000F5EC0FF061C4E1FF62C4E2FF00C0E6FF94
:102BB00001C0E6FF5FC400F060C401F00036009081
:102BC0000136490E0024E96E040E0120EA6EEECFB4
:102BD00001F0EECF02F0000E021802E1000E011823
:102BE000C9E149C487F44AC488F4F60E0401896F28
:102BF000000E8A6FD1EC10F0000E011802E1000EF9
:102C00000018D8A4DBD04BC487F44CC488F4CF0E92
:102C10000401896F000E8A6FD1EC10F0000E0118CC
:102C200002E1000E001826E14DC487F44EC488F47A
:102C3000D10E0401896F000E8A6FD1EC10F0000EE6
:102C4000011802E1000E001802E1898012D04DC483
:102C500087F44EC488F4E30E0401896F000E8A6F76
:102C6000D1EC10F0000E011802E1000E0018D8B4EB
:102C70008990A4D04BC487F44CC488F4180E040186
:102C8000896F010E8A6FD1EC10F0000E011802E17D
:102C9000000E001826E14DC487F44EC488F4310EAE
:102CA0000401896F010E8A6FD1EC10F0000E01183B
:102CB00002E1000E001802E1898212D04DC487F4AF
:102CC0004EC488F4490E0401896F000E8A6FD1EC5E
:102CD00010F0000E011802E1000E0018D8B489921D
:102CE0006DD04BC487F44CC488F4470E0401896F3F
:102CF000000E8A6FD1EC10F0000E011802E1000EF8
:102D0000001826E14DC487F44EC488F44D0E04012A
:102D1000896F000E8A6FD1EC10F0000E011802E1ED
:102D2000000E001802E1898412D04DC487F44EC40D
:102D300088F4400E0401896F000E8A6FD1EC10F008
:102D4000000E011802E1000E0018D8B4899436D0A4
:102D50004BC487F44CC488F43E0E0401896F000E06
:102D60008A6FD1EC10F0000E011802E1000E00187D
:102D700025E14DC487F44EC488F4440E0401896FE4
:102D8000000E8A6FD1EC10F0000E011802E1000E67
:102D9000001802E1898612D04DC487F44EC488F42D
:102DA000500E0401896F000E8A6FD1EC10F0000EF6
:102DB000011802E1000E0018D8B489961200046AC6
:102DC000056A01017D5305E004C000F005C001F073
:102DD000EED0066A800E006E800E000A005C02E1F2
:102DE000140E065CD8B0DFD006C000F0000E016EF5
:102DF000003600900136003600900136860E002421
:102E0000E96E010E0120EA6EEECF01F0EECF02F086
:102E1000000E006E0250005C02E101500008D8B0C4
:102E2000C0D006C000F0000E016E003600900136E2
:102E3000003600900136860E0026010E0122020E99
:102E40000024E96E000E0120EA6EEECF01F0EECF15
:102E500002F004014651025C02E14551015CD8A038
:102E6000A0D006C000F0000E016E003600900136C2
:102E7000003600900136860E0026010E012200C0A9
:102E8000E9FF01C0EAFFEECF04F0EECF05F0020E3D
:102E90000024E96E000E0120EA6EEECF01F0EECFC5
:102EA00002F00250465D02E10150455D4BE206C072
:102EB00000F0000E016E00360090013600360090E2
:102EC0000136860E0024026E010E0120036E02C040
:102ED000E9FF03C0EAFFEECF00F0EECF01F045516D
:102EE00000264651012202C0E1FF03C0E2FF00C0FC
:102EF000E6FF01C0E6FF06C000F0000E016E0036DE
:102F000000900136003600900136860E0026010E34
:102F10000122020E0024026E000E0120036E02C088
:102F2000E9FF03C0EAFF4551EE5C006E4651EE58E2
:102F3000016E02C0E1FF03C0E2FF00C0E6FF01C076
:102F4000E6FF2AD006C000F0000E016E00360090A9
:102F50000136003600900136860E0024E16E010E27
:102F60000120E26EE66AE66A06C000F0000E016E1D
:102F7000003600900136003600900136860E00269D
:102F8000010E0122020E0024E16E000E0120E26E0D
:102F9000E66AE66A0101850704C000F005C001F099
:102FA00006D0062A17D704C000F005C001F01200B1
:102FB00020EC12F00101706B716B796B7A6B6A6AAD
:102FC000686A40EC12F06D8C6E6A710E0401876FB6
:102FD0000F0E886F896B010E8A6F000E8B6FADEC40
:102FE00012F06D9C456B080E455D16E245C400F07D
:102FF000000E016E0036009001360036009001365A
:10300000000E0024E16E040E0120E26EE66AE66A1C
:10301000E66AE66A452BE7D7160E706E68A603D0FF
:10302000F70E6816FBD70101766B676B686B696BEF
:103030006D98080E616F040E626F6F6B6E6B1200FD
:10304000740E0401A96F000EAA6FAB6BAC6BAD6B75
:10305000AE6BDBEC02F06D92699468A403D0FB0EBA
:103060006816FBD712000401846B856B0E0E482591
:103070004D6F000E49214E6F866B030E006E000EE1
:10308000016E84C404F085C405F0B3EC02F0440E74
:103090000024E96E010E0120EA6E030E006E810E1F
:1030A000E16E040EE26EEECFE6FF0006FCE1815118
:1030B000010A04E04551010A01E045D17E0E4F6F3F
:1030C000506B4DC451F4100E526F010E536F4551A9
:1030D000010A09E1546B556B566B576B586B596B72
:1030E0005A6B5B6B3ED082C4E9FF83C4EAFFEECF2C
:1030F00054F4010E8225E96E000E8321EA6EEECFB4
:1031000055F4020E8225E96E000E8321EA6EEECFA1
:1031100056F4030E8225E96E000E8321EA6EEECF8F
:1031200057F4040E8225E96E000E8321EA6EEECF7D
:1031300058F4050E8225E96E000E8321EA6EEECF6B
:1031400059F4060E8225E96E000E8321EA6EEECF59
:103150005AF4070E8225E96E000E8321EA6EEECF47
:103160005BF4FF0E5C6FFE0E5D6F5E6B010E5F6FBA
:10317000110E4B6F000E4C6F110E4825016E000EA4
:103180004921026E800E4C19006E800E0218005C00
:1031900002E101504B5D17E24F0E4B25E16E040E2C
:1031A0004C21E26E110E4B5D006E000E4C59016E0B
:1031B00000504625E96E01504721EA6EEECFE6FF4A
:1031C0004B4B4C2BD9D7030E4B6F000E4C6F030E9D
:1031D0004D25016E000E4E21026E800E4C19006EC0
:1031E000800E0218005C02E101504B5D0BE24F0EB5
:1031F0004B25D96E040E4C21DA6EDE5086274B4BE0
:103200004C2BE5D78651FF08006E00C086F44F0EA8
:103210004B25E16E040E4C21E26E00C0E6FF000E6D
:1032200000018D1902E1010E8C191BE181A819D052
:10323000400E0401876F060E886FE00E896F4E0EF8
:103240008A6F000E8B6FD8EC11F00401400E876F6F
:10325000060E886F400E896FCCEC11F0005201E130
:10326000F4D704014B6B4C6B040E4D25016E000E20
:103270004E21026E800E4C19006E800E0218005C0A
:1032800002E101504B5D38E24F0E4B25E96E040E12
:103290004C21EA6EEECF87F4A6EC12F0000E00018E
:1032A0008D1902E1010E8C1923E181A821D0400E75
:1032B0000401876F060E886F060E896F4F0E8A6FA6
:1032C000000E8B6F4F0E4B25E96E040E4C21EA6EFB
:1032D000EECF8CF4D8EC11F00401400E876F060E8F
:1032E000886F400E896FCCEC11F0005201E1F4D7E9
:1032F00004014B4B4C2BB8D7000E00018D1902E195
:10330000010E8C191BE181A819D0400E0401876FB2
:10331000060E886F060E896F000E8A6F000E8B6F87
:10332000D8EC11F00401400E876F060E886F400E36
:10333000896FCCEC11F0005201E1F4D70401455142
:10334000010A01E10AD0800E8519006E800E005C32
:1033500002E1020E845DD8A090D61200A6A202D08F
:103360000000FCD7A69C45C4A9FF46C4A8FFA69EA2
:10337000A684F2CF00F0F29E550EA76EAA0EA76E9D
:10338000A68200BE02D0F29E01D0F28EA694120058
:103390006D6A696A01016E6B120045C402F046C491
:1033A00003F002C000F003C001F0024A032A00C08B
:1033B000E9FF01C0EAFFEE5201E0F3D704014551F5
:1033C000025C006E46510358016E010E005E000E55
:1033D000015A12000401476B486B4B6B4C6B45C4A0
:1033E000E9FF46C4EAFFEECF87F4EAEC12F00052A0
:1033F00003E0454B462BF3D745C4E9FF46C4EAFF3B
:10340000EE502D0A05E1474B482B454B462B09D082
:1034100045C4E9FF46C4EAFFEE502B0A02E1454BE2
:10342000462B45C400F046C401F0454B462B00C076
:10343000E9FF01C0EAFFEECF49F4000E4A6F000E2B
:103440004A6F49C487F4FEEC11F000522EE049C4E3
:1034500087F4B1EC0FF0005208E049C487F456EC51
:1034600010F000C049F4000E4A6F49C4A1F494EC76
:1034700005F0005205E0300E495F000E4A5B04D0B3
:10348000570E495F000E4A5B4B374B914C374B3719
:103490004B914C374B374B914C374B374B914C370B
:1034A00049514B27000E4C23BCD74751481108E027
:1034B0004B510008006E4CC401F0000E015604D0C0
:1034C0004BC400F04CC401F01200200E01016E5DEF
:1034D00003E36DB201D002D0006A27D070C1A1F41D
:1034E00071C1A2F437EC03F000521EE1010E01019C
:1034F0007025E96E000E7121EA6EEECF00F000C07B
:1035000049F448C4A1F40401A26B45C4A3F446C421
:10351000A4F447C4A5F44CEC03F000C070F101C062
:1035200071F149C400F001D0006A120020EC12F0E1
:103530000101706B716B796B7A6B6A6A686A40EC37
:1035400012F06D8C6E6A710E0401A96F0F0EAA6FD6
:10355000AB6B010EAC6F000EAD6F1DEC03F06D9CFC
:10356000A76B080EA75D16E2A7C400F0000E016E5F
:10357000003600900136003600900136000E00241F
:10358000E16E040E0120E26EE66AE66AE66AE66A29
:10359000A72BE7D7160E706E68A603D0F70E681635
:1035A000FBD70101766B676B686B696B6D98080ED2
:1035B000616F040E626F6F6B6E6B1200A19A120046
:1035C0000900F5CFE6FF0006FBE10106F9E1120074
:1035D0004C0E01014F6F250E506F870E516F040E78
:1035E000526FAE0E4B6F3D0E4C6F000E4D6F000EC6
:1035F0004E6FA40E576F3D0E586F000E596F000EA0
:103600005A6FFF0E536FFF0E546F000E556F000E72
:10361000566FAC8A900EAB6E948E949C9EAA03D08B
:10362000AECF00F0FBD712000001CC51CE1902E161
:10363000CD51CB192AE0CDC0CBF0CEC0CCF081B0BB
:1036400002D0D88001D0D890000ED8B0010E03016E
:10365000106F81B202D0D88001D0D890000ED8B0BF
:10366000010E0F6F81B402D0D88001D0D890000E27
:10367000D8B0010E0101D66F81B602D0D88001D03A
:10368000D890000ED8B0010ED76F016A81B0012A20
:103690000301105101185CE0800E006E800E0001E5
:1036A0008B19005C02E18A5105084FE28A6B8B6B33
:1036B000000E81B0010E0301106F000E00018D1984
:1036C00002E1010E8C1907E0000E8D1902E1020ED5
:1036D0008C1901E01DD081A81BD0400E0401876F1A
:1036E000060E886FBA0E896F4E0E8A6F000E8B6FB2
:1036F00010C38CF4D8EC11F00401400E876F060E55
:10370000886F400E896FCCEC11F0005201E1F4D7C4
:10371000030110530DE00401456B8E0E466F000E41
:10372000476F090E486F000E496F4A6B9CDC0CD046
:103730000401456BB60E466F000E476F080E486FCA
:10374000000E496F4A6B8FDC03D000018A4B8B2B34
:10375000016A81B2012A03010F5101185CE0800E59
:10376000006E800E0001C019005C02E1BF51050827
:103770004FE2BF6BC06B000E81B2010E03010F6FF1
:10378000000E00018D1902E1010E8C1907E0000EF8
:103790008D1902E1020E8C1901E01DD081A81BD009
:1037A000400E0401876F060E886FD70E896F4E0E8C
:1037B0008A6F000E8B6F0FC38CF4D8EC11F00401EC
:1037C000400E876F060E886F400E896FCCEC11F0AB
:1037D000005201E1F4D703010F530DE00401456BE2
:1037E000C10E466F000E476F090E486F000E496FFD
:1037F0004A6B39DC0CD00401456BAD0E466F000EF0
:10380000476F080E486F000E496F4A6B2CDC03D0DF
:103810000001BF4BC02B016A81B4012A0101D651BE
:1038200001185EE0800E006E800E00019919005CA8
:1038300002E19851050851E2986B996B000E81B432
:10384000010E0101D66F000E00018D1902E1010E7B
:103850008C1907E0000E8D1902E1020E8C1901E0AF
:103860001DD081A81BD0400E0401876F060E886F03
:10387000CE0E896F4E0E8A6F000E8B6FD6C18CF400
:10388000D8EC11F00401400E876F060E886F400ED1
:10389000896FCCEC11F0005201E1F4D70101D6534D
:1038A0000EE00401456B9A0E466F000E476F090E3D
:1038B000486F000E496F4A6B33EC18F00DD00401CD
:1038C000456BA40E466F000E476F080E486F000E42
:1038D000496F4A6B33EC18F003D00001984B992BD9
:1038E000016A81B6012A0101D75101185CE0800EFE
:1038F000006E800E2E19005C02E12D51050850E289
:103900002D6B2E6B000E81B6010ED76F000E0001DD
:103910008D1902E1010E8C1907E0000E8D1902E1EC
:10392000020E8C1901E01DD081A81BD0400E0401AD
:10393000876F060E886FE90E896F4E0E8A6F000E34
:103940008B6FD7C18CF4D8EC11F00401400E876F57
:10395000060E886F400E896FCCEC11F0005201E129
:10396000F4D70101D7530EE00401456B1A0E466FE0
:10397000010E476F090E486F000E496F4A6B33EC1A
:1039800018F00DD00401456B240E466F010E476FF1
:10399000080E486F000E496F4A6B33EC18F003D0E5
:1039A00001012D4B2E2B12000301BB6BBC6B800E53
:1039B000BC19006E800E005C02E1080EBB5D16E2D1
:1039C000BB51B925BD6FBC51BA21BE6FBB51B825E3
:1039D0000401456F4DEC15F0BDC3E1FFBEC3E2FF2E
:1039E00000C0E6FF0301BB4BBC2BE1D712005EC158
:1039F00045F45FC146F4400E0401476F010E486F65
:103A000064DD12002C0E0101886F010E896FDD0E3E
:103A1000866F010E876F010E036E800E006E800EA2
:103A2000000A005C02E1140E035C2AE203C000F00D
:103A3000000E016E0036009001360036009001360F
:103A4000860E0024E16E010E0120E26EE66AE66A4F
:103A500003C000F0000E016E003600900136003603
:103A600000900136860E0026010E0122020E00246F
:103A7000E16E000E0120E26EE66AE66A032ACDD707
:103A8000010E856F7D6B826B1200B8C345F4B9C31C
:103A900046F4DFEC16F000C0BAF301C0BBF30150EE
:103AA000000A02E1000E00180FE1010182530CE050
:103AB000E7EC13F0B8C345F4B9C346F4DFEC16F0F5
:103AC00000C0BAF301C0BBF3BAC300F0BBC301F03E
:103AD00012000301BD6BBE6BBF6BC06BBD6BBE6BD9
:103AE000B9C345F4BAC346F458DC00C002F001C0C3
:103AF00003F0023602900336800E0301BE19006EF9
:103B0000800E0318005C02E10250BD5D2CE2BD5145
:103B1000B925E96EBE51BA21EA6EEECFBBF3010EB4
:103B2000BD25006E000EBE21016E0050B925E96E64
:103B30000150BA21EA6EEECFBCF3BB0E0401456F13
:103B4000030E466F47DC0301BF51B8250401456FE2
:103B500000C046F403DC0301BF4BC02B020EBD279F
:103B6000000EBE23BDD71200B8C3E9FFB9C3EAFFF8
:103B7000EECFBAF3000E0301BB6F000EBB6F000E59
:103B8000BB1902E1200EBA1907E0000EBB1902E1D1
:103B9000090EBA1901E003D0B84BB92BE5D7BC6BBD
:103BA000BD6BBE6BBF6B000EBB1902E12D0EBA19C7
:103BB00005E1BE4BBF2BB84BB92B08D0000EBB198B
:103BC00002E12B0EBA1902E1B84BB92BB8C3E9FFD9
:103BD000B9C3EAFFEECFBAF3000EBB6F000EBB6FA6
:103BE000BAC3A1F494EC05F000521AE0BCC300F093
:103BF000BDC301F00A0E046E000E056EB3EC02F0B8
:103C0000300E0301BA5D026E000EBB59036E025006
:103C10000024BC6F03500120BD6FB84BB92BD6D721
:103C20000301BE51BF1108E0BC510008006EBDC3C6
:103C300001F0000E015604D0BCC300F0BDC301F07A
:103C4000120001016E51010A07E16DBA05D0686AE0
:103C500069806988020E6E6F68A406D069A404D0DA
:103C6000FB0E681620EC18F06DA202D0A7DC7DD008
:103C700068A018D069A016D059DC040E6E6F200E13
:103C80000401026F040E036F080E016F000E001591
:103C9000006E00C000F48C0E0011006E00C000F435
:103CA000FE0E681668A806D069A804D0B9EC13F017
:103CB000EF0E681668AC11D069AC0FD0730E04011A
:103CC000A96F000EAA6FAB6BAC6B010EAD6F000E4F
:103CD000AE6FDBEC02F0BF0E681668AA04D069AACA
:103CE00002D0C9EC13F068A210D069A20ED0FF0E6A
:103CF0000401A96F3F0EAA6FAB6BAC6B010EAD6FE9
:103D0000000EAE6FDBEC02F06A6A040E01016E5D1C
:103D100002E254DC2AD069A627D00401A66B040E67
:103D2000A65D22E268A61CD06CCF09F3F70E6816D8
:103D3000780E03010915016E0150000A03E130EC11
:103D400013F00DD0720E0401A96F000EAA6F090EB8
:103D5000AB6F030EAC6FAD6BAE6BDBEC02F001D062
:103D600003D00401A62BDBD729DC12000301BC6BB6
:103D7000BD6B800EBD19006E800EBB19005C02E1A8
:103D8000BA51BC5D0EE2BC51B825E96EBD51B921F6
:103D9000EA6EEECF87F4A6EC12F00301BC4BBD2B0C
:103DA000E8D71200000E9EBA010E006E1200AECFD0
:103DB00001F0ABA202D0AB98AB8801C000F01200BA
:103DC00055EC15F000C072F1010E0101606FB8C32F
:103DD0005EF1B9C35FF1BAC383F1BBC384F1D8EC20
:103DE00017F0010E016E0150010A02E121EC13F0FF
:103DF0001200C8EC19F012000301FE6BFF6B040106
:103E0000436B446B22C3FEF3000E0301FF6F000EF1
:103E1000FF1902E1900EFE19D8A49BD0040EB86FD2
:103E2000000EB96F800E006E800EB919005C02E1C1
:103E3000B8510B0817E3040EB85D006E000EB959B7
:103E4000016EF60E0024E16E030E0120E26E1F0EDD
:103E5000B825E96E030EB921EA6EEECFE6FFB84B46
:103E6000B92BE0D70C0EB86F000EB96F800E006E44
:103E7000800EB919005C02E1B8510D0817E30C0E71
:103E8000B85D006E000EB959016E400E0024E16E5F
:103E9000040E0120E26E1F0EB825E96E030EB92153
:103EA000EA6EEECFE6FFB84BB92BE0D70C0EB85D4B
:103EB000006E000EB959016E400E0024E16E040E32
:103EC0000120E26EE66A0F0EB86F000EB96F020EA7
:103ED00001012F25016E000E3021026E800E0218A6
:103EE000006E800E0301B919005C02E1B851015C5B
:103EF00017E30F0EB85D006E000EB959016EBA0ED1
:103F00000024E16E030E0120E26E1F0EB825E96E5B
:103F1000030EB921EA6EEECFE6FFB84BB92BD7D727
:103F20000F0EB85D006E000EB959016EBA0E002476
:103F3000E16E030E0120E26EE66ABA0E0401456FDF
:103F4000030E466F400E476F040E486F6CEC15F081
:103F50004AD2000E0301FF1902E1950EFE1955E148
:103F60002BC3ECF32CC3EDF3040EB86F000EB96F46
:103F7000800EB919006E800E005C02E10C0EB85D77
:103F800017E2040EB85D006E000EB959016EEE0E18
:103F90000024E16E030E0120E26E1F0EB825E96ECB
:103FA000030EB921EA6EEECFE6FFB84BB92BE0D78E
:103FB000B86BB96B800EB919006E800E005C02E11F
:103FC000100EB85D21E2300EB825E16E040EB92165
:103FD000E26E1A0EB825006E000EB921016E1F0E9A
:103FE0000024E96E030E0120EA6EEECFE6FF300EEC
:103FF000B825E96E040EB921EA6EEE50000A01E11F
:1040000003D0B84BB92BD6D7EED1000EFF1902E181
:10401000880EFE19D8A407D124C343F425C344F461
:104020002651000AD8A4FED0040143514E0AD8A458
:104030008ED04451440AD8A48AD027C3ECF328C3B5
:10404000EDF3800E0001CE19006E800E005C02E1DF
:10405000020ECD5D2AE2020ECD6F000ECE6F000E75
:104060008D1902E1020E8C1907E0000E8D1902E194
:10407000010E8C1901E019D081A817D0400E04015F
:10408000456F060E466FD40E476F000E486FFAEC70
:1040900012F00401400E876F060E886F400E896F84
:1040A000CCEC11F0005201E1F4D70A0E0301B86F15
:1040B000000EB96F800EB919006E800E005C02E12F
:1040C000120EB85D17E20A0EB85D006E000EB95907
:1040D000016EEE0E0024E16E030E0120E26E1F0E53
:1040E000B825E96E030EB921EA6EEECFE6FFB84BB4
:1040F000B92BE0D7B86BB96B800EB919006E800E82
:10410000005C02E1100EB85D21E2300EB825E16ED0
:10411000040EB921E26E130EB825006E000EB9210F
:10412000016E1F0E0024E96E030E0120EA6EEECF31
:10413000E6FF300EB825E96E040EB921EA6EEE50A6
:10414000000A01E103D0B84BB92BD6D76BD00401DC
:1041500043514D0AD8A466D04451590AD8A462D01C
:1041600027C31DF328C31EF303011D51FF0A2FE0CF
:104170001E51FE0A2CE0020E0001CD6F000ECE6F24
:10418000000E8D1902E1020E8C1907E0000E8D1948
:1041900002E1010E8C1901E019D081A817D0400E60
:1041A0000401456F060E466FFA0E476F000E486F0A
:1041B000FAEC12F00401400E876F060E886F400E75
:1041C000896FCCEC11F0005201E1F4D72BD0000143
:1041D000CD6BCE6B000E8D1902E1020E8C1907E03B
:1041E000000E8D1902E1010E8C1901E01BD081A88F
:1041F00019D0400E0401876F060E886F1C0E896F60
:104200004E0E8A6F000E8B6FD8EC11F00401400E39
:10421000876F060E886F400E896FCCEC11F000524C
:1042200001E1F4D7E0D0000E0301FF1902E18A0E8C
:10423000FE19D8A469D02351030A2DE1000E000114
:104240008D1902E1020E8C1907E0000E8D1902E1B2
:10425000010E8C1901E01BD081A819D0400E040179
:10426000876F060E886F400E896F4E0E8A6F000EA4
:104270008B6FD8EC11F00401400E876F060E886F2B
:10428000400E896FCCEC11F0005201E1F4D700012F
:10429000CD6BCE6B38D003012351020A34E1800E7E
:1042A0000001CE19006E800E005C02E1020ECD5DB1
:1042B0002AE2020ECD6F000ECE6F000E8D1902E1C4
:1042C000020E8C1907E0000E8D1902E1010E8C1907
:1042D00001E019D081A817D0400E0401456F060EE9
:1042E000466F090E476F010E486FFAEC12F0040199
:1042F000400E876F060E886F400E896FCCEC11F070
:10430000005201E1F4D76FD0000E0301FF1902E162
:104310008B0EFE19D8A467D02751000A35E1800E14
:104320000001CE19006E800E005C02E1020ECD5D30
:104330002AE2020ECD6F000ECE6F000E8D1902E143
:10434000020E8C1907E0000E8D1902E1010E8C1986
:1043500001E019D081A817D0400E0401456F060E68
:10436000466FE70E476F000E486FFAEC12F004013B
:10437000400E876F060E886F400E896FCCEC11F0EF
:10438000005201E1F4D72FD003012751210A2BE17C
:104390000001CD6BCE6B000E8D1902E1020E8C195F
:1043A00007E0000E8D1902E1010E8C1901E01BD00F
:1043B00081A819D0400E0401876F060E886FD00EB9
:1043C000896F4D0E8A6F000E8B6FD8EC11F00401CF
:1043D000400E876F060E886F400E896FCCEC11F08F
:1043E000005201E1F4D71200B8C300F00032009E81
:1043F0000032009E0032009E0032009E740E0024A7
:10440000F66E4E0EF76E000EF722000EF86E000EDE
:10441000F8220900F5CF00F0B9C3E1FFBAC3E2FF0B
:1044200000C0E6FF010E0301B925E16E000EBA21BE
:10443000E26E0F0EB815006E740E0024F66E4E0E6E
:10444000F76E000EF722000EF86E000EF82209003B
:10445000F5CF00F000C0E6FF020EB925E16E000EB8
:10446000BA21E26EE66A120085EC27F07C0E0301A9
:10447000B36FB46B010EB56F3D0E0B6EE10E0C6E9B
:104480003F0E0D6E0D2EFED70C2EFCD70B2EFAD73D
:1044900000000000B886040EB06EE10EAF6EAC8472
:1044A000E8EC1AF002EC1DF00301976B986B800E9C
:1044B0009819006E800E005C02E1020E975D60E2CA
:1044C000030E006E000E016E97C304F098C305F052
:1044D000B3EC02F0440E0026010E012200C0B6F338
:1044E00001C0B7F3B5C345F44DEC15F0B6C3E1FF19
:1044F000B7C3E2FF00C0E6FFB52B030E006E000E4F
:10450000016E97C304F098C305F0B3EC02F0440EBB
:104510000026010E0122010E0024B66F000E0120BC
:10452000B76F080EB86F000EB96F45EC1DF0B6C33B
:10453000E1FFB7C3E2FF00C0E6FF01C0E6FFB5C37D
:10454000B8F3030E006E000E016E97C304F098C31B
:1045500005F0B3EC02F0440E0026010E0122010E1C
:104560000024E96E000E0120EA6EEECFB9F3EECF23
:10457000BAF3D4EC1CF0080EB527974B982B97D7BD
:104580009290899092928992929489949296899627
:1045900093809382938493869386938A0F0EC2129C
:1045A0000F0EC1120F0EC012070EB412F28EF28C53
:1045B0009D8A81A80AD0000EB86F060EB96F400E12
:1045C000BA6F060EBB6FE0EC1EF000018C6B8D6BBA
:1045D0002D0E0301B86F000EB96F080EBA6F000EF2
:1045E000BB6FB6EC1EF03D50010A02E13D6A04DCEF
:1045F00014EC1BF0000E0001CE1902E1000ECD19E3
:1046000002E189808992000ECE1902E1020ECD19D5
:1046100002E18982899081A819D3F7EC1CF000503F
:10462000000AD8B413D30301976B986B000E0401F2
:10463000876F060E886F0D0E896FC7EC12F000C0F1
:1046400087F401C088F40A0E896FC7EC12F000C02D
:1046500087F401C088F4B30E896F030E8A6FF5ECFE
:104660000FF000C099F301C09AF30301974B982B08
:1046700097C300F098C301F0003600900136990E00
:104680000024B66F030E0120B76F0401876B886B9F
:10469000B30E896F030E8A6FF5EC0FF0B6C3E1FF1E
:1046A000B7C3E2FF00C0E6FF01C0E6FF97C300F01A
:1046B00098C301F0003600900136990E0024E96E8F
:1046C000030E0120EA6EEECF01F0EECF02F0000EF5
:1046D000021802E1000E0118C8E199C387F49AC3D9
:1046E00088F4350E0401896F000E8A6FD1EC10F04A
:1046F000000E011802E1000E001831E1400E040125
:10470000876F060E886F9B0E896F4E0E8A6F000EA4
:104710008B6FD8EC11F00401400E876F060E886F86
:10472000400E896FCCEC11F0005201E1F4D7040186
:10473000456B010E466FAEEC19F0F9EC1EF03D0E24
:104740000B6EE10E0C6E3F0E0D6E0D2EFED70C2E75
:10475000FCD70B2EFAD700000000FF0077D299C3D8
:1047600087F49AC388F4540E0401896F000E8A6F8F
:10477000D1EC10F0000E011802E1000E001839E132
:104780009BC387F49CC388F4780E0401896F000EE4
:104790008A6FD1EC10F0000E011802E1000E001833
:1047A00027E19DC3B8F39EC3B9F3B4EC1DF000C07C
:1047B0008CF001C08DF0400E0401876F060E886FEB
:1047C000B00E896F4E0E8A6F000E8B6F00C08CF496
:1047D00001C08DF4D8EC11F00401400E876F060E75
:1047E000886F400E896FCCEC11F0005201E1F4D7D4
:1047F0002DD299C387F49AC388F4730E0401896F8C
:10480000000E8A6FD1EC10F0000E011802E1000ECC
:10481000001813E19BC345F49CC346F4CDEC19F09A
:1048200000C048F401C049F4456B9BC346F49CC3E7
:1048300047F44A6B33EC18F009D2040199C387F4AA
:104840009AC388F4850E896F000E8A6FD1EC10F040
:10485000000E011802E1000E00181AE1400E0401DA
:10486000876F060E886F050E896F4E0E8A6F000ED9
:104870008B6FD8EC11F00401400E876F060E886F25
:10488000400E896FCCEC11F0005201E1F4D7DED17B
:1048900099C387F49AC388F47E0E0401896F000ED1
:1048A0008A6FD1EC10F0000E011802E1000E001822
:1048B000D8A4CCD19BC387F49CC388F4640E0401B4
:1048C000896F000E8A6FD1EC10F0000E011802E122
:1048D000000E0018D8A4EAD09DC387F49EC388F4C4
:1048E0005D0E0401896F000E8A6FD1EC10F0000E8E
:1048F000011802E1000E0018D8A4D7D00301AD6B57
:10490000AE6B9FC3B8F3A0C3B9F3B4EC1DF000C005
:10491000ADF301C0AEF3800E026E800E0118025C92
:1049200002E100500008D8B0C0D0010EAD5D016EAC
:10493000000EAE59026E800E0218006E800E005CF2
:1049400002E1020E015CD8B0B0D0A1C3B8F3A2C39B
:10495000B9F3B4EC1DF000C083F301C084F3000E82
:10496000011802E1000E001807E0000E841902E1B0
:10497000010E831901E099D0AD05026E02C000F06E
:104980000036009000360090003600900050010F75
:10499000B86FA3C3B9F3A4C3BAF369EC1DF0070E53
:1049A0000B6E170E0C6E6A0E0D6E0D2EFED70C2EB2
:1049B000FCD70B2EFAD70000AD05026E02C000F046
:1049C0000036009000360090003600900050020F34
:1049D000B86FA1C3B9F3A2C3BAF369EC1DF0070E17
:1049E0000B6E170E0C6E6A0E0D6E0D2EFED70C2E72
:1049F000FCD70B2EFAD70000AD05026E02C000F006
:104A00000036009000360090003600900050010FF4
:104A1000B86F030E006E000E016E97C304F098C3CA
:104A200005F0B3EC02F0440E0024E96E010E012003
:104A3000EA6EEECFB9F3000EBA6F000EBA6FD4EC87
:104A40001CF0070E0B6E170E0C6E6A0E0D6E0D2EFF
:104A5000FED70C2EFCD70B2EFAD70000AD05026E48
:104A600002C000F000360090003600900036009042
:104A70000050020FB86F030E006E000E016E97C358
:104A800004F098C305F0B3EC02F0440E0026010ECA
:104A90000122010E0024E96E000E0120EA6EEECF25
:104AA000B9F3EECFBAF3D4EC1CF0D0D09BC387F4AB
:104AB0009CC388F46F0E0401896F000E8A6FD1ECDD
:104AC00010F0000E011802E1000E0018D8A4A2D0C8
:104AD0009DC387F49EC388F4680E0401896F000E9D
:104AE0008A6FD1EC10F0000E011802E1000E0018E0
:104AF000D8A48FD00301B16BB26B9FC3B8F3A0C32E
:104B0000B9F3B4EC1DF000C0B1F301C0B2F3800EF4
:104B1000026E800E0118025C02E100500008D8B05D
:104B200078D0010EB15D016E000EB259026E800E9A
:104B30000218006E800E005C02E1020E015C69E268
:104B4000AF6BB06B856B866B800E8619006E800E26
:104B5000005C02E1080E855D26E2010EB15D006E8B
:104B6000000EB259016E030E046E000E056EB3EC1A
:104B700002F0440E0026010E0122010E0024E96E0F
:104B8000000E0120EA6EEECFB8F3870EAF25B96FA5
:104B9000030EB021BA6F28DC020EAF27000EB0233F
:104BA000854B862BD1D7400E0401876F060E886F88
:104BB000ED0E896F4D0E8A6F000E8B6FB1C38CF4B2
:104BC000B2C38DF4870E8E6F030E8F6F010E03013B
:104BD000B15D006E000EB259016E030E046E000E40
:104BE000056EB3EC02F0440E0024E96E010E0120C4
:104BF000EA6EEECF90F4D8EC11F00401400E876F0E
:104C0000060E886F400E896FCCEC11F0005201E166
:104C1000F4D71CD09BC387F49CC388F4870E04018F
:104C2000896F000E8A6FD1EC10F0000E011802E1BE
:104C3000000E00180BE12D0E0301B86F000EB96FC6
:104C4000080EBA6F000EBB6FB6EC1EF0CCD40D2E62
:104C5000FED70C2EFCD70000FFD70000007E00041A
:104C600008014D5950555047524144450000340009
:104C70004F4646004F4E0033004F4646004F4E0011
:104C80004F464600534554006E756C6C00444556C3
:104C90004943450053455400444556494345004760
:104CA00045540053454E44004445425547005A4937
:104CB00047424545003F004D5900000000004F5558
:104CC000547C317C4F46460000004F55547C337C69
:104CD0004F4646004F55547C337C4F4E004F555441
:104CE0007C327C4F4E004F55547C317C4F4E00003F
:104CF000004F55547C327C4F4646000000FFFF3188
:104D0000004F4E005A49474245457C4A4F494E455F
:104D1000440A004F4646005A49474245457C4A4F9F
:104D2000494E45440A004F5554005A4947424545AB
:104D30007C4A4F494E45440A005A49474245457C02
:104D40004A4F494E45440A0032004F55547C347C4A
:104D50004F4646004F55547C347C4F4E0000006354
:104D6000004F4E00090229000101008032090400B1
:104D700000020300000009210101000122210007B7
:104D80000581034000010705010340000122034B98
:104D9000005000500020005A006900670062006562
:104DA000006500200042006F006100720064000690
:104DB00000FF0901A10119012940150026FF007516
:104DC000089540810219012940750895409102C05B
:104DD0005A49474245457C4E4F4E4554574F524BDA
:104DE0007C41434B204641494C45440A005A4947BF
:104DF0004245457C4445564943457C25647C2573A2
:104E00007C25750A004B5050205A494742454520A1
:104E1000424F4152442056312E310A005A494742EE
:104E200045457C4E4F4E4554574F524B0A00120198
:104E3000000200000008010002000100010203015D
:104E40005A49474245457C4E4F4E4554574F524B69
:104E50000A003031323334353637383961626364B1
:104E600065660030313233343536373839414243A4
:104E700044454600303132333435363738394142D3
:104E80004344454601000800400000020010008035
:104E90005A49474245457C25730A005550475241BF
:104EA00044494E470A0001000A006400E803102745
:104EB00044454255477C25640A00494E20317C25F3
:104EC00075200A000A035500530042003400494E81
:104ED00020337C25750A00494E20327C25750A0056
:104EE0005061636B65743A2000494E20347C25750F
:104EF0000A0008034B0050005000010010000001A0
:104F0000001004030904255800FF10EE2AF00A0ED1
:104F1000006E020E016E5A0EF66E4C0EF76E000E0B
:104F2000F86EE0EC1AF01200FFFFFFFFFFFFFFFF3B
:020000040030CA
:0E000000240E3F1EFF8081FF0FC00FE00F4057
:00000001FF
