:1000000018EF22F0FFFF0A0000C01FF001C01EF031
:1000100002C01DF003C01CF004C01BF005C01AF0A4
:1000200006C019F008C018F009C017F00AC016F091
:100030000BC015F0E1CF28F0E2CF29F0E9CF26F090
:10004000EACF27F0F3CF24F0F4CF25F0F5CF23F05B
:10005000F8CF20F0F7CF21F0F6CF22F0A1AA04D0FC
:1000600081A802D044EC20F09EAA46D04AEC21F0B0
:100070000050010A41E14FEC21F000C034F1005082
:100080007E0A05E10001CC6BCD6B010E606F0001B3
:100090006051010A31E1170ECC25E16E030ECD212E
:1000A000E26E34C1E6FF000ECD1902E1020ECC195A
:1000B00008E103011951182501012E6F2F6B000E65
:1000C0002F230001CC4BCD2B040E01012E25016EF8
:1000D000000E2F21026E800E0001CD19006E800EE1
:1000E0000218005C02E10150CC5D06E3CC6BCD6BE5
:1000F000606B010E01012B6F23C0F5FF20C0F8FFDC
:1001000021C0F7FF22C0F6FF24C0F3FF25C0F4FF93
:100110001FC000F01EC001F01DC002F01CC003F0A3
:100120001BC004F01AC005F019C006F018C008F092
:1001300017C009F016C00AF015C00BF026C0E9FF81
:1001400027C0EAFF28C0E1FF29C0E2FF1100000E2E
:10015000056E040E066E9EC403F0000E046E033698
:10016000043603900336043603909FC400F0000E5B
:10017000016E003601360090005003260150042223
:1001800003C001F004C002F00136019002360136CE
:100190000190023601C003F002C004F004320332C1
:1001A000049E04BC048E04320332049E04BC048EFC
:1001B00003C000F004C001F00036009001360036A4
:1001C00000900136055000260650012200C005F0BF
:1001D00001C006F000C0E1FF01C0E2FFE69E04019D
:1001E0009F51000A12E19EC400F0000E016E00361D
:1001F00000900136350E0024E16E010E0120E26E02
:1002000005C0E6FF06C0E6FF11D09EC400F0000E58
:10021000016E003600900136C20E0024E16E010E20
:100220000120E26E05C0E6FF06C0E6FF05C0E1FF63
:1002300006C0E2FFE69C040E0524E16E000E0620D7
:10024000E26EE68C1200800E04019E11006E00C06A
:10025000BFF112009EC4BCF19FC4BDF1A0C4C0F1A7
:10026000A1C4C1F1800E0401A211006E008000C083
:10027000BFF112009EC4BCF19FC4BDF1A0C4BEF189
:10028000A1C4C0F1A2C4C1F1800E0401A311006E8B
:1002900000C0BFF1120020C401F01F0E0116015072
:1002A000010A01E089D004012451000A01E084D050
:1002B0002151060A39E12FD00101C751010A13E18A
:1002C0005F0E04019E6F4A0E9F6F000EA06F120E0C
:1002D0009E27000E9F23A023090EA16F000EA26F80
:1002E000400EA36FC7DF20D00101C751010A0EE104
:1002F000AA0E04019E6F4A0E9F6F000EA06F210E82
:10030000A16F000EA26F400EA36FB4DF0DD00401E9
:100310009E6B99DF09D02351210ACEE02351220A96
:10032000E3E02351230AF3E020C401F0600E01163C
:10033000050E006E005004E00132019EFF0FFBD756
:100340000150010A01E038D024D036D035D0040164
:10035000390E9E6F010E9F6F010EA06F000EA16FF0
:10036000400EA26F77DF28D09E6B6DDF23C439F17A
:1003700023D0440E9E6F010E9F6F010EA06F000EE2
:10038000A16FA26B67DF18D09E6B5DDF22C444F1C2
:1003900013D004012151010AD8E02151090AD6E005
:1003A0002151020AD4E021510A0ADEE02151030A58
:1003B000E0E021510B0AE8E01200700EE16E0F0E32
:1003C000E26E04019951E126D8B0E22A9AC4E6FF10
:1003D0009AA504D099C49EF49F6BB9DE9AA305D068
:1003E00099C49EF4010E9F6FB2DE120004019A516F
:1003F000000A12E099C400F0000E016E0036009071
:100400000136C20E0024E96E010E0120EA6EEECF25
:1004100004F0EECF05F011D099C400F0000E016E8B
:10042000003600900136350E0024E96E010E0120E1
:10043000EA6EEECF04F0EECF05F0020E0424E16E7A
:10044000000E0520E26E9BC4E6FF9CC4E6FF010E91
:100450000424E16E000E0520E26E9DC4E6FF04C098
:10046000E9FF05C0EAFFEECF00F004C0E1FF05C0E0
:10047000E2FF400E0014E66E04C0E9FF05C0EAFF8B
:10048000EECF00F004C0E1FF05C0E2FF880E0010CF
:10049000E66E9A51000A1BE099C400F0000E016E4E
:1004A000003600900136C20E0024026E010E0120BB
:1004B000036E02C0E9FF03C0EAFF040EEE18006EEF
:1004C00002C0E1FF03C0E2FF00C0E6FF1AD099C4FA
:1004D00000F0000E016E003600900136350E00244B
:1004E000026E010E0120036E02C0E9FF03C0EAFFA5
:1004F000040EEE18006E02C0E1FF03C0E2FF00C070
:10050000E6FF04C000F005C001F0120001013A53FB
:1005100015E0010E0401996F1E0E9A6F4EDF010E59
:10052000996F9A6B3CC19BF43DC19CF4400E9D6F4A
:100530005DDF00C0D6F101C0D7F114D00401010E77
:10054000996F1E0E9A6F39DF010E996F9A6B3CC13D
:100550009BF43DC19CF4400E9D6F48DF00C0D6F176
:1005600001C0D7F1120001013A5301E094DE1200FC
:100570000B6A0A6A096A00500402F4CF09F0F3CF4B
:1005800008F001500502F4CF0BF0F3CF0AF0005051
:100590000502F3500926F4500A22E86A0B220150A2
:1005A0000402F3500926F4500A22E86A0B2208C01C
:1005B00000F009C001F00AC002F00BC003F0120005
:1005C0000CD0A4DF3CD03BD0CEDF39D038D037D0F0
:1005D00036D035D0000033D032D0000E040194194B
:1005E00002E1010E9319EDE0000E941902E1020EF2
:1005F0009319E9E0000E941902E1030E9319E4E067
:100600009451000A02E1730E9319E0E09451000A3C
:1006100002E1750E9319DBE09451000A02E1740EB9
:100620009319D6E094513F0A02E1FF0E9319D1E0ED
:100630009451000A02E1720E9319CCE0CDD7010E5D
:10064000006E120093C402F094C403F096C400F04C
:1006500097C401F0010E0401965F000E975B0050F5
:10066000011009E002C0E1FF03C0E2FF95C4E6FF0C
:10067000024A032AEBD71200000E04018C1902E192
:10068000000E8B1902E1016A09D08BC4E9FF8CC40A
:10069000EAFFEECF00F0016A00BE012A01C000F0BF
:1006A000120004018C51000A12E08BC400F0000E0D
:1006B000016E003600900136C20E0024E96E010E74
:1006C0000120EA6EEECF04F0EECF05F011D08BC41E
:1006D00000F0000E016E003600900136350E002449
:1006E000E96E010E0120EA6EEECF04F0EECF05F0C8
:1006F000020E0424E16E000E0520E26E8DC4E6FFBA
:100700008EC4E6FF010E0424E16E000E0520E26EA9
:100710008FC4E6FF04C0E9FF05C0EAFFEECF00F09A
:1007200004C0E1FF05C0E2FF400E0014E66E04C005
:10073000E9FF05C0EAFFEECF00F004C0E1FF05C00D
:10074000E2FF880E0010E66E8C51000A1BE08BC49D
:1007500000F0000E016E003600900136C20E00243B
:10076000026E010E0120036E02C0E9FF03C0EAFF22
:10077000040EEE18006E02C0E1FF03C0E2FF00C0ED
:10078000E6FF1AD08BC400F0000E016E0036009018
:100790000136350E0024026E010E0120036E02C0E8
:1007A000E9FF03C0EAFF040EEE18006E02C0E1FF8D
:1007B00003C0E2FF00C0E6FF04C000F005C001F086
:1007C00012008BC4E9FF8CC4EAFFEE5004018D19BE
:1007D00005E18BC400F08CC401F010D08BC400F094
:1007E0008CC401F08B4B8C2B00C0E9FF01C0EAFFE9
:1007F000EECF00F00052E5E1006A016A120001014B
:10080000ACA567D0ACA314D0ACA103D02D0E006E64
:1008100002D02B0E006E8BC4E1FF8CC4E2FF00C03F
:10082000E6FF04018B4B8C2B0101554B562B3AD024
:10083000ACA10DD08BC4E1FF8CC4E2FF200EE66EAC
:1008400004018B4B8C2B0101554B562B2BD0C00E2A
:10085000AC15016EAD51080B026E0250080A02E1A0
:10086000800E01181FE18BC4E1FF8CC4E2FF300E43
:10087000E66E04018B4B8C2B0101554B562BACAB18
:1008800003D0580E006E02D0780E006E8BC4E1FFCC
:100890008CC4E2FF00C0E6FF04018B4B8C2B0101EE
:1008A000554B562B5351541113E08BC4E1FF8CC4AC
:1008B000E2FF300EE66E04018B4B8C2B0101554B91
:1008C000562B010E535F000E545B53515411EDE152
:1008D00080D05351541115E0ACB713D08BC4E1FF55
:1008E0008CC4E2FF200EE66E04018B4B8C2B0101C1
:1008F000554B562B010E535F000E545B5351541150
:10090000EDE1ACA314D0ACA103D02D0E006E02D04B
:100910002B0E006E8BC4E1FF8CC4E2FF00C0E6FF2B
:1009200004018B4B8C2B0101554B562B0ED0ACA1E7
:100930000CD08BC4E1FF8CC4E2FF200EE66E0401F4
:100940008B4B8C2B0101554B562BC00EAC15016EF9
:10095000AD51080B026E0250080A02E1400E011868
:100960000DE18BC4E1FF8CC4E2FF300EE66E0401A2
:100970008B4B8C2B0101554B562B2BD0C00EAC153D
:10098000016EAD51080B026E0250080A02E1800EA2
:1009900001181FE18BC4E1FF8CC4E2FF300EE66E4C
:1009A00004018B4B8C2B0101554B562BACAB03D068
:1009B000580E006E02D0780E006E8BC4E1FF8CC41E
:1009C000E2FF00C0E6FF04018B4B8C2B0101554B6D
:1009D000562B800E006E800E5819005C02E15751B4
:1009E000595D0DE28BC4E1FF8CC4E2FF300EE66E70
:1009F00004018B4B8C2B0101554B562BEAD78BC432
:100A000000F08CC401F01200086A096A100E0C6E26
:100A10000134083609360450085E0550D8A0053C5C
:100A2000095ED8B007D0045008260550D8B0053C60
:100A30000926D890003601360C2EEAD712002DD0A8
:100A40000101AC87010E04018B27000E8C238D233E
:100A500061D00101AC81010E04018B27000E8C23B3
:100A60008D2358D00101AC83010E04018B27000EA9
:100A70008C238D234FD00101AD87010E04018B27FC
:100A8000000E8C238D2346D00101AC85010E04019C
:100A90008B27000E8C238D233DD08BC4F6FF8CC496
:100AA000F7FF8DC4F8FF0900F5CF01F001502D0AC2
:100AB000C7E08BC4F6FF8CC4F7FF8DC4F8FF0900B4
:100AC000F5CF01F00150200AC4E08BC4F6FF8CC4BE
:100AD000F7FF8DC4F8FF0900F5CF01F001502B0A94
:100AE000C1E08BC4F6FF8CC4F7FF8DC4F8FF09008A
:100AF000F5CF01F00150230ABEE08BC4F6FF8CC491
:100B0000F7FF8DC4F8FF0900F5CF01F00150300A5E
:100B1000BBE001D094D70101ACA301D0AC91ACA74C
:100B200001D0AC958BC400F08CC401F08DC402F0F0
:100B3000120004018B51390806E3300E8B5D03E38C
:100B4000010E006E01D0006A120004012251010A58
:100B500013E120C401F01F0E01160150000A0CE140
:100B60000101BF8F04012151030A04E1010E0101BB
:100B70004E6F02D001014E6B04012251000AD8A42D
:100B80008DD020C401F01F0E01160150020AD8A416
:100B900085D024C401F00F0E01160150000AD8B40C
:100BA0007DD00101BF8F040124BF16D024C403F0FF
:100BB0000F0E031603C000F0000E016E0036009009
:100BC0000136350E0024E96E010E0120EA6EEECFEB
:100BD00004F0EECF05F015D024C403F00F0E031679
:100BE00003C000F0000E016E003600900136C20E08
:100BF0000024E96E010E0120EA6EEECF04F0EECF84
:100C000005F02151030A07E104C0E1FF05C0E2FF3E
:100C1000840EE66E43D024C400F00F0E0016700E52
:100C2000026E0F0E036E00500226D8B0032A02C0D7
:100C3000E9FF03C0EAFFFE0EEE14006EEECF01F0F6
:100C4000FF0E011602C0E1FF03C0E2FF00C0E6FF95
:100C500001C0E6FF24AF11D004C0E1FF05C0E2FFF0
:100C6000E66A040E0418006E00C004F004C0E1FF40
:100C700005C0E2FF400EE66E11D004C0E1FF05C0E2
:100C8000E2FF880EE66E040E0418006E00C004F049
:100C900004C0E1FF05C0E2FFC80EE66E12000401C9
:100CA000286B296B4AD00101BF8F04012881010103
:100CB0004E51010A02E10401288354D00101BF8F83
:100CC00051D00101BF8F040124BF16D024C403F00A
:100CD0000F0E031603C000F0000E016E00360090E8
:100CE0000136350E0024E96E010E0120EA6EEECFCA
:100CF00004F0EECF05F015D024C403F00F0E031658
:100D000003C000F0000E016E003600900136C20EE6
:100D10000024E96E010E0120EA6EEECF04F0EECF62
:100D200005F004C0E9FF05C0EAFFEECF01F001A421
:100D300003D00401010E286F15D020C401F01F0E4E
:100D400001160150000AAFE020C401F01F0E011689
:100D50000150010AB3E020C401F01F0E011601503A
:100D6000020AAFE00101BFAF07D0280EBC6F040E2E
:100D7000BD6FBF81020EC06F1200000E0101C15D88
:100D800002E1080EC05D10E2C0C103F0C1C104F071
:100D90005151000A03E1010E516F05D05151010A72
:100DA00002E1020E516F04D0080E036E000E046EB5
:100DB000C2C1E1FFC3C1E2FFE692C2C1E1FFC3C10C
:100DC000E2FFE690C2C1E9FFC3C1EAFFEECF00F047
:100DD000C2C1E1FFC3C1E2FF04500010E66E010E84
:100DE000C225E16E000EC321E26E03C0E6FF035090
:100DF000C05D006E0450C159016E00C0C0F101C059
:100E0000C1F1280E456F040E466FBFB12FD00350BD
:100E100004102BE0BCC1F6FFBDC1F7FFBEC1F8FF57
:100E20000900F5CF00F045C1E1FF46C1E2FF00C077
:100E3000E6FF454B462B010EBC25006E000EBD2182
:100E4000016E000EBE21026E00C0BCF101C0BDF1FA
:100E500002C0BEF1010E035C006E000E0458016E6C
:100E600000C003F001C004F0D2D724D00350041016
:100E700021E0BCC1E9FFBDC1EAFF45C1E1FF46C1B8
:100E8000E2FFEECFE6FF454B462B010EBC25006E80
:100E9000000EBD21016E00C0BCF101C0BDF1010E0C
:100EA000035C006E000E0458016E00C003F001C028
:100EB00004F0DCD7120004012051800AD8A47AD0B3
:100EC000C00E0101BF6F6BD00101110E006E4B0E01
:100ED000016E000E026E00C0BCF101C0BDF102C087
:100EE000BEF1120EC06F000EC16F64D00101030E7F
:100EF000006E000E016E22C404F0000E056EB8EC08
:100F000002F0080E0024E96E030E0120EA6EEECF17
:100F1000BCF1EECFBDF1EECFBEF1020EBC25F66EF8
:100F2000000EBD21F76E000EBE21F86E0900F5CF50
:100F300000F00900F5CF01F000C0C0F101C0C1F11F
:100F400039D00401225101013B5D24E3030E006E00
:100F5000000E016E22C404F0000E056EB8EC02F023
:100F60000B0E0024E96E030E0120EA6EEECFBCF1F9
:100F7000EECFBDF1EECFBEF1BCC1F6FFBDC1F7FFB4
:100F8000BEC1F8FF0900F5CF00F000C0C0F1000EAF
:100F9000C16F01D0BF6B0ED00101BF6B0BD004013C
:100FA0002351010A91E02351020AA0E02351030AD0
:100FB000C8E0F2D712000101BF8F710E0401936FD8
:100FC0000F0E946F956B010E966F000E976F22ECCB
:100FD00003F04B0E936F010E946F956B010E966F9D
:100FE000000E976F22EC03F022C4C7F10101C75134
:100FF000000A03E1100EC66F11D0200EC66F010E5D
:101000000401936F000E946FC70E956F010E966FDB
:10101000010E976F000E986FE0EC02F01200200EA8
:101020000101C65D03E36DB201D002D0006A39D080
:10103000D4C18BF4D5C18CF43CEC03F0005230E108
:1010400082C48BF4010E8C6F7FC48DF480C48EF447
:1010500081C48FF451EC03F000C0D4F101C0D5F18C
:1010600001013E6B3F6B406B416BD4C18BF4D5C12A
:101070008CF43CEC03F0005209E001013E513F11B9
:101080004011411102E0006A0CD0EFD70101010EBE
:10109000D425E96E000ED521EA6EEECF00F001D026
:1010A000006A12000101556B566BAC6BAD6B81C4CD
:1010B00000F082C401F083C402F0010E0401812714
:1010C000000E8223832300C0F6FF01C0F7FF02C099
:1010D000F8FF0900F5CF00F000C059F10052D8B474
:1010E00082EF0DF001015951250A0DE07FC4E1FFA7
:1010F00080C4E2FF59C1E6FF04017F4B802B010150
:10110000554B562BD4D7536B546BAC6BAD6B81C422
:101110008BF482C48CF483C48DF491DC00C081F420
:1011200001C082F402C083F400C0F6FF01C0F7FFE3
:1011300002C0F8FF0900F5CF00F0000E016E00C0FC
:101140008BF4F7DC005238E00101536B546B010162
:1011500053C100F054C101F00A0E046E000E056E7A
:10116000B8EC02F081C4F6FF82C4F7FF83C4F8FF35
:101170000900F5CF02F002500024536F000E012049
:10118000546F300E535F000E545B010E0401812733
:10119000000E8223832381C4F6FF82C4F7FF83C439
:1011A000F8FF0900F5CF00F0000E016E00C08BF4CF
:1011B000C0DC0052CCE133D081C4F6FF82C4F7FF1B
:1011C00083C4F8FF0900F5CF01F001502A0A27E196
:1011D00084C4E9FF85C4EAFFEECF00F0EECF01F052
:1011E00000C0E9FF01C0EAFFEECF53F1EECF54F1AA
:1011F00084C4E9FF85C4EAFF020EEE24006E000EEF
:10120000EE20016E84C4E1FF85C4E2FF00C0E6FF6A
:1012100001C0E6FF010E8127000E8223832381C4D3
:10122000F6FF82C4F7FF83C4F8FF0900F5CF01F091
:1012300001502E0A73E10401010E8127000E822362
:10124000832381C4F6FF82C4F7FF83C4F8FF09003B
:10125000F5CF01F001502A0A28E184C4E9FF85C4D2
:10126000EAFFEECF00F0EECF01F000C0E9FF01C0D1
:10127000EAFFEECF57F1EECF58F184C4E9FF85C401
:10128000EAFF020EEE24006E000EEE20016E84C412
:10129000E1FF85C4E2FF00C0E6FF01C0E6FF010EEA
:1012A0008127000E8223832338D00101576B586BAE
:1012B00081C4F6FF82C4F7FF83C4F8FF0900F5CFAD
:1012C00000F0000E016E00C08BF433DC005225E00C
:1012D00057C100F058C101F00A0E046E000E056EF1
:1012E000B8EC02F081C4F6FF82C4F7FF83C4F8FFB4
:1012F0000900F5CF02F0025000240101576F000EE3
:101300000120586F300E575F000E585B010E04012C
:101310008127000E82238323CBD703D00101576B93
:10132000586B81C400F082C401F083C402F0010E46
:1013300004018127000E8223832300C0F6FF01C031
:10134000F7FF02C0F8FF0900F5CF59F106D155C1EA
:1013500000F056C101F0DAD30101AC8D2ED12DD1B0
:10136000AC8BAC8F2AD184C4E9FF85C4EAFFEECFF1
:1013700000F0EECF01F000C0E9FF01C0EAFFEECFC0
:1013800086F4EECF87F484C4E9FF85C4EAFF020E39
:10139000EE24006E000EEE20016E84C4E1FF85C4D1
:1013A000E2FF00C0E6FF01C0E6FF000E040187195E
:1013B00002E1000E861904E1CE0E866F000E876FE3
:1013C000886B896B88518625E96E89518721EA6E81
:1013D000EE520BE0010E8825006E000E8921016E91
:1013E00000C088F401C089F4EDD7010157515811AC
:1013F0000EE0040189510101585D04E104018851A6
:101400000101575D04E257C188F458C189F4545171
:101410000401895D04E1010153510401885D08E282
:1014200088510101535F040189510101545B03D0CC
:101430000101536B546BACB718D053C100F054C1C9
:1014400001F0010E535F000E545B005001100DE0DF
:101450007FC4E1FF80C4E2FF200EE66E04017F4BF3
:10146000802B0101554B562BE8D788C402F089C464
:1014700003F0010E0401885D006E000E8959016EB3
:1014800000C088F401C089F4025003101AE086C439
:10149000E9FF87C4EAFF7FC4E1FF80C4E2FFEECF2B
:1014A000E6FF7F4B802B010E8625006E000E872104
:1014B000016E00C086F401C087F40101554B562B24
:1014C000D4D70101ACA718D053C100F054C101F02A
:1014D000010E535F000E545B005001100DE07FC4FD
:1014E000E1FF80C4E2FF200EE66E04017F4B802BFB
:1014F0000101554B562BE8D7DAD584C4E9FF85C4E2
:10150000EAFFEECF00F0EECF01F000C0E9FF01C02E
:10151000EAFFEECF59F184C4E9FF85C4EAFF020E69
:10152000EE24006E000EEE20016E84C4E1FF85C43F
:10153000E2FF00C0E6FF01C0E6FF590E0401866F1E
:10154000010E876F010E886F000E896F4ED7C00E97
:101550000101AC13000EAD1330D001015951000A46
:10156000D8B4F5D659516C0AD8B4F6D659514C0AAC
:10157000D8B4F2D659516F0AD8B4EED65951640A8C
:10158000D8B4EDD65951690AD8B4E9D65951700A80
:10159000D8B4E6D65951580AD8B4E2D65951780A87
:1015A000D8B4DFD65951730AD8B4DDD65951630A7D
:1015B000A4E05951750ACBE0C0D7C00EAC15016E3E
:1015C000ADC102F0000E0216000E021802E1000E7C
:1015D00001183EE184C4E9FF85C4EAFFEECF00F0C4
:1015E000EECF01F000C0E9FF01C0EAFFEECF86F4C4
:1015F000EECF87F484C4E9FF85C4EAFF020EEE242F
:10160000006E000EEE20016E84C4E1FF85C4E2FF8F
:1016100000C0E6FF01C0E6FF800E04018719006EDE
:10162000800E005C02E1000E865D11E2030E0101F6
:10163000AC13000EAD13040186510008006E87C480
:1016400001F0000E015600C086F401C087F422D0DC
:1016500084C4E9FF85C4EAFFEECF00F0EECF01F0CD
:1016600000C0E9FF01C0EAFFEECF86F4EECF87F4B9
:1016700084C4E9FF85C4EAFF020EEE24006E000E6A
:10168000EE20016E84C4E1FF85C4E2FF00C0E6FFE6
:1016900001C0E6FF000E0101581902E1000E5719C2
:1016A0000AE1000E0401871902E1000E861903E128
:1016B0000101574B582B0101C00EAC15006E00C044
:1016C00005F084D00101010E596F5951050A25E03A
:1016D00059C100F0000E016E026E036E00360090DC
:1016E000013602360336990E0024F66E4B0E0120A9
:1016F000F76E000E0220F86E0900F5CF01F0090028
:10170000F5CF02F002500401875D02E10150865DD1
:1017100001E203D00101592BD8D766D00101010E97
:10172000596F5951040A25E059C100F0000E016EAD
:10173000026E036E00360090013602360336E50E67
:101740000024F66E4B0E0120F76E000E0220F86E9C
:101750000900F5CF01F00900F5CF02F002500401B5
:10176000875D02E10150865D01E203D00101592B42
:10177000D8D73AD00101010E596F5951060A25E018
:1017800059C100F0000E016E026E036E003600902B
:10179000013602360336770E0024F66E4B0E01201A
:1017A000F76E000E0220F86E0900F5CF01F0090077
:1017B000F5CF02F002500401875D02E10150865D21
:1017C00001E203D00101592BD8D70ED00550000AF1
:1017D000D8B478D70550C00AD8B474D70550800A59
:1017E0009DE00550400AC6E00101800E006E800EAB
:1017F0005819005C02E15751595D03E257C159F194
:101800000DD0800E5819006E800E005C02E1595117
:10181000575D04E259C157F1000E586F53515411EE
:101820000EE0030EAC15006EADC101F0000E011606
:101830000050011004E0010E535F000E545B800E57
:101840005819006E800E5419005C02E15351575D27
:1018500005E25751535F5851545B02D0536B546BA0
:10186000C40EAC15016EAD51080B026E0250080A91
:1018700002E1400E011808E15351541104E0010E39
:10188000535F000E545B1CD0C00EAC15016EAD5101
:10189000080B026E0250080A02E1800E011810E1E6
:1018A000800E006E800E5419005C02E15351020854
:1018B00005E2020E535F000E545B02D0536B546B73
:1018C0007FC48BF480C48CF4FFEC03F000C07FF481
:1018D00001C080F457C100F058C101F0010E575FFC
:1018E000000E585B00500110D8B4ECD0C00EAC15FF
:1018F000006E00C08AF4C9D0010157C100F058C180
:1019000001F0000E58BFFF0E026E036E003600900D
:10191000013602360336990E0024F66E4B0E012076
:10192000F76E000E0220F86E0900F5CF04F00900F2
:10193000F5CF05F086C400F087C401F004EC05F093
:101940000A0E046E000E056E04EC05F008C000F0EF
:1019500009C001F0300E0024596FA7D00101ACABD3
:1019600035D057C100F058C101F0000E58BFFF0E2E
:10197000026E036E00360090013602360336E50E25
:101980000024F66E4B0E0120F76E000E0220F86E5A
:101990000900F5CF04F00900F5CF05F086C400F08A
:1019A00087C401F004EC05F00F0E0016000E0116BE
:1019B000350E0024F66E4B0E0120F76E000EF86E09
:1019C000000EF8220900F5CF59F134D057C100F0CC
:1019D00058C101F0000E58BFFF0E026E036E0036B4
:1019E0000090013602360336E50E0024F66E4B0EEB
:1019F0000120F76E000E0220F86E0900F5CF04F00A
:101A00000900F5CF05F086C400F087C401F004ECAE
:101A100005F00F0E0016000E0116460E0024F66E9D
:101A20004B0E0120F76E000EF86E000EF822090032
:101A3000F5CF59F13AD0010157C100F058C101F07A
:101A4000000E58BFFF0E026E036E00360090013686
:101A500002360336770E0024F66E4B0E0120F76E29
:101A6000000E0220F86E0900F5CF04F00900F5CF52
:101A700005F086C400F087C401F004EC05F0070E01
:101A80000014596F300E592710D004018A51000AF2
:101A9000D8B432D78A51C00AD8B42ED78A51800A16
:101AA000D8B45CD78A51400AC6E004017FC4E1FF84
:101AB00080C4E2FF59C1E6FF7F4B802B0101554BEB
:101AC000562B08D7ACA71CD0800E006E800E541980
:101AD000005C02E15351000813E27FC4E1FF80C4BF
:101AE000E2FF200EE66E04017F4B802B0101554B77
:101AF000562B010E535F000E545B53515411EDE110
:101B000057EF08F055C100F056C101F01200040172
:101B1000836B7FC4E9FF80C4EAFFEE5216E081C404
:101B20008BF482C48CF47FC4E9FF80C4EAFFEECF5B
:101B30008DF4E1EC03F0000E011802E1000E001834
:101B400004E17F4B802B832BE4D783C400F0120089
:101B50000401836B846B7FC4E9FF80C4EAFFEE520B
:101B600017E081C48BF482C48CF47FC4E9FF80C485
:101B7000EAFFEECF8DF4E1EC03F0000E011802E174
:101B8000000E001805E07F4B802B834B842BE3D79E
:101B900083C400F084C401F012006D980101BFBF3E
:101BA00049D0B5AF28D0020E526F010EC225E16EAA
:101BB000000EC321E26EE66AC2C1E1FFC3C1E2FFCB
:101BC000C80EE66E010E4F25E16E000E5021E26E4A
:101BD000080EE66E020E4F25E16E000E5021E26EF9
:101BE000280EE66E040EE66E4FC1E1FF50C1E2FF23
:101BF000C80EE66E1ED0010E4F25E16E000E50217C
:101C0000E26E080EE66E020E4F25E16E000E5021C8
:101C1000E26E200EE66E040EE66E4FC1E1FF50C18B
:101C2000E2FF8C0EE66EC2C1E1FFC3C1E2FF840E8B
:101C3000E66E83D0B5BF81D0040120AF56D001013C
:101C4000C1510401275D04E10101C0510401265D79
:101C500004E226C4C0F127C4C1F1BDEC06F0010EB8
:101C6000526F010E4F25E16E000E5021E26E080EFC
:101C7000E66E020E4F25E16E000E5021E26E200E40
:101C8000E66E040EE66E4FC1E1FF50C1E2FF800E2A
:101C9000E66E476B010E4C25E16E000E4D21E26EA3
:101CA000080EE66E020E4C25E16E000E4D21E26E2E
:101CB000200EE66E040EE66E4CC1E1FF4DC1E2FF60
:101CC000840EE66E010E476F020EC225E16E000E15
:101CD000C321E26E280EE66E040EE66EC2C1E1FF7D
:101CE000C3C1E2FFC80EE66E28D00101020E526F9A
:101CF000010EC225E16E000EC321E26EE66AC2C18A
:101D0000E1FFC3C1E2FFC80EE66E010E4F25E16E92
:101D1000000E5021E26E080EE66E020E4F25E16EB7
:101D2000000E5021E26E280EE66E040EE66E4FC1E4
:101D3000E1FF50C1E2FFC80EE66E1200010E010184
:101D40004C25E96E000E4D21EA6EEECF00F000C08A
:101D500002F0000EB75D02E10250B65D03E2B6C1CB
:101D600002F00AD00250B65D006E000EB759016E47
:101D700000C0B6F101C0B7F1036A0250035C1CE277
:101D8000280EE96E040EEA6E0350E926D8B0EA2A5E
:101D9000EECF00F0B3C1E1FFB4C1E2FF00C0E6FF47
:101DA000010EB325006E000EB421016E00C0B3F128
:101DB00001C0B4F1032AE1D7000E006EB751005CF8
:101DC00002E1B651000828E2010E4F25E16E000E37
:101DD0005021E26E080EE66E020E4F25E16E000EF7
:101DE0005021E26E280EE66E040EE66E4CC1E9FF4D
:101DF0004DC1EAFFEECF00F000BC07D04FC1E1FFBC
:101E000050C1E2FFC80EE66E06D04FC1E1FF50C1DF
:101E1000E2FF880EE66E19D0010E4F25E16E000E2E
:101E20005021E26E080EE66E020E4F25E16E000EA6
:101E30005021E26E200EE66E040EE66E4FC1E1FF09
:101E400050C1E2FF840EE66EB59F12000101526B95
:101E5000C2C1E1FFC3C1E2FFE66A040EC219E16E2E
:101E6000C3C1E2FF000EE21AE66AB5AF01D0B59F2A
:101E7000120020C401F0600E0116050E006E005025
:101E800004E00132019EFF0FFBD70150000A01E080
:101E90006CD048D00101BF8F080EC66F66D05BECD6
:101EA00007F063D0DBEC07F060D0C70E0101BC6F18
:101EB000010EBD6FBF81010EC06FBF8F56D04FECBA
:101EC00006F053D0A5EC05F050D04B0E006E010E7D
:101ED000016E040124510026D8B0012A00C0BCF1D3
:101EE00001C0BDF10101BF81010EC06FBF8F3DD0A8
:101EF0000101BF8F4B0EE16E010EE26E0401245111
:101F0000E126D8B0E22A22C4E6FF2FD0020E936F5A
:101F1000000E946F956B966B976B986BE0EC02F0EC
:101F200024D023D004012151050AB4E02151060A2E
:101F3000B6E02151090AB6E02151080AB6E0215164
:101F4000000ABDE02151010ABDE02151030ABAE0B7
:101F500021510A0ABAE021510B0ACAE02151070AAD
:101F6000D5E021510C0ADDE0DCD7120004017451E8
:101F70005A0806E3410E745D03E3010E006E01D0C2
:101F8000006A1200000E0401751902E1000E7419B6
:101F900002E1006A2ED0000E791902E1000E7819D4
:101FA00002E1006A26D07551791902E1785174195D
:101FB00002E1006A1ED076517425016E77517521B9
:101FC000026E0250791902E17851011803E1010E05
:101FD000006E0FD07A517825016E7B517921026E07
:101FE0000250751902E17451011803E1020E006EEE
:101FF00000D012005F0E0301086F4A0E096F000E39
:102000000A6FF50E0B6F4B0E0C6F000E0D6FED0E81
:102010000E6F4B0E0F6F000E106F880E116F4A0E71
:10202000126F000E136FA30E146F4B0E156F000E80
:10203000166F1200000E0401751902E1000E7419EA
:1020400004E149C174F44AC175F474C4E9FF75C46C
:10205000EAFFEECF00F0005203E1006A016A4AD0C5
:1020600074C47FF475C480F476C481F477C482F4B8
:102070006FDD745100267551012200C074F401C057
:1020800075F400C0E9FF01C0EAFFEECF00F0005296
:1020900008E10101496B4A6B000E006E000E016EF3
:1020A00029D074C47FF475C480F476C481F477C4F5
:1020B00082F42DDD000E016E74510026755101224F
:1020C00000C049F101C04AF100C0E9FF01C0EAFFC8
:1020D000EE5209E049C1E1FF4AC1E2FFE66A0101AF
:1020E000494B4A2B03D00101496B4A6B74C400F081
:1020F00075C401F0120001015251020A02E11EDE14
:102100001ED0A4DE4751000A19E1010E4F25E16EF1
:10211000000E5021E26E080EE66E020E4F25E16EB3
:10212000000E5021E26E200EE66E040EE66E4FC1E8
:10213000E1FF50C1E2FF8C0EE66E01D0476B12004A
:10214000C2C1E9FFC3C1EAFFEECF00F0000E00BC40
:10215000010E0401926F040E0101C219006E00C04D
:10216000C2F1C651080A0AE122C46EFF6E5000088F
:1021700003E2100EC66F02D0040EC66F5251010A60
:1021800028E1020EC225E16E000EC321E26E280E88
:10219000E66E040EE66EBDEC06F05151020A07E150
:1021A000C2C1E1FFC3C1E2FF840EE66E11D004019B
:1021B0009251000A07E1C2C1E1FFC3C1E2FFC80EAC
:1021C000E66E06D0C2C1E1FFC3C1E2FF880EE66E33
:1021D00001D03CDE1200110E006E4B0E016E000E9F
:1021E000026E0E0E0024F66E000E0120F76E000E39
:1021F0000220F86E0900F5CF03F003C004F00F0EC3
:102200000024F66E000E0120F76E000E0220F86E1C
:102210000900F5CF01F00150035C12E2110E006ECF
:102220004B0E016E000E026E0F0E0024F66E000EB5
:102230000120F76E000E0220F86E0900F5CF04F0C1
:10224000110E006E4B0E016E000E026E100E002479
:10225000F66E000E0120F76E000E0220F86E0900E7
:10226000F5CF01F00150045C12E2110E006E4B0E2E
:10227000016E000E026E100E0024F66E000E01209C
:10228000F76E000E0220F86E0900F5CF04F004C0CE
:1022900000F01200C2C1E9FFC3C1EAFFEECF00F0B7
:1022A00000AE05D0C2C1E1FFC3C1E2FFE66A010191
:1022B000516B526BC06BC16BBF6BDBDD030E040156
:1022C000936F000E946F956B966B976B986BE0EC29
:1022D00002F063DC12000401776B786B796B020EFD
:1022E0007425F66E000E7521F76E000E7621F86EDD
:1022F0000900F5CF05F0030E7425F66E000E75216A
:10230000F76E000E7621F86E0900F5CF00F000C0E0
:1023100003F0000E046E03C001F0006A05500024B3
:10232000066E000E0120076E74C408F075C409F033
:1023300076C40AF0010E0824F66E000E0920F76E2E
:10234000000E0A20F86E0900F5CF01F00150020AD4
:102350001BE1060E0824F66E000E0920F76E000E33
:102360000A20F86E0900F5CF01F00150775D0CE20C
:10237000060E0824F66E000E0920F76E000E0A20E5
:10238000F86E0900F5CF77F4010E0824F66E000E02
:102390000920F76E000E0A20F86E0900F5CF01F053
:1023A0000150040A1BE1080E0824F66E000E0920F5
:1023B000F76E000E0A20F86E0900F5CF01F001500B
:1023C000775D0CE2080E0824F66E000E0920F76E09
:1023D000000E0A20F86E0900F5CF77F408C0F6FF6A
:1023E00009C0F7FF0AC0F8FF0900F5CF00F0005060
:1023F0007825016E000E7921026E01C078F402C0CA
:1024000079F40750025C02E10650015C01E30FD051
:1024100008C0F6FF09C0F7FF0AC0F8FF0900F5CFB2
:1024200000F000500826000E09220A2283D777C444
:1024300000F01200790E04017D6F040E7E6F74C4EB
:102440007FF475C480F476C481F477C482F478C4D0
:1024500083F47D0E846F040E856F52EC08F000C08B
:102460007BF401C07CF4005004017425E16E01503E
:102470007521E26EE66A7BC400F07CC401F01200B4
:1024800074C47FF475C480F476C481F4010E040131
:10249000826F0FEC08F01200040174515A0804E333
:1024A000410E745DD8B0748B74C400F01200D08EED
:1024B000A28AA08AF28E1200160E6F6E9F0E6B6EAD
:1024C0007B0E696E120074C402F075C403F077C409
:1024D00000F078C401F0010E0401775F000E785B14
:1024E0000050011009E002C0E1FF03C0E2FF76C422
:1024F000E6FF024A032AEBD7120074C4E9FF75C451
:10250000EAFFEE5211E074C4E9FF75C4EAFF76C435
:10251000D9FF77C4DAFFEE50DE1806E10401744BF0
:10252000752B764B772BE9D774C4E9FF75C4EAFFA6
:1025300076C4D9FF77C4DAFFDE50EE5C006E016A24
:10254000000E015A1200ACB202D00000FCD774C4D5
:10255000ADFF120004017451660806E3610E745D5C
:1025600003E3010E006E01D0006A00C075F47451DF
:10257000460806E3410E745D03E3010E006E01D0D0
:10258000006A0050751374C48BF499EC05F0755112
:10259000001200C075F4120074C477F475C478F4A6
:1025A00077C48BF478C48CF476C48DF4E1EC03F03A
:1025B00000C077F401C078F4000E011802E1000EAB
:1025C000001808E077C4E1FF78C4E2FFE66A774BC1
:1025D000782BE6D774C400F075C401F01200040132
:1025E0007451200A09E074510D0804E3090E745D6A
:1025F00001E302D0006A02D0010E006E1200FD0E4F
:1026000001014815016E026AFF0E0216000E021843
:1026100002E1000E01186CE17E0E4815016E01C04A
:1026200003F00332039E03C000F0000E016E00367B
:1026300000900136003600900136000E0024026E34
:10264000040E0120036E02C04CF103C04DF102C024
:102650004FF103C050F1040E4F19006E00C04FF14E
:1026600002C0E9FF03C0EAFFEECF00F000C001F0B6
:102670003C0E01160132019E0132019E01500D0AED
:1026800035E1020E4C25E96E000E4D21EA6EEECFCB
:1026900001F0EECF02F00250040A02E1280E011808
:1026A00023E1020E4C25E16E000E4D21E26E200E5C
:1026B000E66E040EE66E0401916B080E915D14E265
:1026C000200EE16E040EE26E9151E126D8B0E22AAE
:1026D000280EE96E040EEA6E9151E926D8B0EA2A76
:1026E000EECFE6FF912BE9D7D5DD01D004DD0DD08B
:1026F000FD0E4815016E026AFF0E0216000E02184A
:1027000002E1040E011801E11BDD12007C0E040140
:102710004F6F506B516B526B000E01012D1902E18E
:10272000020E2C1907E0000E2D1902E1010E2C19E2
:1027300001E01DD081A81BD0400E0401746F060E6D
:10274000756F8E0E766F4B0E776F000E786F37C4F5
:1027500079F438C47AF46EDE0401400E746F060E0C
:10276000756F400E766F8CDE005201E1F5D737C4ED
:1027700074F438C475F40D0E0401766F0DDF00C0DB
:1027800074F401C075F40A0E766F06DF00C074F4AD
:1027900001C075F44F0E766F040E776F4BDC00C0EE
:1027A0003BF401C03CF40401514B522B51C400F0E6
:1027B00052C401F00036009001363B0E0024536FE6
:1027C000040E0120546F746B756B4F0E766F040E00
:1027D000776F30DC53C4E1FF54C4E2FF00C0E6FF72
:1027E00001C0E6FF51C400F052C401F00036009071
:1027F00001363B0E0024E96E040E0120EA6EEECF96
:1028000001F0EECF02F0000E021802E1000E0118F6
:10281000CAE13BC474F43CC475F48F0E0401766FB6
:10282000000E776F6ADE000E011802E1000E00183C
:10283000D8A4CFD03DC474F43EC475F48D0E040109
:10284000766F000E776F59DE000E011802E1000E60
:10285000001824E13FC474F440C475F4AA0E0401C6
:10286000766F000E776F49DE000E011802E1000E50
:10287000001802E1898011D03FC474F440C475F49B
:10288000BF0E0401766F000E776F37DE000E011861
:1028900002E1000E0018D8B489909BD03DC474F4B6
:1028A0003EC475F4BD0E0401766F000E776F25DE11
:1028B000000E011802E1000E001824E13FC474F478
:1028C00040C475F4C30E0401766F000E776F15DEF9
:1028D000000E011802E1000E001802E1898211D0F9
:1028E0003FC474F440C475F4C80E0401766F000E42
:1028F000776F03DE000E011802E1000E0018D8B455
:10290000899267D03DC474F43EC475F4C60E0401C8
:10291000766F000E776FF1DD000E011802E1000EF8
:10292000001824E13FC474F440C475F4B10E0401EE
:10293000766F000E776FE1DD000E011802E1000EE8
:10294000001802E1898411D03FC474F440C475F4C6
:10295000AD0E0401766F000E776FCFDD000E01180B
:1029600002E1000E0018D8B4899433D03DC474F449
:102970003EC475F4B40E0401766F000E776FBDDDB2
:10298000000E011802E1000E001823E13FC474F4A8
:1029900040C475F4BA0E0401766F000E776FADDD9A
:1029A000000E011802E1000E001802E1898611D024
:1029B0003FC474F440C475F4B60E0401766F000E83
:1029C000776F9BDD000E011802E1000E0018D8B4ED
:1029D0008996120070A019D04CC1E9FF4DC1EAFFE1
:1029E000EECF01F00150800A0FE1C2C1E9FFC3C17F
:1029F000EAFFEECF01F00150840A06E14CC1E1FF8D
:102A00004DC1E2FF8C0EE66E7090DF0E681612006C
:102A1000740E0401936F000E946F956B966B976B19
:102A2000986BE0EC02F06D92699468A403D0FB0E01
:102A30006816FBD712006984EF0E68166D82750E5A
:102A40000401936F000E946F956B966B976B986B68
:102A5000E0EC02F01200A69CFFC3A9FFA69EA68090
:102A6000A8CF00F01200FAEC0FF00101D66BD76B83
:102A7000D46BD56B6A6A686A1FDD6D8C6E6A710EE5
:102A80000401746F0F0E756F766B010E776F000E79
:102A9000786F19DD6D9C0301FF6B080EFF5D16E278
:102AA000FFC300F0000E016E0036009001360036C4
:102AB00000900136000E0024E16E040E0120E26E4B
:102AC000E66AE66AE66AE66AFF2BE7D7160E706EDC
:102AD00068A603D0F70E6816FBD70101BF6BB56B74
:102AE000B66BB76B6D98080EC26F040EC36FC76BE1
:102AF000C66B1200EBEC10F000C0FFF35F0E040198
:102B0000746F4A0E756F000E766F6BEC11F000C09B
:102B100037F40301FF51005C03E2FFC300F002D071
:102B200037C400F012000101C651000A0AE16D6AC3
:102B3000696AC2DCBCDC6DB602D06D86FCD7010EC2
:102B4000C66F1200046A056A0101AE5305E004C0B5
:102B500000F005C001F0EED0066A800E006E800E17
:102B6000000A005C02E1140E065CD8B0DFD006C09B
:102B700000F0000E016E0036009001360036009025
:102B800001365B0E0024E96E010E0120EA6EEECFE5
:102B900001F0EECF02F0000E006E0250005C02E188
:102BA00001500008D8B0C0D006C000F0000E016E81
:102BB0000036009001360036009001365B0E00268C
:102BC000010E0122020E0024E96E000E0120EA6EC1
:102BD000EECF01F0EECF02F004013851025C02E1C9
:102BE0003751015CD8A0A0D006C000F0000E016EE5
:102BF0000036009001360036009001365B0E00264C
:102C0000010E012200C0E9FF01C0EAFFEECF04F08F
:102C1000EECF05F0020E0024E96E000E0120EA6EF0
:102C2000EECF01F0EECF02F00250385D02E101502C
:102C3000375D4BE206C000F0000E016E00360090DA
:102C400001360036009001365B0E0024026E010E44
:102C50000120036E02C0E9FF03C0EAFFEECF00F0DF
:102C6000EECF01F0375100263851012202C0E1FFBA
:102C700003C0E2FF00C0E6FF01C0E6FF06C000F0AF
:102C8000000E016E003600900136003600900136CD
:102C90005B0E0026010E0122020E0024026E000EC1
:102CA0000120036E02C0E9FF03C0EAFF3751EE5C6A
:102CB000006E3851EE58016E02C0E1FF03C0E2FF22
:102CC00000C0E6FF01C0E6FF2AD006C000F0000EFB
:102CD000016E0036009001360036009001365B0E22
:102CE0000024E16E010E0120E26EE66AE66A06C08B
:102CF00000F0000E016E00360090013600360090A4
:102D000001365B0E0026010E0122020E0024E16E48
:102D1000000E0120E26EE66AE66A01015A0704C06D
:102D200000F005C001F006D0062A17D704C000F055
:102D300005C001F012000301FF6B0401376B130E95
:102D4000375DD8B032D10301FF53D8A42ED104018E
:102D50003751010F386F800E006E800E000A005C44
:102D600002E1140E385DD8B01DD10301FF53D8A481
:102D700019D137C400F0000E016E00360090013604
:102D80000036009001365B0E0026010E012200C0C5
:102D9000E9FF01C0EAFFEECF74F4EECF75F4020E46
:102DA0000024E96E000E0120EA6EEECF76F4EECF3D
:102DB00077F438C400F0000E016E00360090013642
:102DC0000036009001365B0E0026010E012200C085
:102DD000E9FF01C0EAFFEECF78F4EECF79F4020EFE
:102DE0000024E96E000E0120EA6EEECF7AF4EECFF9
:102DF0007BF4C2EC0FF000C039F40050010A66E128
:102E000037C400F0000E016E003600900136003627
:102E1000009001365B0E0026010E0122020E0024F6
:102E2000036E000E0120046E38C400F0000E016E27
:102E30000036009001360036009001365B0E002609
:102E4000010E0122020E0024D96E000E0120DA6E5E
:102E500003C0E9FF04C0EAFFDE50EE24006EDE503E
:102E6000EE20016E03C0E1FF04C0E2FF00C0E6FFF8
:102E700001C0E6FF38C400F0000E016E003600907D
:102E800001360036009001365B0E0024E16E010E23
:102E90000120E26EE66AE66A38C400F0000E016EB8
:102EA0000036009001360036009001365B0E002699
:102EB000010E0122020E0024E16E000E0120E26EDE
:102EC000E66AE66A010E0301FF6F69D00401395119
:102ED000020A65E138C400F0000E016E0036009071
:102EE00001360036009001365B0E0026010E0122ED
:102EF000020E0024036E000E0120046E37C400F0A1
:102F0000000E016E0036009001360036009001364A
:102F10005B0E0026010E0122020E0024D96E000E67
:102F20000120DA6E03C0E9FF04C0EAFFDE50EE24A0
:102F3000006EDE50EE20016E03C0E1FF04C0E2FF30
:102F400000C0E6FF01C0E6FF37C400F0000E016ECE
:102F50000036009001360036009001365B0E0024EA
:102F6000E16E010E0120E26EE66AE66A37C400F007
:102F7000000E016E003600900136003600900136DA
:102F80005B0E0026010E0122020E0024E16E000EEF
:102F90000120E26EE66AE66A010E0301FF6F04019A
:102FA000382BD9D60401372BCAD60301FF51010AA9
:102FB000D8B4C1D601015A6B0401376B800E006E84
:102FC000800E000A005C02E1140E375D21E237C476
:102FD00000F0000E016E00360090013600360090C1
:102FE00001365B0E0024E96E010E0120EA6EEECF81
:102FF00001F0EECF02F0000E006E0250005C02E124
:103000000150000802E201015A2B0401372BD6D7E8
:103010000101AB6B1200A6A202D00000FCD7A69C57
:1030200037C4A9FF38C4A8FFA69EA684F2CF00F03B
:10303000F29E550EA76EAA0EA76EA68200BE02D003
:10304000F29E01D0F28EA69412000E0E04013B25D2
:10305000406F000E3C21416F0301FF6B7E0E0401A7
:10306000426F436B40C444F4100E456F010E466F2F
:10307000000E381902E1000E371909E1476B486B61
:10308000496B4A6B4B6B4C6B4D6B4E6B3ED037C4F0
:10309000E9FF38C4EAFFEECF47F4010E3725E96EA9
:1030A000000E3821EA6EEECF48F4020E3725E96EA5
:1030B000000E3821EA6EEECF49F4030E3725E96E93
:1030C000000E3821EA6EEECF4AF4040E3725E96E81
:1030D000000E3821EA6EEECF4BF4050E3725E96E6F
:1030E000000E3821EA6EEECF4CF4060E3725E96E5D
:1030F000000E3821EA6EEECF4DF4070E3725E96E4B
:10310000000E3821EA6EEECF4EF4FF0E4F6FFE0E2A
:10311000506F516B010E526F110E3E6F000E3F6FDC
:10312000110E3B25016E000E3C21026E800E3F19F0
:10313000006E800E0218005C02E101503E5D17E255
:10314000420E3E25E16E040E3F21E26E110E3E5D01
:10315000006E000E3F59016E00503925E96E015096
:103160003A21EA6EEECFE6FF3E4B3F2BD9D7030E56
:103170003E6F000E3F6F030E4025016E000E412191
:10318000026E800E3F19006E800E0218005C02E194
:1031900001503E5D0DE2420E3E25D96E040E3F21E8
:1031A000DA6EDE500301FF2704013E4B3F2BE3D7CD
:1031B0000301FF51FF08006E00C0FFF3420E04013F
:1031C0003E25E16E040E3F21E26E00C0E6FF000ED8
:1031D00001012D1902E1010E2C191BE181A819D062
:1031E000400E0401746F060E756FCA0E766F4B0E9B
:1031F000776F000E786F1AEC12F00401400E746FB6
:10320000060E756F400E766F40EC12F0005201E131
:10321000F4D704013E6B3F6B040E4025016E000E97
:103220004121026E800E3F19006E800E0218005C74
:1032300002E101503E5D38E2420E3E25E96E040E89
:103240003F21EA6EEECF74F4A3EC12F0000E010100
:103250002D1902E1010E2C1923E181A821D0400E85
:103260000401746F060E756FF90E766F4B0E776F53
:10327000000E786F420E3E25E96E040E3F21EA6E85
:10328000EECF79F41AEC12F00401400E746F060EC2
:10329000756F400E766F40EC12F0005201E1F4D7EA
:1032A00004013E4B3F2BB8D7000E01012D1902E15E
:1032B000010E2C191BE181A819D0400E0401746F76
:1032C000060E756F060E766F000E776F000E786F24
:1032D0001AEC12F00401400E746F060E756F400E6A
:1032E000766F40EC12F0005201E1F4D712006D6AE3
:1032F000696A0101C66B120037C404F038C405F0D6
:1033000004C002F005C003F0044A052A39C400F0E5
:103310003AC401F00401394B3A2B00C0E9FF01C067
:10332000EAFF02C0E1FF03C0E2FFEECFE6FF02C00A
:10333000E9FF03C0EAFFEE5201E0E2D737C400F034
:1033400038C401F012000401396B3A6B3D6B3E6BDF
:1033500037C4E9FF38C4EAFFEECF74F4EFEC12F0A3
:10336000005203E0374B382BF3D737C4E9FF38C49A
:10337000EAFFEE502D0A05E1394B3A2B374B382B3B
:1033800009D037C4E9FF38C4EAFFEE502B0A02E146
:10339000374B382B37C400F038C401F0374B382B8B
:1033A00000C0E9FF01C0EAFFEECF3BF4000E3C6F26
:1033B000000E3C6F3BC474F4AAEC12F000522EE0F5
:1033C0003BC474F4B6EC0FF0005208E03BC474F454
:1033D0004CEC12F000C03BF4000E3C6F3BC48BF48D
:1033E00099EC05F0005205E0300E3B5F000E3C5BAF
:1033F00004D0570E3B5F000E3C5B3D373D913E379E
:103400003D373D913E373D373D913E373D373D910C
:103410003E373B513D27000E3E23BCD739513A1170
:1034200008E03D510008006E3EC401F0000E015658
:1034300004D03DC400F03EC401F01200200E010192
:10344000C65D03E36DB201D002D0006A27D0D6C1B9
:103450008BF4D7C18CF43CEC03F000521EE1010E5A
:103460000101D625E96E000ED721EA6EEECF00F0FD
:1034700000C0FFF33AC48BF404018C6B37C48DF4A5
:1034800038C48EF439C48FF451EC03F000C0D6F187
:1034900001C0D7F1FFC300F001D0006A1200FAECBE
:1034A0000FF00101D66BD76BD46BD56B6A6A686A73
:1034B0005CEC12F06D8C6E6A710E0401936F0F0E4E
:1034C000946F956B010E966F000E976F22EC03F0D0
:1034D0006D9C916B080E915D16E291C400F0000E98
:1034E000016E003600900136003600900136000E65
:1034F0000024E16E040E0120E26EE66AE66AE66AE6
:10350000E66A912BE7D7160E706E68A603D0F70E09
:103510006816FBD70101BF6BB56BB66BB76B6D98C7
:10352000080EC26F040EC36FC76BC66B1200A19A60
:1035300012003CC137F43DC138F4400E0401396F2C
:10354000010E3A6F7BDF12002D500001E91902E1F4
:10355000E8512C1829E0E8C02CF0E9C02DF081B02A
:1035600002D0D88001D0D890000ED8B0010E010151
:10357000326F81B202D0D88001D0D890000ED8B07E
:10358000010E336F81B402D0D88001D0D890000EE4
:10359000D8B0010E306F81B602D0D88001D0D8905B
:1035A000000ED8B0010E316F0101016A81B0012A0D
:1035B000325101185EE0800E006E800E2B18005C08
:1035C00002E12A50050853E22A6A2B6A000E81B0F4
:1035D000010E326F000E2D1902E1010E2C1907E0C9
:1035E000000E2D1902E1020E2C1901E01DD081A858
:1035F0001BD0400E0401746F060E756FB70E766F08
:103600004B0E776F000E786F32C179F41AEC12F01E
:103610000401400E746F060E756F400E766F40EC1D
:1036200012F0005201E1F4D70101325310E0DAC187
:1036300037F4DBC138F42E0E0401396F000E3A6FF7
:10364000090E3B6F000E3C6F3D6BFFDC0FD0DAC103
:1036500037F4DBC138F4630E0401396F000E3A6FA2
:10366000080E3B6F000E3C6F3D6BEFDC02D02A4A28
:103670002B2A016A81B2012A01013351011861E04C
:10368000800E006E800E00016219005C02E1615143
:10369000050854E2616B626B000E81B2010E0101FC
:1036A000336F000E2D1902E1010E2C1907E0000EF8
:1036B0002D1902E1020E2C1901E01DD081A81BD0AA
:1036C000400E0401746F060E756FC10E766F4B0EBF
:1036D000776F000E786F33C179F41AEC12F00401A1
:1036E000400E746F060E756F400E766F40EC12F050
:1036F000005201E1F4D70101335310E0DAC137F48D
:10370000DBC138F46C0E0401396F000E3A6F090EFC
:103710003B6F000E3C6F3D6B98DC0FD0DAC137F485
:10372000DBC138F4780E0401396F000E3A6F080ED1
:103730003B6F000E3C6F3D6B88DC03D00001614B9A
:10374000622B016A81B4012A01013051011861E044
:10375000800E006E800E00017719005C02E1765148
:10376000050854E2766B776B000E81B4010E0101FF
:10377000306F000E2D1902E1010E2C1907E0000E2A
:103780002D1902E1020E2C1901E01DD081A81BD0D9
:10379000400E0401746F060E756FDC0E766F4B0ED3
:1037A000776F000E786F30C179F41AEC12F00401D3
:1037B000400E746F060E756F400E766F40EC12F07F
:1037C000005201E1F4D70101305310E0DAC137F4BF
:1037D000DBC138F4410E0401396F000E3A6F090E57
:1037E0003B6F000E3C6F3D6B30DC0FD0DAC137F41D
:1037F000DBC138F4380E0401396F000E3A6F080E41
:103800003B6F000E3C6F3D6B20DC03D00001764B1C
:10381000772B016A81B6012A01013151011861E05B
:10382000800E006E800E4C18005C02E14B500508C3
:1038300056E201014B6A4C6A000E81B6010E316FEF
:10384000000E2D1902E1010E2C1907E0000E2D19B2
:1038500002E1020E2C1901E01DD081A81BD0400E00
:103860000401746F060E756FD30E766F4B0E776F73
:10387000000E786F31C179F41AEC12F00401400E99
:10388000746F060E756F400E766F40EC12F00052AA
:1038900001E1F4D70101315311E0DAC137F4DBC1A2
:1038A00038F4560E0401396F000E3A6F090E3B6F63
:1038B000000E3C6F3D6B25EC18F010D0DAC137F4E8
:1038C000DBC138F44D0E0401396F000E3A6F080E5B
:1038D0003B6F000E3C6F3D6B25EC18F002D04B4A5D
:1038E0004C2A12007AEC15F000C03BF1010E0101E8
:1038F0003A6FA9C33CF1AAC33DF1ABC342F1ACC3DB
:1039000043F133EC15F0010E016E0150010A02E1A2
:1039100093EC15F012000301AD6BAE6B800EAE1987
:10392000006E800EAC19005C02E1AB51AD5D0EE2A1
:10393000AD51A925E96EAE51AA21EA6EEECF74F41D
:10394000A3EC12F00301AD4BAE2BE8D7120004013B
:10395000336B346B356B366B1AC333F4000E346F34
:10396000000E341902E1900E3319D8A49CD0040E35
:103970000301A96F000EAA6F800E006E800EAA19B7
:10398000005C02E1A9510B0817E3040EA95D006E6B
:10399000000EAA59016EF70E0024E16E030E0120FD
:1039A000E26E170EA925E96E030EAA21EA6EEECF8C
:1039B000E6FFA94BAA2BE0D70C0EA96F000EAA6F49
:1039C000800E006E800EAA19005C02E1A9510D085C
:1039D00017E30C0EA95D006E000EAA59016E300EA1
:1039E0000024E16E040E0120E26E170EA925E96E97
:1039F000030EAA21EA6EEECFE6FFA94BAA2BE0D771
:103A00000C0EA95D006E000EAA59016E300E002446
:103A1000E16E040E0120E26EE66A0F0EA96F000E41
:103A2000AA6F020E01012E25016E000E2F21026EDB
:103A3000800E0218006E800E0301AA19005C02E1DC
:103A4000A951015C17E30F0EA95D006E000EAA5983
:103A5000016EAB0E0024E16E030E0120E26E170E24
:103A6000A925E96E030EAA21EA6EEECFE6FFA94B67
:103A7000AA2BD7D70F0EA95D006E000EAA59016EB2
:103A8000AB0E0024E16E030E0120E26EE66AAB0E7F
:103A90000401376F030E386F300E396F040E3A6F22
:103AA00086EC13F055D2000E0401341902E1950E94
:103AB000331956E123C3DDF324C3DEF3040E0301FF
:103AC000A96F000EAA6F800EAA19006E800E005C0E
:103AD00002E10C0EA95D17E2040EA95D006E000E56
:103AE000AA59016EDF0E0024E16E030E0120E26E82
:103AF000170EA925E96E030EAA21EA6EEECFE6FFA6
:103B0000A94BAA2BE0D7A96BAA6B800EAA19006E4D
:103B1000800E005C02E1100EA95D21E2E70EA925EE
:103B2000E16E030EAA21E26E1A0EA925006E000EA8
:103B3000AA21016E170E0024E96E030E0120EA6E21
:103B4000EECFE6FFE70EA925E96E030EAA21EA6E85
:103B5000EE50000A01E103D0A94BAA2BD6D7F8D129
:103B6000000E0401341902E1880E3319D8A40BD1D8
:103B70001CC335F41DC336F403011E51000AD8A43A
:103B800001D1040135514E0AD8A48FD03651440AD0
:103B9000D8A48BD01FC3DDF320C3DEF3800E000159
:103BA000E919006E800E005C02E1020EE85D2BE276
:103BB000020EE86F000EE96F000E01012D1902E1FF
:103BC000020E2C1907E0000E2D1902E1010E2C192E
:103BD00001E019D081A817D0400E0401376F060EFE
:103BE000386FEA0E396F000E3A6F7CEC19F0040161
:103BF000400E746F060E756F400E766F40EC12F03B
:103C0000005201E1F4D70A0E0301A96F000EAA6F5A
:103C1000800EAA19006E800E005C02E1120EA95DF2
:103C200017E20A0EA95D006E000EAA59016EDF0EA2
:103C30000024E16E030E0120E26E170EA925E96E45
:103C4000030EAA21EA6EEECFE6FFA94BAA2BE0D71E
:103C5000A96BAA6B800EAA19006E800E005C02E1AF
:103C6000100EA95D21E2E70EA925E16E030EAA213F
:103C7000E26E130EA925006E000EAA21016E170E2A
:103C80000024E96E030E0120EA6EEECFE6FFE70E98
:103C9000A925E96E030EAA21EA6EEE50000A01E1A1
:103CA00003D0A94BAA2BD6D76DD0040135514D0AAC
:103CB000D8A468D03651590AD8A464D01FC3D8F10B
:103CC00020C3D9F10101D851FF0A30E0D951FE0AD1
:103CD0002DE0020E0001E86F000EE96F000E0101F9
:103CE0002D1902E1020E2C1907E0000E2D1902E138
:103CF000010E2C1901E019D081A817D0400E040143
:103D0000376F060E386FD90E396F000E3A6F7CECA4
:103D100019F00401400E746F060E756F400E766F39
:103D200040EC12F0005201E1F4D72CD00001E86B16
:103D3000E96B000E01012D1902E1020E2C1907E0BA
:103D4000000E2D1902E1010E2C1901E01BD081A8F3
:103D500019D0400E0401746F060E756F230E766F36
:103D60004B0E776F000E786F1AEC12F00401400EC4
:103D7000746F060E756F400E766F40EC12F00052B5
:103D800001E1F4D7E5D0000E0401341902E18A0EF6
:103D90003319D8A46BD003011B51030A2DE1000E87
:103DA00001012D1902E1020E2C1907E0000E2D1958
:103DB00002E1010E2C1901E01BD081A819D0400EA0
:103DC0000401746F060E756FFF0E766F4A0E776FE3
:103DD000000E786F1AEC12F00401400E746F060E9C
:103DE000756F400E766F40EC12F0005201E1F4D78F
:103DF0000001E86BE96B39D003011B51020A35E180
:103E0000800E0001E919006E800E005C02E1020ED6
:103E1000E85D2BE2020EE86F000EE96F000E010173
:103E20002D1902E1020E2C1907E0000E2D1902E1F6
:103E3000010E2C1901E019D081A817D0400E040101
:103E4000376F060E386FF90E396F000E3A6F7CEC43
:103E500019F00401400E746F060E756F400E766FF8
:103E600040EC12F0005201E1F4D772D0000E0401D0
:103E7000341902E18B0E3319D8A46AD003011F5103
:103E8000000A36E1800E0001E919006E800E005C28
:103E900002E1020EE85D2BE2020EE86F000EE96F10
:103EA000000E01012D1902E1020E2C1907E0000E8F
:103EB0002D1902E1010E2C1901E019D081A817D0AB
:103EC000400E0401376F060E386F080E396F010E71
:103ED0003A6F7CEC19F00401400E746F060E756F9A
:103EE000400E766F40EC12F0005201E1F4D730D072
:103EF00003011F51210A2CE10001E86BE96B000E60
:103F000001012D1902E1020E2C1907E0000E2D19F6
:103F100002E1010E2C1901E01BD081A819D0400E3E
:103F20000401746F060E756FCB0E766F4A0E776FB5
:103F3000000E786F1AEC12F00401400E746F060E3A
:103F4000756F400E766F40EC12F0005201E1F4D72D
:103F50001200460E0101AF6F250EB06F740EB16FE7
:103F6000040EB26F9E0ECC6F420ECD6F000ECE6F60
:103F7000000ECF6F940EC86F420EC96F000ECA6F4D
:103F8000000ECB6FFF0ED06FFF0ED16F000ED26F01
:103F9000000ED36FAC8A900EAB6E948E949C9EAA4A
:103FA00003D0AECF00F0FBD712002C0E01015D6FE5
:103FB000010E5E6FDC0E5B6F010E5C6F010E036E17
:103FC000800E006E800E000A005C02E1140E035C9D
:103FD0002AE203C000F0000E016E003600900136A8
:103FE0000036009001365B0E0024E16E010E0120C8
:103FF000E26EE66AE66A03C000F0000E016E00366B
:10400000009001360036009001365B0E0026010E4E
:104010000122020E0024E16E000E0120E26EE66A2B
:10402000E66A032ACDD7010E5A6FAE6BAB6B120056
:10403000A9C337F4AAC338F4A2EC15F000C0ABF35F
:1040400001C0ACF30150000A02E1000E00180FE1BC
:104050000101AB530CE09BEC16F0A9C337F4AAC3E3
:1040600038F4A2EC15F000C0ABF301C0ACF3ABC365
:1040700000F0ACC301F012000900F5CFE6FF000626
:10408000FBE10106F9E112000101C651010A07E155
:104090006DBA05D0686A69806988020EC66F68A427
:1040A00006D069A404D0FB0E681608EC15F06DA2CA
:1040B00003D097EC1AF080D068A019D069A017D06F
:1040C0004FEC1AF0040EC66F200E0401026F040EAE
:1040D000036F080E016F000E0015006E00C000F4A3
:1040E0008C0E0011006E00C000F4FE0E681668A869
:1040F00006D069A804D01BEC15F0EF0E681668AC6A
:1041000011D069AC0FD0730E0401936F000E946F41
:10411000956B966B010E976F000E986FE0EC02F0B6
:10412000BF0E681668AA04D069AA02D0EAEC14F09F
:1041300068A210D069A20ED0FF0E0401936F3F0E4B
:10414000946F956B966B010E976F000E986FE0EC75
:1041500002F06A6A040E0101C65D03E297EC1AF0F0
:104160002BD069A627D00401906B040E905D22E24B
:1041700068A61CD06CCF48F1F70E6816780E0101C6
:104180004815016E0150000A03E1FFEC12F00DD05A
:10419000720E0401936F000E946F480E956F010E1E
:1041A000966F976B986BE0EC02F001D003D004019E
:1041B000902BDBD797EC1AF01200A9C3E9FFAAC332
:1041C000EAFFEECFABF3000E0301AC6F000EAC6F55
:1041D000000EAC1902E1200EAB1907E0000EAC197D
:1041E00002E1090EAB1901E003D0A94BAA2BE5D7D8
:1041F000AD6BAE6BAF6BB06B000EAC1902E12D0E68
:10420000AB1905E1AF4BB02BA94BAA2B08D0000E80
:10421000AC1902E12B0EAB1902E1A94BAA2BA9C3E1
:10422000E9FFAAC3EAFFEECFABF3000EAC6F000EBE
:10423000AC6FABC38BF499EC05F000521AE0ADC340
:1042400000F0AEC301F00A0E046E000E056EB8EC6D
:1042500002F0300E0301AB5D026E000EAC59036E2E
:1042600002500024AD6F03500120AE6FA94BAA2B62
:10427000D6D70301AF51B01108E0AD510008006E70
:10428000AEC301F0000E015604D0ADC300F0AEC3C2
:1042900001F01200000E9EBA010E006E1200AECFA9
:1042A00001F0ABA202D0AB98AB8801C000F01200C5
:1042B000A9C300F00032009E0032009E0032009E32
:1042C0000032009E570E0024F66E4B0EF76E000E65
:1042D000F722000EF86E000EF8220900F5CF00F06C
:1042E000AAC3E1FFABC3E2FF00C0E6FF010E03017A
:1042F000AA25E16E000EAB21E26E0F0EA915006E2D
:10430000570E0024F66E4B0EF76E000EF722000ECD
:10431000F86E000EF8220900F5CF00F000C0E6FFAD
:10432000020EAA25E16E000EAB21E26EE66A1200D3
:1043300077EC19F01200A9C302F0AAC303F002C07F
:1043400000F003C001F0024A032A00C0E9FF01C0E7
:10435000EAFFEE5201E0F3D70301A951025C006EBF
:10436000AA510358016E010E005E000E015A1200A0
:104370000301AB6BAC6B800EAC19006E800E005C61
:1043800002E1080EAB5D14E2AB51A925AD6FAC5153
:10439000AA21AE6FAB51010FFF6F2BEC15F0ADC32F
:1043A000E1FFAEC3E2FF00C0E6FFAB4BAC2BE3D7AF
:1043B00012000301AD6BAE6BAF6BB06BAD6BAE6B50
:1043C000800EAE19006E800E005C02E1100EAD5D35
:1043D0002EE2AD51A925E96EAE51AA21EA6EEECFCB
:1043E000ABF3010EAD25006E000EAE21016E005044
:1043F000A925E96E0150AA21EA6EEECFACF3AB0E0F
:104400000401376F030E386FA3EC19F00301AF51AD
:10441000010F0401376F00C038F40BEC18F00301F2
:10442000AF4BB02B020EAD27000EAE23C9D7120042
:10443000FFEC25F07C0E0301A56FA66B3D0E0B6E05
:10444000E10E0C6E3F0E0D6E0D2EFED70C2EFCD71E
:104450000B2EFAD700000000B886040EB06EE10EF5
:10446000AF6EAC8476DDA1DD080E0301A96F000EEE
:10447000AA6FDEDD00C0DAF101C0DBF19290899015
:10448000929289929294899492968996938093823B
:10449000938493869386938A0F0EC2120F0EC112D5
:1044A0000F0EC012070EB412F28EF28C9D8A000E0F
:1044B000011802E1000E001804E1898089828984D4
:1044C000898681A80BD0000E0301A96F060EAA6F82
:1044D000400EAB6F060EAC6F72EC1CF001012C6B42
:1044E0002D6BDAC1A9F3DBC1AAF342DF170EA96F66
:1044F000010EAA6F080EAB6F000EAC6F8BEC1CF0B8
:1045000001012B51010A03E12B6BA7EC1CF0A4EC79
:104510001AF0000E0001E91902E1000EE81902E1AB
:1045200089808992000EE91902E1020EE81902E180
:104530008982899081A80AD299EC1AF00050000A69
:10454000D8B404D203018D6B8E6B000E0401746F1E
:10455000060E756F0D0E766FCCEC12F000C074F481
:1045600001C075F40A0E766FCCEC12F000C074F442
:1045700001C075F4A50E766F030E776F1AEC10F07C
:1045800000C08FF301C090F303018D4B8E2B8DC3C0
:1045900000F08EC301F00036009001368F0E00242B
:1045A000A76F030E0120A86F0401746B756BA50E35
:1045B000766F030E776F1AEC10F0A7C3E1FFA8C364
:1045C000E2FF00C0E6FF01C0E6FF8DC300F08EC32E
:1045D00001F00036009001368F0E0024E96E030EC4
:1045E0000120EA6EEECF01F0EECF02F0000E0218CD
:1045F00002E1000E0118C8E18FC374F490C375F492
:10460000230E0401766F010E776F7DEC12F0000E21
:10461000011802E1000E001830E1400E0401746F31
:10462000060E756F830E766F4B0E776F000E786FE8
:104630001AEC12F00401400E746F060E756F400EF6
:10464000766F40EC12F0005201E1F4D70401376BB1
:10465000010E386F0BEC18F06BDE3D0E0B6EE10EA9
:104660000C6E3F0E0D6E0D2EFED70C2EFCD70B2EB2
:10467000FAD700000000FF0069D18FC374F490C323
:1046800075F41F0E0401766F010E776F7DEC12F04A
:10469000000E011802E1000E001838E191C374F415
:1046A00092C375F4D30E0401766F000E776F7DEC24
:1046B00012F0000E011802E1000E001826E193C36B
:1046C000A9F394C3AAF379DD00C02CF101C02DF148
:1046D000400E0401746F060E756FAD0E766F4B0EB3
:1046E000776F000E786F00C079F401C07AF41AEC8D
:1046F00012F00401400E746F060E756F400E766F57
:1047000040EC12F0005201E1F4D720D18FC374F4D1
:1047100090C375F4950E0401766F000E776F7DECF3
:1047200012F0000E011802E1000E001814E191C30E
:10473000A9F392C3AAF3FFDD00C03BF401C03CF42F
:104740000401376B386B91C339F492C33AF43D6B73
:1047500025EC18F0FBD08FC374F490C375F4930E5E
:104760000401766F000E776F7DEC12F0000E0118D9
:1047700002E1000E00181AE1400E0401746F060EEB
:10478000756FE80E766F4A0E776F000E786F1AEC31
:1047900012F00401400E746F060E756F400E766FB6
:1047A00040EC12F0005201E1F4D7D0D08FC374F482
:1047B00090C375F49A0E0401766F000E776F7DEC4E
:1047C00012F0000E011802E1000E0018D8A4BED0AD
:1047D00091C374F492C375F4A60E0401766F000EB3
:1047E000776F7DEC12F0000E011802E1000E001848
:1047F00029E193C374F494C375F4A10E0401766F98
:10480000000E776F7DEC12F0000E011802E1000E31
:10481000001817E195C3A9F396C3AAF3CADD070EE2
:104820000B6E170E0C6E6A0E0D6E0D2EFED70C2E33
:10483000FCD70B2EFAD70000DAC1A9F3DBC1AAF32B
:1048400097DD84D091C374F492C375F4860E04018D
:10485000766F000E776F7DEC12F0000E011802E10A
:10486000000E001857E193C374F494C375F4810EDD
:104870000401766F000E776F7DEC12F0000E0118C8
:1048800002E1000E001845E10301A36BA46B7B6BF2
:104890007C6B800E7C19006E800E005C02E1080EBD
:1048A0007B5D1AE27B510101DA25E96E03017C513F
:1048B0000101DB21EA6EEECFA9F37D0E0301A325F2
:1048C000AA6F030EA421AB6FF3DC020EA327000E28
:1048D000A4237B4B7C2BDDD7400E0401746F060EA6
:1048E000756F670E766F4B0E776F000E786F7D0ECB
:1048F000796F030E7A6F1AEC12F00401400E746F98
:10490000060E756F400E766F40EC12F0005201E11A
:10491000F4D71CD091C374F492C375F48A0E0401C9
:10492000766F000E776F7DEC12F0000E011802E139
:10493000000E00180BE1170E0301A96F010EAA6FFC
:10494000080EAB6F000EAC6F8BEC1CF0D9D50D2EA2
:10495000FED70C2EFCD70000FFD700004F55547C2B
:10496000317C4F4E004F55547C327C4F4646000000
:10497000004F55547C327C4F4E00484F53540047F3
:104980004554004D590031004F5554003F005345E8
:104990004E44005A494742454500484F535400533E
:1049A0004554004F4E004F4646004F4E0034004FD6
:1049B0004646004F4E0032004F4646004F4E0033F1
:1049C000004F46460000006E756C6C004445425531
:1049D00047005A49474245457C4A4F494E45440A9B
:1049E00000FFFF5A49474245457C4A4F494E4544DE
:1049F0000A005A49474245457C4A4F494E45440AB8
:104A0000005A49474245457C4A4F494E45440A00B1
:104A10007E000408014D59505345540055504752EB
:104A2000414445000000006300000000004F555461
:104A30007C317C4F4646004F55547C337C4F4E00B2
:104A40004F55547C337C4F46460000004F55547CF4
:104A5000347C4F4E004F55547C347C4F4646000901
:104A60000229000101008032090400000203000055
:104A700000092101010001222100070581034000F6
:104A8000010705010340000122034B0050005000C4
:104A900020005A0069006700620065006500200080
:104AA00042006F006100720064000600FF0901A16E
:104AB0000119012940150026FF0075089540810263
:104AC00019012940750895409102C05A494742454D
:104AD000457C4E4F4E4554574F524B7C41434B20E3
:104AE0004641494C45440A004B5050205A494742E0
:104AF000454520424F4152442056312E310A005A3A
:104B000049474245457C4E4F4E4554574F524B0AFC
:104B10000012010002000000080100020001000173
:104B20000203015A49474245457C4E4F4E45545772
:104B30004F524B0A00303132333435363738394131
:104B40004243444546003031323334353637383904
:104B5000616263646566003031323334353637382C
:104B6000394142434445465A49474245457C484FAE
:104B700053547C25730A0001000800400000020025
:104B8000100080555047524144494E470A005A4947
:104B9000474245457C25730A0001000A006400E88D
:104BA0000310270A035500530042003400444542D5
:104BB00055477C25640A00494E20317C2575200A22
:104BC00000494E20327C25750A005061636B657484
:104BD0003A2000494E20347C25750A00494E203386
:104BE0007C25750A00010010000001001008034B2D
:104BF00000500050000403090425580000FF10EE87
:104C00002AF0360E006E010E016E290EF66E4A0E67
:104C1000F76E000EF86E3CEC20F010EE61F06D0EB9
:104C2000006E010E016E5A0EF66E490EF76E000E02
:104C3000F86E3CEC20F010EE60F0010E006E010EFC
:104C4000016EFC0EF66E4B0EF76E000EF86E3CEC2D
:104C500020F010EECEF0620E006E010E016EC70E57
:104C6000F66E490EF76E000EF86E3CEC20F0120066
:020000040030CA
:0E000000240E3F1EFF8081FF0FC00FE00F4057
:00000001FF
