:100000008EEF22F0FFFF0A0000C01FF001C01EF0BB
:1000100002C01DF003C01CF004C01BF005C01AF0A4
:1000200006C019F008C018F009C017F00AC016F091
:100030000BC015F0E1CF28F0E2CF29F0E9CF26F090
:10004000EACF27F0F3CF24F0F4CF25F0F5CF23F05B
:10005000F8CF20F0F7CF21F0F6CF22F0A1AA04D0FC
:1000600081A802D046EC1FF09EAA42D0EBEC1FF014
:100070000050010A3DE1F0EC1FF000C08EF100508D
:100080007E0A05E100019A6B9B6B010E996F0001DE
:100090009951010A2DE1DF0E9A25E16E010E9B2197
:1000A000E26E8EC1E6FF000E9B1902E1020E9A1964
:1000B00008E10101E151E0250001D66FD76B000E88
:1000C000D7239A4B9B2B040ED625016E000ED72109
:1000D000026E800E9B19006E800E0218005C02E119
:1000E00001509A5D05E39A6B9B6B996B010E646FEF
:1000F00023C0F5FF20C0F8FF21C0F7FF22C0F6FFA4
:1001000024C0F3FF25C0F4FF1FC000F01EC001F0A3
:100110001DC002F01CC003F01BC004F01AC005F0A3
:1001200019C006F018C008F017C009F016C00AF090
:1001300015C00BF026C0E9FF27C0EAFF28C0E1FF89
:1001400029C0E2FF1100000E056E040E066E20C5E8
:1001500003F0000E046E03360436039003360436B3
:10016000039021C500F0000E016E003601360090AC
:10017000005003260150042203C001F004C002F025
:1001800001360190023601360190023601C003F0BB
:1001900002C004F004320332049E04BC048E043214
:1001A0000332049E04BC048E03C000F004C001F0BE
:1001B00000360090013600360090013605500026CA
:1001C0000650012200C005F001C006F000C0E1FFAA
:1001D00001C0E2FFE69E05012151000A12E120C59F
:1001E00000F0000E016E003600900136CE0E0024A5
:1001F000E16E010E0120E26E05C0E6FF06C0E6FFDB
:1002000011D020C500F0000E016E003600900136BE
:10021000D20E0024E16E010E0120E26E05C0E6FF61
:1002200006C0E6FF05C0E1FF06C0E2FFE69C040E43
:100230000524E16E000E0620E26EE68C1200800EB0
:1002400005012011006E00C092F1120020C58FF14F
:1002500021C590F122C593F123C594F1800E0501CB
:100260002411006E008000C092F1120020C58FF1B1
:1002700021C590F122C591F123C593F124C594F1D4
:10028000800E05012511006E00C092F1120020C4FD
:1002900001F01F0E01160150010A01E08DD004018A
:1002A0002451000A01E088D02151060A3AE12FD0FA
:1002B00001019751010A13E14D0E0501206F4F0E08
:1002C000216F000E226F120E2027000E2123222301
:1002D000090E236F000E246F400E256FC7DF21D05B
:1002E00001019751010A0EE1980E0501206F4F0E92
:1002F000216F000E226F210E236F000E246F400E1F
:10030000256FB4DF0ED00501206B99DF0AD0040100
:100310002351210ACDE02351220AE2E02351230A8E
:10032000F2E020C401F0600E0116050E006E0050D0
:1003300004E00132019EFF0FFBD70150010A01E0EA
:100340003BD027D039D038D08D0E0501206F010E5B
:10035000216F010E226F000E236F400E246F76DF97
:100360002BD00501206B6BDF23C48DF125D0050157
:100370008C0E206F010E216F010E226F000E236F75
:10038000246B64DF19D00501206B59DF22C48CF186
:1003900013D004012151010AD5E02151090AD3E00B
:1003A0002151020AD1E021510A0ADBE02151030A5E
:1003B000DEE021510B0AE7E01200700EE16E0F0E35
:1003C000E26E05011B51E126D8B0E22A1CC5E6FF0A
:1003D0001CA504D01BC520F5216BB5DE1CA305D0E0
:1003E0001BC520F5010E216FAEDE120005011C5168
:1003F000000A12E01BC500F0000E016E00360090EE
:100400000136D20E0024E96E010E0120EA6EEECF15
:1004100004F0EECF05F011D01BC500F0000E016E08
:10042000003600900136CE0E0024E96E010E012048
:10043000EA6EEECF04F0EECF05F0020E0424E16E7A
:10044000000E0520E26E1DC5E6FF1EC5E6FF010E8B
:100450000424E16E000E0520E26E1FC5E6FF04C015
:10046000E9FF05C0EAFFEECF00F004C0E1FF05C0E0
:10047000E2FF400E0014E66E04C0E9FF05C0EAFF8B
:10048000EECF00F004C0E1FF05C0E2FF880E0010CF
:10049000E66E1C51000A1BE01BC500F0000E016E49
:1004A000003600900136D20E0024026E010E0120AB
:1004B000036E02C0E9FF03C0EAFF040EEE18006EEF
:1004C00002C0E1FF03C0E2FF00C0E6FF1AD01BC577
:1004D00000F0000E016E003600900136CE0E0024B2
:1004E000026E010E0120036E02C0E9FF03C0EAFFA5
:1004F000040EEE18006E02C0E1FF03C0E2FF00C070
:10050000E6FF04C000F005C001F012000101DC5359
:1005100015E0010E05011B6F1E0E1C6F4EDF010E54
:100520001B6F1C6BDAC11DF5DBC11EF5400E1F6F82
:100530005DDF00C095F101C096F114D00501010EF8
:100540001B6F1E0E1C6F39DF010E1B6F1C6BDAC197
:100550001DF5DBC11EF5400E1F6F48DF00C095F191
:1005600001C096F112000101DC5301E090DE12009F
:100570000B6A0A6A096A00500402F4CF09F0F3CF4B
:1005800008F001500502F4CF0BF0F3CF0AF0005051
:100590000502F3500926F4500A22E86A0B220150A2
:1005A0000402F3500926F4500A22E86A0B2208C01C
:1005B00000F009C001F00AC002F00BC003F0120005
:1005C0000CD0A4DF3CD03BD0CEDF39D038D037D0F0
:1005D00036D035D0000033D032D0000E05011619C8
:1005E00002E1010E1519EDE0000E161902E1020EEE
:1005F0001519E9E0000E161902E1030E1519E4E0E1
:100600001651000A02E1730E1519E0E01651000AB6
:1006100002E1750E1519DBE01651000A02E1740EB5
:100620001519D6E016513F0A02E1FF0E1519D1E067
:100630001651000A02E1720E1519CCE0CDD7010E59
:10064000006E120015C502F016C503F018C500F0C3
:1006500019C501F0010E0501185F000E195B00506D
:10066000011009E002C0E1FF03C0E2FF17C5E6FF89
:10067000024A032AEBD71200000E05010E1902E10F
:10068000000E0D1902E1016A09D00DC5E9FF0EC582
:10069000EAFFEECF00F0016A00BE012A01C000F0BF
:1006A000120005010E51000A12E00DC500F0000E07
:1006B000016E003600900136D20E0024E96E010E64
:1006C0000120EA6EEECF04F0EECF05F011D00DC59B
:1006D00000F0000E016E003600900136CE0E0024B0
:1006E000E96E010E0120EA6EEECF04F0EECF05F0C8
:1006F000020E0424E16E000E0520E26E0FC5E6FF37
:1007000010C5E6FF010E0424E16E000E0520E26E26
:1007100011C5E6FF04C0E9FF05C0EAFFEECF00F017
:1007200004C0E1FF05C0E2FF400E0014E66E04C005
:10073000E9FF05C0EAFFEECF00F004C0E1FF05C00D
:10074000E2FF880E0010E66E0E51000A1BE00DC598
:1007500000F0000E016E003600900136D20E00242B
:10076000026E010E0120036E02C0E9FF03C0EAFF22
:10077000040EEE18006E02C0E1FF03C0E2FF00C0ED
:10078000E6FF1AD00DC500F0000E016E0036009095
:100790000136CE0E0024026E010E0120036E02C04F
:1007A000E9FF03C0EAFF040EEE18006E02C0E1FF8D
:1007B00003C0E2FF00C0E6FF04C000F005C001F086
:1007C00012000DC5E9FF0EC5EAFFEE5005010F1935
:1007D00005E10DC500F00EC501F010D00DC500F00B
:1007E0000EC501F00D4B0E2B00C0E9FF01C0EAFF62
:1007F000EECF00F00052E5E1006A016A120001014B
:10080000BDA567D0BDA314D0BDA103D02D0E006E31
:1008100002D02B0E006E0DC5E1FF0EC5E2FF00C039
:10082000E6FF05010D4B0E2B0101BF4BC02B3AD04B
:10083000BDA10DD00DC5E1FF0EC5E2FF200EE66E95
:1008400005010D4B0E2B0101BF4BC02B2BD0C00E51
:10085000BD15016EBE51080B026E0250080A02E17E
:10086000800E01181FE10DC5E1FF0EC5E2FF300E3D
:10087000E66E05010D4B0E2B0101BF4BC02BBDAB2E
:1008800003D0580E006E02D0780E006E0DC5E1FF49
:100890000EC5E2FF00C0E6FF05010D4B0E2B010166
:1008A000BF4BC02BC151C21113E00DC5E1FF0EC5F6
:1008B000E2FF300EE66E05010D4B0E2B0101BF4B22
:1008C000C02B010EC15F000EC25BC151C211EDE130
:1008D00080D0C151C21115E0BDB713D00DC5E1FFE5
:1008E0000EC5E2FF200EE66E05010D4B0E2B010139
:1008F000BF4BC02B010EC15F000EC25BC151C211C4
:10090000EDE1BDA314D0BDA103D02D0E006E02D029
:100910002B0E006E0DC5E1FF0EC5E2FF00C0E6FF25
:1009200005010D4B0E2B0101BF4BC02B0ED0BDA1FD
:100930000CD00DC5E1FF0EC5E2FF200EE66E0501ED
:100940000D4B0E2B0101BF4BC02BC00EBD15016E10
:10095000BE51080B026E0250080A02E1400E011857
:100960000DE10DC5E1FF0EC5E2FF300EE66E05019B
:100970000D4B0E2B0101BF4BC02B2BD0C00EBD1554
:10098000016EBE51080B026E0250080A02E1800E91
:1009900001181FE10DC5E1FF0EC5E2FF300EE66E46
:1009A00005010D4B0E2B0101BF4BC02BBDAB03D07E
:1009B000580E006E02D0780E006E0DC5E1FF0EC518
:1009C000E2FF00C0E6FF05010D4B0E2B0101BF4BFE
:1009D000C02B800E006E800EBC19005C02E1BB5182
:1009E000C35D0DE20DC5E1FF0EC5E2FF300EE66E00
:1009F00005010D4B0E2B0101BF4BC02BEAD70DC5D6
:100A000000F00EC501F01200086A096A100E0C6EA3
:100A10000134083609360450085E0550D8A0053C5C
:100A2000095ED8B007D0045008260550D8B0053C60
:100A30000926D890003601360C2EEAD712002DD0A8
:100A40000101BD87010E05010D27000E0E230F23A6
:100A500061D00101BD81010E05010D27000E0E239D
:100A60000F2358D00101BD83010E05010D27000E93
:100A70000E230F234FD00101BE87010E05010D2764
:100A8000000E0E230F2346D00101BD85010E050186
:100A90000D27000E0E230F233DD00DC5F6FF0EC50A
:100AA000F7FF0FC5F8FF0900F5CF01F001502D0A3F
:100AB000C7E00DC5F6FF0EC5F7FF0FC5F8FF09002B
:100AC000F5CF01F00150200AC4E00DC5F6FF0EC5B8
:100AD000F7FF0FC5F8FF0900F5CF01F001502B0A11
:100AE000C1E00DC5F6FF0EC5F7FF0FC5F8FF090001
:100AF000F5CF01F00150230ABEE00DC5F6FF0EC58B
:100B0000F7FF0FC5F8FF0900F5CF01F00150300ADB
:100B1000BBE001D094D70101BDA301D0BD91BDA719
:100B200001D0BD950DC500F00EC501F00FC502F056
:100B3000120005010D51390806E3300E0D5D03E387
:100B4000010E006E01D0006A120004012251010A58
:100B500013E120C401F01F0E01160150000A0CE140
:100B60000101928F04012151030A04E1010E0101E8
:100B7000A16F02D00101A16B04012251000AD8A487
:100B80008DD020C401F01F0E01160150020AD8A416
:100B900085D024C401F00F0E01160150000AD8B40C
:100BA0007DD00101928F040124BF16D024C403F02C
:100BB0000F0E031603C000F0000E016E0036009009
:100BC0000136CE0E0024E96E010E0120EA6EEECF52
:100BD00004F0EECF05F015D024C403F00F0E031679
:100BE00003C000F0000E016E003600900136D20EF8
:100BF0000024E96E010E0120EA6EEECF04F0EECF84
:100C000005F02151030A07E104C0E1FF05C0E2FF3E
:100C1000840EE66E43D024C400F00F0E0016700E52
:100C2000026E0F0E036E00500226D8B0032A02C0D7
:100C3000E9FF03C0EAFFFE0EEE14006EEECF01F0F6
:100C4000FF0E011602C0E1FF03C0E2FF00C0E6FF95
:100C500001C0E6FF24AF11D004C0E1FF05C0E2FFF0
:100C6000E66A040E0418006E00C004F004C0E1FF40
:100C700005C0E2FF400EE66E11D004C0E1FF05C0E2
:100C8000E2FF880EE66E040E0418006E00C004F049
:100C900004C0E1FF05C0E2FFC80EE66E12000401C9
:100CA000286B296B4AD00101928F04012881010130
:100CB000A151010A02E10401288354D00101928F5D
:100CC00051D00101928F040124BF16D024C403F037
:100CD0000F0E031603C000F0000E016E00360090E8
:100CE0000136CE0E0024E96E010E0120EA6EEECF31
:100CF00004F0EECF05F015D024C403F00F0E031658
:100D000003C000F0000E016E003600900136D20ED6
:100D10000024E96E010E0120EA6EEECF04F0EECF62
:100D200005F004C0E9FF05C0EAFFEECF01F001A421
:100D300003D00401010E286F15D020C401F01F0E4E
:100D400001160150000AAFE020C401F01F0E011689
:100D50000150010AB3E020C401F01F0E011601503A
:100D6000020AAFE0010192AF07D0280E8F6F040E88
:100D7000906F9281020E936F1200000E0101945D3C
:100D800002E1080E935D10E293C103F094C104F0F8
:100D9000AD51000A03E1010EAD6F05D0AD51010A5E
:100DA00002E1020EAD6F04D0080E036E000E046E59
:100DB000D2C1E1FFD3C1E2FFE692D2C1E1FFD3C1CC
:100DC000E2FFE690D2C1E9FFD3C1EAFFEECF00F027
:100DD000D2C1E1FFD3C1E2FF04500010E66E010E64
:100DE000D225E16E000ED321E26E03C0E6FF035070
:100DF000935D006E04509459016E00C093F101C0E0
:100E000094F1280EA36F040EA46F92B12FD003505B
:100E100004102BE08FC1F6FF90C1F7FF91C1F8FFDE
:100E20000900F5CF00F0A3C1E1FFA4C1E2FF00C0BB
:100E3000E6FFA34BA42B010E8F25006E000E902120
:100E4000016E000E9121026E00C08FF101C090F181
:100E500002C091F1010E035C006E000E0458016E99
:100E600000C003F001C004F0D2D724D00350041016
:100E700021E08FC1E9FF90C1EAFFA3C1E1FFA4C156
:100E8000E2FFEECFE6FFA34BA42B010E8F25006EF1
:100E9000000E9021016E00C08FF101C090F1010E93
:100EA000035C006E000E0458016E00C003F001C028
:100EB00004F0DCD7120004012051800AD8A47AD0B3
:100EC000C00E0101926F6BD00101290E006E500E11
:100ED000016E000E026E00C08FF101C090F102C0E1
:100EE00091F1120E936F000E946F64D00101030E06
:100EF000006E000E016E22C404F0000E056EB8EC08
:100F000002F0590E0024E96E020E0120EA6EEECFC7
:100F10008FF1EECF90F1EECF91F1020E8F25F66EAC
:100F2000000E9021F76E000E9121F86E0900F5CFAA
:100F300000F00900F5CF01F000C093F101C094F179
:100F400039D0040122510101D85D24E3030E006E63
:100F5000000E016E22C404F0000E056EB8EC02F023
:100F60004D0E0024E96E020E0120EA6EEECF8FF1E5
:100F7000EECF90F1EECF91F18FC1F6FF90C1F7FF68
:100F800091C1F8FF0900F5CF00F000C093F1000E09
:100F9000946F01D0926B0ED00101926B0BD00401C3
:100FA0002351010A91E02351020AA0E02351030AD0
:100FB000C8E0F2D712000101928F710E0501156F82
:100FC0000F0E166F176B010E186F000E196F22ECC3
:100FD00003F0A70E156F010E166F176B010E186F39
:100FE000000E196F22EC03F022C497F10101975112
:100FF000000A03E1100ED96F11D0200ED96F010E37
:101000000501156F000E166F970E176F010E186F02
:10101000010E196F000E1A6FE0EC02F01200200EA4
:101020000101D95D03E36DB201D002D0006A39D06D
:10103000CCC10DF5CDC10EF53CEC03F0005230E112
:1010400004C50DF5010E0E6F01C50FF502C510F5B3
:1010500003C511F551EC03F000C0CCF101C0CDF196
:101060000101C86BC96BCA6BCB6BCCC10DF5CDC18F
:101070000EF53CEC03F0005209E00101C851C91122
:10108000CA11CB1102E0006A0CD0EFD70101010EAA
:10109000CC25E96E000ECD21EA6EEECF00F001D036
:1010A000006A12000101BF6BC06BBD6BBE6B03C554
:1010B00000F004C501F005C502F0010E050103278B
:1010C000000E0423052300C0F6FF01C0F7FF02C095
:1010D000F8FF0900F5CF00F000C0C3F10052D8B40A
:1010E00082EF0DF00101C351250A0DE001C5E1FFBA
:1010F00002C5E2FFC3C1E6FF0501014B022B01015E
:10110000BF4BC02BD4D7C16BC26BBD6BBE6B03C5CD
:101110000DF504C50EF505C50FF591DC00C003F50E
:1011200001C004F502C005F500C0F6FF01C0F7FFDD
:1011300002C0F8FF0900F5CF00F0000E016E00C0FC
:101140000DF5F7DC005238E00101C16BC26B010103
:10115000C1C100F0C2C101F00A0E046E000E056E9E
:10116000B8EC02F003C5F6FF04C5F7FF05C5F8FFAC
:101170000900F5CF02F002500024C16F000E0120DB
:10118000C26F300EC15F000EC25B010E0501032766
:10119000000E0423052303C5F6FF04C5F7FF05C5AC
:1011A000F8FF0900F5CF00F0000E016E00C00DF54C
:1011B000C0DC0052CCE133D003C5F6FF04C5F7FF15
:1011C00005C5F8FF0900F5CF01F001502A0A27E113
:1011D00006C5E9FF07C5EAFFEECF00F0EECF01F04C
:1011E00000C0E9FF01C0EAFFEECFC1F1EECFC2F1CE
:1011F00006C5E9FF07C5EAFF020EEE24006E000EE9
:10120000EE20016E06C5E1FF07C5E2FF00C0E6FF64
:1012100001C0E6FF010E0327000E0423052303C5CA
:10122000F6FF04C5F7FF05C5F8FF0900F5CF01F08B
:1012300001502E0A73E10501010E0327000E04235D
:10124000052303C5F6FF04C5F7FF05C5F8FF090030
:10125000F5CF01F001502A0A28E106C5E9FF07C5CC
:10126000EAFFEECF00F0EECF01F000C0E9FF01C0D1
:10127000EAFFEECFBBF1EECFBCF106C5E9FF07C533
:10128000EAFF020EEE24006E000EEE20016E06C58F
:10129000E1FF07C5E2FF00C0E6FF01C0E6FF010E67
:1012A0000327000E0423052338D00101BB6BBC6B60
:1012B00003C5F6FF04C5F7FF05C5F8FF0900F5CF24
:1012C00000F0000E016E00C00DF533DC005225E089
:1012D000BBC100F0BCC101F00A0E046E000E056E29
:1012E000B8EC02F003C5F6FF04C5F7FF05C5F8FF2B
:1012F0000900F5CF02F0025000240101BB6F000E7F
:101300000120BC6F300EBB5F000EBC5B010E0501FF
:101310000327000E04230523CBD703D00101BB6BA9
:10132000BC6B03C500F004C501F005C502F0010E59
:1013300005010327000E0423052300C0F6FF01C0AA
:10134000F7FF02C0F8FF0900F5CFC3F106D1BFC116
:1013500000F0C0C101F0DAD30101BD8D2ED12DD135
:10136000BD8BBD8F2AD106C5E9FF07C5EAFFEECFC9
:1013700000F0EECF01F000C0E9FF01C0EAFFEECFC0
:1013800008F5EECF09F506C5E9FF07C5EAFF020E2D
:10139000EE24006E000EEE20016E06C5E1FF07C5CB
:1013A000E2FF00C0E6FF01C0E6FF000E05010919DB
:1013B00002E1000E081904E19C0E086F000E096F8F
:1013C0000A6B0B6B0A510825E96E0B510921EA6E75
:1013D000EE520BE0010E0A25006E000E0B21016E8D
:1013E00000C00AF501C00BF5EDD70101BB51BC11DE
:1013F0000EE005010B510101BC5D04E105010A513C
:101400000101BB5D04E2BBC10AF5BCC10BF5C251D1
:1014100005010B5D04E10101C15105010A5D08E20E
:101420000A510101C15F05010B510101C25B03D0EB
:101430000101C16BC26BBDB718D0C1C100F0C2C100
:1014400001F0010EC15F000EC25B005001100DE003
:1014500001C5E1FF02C5E2FF200EE66E0501014B6A
:10146000022B0101BF4BC02BE8D70AC502F00BC508
:1014700003F0010E05010A5D006E000E0B59016EAE
:1014800000C00AF501C00BF5025003101AE008C5B0
:10149000E9FF09C5EAFF01C5E1FF02C5E2FFEECFA2
:1014A000E6FF014B022B010E0825006E000E0921FC
:1014B000016E00C008F501C009F50101BF4BC02B4A
:1014C000D4D70101BDA718D0C1C100F0C2C101F03D
:1014D000010EC15F000EC25B005001100DE001C59E
:1014E000E1FF02C5E2FF200EE66E0501014B022B73
:1014F0000101BF4BC02BE8D7DAD506C5E9FF07C508
:10150000EAFFEECF00F0EECF01F000C0E9FF01C02E
:10151000EAFFEECFC3F106C5E9FF07C5EAFF020EF9
:10152000EE24006E000EEE20016E06C5E1FF07C539
:10153000E2FF00C0E6FF01C0E6FFC30E0501086F31
:10154000010E096F010E0A6F000E0B6F4ED7C00E11
:101550000101BD13000EBE1330D00101C351000ABA
:10156000D8B4F5D6C3516C0AD8B4F6D6C3514C0AD8
:10157000D8B4F2D6C3516F0AD8B4EED6C351640AB8
:10158000D8B4EDD6C351690AD8B4E9D6C351700AAC
:10159000D8B4E6D6C351580AD8B4E2D6C351780AB3
:1015A000D8B4DFD6C351730AD8B4DDD6C351630AA9
:1015B000A4E0C351750ACBE0C0D7C00EBD15016EC3
:1015C000BEC102F0000E0216000E021802E1000E6B
:1015D00001183EE106C5E9FF07C5EAFFEECF00F0BE
:1015E000EECF01F000C0E9FF01C0EAFFEECF08F541
:1015F000EECF09F506C5E9FF07C5EAFF020EEE24A6
:10160000006E000EEE20016E06C5E1FF07C5E2FF89
:1016100000C0E6FF01C0E6FF800E05010919006E5B
:10162000800E005C02E1000E085D11E2030E010174
:10163000BD13000EBE13050108510008006E09C558
:1016400001F0000E015600C008F501C009F522D0D6
:1016500006C5E9FF07C5EAFFEECF00F0EECF01F0C7
:1016600000C0E9FF01C0EAFFEECF08F5EECF09F5B3
:1016700006C5E9FF07C5EAFF020EEE24006E000E64
:10168000EE20016E06C5E1FF07C5E2FF00C0E6FFE0
:1016900001C0E6FF000E0101BC1902E1000EBB19FA
:1016A0000AE1000E0501091902E1000E081903E123
:1016B0000101BB4BBC2B0101C00EBD15006E00C06B
:1016C00005F084D00101010EC36FC351050A25E066
:1016D000C3C100F0000E016E026E036E0036009072
:1016E0000136023603368F0E0024F66E500E0120AE
:1016F000F76E000E0220F86E0900F5CF01F0090028
:10170000F5CF02F002500501095D02E10150085DCC
:1017100001E203D00101C32BD8D766D00101010E2D
:10172000C36FC351040A25E0C3C100F0000E016E6F
:10173000026E036E00360090013602360336E40E68
:101740000024F66E500E0120F76E000E0220F86E97
:101750000900F5CF01F00900F5CF02F002500501B4
:10176000095D02E10150085D01E203D00101C32BD4
:10177000D8D73AD00101010EC36FC351060A25E044
:10178000C3C100F0000E016E026E036E00360090C1
:101790000136023603366D0E0024F66E500E01201F
:1017A000F76E000E0220F86E0900F5CF01F0090077
:1017B000F5CF02F002500501095D02E10150085D1C
:1017C00001E203D00101C32BD8D70ED00550000A87
:1017D000D8B478D70550C00AD8B474D70550800A59
:1017E0009DE00550400AC6E00101800E006E800EAB
:1017F000BC19005C02E1BB51C35D03E2BBC1C3F194
:101800000DD0800EBC19006E800E005C02E1C35149
:10181000BB5D04E2C3C1BBF1000EBC6FC151C2117C
:101820000EE0030EBD15006EBEC101F0000E0116E4
:101830000050011004E0010EC15F000EC25B800E7B
:10184000BC19006E800EC219005C02E1C151BB5D83
:1018500005E2BB51C15FBC51C25B02D0C16BC26B20
:10186000C40EBD15016EBE51080B026E0250080A6F
:1018700002E1400E011808E1C151C21104E0010E5D
:10188000C15F000EC25B1CD0C00EBD15016EBE5103
:10189000080B026E0250080A02E1800E011810E1E6
:1018A000800E006E800EC219005C02E1C151020878
:1018B00005E2020EC15F000EC25B02D0C16BC26BBB
:1018C00001C50DF502C50EF5FFEC03F000C001F5F2
:1018D00001C002F5BBC100F0BCC101F0010EBB5F4D
:1018E000000EBC5B00500110D8B4ECD0C00EBD158A
:1018F000006E00C00CF5C9D00101BBC100F0BCC135
:1019000001F0000EBCBFFF0E026E036E00360090A9
:101910000136023603368F0E0024F66E500E01207B
:10192000F76E000E0220F86E0900F5CF04F00900F2
:10193000F5CF05F008C500F009C501F004EC05F08D
:101940000A0E046E000E056E04EC05F008C000F0EF
:1019500009C001F0300E0024C36FA7D00101BDAB58
:1019600035D0BBC100F0BCC101F0000EBCBFFF0E02
:10197000026E036E00360090013602360336E40E26
:101980000024F66E500E0120F76E000E0220F86E55
:101990000900F5CF04F00900F5CF05F008C500F007
:1019A00009C501F004EC05F00F0E0016000E01163B
:1019B0003B0E0024F66E500E0120F76E000EF86EFE
:1019C000000EF8220900F5CFC3F134D0BBC100F0FE
:1019D000BCC101F0000EBCBFFF0E026E036E0036EC
:1019E0000090013602360336E40E0024F66E500EE7
:1019F0000120F76E000E0220F86E0900F5CF04F00A
:101A00000900F5CF05F008C500F009C501F004ECA8
:101A100005F00F0E0016000E01164C0E0024F66E97
:101A2000500E0120F76E000EF86E000EF82209002D
:101A3000F5CFC3F13AD00101BBC100F0BCC101F048
:101A4000000EBCBFFF0E026E036E00360090013622
:101A5000023603366D0E0024F66E500E0120F76E2E
:101A6000000E0220F86E0900F5CF04F00900F5CF52
:101A700005F008C500F009C501F004EC05F0070EFB
:101A80000014C36F300EC32710D005010C51000A9B
:101A9000D8B432D70C51C00AD8B42ED70C51800A12
:101AA000D8B45CD70C51400AC6E0050101C5E1FF7E
:101AB00002C5E2FFC3C1E6FF014B022B0101BF4B90
:101AC000C02B08D7BDA71CD0800E006E800EC21997
:101AD000005C02E1C151000813E201C5E1FF02C54B
:101AE000E2FF200EE66E0501014B022B0101BF4B08
:101AF000C02B010EC15F000EC25BC151C211EDE1EE
:101B000057EF08F0BFC100F0C0C101F0120005019D
:101B1000056B01C5E9FF02C5EAFFEE5216E003C5F9
:101B20000DF504C50EF501C5E9FF02C5EAFFEECFCC
:101B30000FF5E1EC03F0000E011802E1000E0018B1
:101B400004E1014B022B052BE4D705C500F0120080
:101B50000501056B066B01C5E9FF02C5EAFFEE5200
:101B600017E003C50DF504C50EF501C5E9FF02C573
:101B7000EAFFEECF0FF5E1EC03F0000E011802E1F1
:101B8000000E001805E0014B022B054B062BE3D796
:101B900005C500F006C501F012006D98010192BF65
:101BA00049D09AAF28D0020EAE6F010ED225E16E59
:101BB000000ED321E26EE66AD2C1E1FFD3C1E2FF9B
:101BC000C80EE66E010EA925E16E000EAA21E26E96
:101BD000080EE66E020EA925E16E000EAA21E26E45
:101BE000280EE66E040EE66EA9C1E1FFAAC1E2FF6F
:101BF000C80EE66E1ED0010EA925E16E000EAA21C8
:101C0000E26E080EE66E020EA925E16E000EAA2114
:101C1000E26E200EE66E040EE66EA9C1E1FFAAC1D7
:101C2000E2FF8C0EE66ED2C1E1FFD3C1E2FF840E6B
:101C3000E66E83D09ABF81D0040120AF56D0010157
:101C400094510401275D04E1010193510401265DD3
:101C500004E226C493F127C494F1BDEC06F0010E12
:101C6000AE6F010EA925E16E000EAA21E26E080EEC
:101C7000E66E020EA925E16E000EAA21E26E200E8C
:101C8000E66E040EE66EA9C1E1FFAAC1E2FF800E76
:101C9000E66EA86B010EAB25E16E000EAC21E26E84
:101CA000080EE66E020EAB25E16E000EAC21E26E70
:101CB000200EE66E040EE66EABC1E1FFACC1E2FFA2
:101CC000840EE66E010EA86F020ED225E16E000EA4
:101CD000D321E26E280EE66E040EE66ED2C1E1FF5D
:101CE000D3C1E2FFC80EE66E28D00101020EAE6F2E
:101CF000010ED225E16E000ED321E26EE66AD2C15A
:101D0000E1FFD3C1E2FFC80EE66E010EA925E16E28
:101D1000000EAA21E26E080EE66E020EA925E16E03
:101D2000000EAA21E26E280EE66E040EE66EA9C130
:101D3000E1FFAAC1E2FFC80EE66E1200010E01012A
:101D4000AB25E96E000EAC21EA6EEECF00F000C0CC
:101D500002F0000E9C5D02E102509B5D03E29BC11C
:101D600002F00AD002509B5D006E000E9C59016E7D
:101D700000C09BF101C09CF1036A0250035C1CE2AD
:101D8000280EE96E040EEA6E0350E926D8B0EA2A5E
:101D9000EECF00F098C1E1FF99C1E2FF00C0E6FF7D
:101DA000010E9825006E000E9921016E00C098F179
:101DB00001C099F1032AE1D7000E006E9C51005C2E
:101DC00002E19B51000828E2010EA925E16E000EF8
:101DD000AA21E26E080EE66E020EA925E16E000E43
:101DE000AA21E26E280EE66E040EE66EABC1E9FF94
:101DF000ACC1EAFFEECF00F000BC07D0A9C1E1FF03
:101E0000AAC1E2FFC80EE66E06D0A9C1E1FFAAC1D1
:101E1000E2FF880EE66E19D0010EA925E16E000ED4
:101E2000AA21E26E080EE66E020EA925E16E000EF2
:101E3000AA21E26E200EE66E040EE66EA9C1E1FF55
:101E4000AAC1E2FF840EE66E9A9F12000101AE6BFA
:101E5000D2C1E1FFD3C1E2FFE66A040ED219E16EFE
:101E6000D3C1E2FF000EE21AE66A9AAF01D09A9F50
:101E7000120020C401F0600E0116050E006E005025
:101E800004E00132019EFF0FFBD70150000A01E080
:101E90006DD049D00101928F080ED96F67D05BECED
:101EA00007F064D0DBEC07F061D0970E01018F6F73
:101EB000010E906F9281010E936F928F57D04FEC6D
:101EC00006F054D0A5EC05F051D0A70E006E010E1F
:101ED000016E040124510026D8B0012A00C08FF100
:101EE00001C090F101019281010E936F928F3ED05B
:101EF0000101928FA70EE16E010EE26E04012451E2
:101F0000E126D8B0E22A22C4E6FF30D0020E050155
:101F1000156F000E166F176B186B196B1A6BE0ECD0
:101F200002F024D023D004012151050AB3E021514D
:101F3000060AB5E02151090AB5E02151080AB5E0C9
:101F40002151000ABCE02151010ABCE02151030AE1
:101F5000B9E021510A0AB9E021510B0AC9E0215127
:101F6000070AD4E021510C0ADDE0DCD71200290E6B
:101F7000006E500E016E000E026E0E0E0024F66E04
:101F8000000E0120F76E000E0220F86E0900F5CF5A
:101F900003F003C004F00F0E0024F66E000E0120C3
:101FA000F76E000E0220F86E0900F5CF01F0015027
:101FB000035C12E2290E006E500E016E000E026EDE
:101FC0000F0E0024F66E000E0120F76E000E0220A8
:101FD000F86E0900F5CF04F0290E006E500E016E68
:101FE000000E026E100E0024F66E000E0120F76E39
:101FF000000E0220F86E0900F5CF01F00150045CDC
:1020000012E2290E006E500E016E000E026E100ECE
:102010000024F66E000E0120F76E000E0220F86E0E
:102020000900F5CF04F004C000F01200160E6F6E28
:102030009F0E6B6E7B0E696E1200000E0401F31989
:1020400002E1000EF21904E1A5C1F2F4A6C1F3F415
:10205000F2C4E9FFF3C4EAFFEECF00F0005203E15F
:10206000006A016A4CD0F2C401F5F3C402F5F4C46D
:1020700003F5F5C404F56CDD0401F2510026F351BB
:10208000012200C0F2F401C0F3F400C0E9FF01C076
:10209000EAFFEECF00F0005208E10101A56BA66B4C
:1020A000000E006E000E016E2AD0F2C401F5F3C4DA
:1020B00002F5F4C403F5F5C404F529DD000E016E44
:1020C0000401F2510026F351012200C0A5F101C024
:1020D000A6F100C0E9FF01C0EAFFEE5209E0A5C188
:1020E000E1FFA6C1E2FFE66A0101A54BA62B03D0E2
:1020F0000101A56BA66BF2C400F0F3C401F012005D
:10210000D08EA28AA08AF28E12000101AE51020A7C
:1021100002E114DE1ED09ADEA851000A19E1010E78
:10212000A925E16E000EAA21E26E080EE66E020EEF
:10213000A925E16E000EAA21E26E200EE66E040EC5
:10214000E66EA9C1E1FFAAC1E2FF8C0EE66E01D0E6
:10215000A86B1200D2C1E9FFD3C1EAFFEECF00F0B5
:10216000000E00BC010E0501146F040E0101D2190E
:10217000006E00C0D2F1D951080A0AE122C46EFFF4
:102180006E50000803E2100ED96F02D0040ED96F12
:10219000AE51010A28E1020ED225E16E000ED321D4
:1021A000E26E280EE66E040EE66EBDEC06F0AD5152
:1021B000020A07E1D2C1E1FFD3C1E2FF840EE66E5D
:1021C00011D005011451000A07E1D2C1E1FFD3C1CA
:1021D000E2FFC80EE66E06D0D2C1E1FFD3C1E2FF36
:1021E000880EE66E01D032DE1200F2C402F0F3C4B3
:1021F00003F0F5C400F0F6C401F0010E0401F55F30
:10220000000EF65B0050011009E002C0E1FF03C0C0
:10221000E2FFF4C4E6FF024A032AEBD71200D2C160
:10222000E9FFD3C1EAFFEECF00F000AE05D0D2C186
:10223000E1FFD3C1E2FFE66A0101AD6BAE6B936BC8
:10224000946B926B16DE030E0501156F000E166F70
:10225000176B186B196B1A6BE0EC02F09EDC120026
:10226000F2C4F5F4F3C4F6F4F5C40DF5F6C40EF5B6
:10227000F4C40FF5E1EC03F000C0F5F401C0F6F48E
:10228000000E011802E1000E001809E0F5C4E1FF9C
:10229000F6C4E2FFE66A0401F54BF62BE5D7F2C47B
:1022A00000F0F3C401F01200F70E0401FF6F040EFA
:1022B0000501006FF2C401F5F3C402F5F4C403F59F
:1022C000F5C404F5F6C405F5FF0E066F040E076F9E
:1022D00052EC08F000C0FDF401C0FEF4005004010F
:1022E000F225E16E0150F321E26EE66AFDC400F0D2
:1022F000FEC401F012000401F2515A0804E3410E39
:10230000F25DD8B0F28BF2C400F012004D0E020163
:10231000596F4F0E5A6F000E5B6FEC0E4D6F500EE3
:102320004E6F000E4F6FDC0E506F500E516F000E4F
:10233000526F760E536F4F0E546F000E556FB70EDF
:10234000566F500E576F000E586F1200F2C401F511
:10235000F3C402F5F4C403F5010E0501046F0FEC9C
:1023600008F012000401F251660806E3610EF25D06
:1023700003E3010E006E01D0006A00C0F3F4F251D5
:10238000460806E3410EF25D03E3010E006E01D044
:10239000006A0050F313F2C40DF599EC05F0040146
:1023A000F351001200C0F3F412000401F2515A0874
:1023B00006E3410EF25D03E3010E006E01D0006AF8
:1023C0001200F2C4E9FFF3C4EAFFEE5211E0F2C4D6
:1023D000E9FFF3C4EAFFF4C4D9FFF5C4DAFFEE5015
:1023E000DE1806E10401F24BF32BF44BF52BE9D791
:1023F000F2C4E9FFF3C4EAFFF4C4D9FFF5C4DAFF7D
:10240000DE50EE5C006E016A000E015A1200ACB2A2
:1024100002D00000FCD7F2C4ADFF12000401F56B3E
:10242000F66BF76B020EF225F66E000EF321F76ED7
:10243000000EF421F86E0900F5CF05F0030EF22529
:10244000F66E000EF321F76E000EF421F86E09000F
:10245000F5CF00F000C003F0000E046E03C001F0E1
:10246000006A05500024066E000E0120076EF2C4BB
:1024700008F0F3C409F0F4C40AF0010E0824F66E63
:10248000000E0920F76E000E0A20F86E0900F5CF45
:1024900001F00150020A1BE1060E0824F66E000E40
:1024A0000920F76E000E0A20F86E0900F5CF01F042
:1024B0000150F55D0CE2060E0824F66E000E0920B0
:1024C000F76E000E0A20F86E0900F5CFF5F4010E44
:1024D0000824F66E000E0920F76E000E0A20F86E32
:1024E0000900F5CF01F00150040A1BE1080E082491
:1024F000F66E000E0920F76E000E0A20F86E090035
:10250000F5CF01F00150F55D0CE2080E0824F66EDF
:10251000000E0920F76E000E0A20F86E0900F5CFB4
:10252000F5F408C0F6FF09C0F7FF0AC0F8FF09007C
:10253000F5CF00F00050F625016E000EF721026E77
:1025400001C0F6F402C0F7F40750025C02E1065045
:10255000015C01E30FD008C0F6FF09C0F7FF0AC015
:10256000F8FF0900F5CF00F000500826000E092200
:102570000A2283D7F5C400F012000401F251200AA8
:1025800009E0F2510D0804E3090EF25D01E302D007
:10259000006A02D0010E006E1200000E0401F31951
:1025A00002E1000EF21902E1006A2ED0000EF719C6
:1025B00002E1000EF61902E1006A26D0F351F71984
:1025C00002E1F651F21902E1006A1ED0F451F2253F
:1025D000016EF551F321026E0250F71902E1F65136
:1025E000011803E1010E006E0FD0F851F625016EBF
:1025F000F951F721026E0250F31902E1F25101186C
:1026000003E1020E006E00D01200FD0E0101A215C2
:10261000016E026AFF0E0216000E021802E1000EA1
:1026200001186CE17E0EA215016E01C003F00332A9
:10263000039E03C000F0000E016E003600900136CC
:10264000003600900136000E0024026E040E0120B8
:10265000036E02C0ABF103C0ACF102C0A9F103C02C
:10266000AAF1040EA919006E00C0A9F102C0E9FF89
:1026700003C0EAFFEECF00F000C001F03C0E0116EF
:102680000132019E0132019E01500D0A35E1020E18
:10269000AB25E96E000EAC21EA6EEECF01F0EECF75
:1026A00002F00250040A02E1280E011823E1020E92
:1026B000AB25E16E000EAC21E26E200EE66E040E3C
:1026C000E66E0501136B080E135D14E2200EE16E39
:1026D000040EE26E1351E126D8B0E22A280EE96E0C
:1026E000040EEA6E1351E926D8B0EA2AEECFE6FFCF
:1026F000132BE9D794DD01D008DD0DD0FD0EA21516
:10270000016E026AFF0E0216000E021802E1040EAC
:10271000011801E11FDD12002ADC00C0AFF44D0EEC
:102720000401F26F4F0EF36F000EF46F77DE00C0FE
:10273000B0F4AF51005C03E2AFC400F002D0B0C40B
:1027400000F0120070A019D0ABC1E9FFACC1EAFFE4
:10275000EECF01F00150800A0FE1D2C1E9FFD3C1F1
:10276000EAFFEECF01F00150840A06E1ABC1E1FFC0
:10277000ACC1E2FF8C0EE66E7090DF0E68161200A0
:10278000740E0501156F000E166F176B186B196B21
:102790001A6BE0EC02F06D92699468A403D0FB0E12
:1027A0006816FBD712006984EF0E68166D82750EED
:1027B0000501156F000E166F176B186B196B1A6BEE
:1027C000E0EC02F01200A69CAFC4A9FFA69EA68072
:1027D000A8CF00F01200046A056A0101895305E0E0
:1027E00004C000F005C001F0EED0066A800E006E55
:1027F000800E000A005C02E1140E065CD8B0DFD047
:1028000006C000F0000E016E003600900136003662
:1028100000900136390E0024E96E010E0120EA6EA7
:10282000EECF01F0EECF02F0000E006E0250005C21
:1028300002E101500008D8B0C0D006C000F0000E80
:10284000016E003600900136003600900136390ED8
:102850000026010E0122020E0024E96E000E012066
:10286000EA6EEECF01F0EECF02F00401B051025C4F
:1028700002E1AF51015CD8A0A0D006C000F0000E6C
:10288000016E003600900136003600900136390E98
:102890000026010E012200C0E9FF01C0EAFFEECFD1
:1028A00004F0EECF05F0020E0024E96E000E0120C8
:1028B000EA6EEECF01F0EECF02F00250B05D02E121
:1028C0000150AF5D4BE206C000F0000E016E003615
:1028D00000900136003600900136390E0024026E59
:1028E000010E0120036E02C0E9FF03C0EAFFEECF34
:1028F00000F0EECF01F0AF510026B051012202C02E
:10290000E1FF03C0E2FF00C0E6FF01C0E6FF06C032
:1029100000F0000E016E0036009001360036009087
:102920000136390E0026010E0122020E0024026E2D
:10293000000E0120036E02C0E9FF03C0EAFFAF51A1
:10294000EE5C006EB051EE58016E02C0E1FF03C0B4
:10295000E2FF00C0E6FF01C0E6FF2AD006C000F09B
:10296000000E016E003600900136003600900136F0
:10297000390E0024E16E010E0120E26EE66AE66A7D
:1029800006C000F0000E016E0036009001360036E1
:1029900000900136390E0026010E0122020E00249D
:1029A000E16E000E0120E26EE66AE66A01018A0726
:1029B00004C000F005C001F006D0062A17D704C0F5
:1029C00000F005C001F012000401AF6BB06B130EF4
:1029D000B05DD8B029D1AF53D8A426D1B051010FE2
:1029E000B16F800E006E800E000A005C02E1140ED2
:1029F000B15DD8B017D1AF53D8A414D1B0C400F092
:102A0000000E016E0036009001360036009001364F
:102A1000390E0026010E012200C0E9FF01C0EAFFC5
:102A2000EECFF2F4EECFF3F4020E0024E96E000EC6
:102A30000120EA6EEECFF4F4EECFF5F4B1C400F06D
:102A4000000E016E0036009001360036009001360F
:102A5000390E0026010E012200C0E9FF01C0EAFF85
:102A6000EECFF6F4EECFF7F4020E0024E96E000E7E
:102A70000120EA6EEECFF8F4EECFF9F48EDD00C05F
:102A8000B2F40050010A65E1B0C400F0000E016E1E
:102A9000003600900136003600900136390E0026CF
:102AA000010E0122020E0024036E000E0120046EAE
:102AB000B1C400F0000E016E003600900136003601
:102AC00000900136390E0026010E0122020E00246C
:102AD000D96E000E0120DA6E03C0E9FF04C0EAFFE0
:102AE000DE50EE24006EDE50EE20016E03C0E1FFEA
:102AF00004C0E2FF00C0E6FF01C0E6FFB1C400F081
:102B0000000E016E0036009001360036009001364E
:102B1000390E0024E16E010E0120E26EE66AE66ADB
:102B2000B1C400F0000E016E003600900136003690
:102B300000900136390E0026010E0122020E0024FB
:102B4000E16E000E0120E26EE66AE66A010EAF6FEA
:102B500067D0B251020A64E1B1C400F0000E016E08
:102B6000003600900136003600900136390E0026FE
:102B7000010E0122020E0024036E000E0120046EDD
:102B8000B0C400F0000E016E003600900136003631
:102B900000900136390E0026010E0122020E00249B
:102BA000D96E000E0120DA6E03C0E9FF04C0EAFF0F
:102BB000DE50EE24006EDE50EE20016E03C0E1FF19
:102BC00004C0E2FF00C0E6FF01C0E6FFB0C400F0B1
:102BD000000E016E0036009001360036009001367E
:102BE000390E0024E16E010E0120E26EE66AE66A0B
:102BF000B0C400F0000E016E0036009001360036C1
:102C000000900136390E0026010E0122020E00242A
:102C1000E16E000E0120E26EE66AE66A010EAF6F19
:102C2000B12BDFD6B02BD3D6AF51010AD8B4CCD656
:102C300001018A6B0401B06B800E006E800E000AE9
:102C4000005C02E1140EB05D21E2B0C400F0000EA1
:102C5000016E003600900136003600900136390EC4
:102C60000024E96E010E0120EA6EEECF01F0EECFF6
:102C700002F0000E006E0250005C02E101500008FC
:102C800002E201018A2B0401B02BD6D701018B6B24
:102C9000120086EC11F00101956B966BCC6BCD6B3D
:102CA0006A6A686A16EC10F06D8C6E6A710E040127
:102CB000F26F0F0EF36FF46B010EF56F000EF66FEF
:102CC000F5EC10F06D9CAF6B080EAF5D16E2AFC473
:102CD00000F0000E016E00360090013600360090C4
:102CE0000136000E0024E16E040E0120E26EE66A59
:102CF000E66AE66AE66AAF2BE7D7160E706E68A63C
:102D000003D0F70E6816FBD70101926B9A6B9B6B91
:102D10009C6B6D98080ED26F040ED36F976BD96BB6
:102D200012000401F06BF16BED6BEE6B0E0EB22531
:102D3000B56F000EB321B66FEF6BF0C400F0F1C4B5
:102D400001F0003600900136003600900136430E47
:102D50000024E96E020E0120EA6E040E006EE90EF8
:102D6000E16E040EE26EEECFE6FF0006FCE1000E1F
:102D7000EA1902E1010EE91904E0AF51010A01E08C
:102D800060D17E0EB76FB86BB5C4B9F4100EBA6FD0
:102D9000010EBB6FAF51010A09E1BC6BBD6BBE6B8D
:102DA000BF6BC06BC16BC26BC36B3ED0EBC4E9FFA2
:102DB000ECC4EAFFEECFBCF4010EEB25E96E000E89
:102DC000EC21EA6EEECFBDF4020EEB25E96E000EAB
:102DD000EC21EA6EEECFBEF4030EEB25E96E000E99
:102DE000EC21EA6EEECFBFF4040EEB25E96E000E87
:102DF000EC21EA6EEECFC0F4050EEB25E96E000E75
:102E0000EC21EA6EEECFC1F4060EEB25E96E000E62
:102E1000EC21EA6EEECFC2F4070EEB25E96E000E50
:102E2000EC21EA6EEECFC3F4FF0EC46FFE0EC56F49
:102E3000C66B010EC76F110EED6F000EEE6F110E17
:102E4000B225016E000EB321026E800EEE19006EE7
:102E5000800E0218005C02E10150ED5D17E2B70E32
:102E6000ED25E16E040EEE21E26E110EED5D006EB9
:102E7000000EEE59016E0050B025E96E0150B121EF
:102E8000EA6EEECFE6FFED4BEE2BD9D7030EED6FDA
:102E9000000EEE6F030EB525016E000EB621026E18
:102EA000800EEE19006E800E0218005C02E10150E7
:102EB000ED5D0BE2B70EED25D96E040EEE21DA6E54
:102EC000DE50EF27ED4BEE2BE5D7EF51FF08006EFC
:102ED00000C0EFF4B70EED25E16E040EEE21E26EB8
:102EE00000C0E6FF000E01010B1902E1010E0A19F4
:102EF00024E181A822D0400E0401F26F060EF36F88
:102F0000A30EF46F500EF56F000EF66F54EC11F037
:102F10000401400EF26F060EF36F400EF46FA6EC44
:102F200011F0005201E1F4D7100E0C6E940E0D6EEC
:102F30000D2EFED70C2EFCD700000401ED6BEE6BBE
:102F4000040EB525016E000EB621026E800EEE193C
:102F5000006E800E0218005C02E10150ED5D41E25E
:102F6000B70EED25E96E040EEE21EA6EEECFF2F417
:102F700007EC12F0000E01010B1902E1010E0A1913
:102F80002CE181A82AD0400E0401F26F060EF36FE7
:102F9000F00EF46F500EF56F000EF66FB70EED25C4
:102FA000E96E040EEE21EA6EEECFF7F454EC11F068
:102FB0000401400EF26F060EF36F400EF46FA6ECA4
:102FC00011F0005201E1F4D7100E0C6E940E0D6E4C
:102FD0000D2EFED70C2EFCD700000401ED4BEE2B7E
:102FE000AFD7000E01010B1902E1010E0A1924E10D
:102FF00081A822D0400E0401F26F060EF36F060E78
:10300000F46F000EF56F000EF66F54EC11F0040132
:10301000400EF26F060EF36F400EF46FA6EC11F047
:10302000005201E1F4D7100E0C6E940E0D6E0D2EB1
:10303000FED70C2EFCD700000401AF51010A01E1BC
:103040000CD0F04BF12B800EF119006E800E005C5D
:1030500002E1020EF05DD8A067D612000101D9513D
:10306000000A0CE16D6A696A16EC10F080EC10F051
:103070006DB602D06D86FCD7010ED96F12007C0EA2
:103080000401C76FC86BC96BCA6B000E01010B1935
:1030900002E1020E0A1907E0000E0B1902E1010E0F
:1030A0000A1901E01FD081A81DD0400E0401F26F63
:1030B000060EF36F840EF46F500EF56F000EF66F70
:1030C000AFC4F7F4B0C4F8F454EC11F00401400EAE
:1030D000F26F060EF36F400EF46FA6EC11F0005283
:1030E00001E1F4D7AFC4F2F4B0C4F3F40D0E04015F
:1030F000F46F30EC11F000C0F2F401C0F3F40A0EEA
:103100000401F46F30EC11F000C0F2F401C0F3F4EC
:10311000C70E0401F46F040EF56F1DEC10F000C033
:10312000B3F401C0B4F40401C94BCA2BC9C400F004
:10313000CAC401F0003600900136B30E0024CB6FF4
:10314000040E0120CC6FF26BF36BC70EF46F040E0C
:10315000F56F1DEC10F0CBC4E1FFCCC4E2FF00C062
:10316000E6FF01C0E6FFC9C400F0CAC401F00036A2
:1031700000900136B30E0024E96E040E0120EA6EC1
:10318000EECF01F0EECF02F0000E021802E1000EC9
:103190000118C9E1B3C4F2F4B4C4F3F4420E04015B
:1031A000F46F000EF56FE1EC11F0000E011802E172
:1031B000000E0018D8A4DBD0B5C4F2F4B6C4F3F402
:1031C000360E0401F46F000EF56FE1EC11F0000E05
:1031D000011802E1000E001826E1B7C4F2F4B8C4E9
:1031E000F3F42E0E0401F46F000EF56FE1EC11F014
:1031F000000E011802E1000E001802E1898012D0D1
:10320000B7C4F2F4B8C4F3F42A0E0401F46F000E4C
:10321000F56FE1EC11F0000E011802E1000E00184C
:10322000D8B48990A4D0B5C4F2F4B6C4F3F4340E83
:103230000401F46F000EF56FE1EC11F0000E0118BF
:1032400002E1000E001826E1B7C4F2F4B8C4F3F4AA
:10325000310E0401F46F000EF56FE1EC11F0000E79
:10326000011802E1000E001802E1898212D0B7C4F1
:10327000F2F4B8C4F3F44E0E0401F46F000EF56FCF
:10328000E1EC11F0000E011802E1000E0018D8B4B4
:1032900089926DD0B5C4F2F4B6C4F3F45C0E0401A7
:1032A000F46F000EF56FE1EC11F0000E011802E171
:1032B000000E001826E1B7C4F2F4B8C4F3F4590EB6
:1032C0000401F46F000EF56FE1EC11F0000E01182F
:1032D00002E1000E001802E1898412D0B7C4F2F4B2
:1032E000B8C4F3F4600E0401F46F000EF56FE1EC66
:1032F00011F0000E011802E1000E0018D8B48994F4
:1033000036D0B5C4F2F4B6C4F3F45E0E0401F46F23
:10331000000EF56FE1EC11F0000E011802E1000E55
:10332000001825E1B7C4F2F4B8C4F3F4560E040152
:10333000F46F000EF56FE1EC11F0000E011802E1E0
:10334000000E001802E1898612D0B7C4F2F4B8C4A6
:10335000F3F4520E0401F46F000EF56FE1EC11F07E
:10336000000E011802E1000E0018D8B48996120070
:10337000AFC404F0B0C405F004C002F005C003F00F
:10338000044A052AB1C400F0B2C401F00401B14BF3
:10339000B22B00C0E9FF01C0EAFF02C0E1FF03C099
:1033A000E2FFEECFE6FF02C0E9FF03C0EAFFEE5204
:1033B00001E0E2D7AFC400F0B0C401F01200200E6B
:1033C0000101D95D03E36DB201D002D0006A27D0BC
:1033D00095C10DF596C10EF53CEC03F000521EE1CF
:1033E000010E01019525E96E000E9621EA6EEECFE1
:1033F00000F000C0B3F4B2C40DF505010E6BAFC40C
:103400000FF5B0C410F5B1C411F551EC03F000C0D4
:1034100095F101C096F1B3C400F001D0006A12002A
:103420006D6A696A0101D96B1200A6A202D0000080
:10343000FCD7A69CAFC4A9FFB0C4A8FFA69EA684D3
:10344000F2CF00F0F29E550EA76EAA0EA76EA682CE
:1034500000BE02D0F29E01D0F28EA69412000401AA
:10346000B16BB26BB56BB66BAFC4E9FFB0C4EAFF2A
:10347000EECFF2F4BDEC12F0005203E0AF4BB02BF4
:10348000F3D7AFC4E9FFB0C4EAFFEE502D0A05E15F
:10349000B14BB22BAF4BB02B09D0AFC4E9FFB0C4D6
:1034A000EAFFEE502B0A02E1AF4BB02BAFC400F0A5
:1034B000B0C401F0AF4BB02B00C0E9FF01C0EAFF80
:1034C000EECFB3F4000EB46F000EB46FB3C4F2F4D9
:1034D000B2EC11F0005230E0B3C4F2F4D5EC11F0CC
:1034E000005208E0B3C4F2F47BEC11F000C0B3F476
:1034F000000EB46FB3C40DF599EC05F0005206E070
:10350000300E0401B35F000EB45B05D00401570E0A
:10351000B35F000EB45BB537B591B637B537B5912B
:10352000B637B537B591B637B537B591B637B3516C
:10353000B527000EB623BAD7B151B21108E0B55184
:103540000008006EB6C401F0000E015604D0B5C4E8
:1035500000F0B6C401F0120086EC11F00101956B89
:10356000966BCC6BCD6B6A6A686A16EC10F06D8C4A
:103570006E6A710E0501156F0F0E166F176B010E37
:10358000186F000E196F22EC03F06D9C136B080E80
:10359000135D16E213C500F0000E016E00360090B8
:1035A0000136003600900136000E0024E16E040E54
:1035B0000120E26EE66AE66AE66AE66A132BE7D75E
:1035C000160E706E68A603D0F70E6816FBD70101C1
:1035D000926B9A6B9B6B9C6B6D98080ED26F040E6E
:1035E000D36F976BD96B1200A19A12000E0E0101D6
:1035F000AF6F240EB06FF20EB16F040EB26FE00E1B
:10360000B76F3F0EB86F000EB96F000EBA6FD60ECF
:10361000B36F3F0EB46F000EB56F000EB66FFF0EA6
:10362000C46FFF0EC56F000EC66F000EC76FAC8A69
:10363000900EAB6E948E949C9EAA03D0AECF00F0F9
:10364000FBD712000401AB6BAC6BAD6BAE6BE2C190
:10365000ABF4000EAC6F000EAC1902E1900EAB198A
:10366000D8A49BD0040E0301FE6F000EFF6F800EE6
:10367000006E800EFF19005C02E1FE510B0817E39B
:10368000040EFE5D006E000EFF59016EA00E0024B8
:10369000E16E040E0120E26EDF0EFE25E96E010EE2
:1036A000FF21EA6EEECFE6FFFE4BFF2BE0D70C0EBC
:1036B000FE6F000EFF6F800E006E800EFF19005C23
:1036C00002E1FE510D0817E30C0EFE5D006E000EC8
:1036D000FF59016EA80E0024E16E040E0120E26E77
:1036E000DF0EFE25E96E010EFF21EA6EEECFE6FF4A
:1036F000FE4BFF2BE0D70C0EFE5D006E000EFF5957
:10370000016EA80E0024E16E040E0120E26EE66A4E
:103710000F0EFE6F000EFF6F020E0001D625016E28
:10372000000ED721026E800E0218006E800E03017B
:10373000FF19005C02E1FE51015C17E30F0EFE5D14
:10374000006E000EFF59016E540E0024E16E040E4F
:103750000120E26EDF0EFE25E96E010EFF21EA6E0A
:10376000EECFE6FFFE4BFF2BD7D70F0EFE5D006EB0
:10377000000EFF59016E540E0024E16E040E01206C
:10378000E26EE66A540E0401AF6F040EB06FA80E2D
:10379000B16F040EB26F73DC46D2000E0401AC1997
:1037A00002E1950EAB1956E1EBC186F4ECC187F44A
:1037B000040E0301FE6F000EFF6F800EFF19006EF6
:1037C000800E005C02E10C0EFE5D17E2040EFE5D51
:1037D000006E000EFF59016E880E0024E16E040E8B
:1037E0000120E26EDF0EFE25E96E010EFF21EA6E7A
:1037F000EECFE6FFFE4BFF2BE0D7FE6BFF6B800E9C
:10380000FF19006E800E005C02E1100EFE5D21E2E9
:10381000900EFE25E16E040EFF21E26E1A0EFE25CB
:10382000006E000EFF21016EDF0E0024E96E010E16
:103830000120EA6EEECFE6FF900EFE25E96E040E43
:10384000FF21EA6EEE50000A01E103D0FE4BFF2B90
:10385000D6D7E9D1000E0401AC1902E1880EAB19EC
:10386000D8A405D1E4C1ADF4E5C1AEF40101E6513F
:10387000000AD8A4FBD00401AD514E0AD8A48DD0C3
:10388000AE51440AD8A489D0E7C186F4E8C187F4D0
:10389000800E01010519006E800E005C02E1020E2F
:1038A000045D29E2020E046F000E056F000E0B1975
:1038B00002E1020E0A1907E0000E0B1902E1010EE7
:1038C0000A1901E018D081A816D0400E0401AF6F8C
:1038D000060EB06FD80EB16F000EB26F49DD040155
:1038E000400EF26F060EF36F400EF46FA6EC11F06F
:1038F000005201E1F4D70A0E0301FE6F000EFF6FC4
:10390000800EFF19006E800E005C02E1120EFE5D5B
:1039100017E20A0EFE5D006E000EFF59016E880E62
:103920000024E16E040E0120E26EDF0EFE25E96E3A
:10393000010EFF21EA6EEECFE6FFFE4BFF2BE0D734
:10394000FE6BFF6B800EFF19006E800E005C02E1C3
:10395000100EFE5D21E2900EFE25E16E040EFF21A9
:10396000E26E130EFE25006E000EFF21016EDF0ECB
:103970000024E96E010E0120EA6EEECFE6FF900E04
:10398000FE25E96E040EFF21EA6EEE50000A01E109
:1039900003D0FE4BFF2BD6D769D00401AD514D0AA1
:1039A000D8A464D0AE51590AD8A460D0E7C1DDF1E3
:1039B000E8C1DEF10101DD51FF0A2DE0DE51FE0A12
:1039C0002AE0020E046F000E056F000E0B1902E1D3
:1039D000020E0A1907E0000E0B1902E1010E0A1986
:1039E00001E018D081A816D0400E0401AF6F060E7A
:1039F000B06F0C0EB16F010EB26FBADC0401400E55
:103A0000F26F060EF36F400EF46FA6EC11F0005249
:103A100001E1F4D72BD00101046B056B000E0B19EB
:103A200002E1020E0A1907E0000E0B1902E1010E75
:103A30000A1901E01BD081A819D0400E0401F26FD1
:103A4000060EF36F170EF46F500EF56F000EF66F43
:103A500054EC11F00401400EF26F060EF36F400EAD
:103A6000F46FA6EC11F0005201E1F4D7DCD0000EA7
:103A70000401AC1902E18A0EAB19D8A466D0010189
:103A8000E351030A2CE1000E0B1902E1020E0A19A0
:103A900007E0000E0B1902E1010E0A1901E01BD02C
:103AA00081A819D0400E0401F26F060EF36F050EC7
:103AB000F46F500EF56F000EF66F54EC11F0040128
:103AC000400EF26F060EF36F400EF46FA6EC11F08D
:103AD000005201E1F4D70101046B056B35D0E351CD
:103AE000020A32E1800E0519006E800E005C02E1D0
:103AF000020E045D29E2020E046F000E056F000E37
:103B00000B1902E1020E0A1907E0000E0B1902E17F
:103B1000010E0A1901E018D081A816D0400E040148
:103B2000AF6F060EB06F2A0EB16F010EB26F20DCC0
:103B30000401400EF26F060EF36F400EF46FA6EC18
:103B400011F0005201E1F4D76ED0000E0401AC195F
:103B500002E18B0EAB19D8A466D00101E751000A2F
:103B600034E1800E0519006E800E005C02E1020E49
:103B7000045D2AE2020E046F000E056F000E0B19A1
:103B800002E1020E0A1907E0000E0B1902E1010E14
:103B90000A1901E019D081A817D0400E0401AF6FB7
:103BA000060EB06F1B0EB16F010EB26FB8EC19F0BC
:103BB0000401400EF26F060EF36F400EF46FA6EC98
:103BC00011F0005201E1F4D72ED00101E751210A92
:103BD0002AE1046B056B000E0B1902E1020E0A19B3
:103BE00007E0000E0B1902E1010E0A1901E01BD0DB
:103BF00081A819D0400E0401F26F060EF36FB90EC2
:103C0000F46F4F0EF56F000EF66F54EC11F00401D7
:103C1000400EF26F060EF36F400EF46FA6EC11F03B
:103C2000005201E1F4D7120010EC1AF01200900ECD
:103C300001013B6F010E3C6F5E0E396F020E3A6F51
:103C4000010E036E800E006E800E000A005C02E121
:103C5000140E035C2AE203C000F0000E016E003671
:103C600000900136003600900136390E0024E16ED6
:103C7000010E0120E26EE66AE66A03C000F0000E63
:103C8000016E003600900136003600900136390E84
:103C90000026010E0122020E0024E16E000E01201A
:103CA000E26EE66AE66A032ACDD7010E8A6F896B57
:103CB0008B6B1200FEC3AFF4FFC3B0F4EBEC13F058
:103CC00000C054F401C055F40150000A02E1000E96
:103CD00000180FE101018B530CE0E4EC14F0FEC37B
:103CE000AFF4FFC3B0F4EBEC13F000C054F401C028
:103CF00055F454C400F055C401F012008CEC13F0DC
:103D000000C0D8F1010E0101DC6F54C4DAF155C4D2
:103D1000DBF156C4D6F157C4D7F149EC16F0010EC9
:103D2000016E0150010A02E12EEC18F01200FEC3F0
:103D3000E9FFFFC3EAFFEECF54F4000E0401556F14
:103D4000000E556F000E551902E1200E541907E0C0
:103D5000000E551902E1090E541901E004D00301C7
:103D6000FE4BFF2BE4D70401566B576B586B596B16
:103D7000000E551902E12D0E541906E1584B592B2E
:103D80000301FE4BFF2B0AD0000E0401551902E17E
:103D90002B0E541903E10301FE4BFF2BFEC3E9FF79
:103DA000FFC3EAFFEECF54F4000E0401556F000E7E
:103DB000556F54C40DF599EC05F000521BE056C444
:103DC00000F057C401F00A0E046E000E056EB8EC48
:103DD00002F0300E0401545D026E000E5559036E60
:103DE00002500024566F03500120576F0301FE4B11
:103DF000FF2BD4D704015851591108E0565100083F
:103E0000006E57C401F0000E015604D056C400F0F5
:103E100057C401F012000900F5CFE6FF0006FBE1F0
:103E20000106F9E112000301FE6BFF6B800EFF1922
:103E3000006E800E005C02E1080EFE5D26E2020EBE
:103E40000B6ED40E0C6E850E0D6E0D2EFED70C2E45
:103E5000FCD70B2EFAD7FE5104015625586F0301EB
:103E6000FF5104015721596F0301FE5104015425EC
:103E7000AF6FE3EC13F058C4E1FF59C4E2FF00C098
:103E8000E6FF0301FE4BFF2BD1D712000101D951F0
:103E9000010A07E16DBA05D0686A69806988020E77
:103EA000D96F68A406D069A404D0FB0E6816C0ECD4
:103EB00013F06DA203D0F4EC1AF080D068A019D0F2
:103EC00069A017D0ACEC1AF0040ED96F200E0401D3
:103ED000026F040E036F080E016F000E0015006ED6
:103EE00000C000F48C0E0011006E00C000F4FE0E45
:103EF000681668A806D069A804D0D3EC13F0EF0EBA
:103F0000681668AC11D069AC0FD0730E0501156F3F
:103F1000000E166F176B186B010E196F000E1A6FDB
:103F2000E0EC02F0BF0E681668AA04D069AA02D0BD
:103F3000A2EC13F068A210D069A20ED0FF0E05010A
:103F4000156F3F0E166F176B186B010E196F000E71
:103F50001A6FE0EC02F06A6A040E0101D95D03E217
:103F6000F4EC1AF02BD069A627D00501126B040ED1
:103F7000125D22E268A61CD06CCFA2F1F70E681683
:103F8000780E0101A215016E0150000A03E105EC53
:103F900013F00DD0720E0501156F000E166FA20EF4
:103FA000176F010E186F196B1A6BE0EC02F001D05D
:103FB00003D00501122BDBD7F4EC1AF01200DAC1A2
:103FC000AFF4DBC1B0F4400E0401B16F010EB26F6B
:103FD000DFEC19F01200000E9EBA010E006E120006
:103FE000AECF01F0ABA202D0AB98AB8801C000F01D
:103FF0001200FEC302F0FFC303F002C000F003C0D2
:1040000001F0024A032A00C0E9FF01C0EAFFEE52B4
:1040100001E0F3D70301FE51025C006EFF5103582B
:10402000016E010E005E000E015A120054C400F031
:104030000032009E0032009E0032009E0032009E40
:104040005D0E0024F66E500EF76E000EF722000E85
:10405000F86E000EF8220900F5CF00F055C4E1FF1C
:1040600056C4E2FF00C0E6FF010E04015525E16ED3
:10407000000E5621E26E0F0E5415006E5D0E0024E8
:10408000F66E500EF76E000EF722000EF86E000E60
:10409000F8220900F5CF00F000C0E6FF020E55251A
:1040A000E16E000E5621E26EE66A12000101075130
:1040B000051902E10451061929E004C106F105C100
:1040C00007F181B002D0D88001D0D890000ED8B0CE
:1040D000010E02014B6F81B202D0D88001D0D8907E
:1040E000000ED8B0010E4C6F81B402D0D88001D040
:1040F000D890000ED8B0010E5C6F81B602D0D88087
:1041000001D0D890000ED8B0010E5D6F0201016A97
:1041100081B0012A4B5101185EE0800E006E800EC6
:1041200001010919005C02E10851050851E2086B20
:10413000096B000E81B0010E02014B6F000E0101F0
:104140000B1902E1010E0A1907E0000E0B1902E13A
:10415000020E0A1901E01DD081A81BD0400E0401F7
:10416000F26F060EF36F990EF46F500EF56F000E9E
:10417000F66F4BC2F7F454EC11F00401400EF26FED
:10418000060EF36F400EF46FA6EC11F0005201E141
:10419000F4D702014B530EE00401AF6BFA0EB06F7F
:1041A000000EB16F090EB26F000EB36FB46B91ECDD
:1041B00016F00DD00401AF6BBF0EB06F000EB16FE3
:1041C000080EB26F000EB36FB46B91EC16F003D013
:1041D0000101084B092B016A81B2012A02014C51ED
:1041E00001185EE0800E006E800E0001C919005CAF
:1041F00002E1C851050851E2C86BC96B000E81B2DB
:10420000010E02014C6F000E01010B1902E1010EBB
:104210000A1907E0000E0B1902E1020E0A1901E06B
:104220001DD081A81BD0400E0401F26F060EF36F63
:10423000D30EF46F500EF56F000EF66F4CC2F7F40C
:1042400054EC11F00401400EF26F060EF36F400EB5
:10425000F46FA6EC11F0005201E1F4D702014C53C7
:104260000EE00401AF6BCA0EB06F000EB16F090E05
:10427000B26F000EB36FB46B91EC16F00DD0040169
:10428000AF6BB60EB06F000EB16F080EB26F000EBE
:10429000B36FB46B91EC16F003D00001C84BC92B7F
:1042A000016A81B4012A02015C5101185EE0800EAE
:1042B000006E800E0001A219005C02E1A151050808
:1042C00051E2A16BA26B000E81B4010E02015C6F82
:1042D000000E01010B1902E1010E0A1907E0000EA0
:1042E0000B1902E1020E0A1901E01DD081A81BD0B2
:1042F000400E0401F26F060EF36FCA0EF46F500EFB
:10430000F56F000EF66F5CC2F7F454EC11F0040187
:10431000400EF26F060EF36F400EF46FA6EC11F034
:10432000005201E1F4D702015C530EE00401AF6BCF
:10433000A30EB06F000EB16F090EB26F000EB36F17
:10434000B46B91EC16F00DD00401AF6BAD0EB06FF5
:10435000000EB16F080EB26F000EB36FB46B91EC2C
:1043600016F003D00001A14BA22B016A81B6012AED
:1043700002015D5101185EE0800E006E800E0001AA
:10438000D519005C02E1D451050851E2D46BD56B1C
:10439000000E81B6010E02015D6F000E01010B19C6
:1043A00002E1010E0A1907E0000E0B1902E1020EEC
:1043B0000A1901E01DD081A81BD0400E0401F26F44
:1043C000060EF36FC10EF46F500EF56F000EF66F10
:1043D0005DC2F7F454EC11F00401400EF26F060ECA
:1043E000F36F400EF46FA6EC11F0005201E1F4D728
:1043F00002015D530EE00401AF6BE70EB06F000EDB
:10440000B16F090EB26F000EB36FB46B91EC16F082
:104410000DD00401AF6BF10EB06F000EB16F080E3E
:10442000B26F000EB36FB46B91EC16F003D00001C5
:10443000D44BD52B12000301FE6BFF6B04015B6BA9
:104440005C6B0301FE6BFF6B800EFF19006E800E2C
:10445000005C02E1100EFE5D3EE2FE5104015625B5
:10446000E96E0301FF5104015721EA6EEECF58F4C3
:10447000010E0301FE25006E000EFF21016E0050AB
:1044800004015625E96E01505721EA6EEECF59F42A
:104490005A6B580EAF6F040EB06F2FEC1AF05B51D1
:1044A0005425AF6F00C0B0F415EC1AF0020E0B6E7D
:1044B000380E0C6EAD0E0D6E0D2EFED70C2EFCD7E9
:1044C0000B2EFAD704015B4B5C2B020E0301FE2777
:1044D000000EFF23B9D712000301FE6BFF6B800EA5
:1044E000FF19006E800E04015719005C03E156515C
:1044F0000301FE5D12E20301FE5104015425E96E41
:104500000301FF5104015521EA6EEECFF2F407ECEE
:1045100012F00301FE4BFF2BE2D712007AEC28F0D9
:104520007C0E0301FA6FFB6B3D0E0B6EE10E0C6E01
:104530003F0E0D6E0D2EFED70C2EFCD70B2EFAD78C
:1045400000000000B886040EB06EE10EAF6EAC84C1
:10455000F6EC1AF017EC1EF00301F26BF36B800E11
:10456000F319006E800E005C02E10A0EF25D37E284
:10457000F2C300F0F3C301F0003600900136400EA4
:104580000024FC6F040E0120FD6F1E0EFE6F000E56
:10459000FF6F5AEC1EF0FCC3E1FFFDC3E2FF00C059
:1045A000E6FF01C0E6FFF2C300F0F3C301F00036FE
:1045B00000900136400E0024E96E040E0120EA6EE0
:1045C000EECF01F0EECF02F0000E021802E1000E75
:1045D0000118D8B489860301F24BF32BC0D792900F
:1045E00089909292899292948994929689969380D6
:1045F0009382938493869386938A0F0EC2120F0E32
:10460000C1120F0EC012070EB412F28EF28C9D8AE8
:10461000F26BF36B800EF319006E800E005C02E10A
:10462000020EF25DD8B096D0F2C300F0F3C301F0F1
:10463000003600900136003600900136430E002609
:10464000020E012200C0FCF301C0FDF3030E016E57
:10465000F2C300F0015004E000360090FF0FFBD7DA
:104660000050010F0401AF6FE3EC13F0FCC3E1FF56
:10467000FDC3E2FF00C0E6FF000EE66EF2C300F0ED
:10468000F3C301F000360090013600360090013689
:10469000430E0026020E0122020E00240301FC6FCD
:1046A000000E0120FD6F080EFE6F000EFF6F5AEC2A
:1046B0001EF0FCC3E1FFFDC3E2FF00C0E6FF01C046
:1046C000E6FF020E0B6E380E0C6EAD0E0D6E0D2E4B
:1046D000FED70C2EFCD70B2EFAD7030E026EF2C3B8
:1046E00000F0F3C301F0025005E0003600900136FF
:1046F000FF0FFAD7020E00240401546F000E0120B0
:10470000556FF2C300F0F3C301F00036009001369C
:10471000003600900136430E0026020E0122020EE2
:104720000024E96E000E0120EA6EEECF56F4EECFC3
:1047300057F413EC1FF0020E0B6E380E0C6EAD0E1C
:104740000D6E0D2EFED70C2EFCD70B2EFAD7F24B8A
:10475000F32B60D781A80BD0000E0401546F060E16
:10476000556F400E566F060E576F7EEC1EF001011E
:104770000A6B0B6B00016451010A03E1646B22ECCC
:104780001BF094DC81A854D31ADC0050000AD8B482
:104790004FD30301F26BF36B8970000E0401F26FCB
:1047A000060EF36F0D0EF46F30EC11F000C0F2F452
:1047B00001C0F3F40A0E0401F46F30EC11F000C0F4
:1047C000F2F401C0F3F4FA0E0401F46F030EF56F76
:1047D0001DEC10F000C040F401C041F40301F24BA5
:1047E000F32BF2C300F0F3C301F000360090013662
:1047F000400E0024FC6F040E0120FD6F0401F26BDB
:10480000F36BFA0EF46F030EF56F1DEC10F0FCC3A2
:10481000E1FFFDC3E2FF00C0E6FF01C0E6FFF2C317
:1048200000F0F3C301F0003600900136400E002482
:10483000E96E040E0120EA6EEECF01F0EECF02F039
:10484000000E021802E1000E0118C8E140C4F2F4A3
:1048500041C4F3F4650E0401F46F000EF56FE1EC52
:1048600011F0000E011802E1000E001831E1400EB7
:104870000401F26F060EF36F790EF46F500EF56FB0
:10488000000EF66F54EC11F00401400EF26F060EAC
:10489000F36F400EF46FA6EC11F0005201E1F4D773
:1048A0000401AF6B010EB06F15EC1AF014EC1EF0A2
:1048B0003D0E0B6EE10E0C6E3F0E0D6E0D2EFED7F3
:1048C0000C2EFCD70B2EFAD700000000FF00B0D250
:1048D00040C4F2F441C4F3F48E0E0401F46F000EF0
:1048E000F56FE1EC11F0000E011802E1000E001866
:1048F00038E142C4F2F443C4F3F4880E0401F46FC7
:10490000000EF56FE1EC11F0000E011802E1000E4F
:10491000001826E144C4FEF345C4FFF397EC1EF0F3
:1049200000C00AF101C00BF1400EF26F060EF36FEA
:10493000AD0EF46F500EF56F000EF66F00C0F7F479
:1049400001C0F8F454EC11F00401400EF26F060EB1
:10495000F36F400EF46FA6EC11F0005201E1F4D7B2
:1049600067D240C4F2F441C4F3F4940E0401F46F2E
:10497000000EF56FE1EC11F0000E011802E1000EDF
:10498000001814E142C4FEF343C4FFF3F9EC1FF036
:1049900000C0B2F401C0B3F40401AF6B42C4B0F480
:1049A00043C4B1F4B46B91EC16F042D2040140C49C
:1049B000F2F441C4F3F4920EF46F000EF56FE1ECE3
:1049C00011F0000E011802E1000E00181AE1400E6D
:1049D0000401F26F060EF36FEE0EF46F4F0EF56FDB
:1049E000000EF66F54EC11F00401400EF26F060E4B
:1049F000F36F400EF46FA6EC11F0005201E1F4D712
:104A000017D240C4F2F441C4F3F4830E0401F46FEE
:104A1000000EF56FE1EC11F0000E011802E1000E3E
:104A2000001801E105D240C4F2F441C4F3F4710E60
:104A30000401F46F000EF56FE1EC11F0000E0118A7
:104A400002E1000E0018D8A4F3D142C4F2F443C42A
:104A5000F3F46D0E0401F46F000EF56FE1EC11F04C
:104A6000000E011802E1000E0018D8A4F6D044C4CC
:104A7000F2F445C4F3F47C0E0401F46F000EF56FFC
:104A8000E1EC11F0000E011802E1000E0018D8A4AC
:104A9000E3D00301F46BF56B46C4FEF347C4FFF3A8
:104AA00097EC1EF000C0F4F301C0F5F3800E026E27
:104AB000800E0118025C02E100500008D8B0CCD092
:104AC000010E0301F45D016E000EF559026E800EB9
:104AD0000218006E800E005C02E1020E015CD8B08C
:104AE000BBD048C4FEF349C4FFF397EC1EF000C0EE
:104AF000EEF301C0EFF3000E011802E1000E001802
:104B000008E0000E0301EF1902E1010EEE1901E0C9
:104B1000A3D00301010EF45D036E000EF559046E7F
:104B2000030E026E03C000F004C001F0025005E065
:104B3000003600900136FF0FFAD7010E0024040161
:104B4000546F000E0120556F48C456F449C457F401
:104B500072DC010EF45D036E000EF559046E030E57
:104B6000026E03C000F004C001F0025005E0003600
:104B700000900136FF0FFAD7020E00240401546F93
:104B8000000E0120556F4AC456F44BC457F453DC51
:104B9000010EF45D036E000EF559046E030E026EF5
:104BA00003C000F004C001F0025005E000360090A0
:104BB0000136FF0FFAD7010E00240401546F000ED6
:104BC0000120556FF2C300F0F3C301F000360090EE
:104BD0000136003600900136430E0024E96E020EC5
:104BE0000120EA6EEECF56F4EECF57F413EC1FF02F
:104BF000010EF45D036E000EF559046E030E026E95
:104C000003C000F004C001F0025005E0003600903F
:104C10000136FF0FFAD7020E00240401546F000E74
:104C20000120556FF2C300F0F3C301F0003600908D
:104C30000136003600900136430E0026020E012296
:104C4000020E0024E96E000E0120EA6EEECF56F44B
:104C5000EECF57F413EC1FF0EBD042C4F2F443C490
:104C6000F3F4780E0401F46F000EF56FE1EC11F02F
:104C7000000E011802E1000E0018D8A4BDD044C4F3
:104C8000F2F445C4F3F43B0E0401F46F000EF56F2B
:104C9000E1EC11F0000E011802E1000E0018D8A49A
:104CA000AAD00301F86BF96B46C4FEF347C4FFF3C7
:104CB00097EC1EF000C0F8F301C0F9F3800E026E0D
:104CC000800E0118025C02E100500008D8B093D0B9
:104CD000010E0301F85D016E000EF959026E800E9F
:104CE0000218006E800E005C02E1020E015CD8B07A
:104CF00082D0F66BF76BF06BF16B800EF119006EE2
:104D0000800E005C02E1080EF05D39E2010EF85DF4
:104D1000036E000EF959046E03C000F004C001F0E8
:104D2000003600900136003600900136430E002612
:104D3000020E0122020E0024E96E000E0120EA6E2E
:104D4000EECF00F0EECF01F0F0510024E96EF1510A
:104D50000120EA6EEECF54F4300EF6250401556FB3
:104D6000040E0301F7210401566F16EC20F0020E29
:104D70000301F627000EF723F04BF12BBED7400EB0
:104D80000401F26F060EF36FD60EF46F4F0EF56F3F
:104D9000000EF66FF8C3F7F4F9C3F8F4300EF96FAC
:104DA000040EFA6F010E0301F85D036E000EF9594F
:104DB000046E03C000F004C001F00036009001361C
:104DC000003600900136430E0024E96E020E0120E9
:104DD000EA6EEECFFBF4EECFFCF454EC11F00401DC
:104DE000400EF26F060EF36F400EF46FA6EC11F05A
:104DF000005201E1F4D71CD042C4F2F443C4F3F4EE
:104E0000380E0401F46F000EF56FE1EC11F0000EA6
:104E1000011802E1000E00180BE1460E0401546F68
:104E2000000E556F080E566F000E576F6CEC22F097
:104E3000A1D40D2EFED70C2EFCD70000FFD74F4675
:104E400046004F4E004F4E00320031004D59004495
:104E50004556494345004F5554007E000408014D16
:104E600059504F4646004F4646004F4E004F4E00A9
:104E7000330034004F4646000055504752414445E8
:104E800000534554005A49474245450047455400A0
:104E90004445564943450052454144004445425526
:104EA0004700534554003F0053454E440000000066
:104EB0006E756C6C0000004F55547C337C4F464639
:104EC000004F55547C337C4F4E004F55547C327C00
:104ED0004F4E004F55547C317C4F4E0000004F55D3
:104EE000547C327C4F464600000063005A494742DA
:104EF00045457C4A4F494E45440A004F55547C3441
:104F00007C4F4646004F55547C347C4F4E004F55E5
:104F1000547C317C4F464600FFFF0000000000003B
:104F20005A49474245457C4A4F494E45440A005A32
:104F300049474245457C4A4F494E45440A005A4933
:104F4000474245457C4A4F494E45440A00090229DB
:104F50000001010080320904000002030000000982
:104F60002101010001222100070581034000010702
:104F700005010340000122034B00500050002000B7
:104F80005A00690067006200650065002000420069
:104F90006F006100720064000600FF0901A10119A1
:104FA000012940150026FF0075089540810219016E
:104FB0002940750895409102C05A49474245457CB1
:104FC0004E4F4E4554574F524B7C41434B20464128
:104FD000494C45440A005A49474245457C44455698
:104FE0004943457C25647C25737C25640A004B502D
:104FF00050205A494742454520424F41524420568D
:10500000312E310A005A49474245457C4E4F4E45A4
:1050100054574F524B0A005A49474245457C4E4F20
:105020004E4554574F524B0A001201000200000037
:105030000801000200010001020301303132333463
:1050400035363738394142434445460030313233F2
:105050003435363738396162636465660030313221
:105060003334353637383941424344454601000828
:105070000040000002001000805550475241444952
:105080004E470A005A49474245457C25730A0001AC
:10509000000A006400E8031027494E20317C257582
:1050A000200A000A5061636B65743A20004445424F
:1050B00055477C25640A000A03550053004200341A
:1050C00000494E20347C25750A00494E20337C254A
:1050D000750A00494E20327C25750A0008034B00F2
:1050E00050005000010010000001001004030904EA
:1050F000255800FF10EE2AF00F0E006E020E016E12
:105100003E0EF66E4E0EF76E000EF86E0BEC1FF0B4
:105110001200FFFFFFFFFFFFFFFFFFFFFFFFFFFF8B
:020000040030CA
:0E000000240E3F1EFF8081FF0FC00FE00F4057
:00000001FF
